{"contracts/Game.sol":{"Game":{"abi":[{"inputs":[{"internalType":"address","name":"_priceFeed","type":"address"},{"internalType":"uint256","name":"_players","type":"uint256"},{"internalType":"uint256","name":"_ticketPrice","type":"uint256"},{"internalType":"uint256","name":"_period","type":"uint256"}],"stateMutability":"nonpayable","type":"constructor"},{"anonymous":false,"inputs":[{"indexed":false,"internalType":"string","name":"_name","type":"string"},{"indexed":false,"internalType":"uint256","name":"_choice","type":"uint256"}],"name":"playerAdded","type":"event"},{"inputs":[],"name":"calculateRange","outputs":[],"stateMutability":"nonpayable","type":"function"},{"inputs":[{"internalType":"bytes","name":"","type":"bytes"}],"name":"checkUpkeep","outputs":[{"internalType":"bool","name":"upkeepNeeded","type":"bool"},{"internalType":"bytes","name":"","type":"bytes"}],"stateMutability":"view","type":"function"},{"inputs":[{"internalType":"uint256","name":"","type":"uint256"}],"name":"choiceToCoin","outputs":[{"internalType":"int256","name":"open","type":"int256"},{"internalType":"int256","name":"close","type":"int256"},{"internalType":"int256","name":"range","type":"int256"}],"stateMutability":"view","type":"function"},{"inputs":[],"name":"counter","outputs":[{"internalType":"uint256","name":"","type":"uint256"}],"stateMutability":"view","type":"function"},{"inputs":[{"internalType":"uint256","name":"","type":"uint256"}],"name":"counterToPlayer","outputs":[{"internalType":"string","name":"name","type":"string"},{"internalType":"address","name":"wallet","type":"address"},{"internalType":"uint256","name":"choice","type":"uint256"},{"internalType":"int256","name":"open","type":"int256"},{"internalType":"int256","name":"close","type":"int256"},{"internalType":"int256","name":"range","type":"int256"}],"stateMutability":"view","type":"function"},{"inputs":[],"name":"endGame","outputs":[],"stateMutability":"nonpayable","type":"function"},{"inputs":[],"name":"getBalance","outputs":[{"internalType":"uint256","name":"","type":"uint256"}],"stateMutability":"view","type":"function"},{"inputs":[],"name":"getTimestamp","outputs":[{"internalType":"uint256","name":"","type":"uint256"}],"stateMutability":"view","type":"function"},{"inputs":[{"internalType":"uint256","name":"_option","type":"uint256"}],"name":"optionToOpenPrice","outputs":[{"internalType":"int256","name":"","type":"int256"}],"stateMutability":"nonpayable","type":"function"},{"inputs":[],"name":"paused","outputs":[{"internalType":"bool","name":"","type":"bool"}],"stateMutability":"view","type":"function"},{"inputs":[{"internalType":"bytes","name":"","type":"bytes"}],"name":"performUpkeep","outputs":[],"stateMutability":"nonpayable","type":"function"},{"inputs":[],"name":"period","outputs":[{"internalType":"uint256","name":"","type":"uint256"}],"stateMutability":"view","type":"function"},{"inputs":[],"name":"pickWinner","outputs":[{"components":[{"internalType":"string","name":"name","type":"string"},{"internalType":"address","name":"wallet","type":"address"},{"internalType":"uint256","name":"choice","type":"uint256"},{"internalType":"int256","name":"open","type":"int256"},{"internalType":"int256","name":"close","type":"int256"},{"internalType":"int256","name":"range","type":"int256"}],"internalType":"struct Game.Player","name":"","type":"tuple"}],"stateMutability":"nonpayable","type":"function"},{"inputs":[],"name":"players","outputs":[{"internalType":"uint256","name":"","type":"uint256"}],"stateMutability":"view","type":"function"},{"inputs":[],"name":"start","outputs":[{"internalType":"uint256","name":"","type":"uint256"}],"stateMutability":"view","type":"function"},{"inputs":[],"name":"startGame","outputs":[],"stateMutability":"nonpayable","type":"function"},{"inputs":[{"internalType":"string","name":"_name","type":"string"},{"internalType":"uint256","name":"_choice","type":"uint256"}],"name":"takePart","outputs":[{"components":[{"internalType":"string","name":"name","type":"string"},{"internalType":"address","name":"wallet","type":"address"},{"internalType":"uint256","name":"choice","type":"uint256"},{"internalType":"int256","name":"open","type":"int256"},{"internalType":"int256","name":"close","type":"int256"},{"internalType":"int256","name":"range","type":"int256"}],"internalType":"struct Game.Player","name":"","type":"tuple"}],"stateMutability":"nonpayable","type":"function"},{"inputs":[],"name":"ticketPrice","outputs":[{"internalType":"uint256","name":"","type":"uint256"}],"stateMutability":"view","type":"function"},{"inputs":[],"name":"winner","outputs":[{"internalType":"string","name":"name","type":"string"},{"internalType":"address","name":"wallet","type":"address"},{"internalType":"uint256","name":"choice","type":"uint256"},{"internalType":"int256","name":"open","type":"int256"},{"internalType":"int256","name":"close","type":"int256"},{"internalType":"int256","name":"range","type":"int256"}],"stateMutability":"view","type":"function"},{"inputs":[],"name":"winnerAddress","outputs":[{"internalType":"address","name":"","type":"address"}],"stateMutability":"view","type":"function"},{"inputs":[],"name":"winnerName","outputs":[{"internalType":"string","name":"","type":"string"}],"stateMutability":"view","type":"function"},{"inputs":[],"name":"winnerRange","outputs":[{"internalType":"int256","name":"","type":"int256"}],"stateMutability":"view","type":"function"}],"evm":{"bytecode":{"linkReferences":{},"object":"60806040526001600f60006101000a81548160ff0219169083151502179055503480156200002c57600080fd5b506040516200276a3803806200276a833981810160405281019062000052919062000157565b83600960006101000a81548173ffffffffffffffffffffffffffffffffffffffff021916908373ffffffffffffffffffffffffffffffffffffffff16021790555082600a8190555081600b8190555080600d8190555050505050620001c9565b600080fd5b600073ffffffffffffffffffffffffffffffffffffffff82169050919050565b6000620000e482620000b7565b9050919050565b620000f681620000d7565b81146200010257600080fd5b50565b6000815190506200011681620000eb565b92915050565b6000819050919050565b62000131816200011c565b81146200013d57600080fd5b50565b600081519050620001518162000126565b92915050565b60008060008060808587031215620001745762000173620000b2565b5b6000620001848782880162000105565b9450506020620001978782880162000140565b9350506040620001aa8782880162000140565b9250506060620001bd8782880162000140565b91505092959194509250565b61259180620001d96000396000f3fe608060405234801561001057600080fd5b50600436106101425760003560e01c806370f838aa116100b8578063dc0b35641161007c578063dc0b356414610339578063dfbf53ae14610357578063e2ba53f01461037a578063e9fc9ced14610398578063ed7a4e0b146103c8578063ef78d4fd146103e657610142565b806370f838aa146102b95780639e2ab372146102c3578063acc591c7146102e1578063be9a655514610311578063d65ab5f21461032f57610142565b806350e757c61161010a57806350e757c6146101f25780635c975abb146102245780635d495aea1461024257806361bc221a146102605780636cbc2ded1461027e5780636e04ff0d1461028857610142565b806312065fe0146101475780631209b1f614610165578063188ec356146101835780632d487eba146101a15780634585e33b146101d6575b600080fd5b61014f610404565b60405161015c91906119b0565b60405180910390f35b61016d61040c565b60405161017a91906119b0565b60405180910390f35b61018b610412565b60405161019891906119b0565b60405180910390f35b6101bb60048036038101906101b69190611a01565b61041a565b6040516101cd96959493929190611b18565b60405180910390f35b6101f060048036038101906101eb9190611be5565b6104fe565b005b61020c60048036038101906102079190611a01565b610522565b60405161021b93929190611c32565b60405180910390f35b61022c61054c565b6040516102399190611c84565b60405180910390f35b61024a61055f565b6040516102579190611d9f565b60405180910390f35b610268610a46565b60405161027591906119b0565b60405180910390f35b610286610a4c565b005b6102a2600480360381019061029d9190611be5565b610e9c565b6040516102b0929190611e16565b60405180910390f35b6102c1610eda565b005b6102cb610f91565b6040516102d89190611e46565b60405180910390f35b6102fb60048036038101906102f69190611eb7565b610f97565b6040516103089190611d9f565b60405180910390f35b61031961112b565b60405161032691906119b0565b60405180910390f35b610337611131565b005b6103416111ca565b60405161034e91906119b0565b60405180910390f35b61035f6111d0565b60405161037196959493929190611b18565b60405180910390f35b6103826112a2565b60405161038f9190611f17565b60405180910390f35b6103b260048036038101906103ad9190611a01565b611330565b6040516103bf9190611e46565b60405180910390f35b6103d061191f565b6040516103dd9190611f39565b60405180910390f35b6103ee611945565b6040516103fb91906119b0565b60405180910390f35b600047905090565b600b5481565b600042905090565b601060205280600052604060002060009150905080600001805461043d90611f83565b80601f016020809104026020016040519081016040528092919081815260200182805461046990611f83565b80156104b65780601f1061048b576101008083540402835291602001916104b6565b820191906000526020600020905b81548152906001019060200180831161049957829003601f168201915b5050505050908060010160009054906101000a900473ffffffffffffffffffffffffffffffffffffffff16908060020154908060030154908060040154908060050154905086565b600d54600e544261050f9190611fe3565b111561051e5761051d610a4c565b5b5050565b60116020528060005260406000206000915090508060000154908060010154908060020154905083565b600f60009054906101000a900460ff1681565b61056761194b565b600080600060106000600181526020019081526020016000206040518060c001604052908160008201805461059b90611f83565b80601f01602080910402602001604051908101604052809291908181526020018280546105c790611f83565b80156106145780601f106105e957610100808354040283529160200191610614565b820191906000526020600020905b8154815290600101906020018083116105f757829003601f168201915b505050505081526020016001820160009054906101000a900473ffffffffffffffffffffffffffffffffffffffff1673ffffffffffffffffffffffffffffffffffffffff1673ffffffffffffffffffffffffffffffffffffffff16815260200160028201548152602001600382015481526020016004820154815260200160058201548152505090506000600190505b600c54811015610832578160a001519350601060006001836106c69190612017565b81526020019081526020016000206005015492508383131561081f57601060006001836106f39190612017565b81526020019081526020016000206040518060c001604052908160008201805461071c90611f83565b80601f016020809104026020016040519081016040528092919081815260200182805461074890611f83565b80156107955780601f1061076a57610100808354040283529160200191610795565b820191906000526020600020905b81548152906001019060200180831161077857829003601f168201915b505050505081526020016001820160009054906101000a900473ffffffffffffffffffffffffffffffffffffffff1673ffffffffffffffffffffffffffffffffffffffff1673ffffffffffffffffffffffffffffffffffffffff16815260200160028201548152602001600382015481526020016004820154815260200160058201548152505091505b808061082a9061204b565b9150506106a4565b508060008082015181600001908161084a919061226e565b5060208201518160010160006101000a81548173ffffffffffffffffffffffffffffffffffffffff021916908373ffffffffffffffffffffffffffffffffffffffff16021790555060408201518160020155606082015181600301556080820151816004015560a082015181600501559050508060000151600690816108d0919061226e565b508060a001516007819055508060200151600860006101000a81548173ffffffffffffffffffffffffffffffffffffffff021916908373ffffffffffffffffffffffffffffffffffffffff16021790555060006040518060c001604052908160008201805461093e90611f83565b80601f016020809104026020016040519081016040528092919081815260200182805461096a90611f83565b80156109b75780601f1061098c576101008083540402835291602001916109b7565b820191906000526020600020905b81548152906001019060200180831161099a57829003601f168201915b505050505081526020016001820160009054906101000a900473ffffffffffffffffffffffffffffffffffffffff1673ffffffffffffffffffffffffffffffffffffffff1673ffffffffffffffffffffffffffffffffffffffff168152602001600282015481526020016003820154815260200160048201548152602001600582015481525050935050505090565b600c5481565b6000806000600190505b6001600c54610a659190612017565b811015610e74576010600082815260200190815260200160002060020154925060018303610b2557600960009054906101000a900473ffffffffffffffffffffffffffffffffffffffff1673ffffffffffffffffffffffffffffffffffffffff16630f00fa116040518163ffffffff1660e01b8152600401602060405180830381865afa158015610afa573d6000803e3d6000fd5b505050506040513d601f19601f82011682018060405250810190610b1e919061236c565b9150610e46565b60028303610bc557600960009054906101000a900473ffffffffffffffffffffffffffffffffffffffff1673ffffffffffffffffffffffffffffffffffffffff166394e992566040518163ffffffff1660e01b8152600401602060405180830381865afa158015610b9a573d6000803e3d6000fd5b505050506040513d601f19601f82011682018060405250810190610bbe919061236c565b9150610e45565b60038303610c6557600960009054906101000a900473ffffffffffffffffffffffffffffffffffffffff1673ffffffffffffffffffffffffffffffffffffffff1663566a0c276040518163ffffffff1660e01b8152600401602060405180830381865afa158015610c3a573d6000803e3d6000fd5b505050506040513d601f19601f82011682018060405250810190610c5e919061236c565b9150610e44565b60048303610d0557600960009054906101000a900473ffffffffffffffffffffffffffffffffffffffff1673ffffffffffffffffffffffffffffffffffffffff1663f77e499c6040518163ffffffff1660e01b8152600401602060405180830381865afa158015610cda573d6000803e3d6000fd5b505050506040513d601f19601f82011682018060405250810190610cfe919061236c565b9150610e43565b60058303610da557600960009054906101000a900473ffffffffffffffffffffffffffffffffffffffff1673ffffffffffffffffffffffffffffffffffffffff1663b4768dd46040518163ffffffff1660e01b8152600401602060405180830381865afa158015610d7a573d6000803e3d6000fd5b505050506040513d601f19601f82011682018060405250810190610d9e919061236c565b9150610e42565b60068303610e4157600960009054906101000a900473ffffffffffffffffffffffffffffffffffffffff1673ffffffffffffffffffffffffffffffffffffffff166314ec67576040518163ffffffff1660e01b8152600401602060405180830381865afa158015610e1a573d6000803e3d6000fd5b505050506040513d601f19601f82011682018060405250810190610e3e919061236c565b91505b5b5b5b5b5b8160106000838152602001908152602001600020600401819055508080610e6c9061204b565b915050610a56565b506001600f60006101000a81548160ff021916908315150217905550610e98610eda565b5050565b60006060600d54600e5442610eb19190611fe3565b118015610ed1575060001515600f60009054906101000a900460ff161515145b91509250929050565b6000806000600190505b6001600c54610ef39190612017565b811015610f8357601060008281526020019081526020016000206003015492506010600082815260200190815260200160002060040154915082670de0b6b3a76400008484610f429190612399565b610f4c91906123dc565b610f569190612483565b60106000838152602001908152602001600020600501819055508080610f7b9061204b565b915050610ee4565b50610f8c61055f565b505050565b60075481565b610f9f61194b565b60006040518060c0016040528086868080601f016020809104026020016040519081016040528093929190818152602001838380828437600081840152601f19601f8201169050808301925050505050505081526020013373ffffffffffffffffffffffffffffffffffffffff1681526020018481526020016000815260200160008152602001600081525090506001600c60008282546110409190612017565b925050819055508060106000600c5481526020019081526020016000206000820151816000019081611072919061226e565b5060208201518160010160006101000a81548173ffffffffffffffffffffffffffffffffffffffff021916908373ffffffffffffffffffffffffffffffffffffffff16021790555060408201518160020155606082015181600301556080820151816004015560a082015181600501559050507f2f725f58ed0934496d3fec4407c56be9acb352bfbc08d44ed17691aaa315ba5685858560405161111893929190612529565b60405180910390a1809150509392505050565b600e5481565b6000806000600190505b6001600c5461114a9190612017565b8110156111a3576010600082815260200190815260200160002060020154925061117383611330565b9150816010600083815260200190815260200160002060030181905550808061119b9061204b565b91505061113b565b5042600e819055506000600f60006101000a81548160ff0219169083151502179055505050565b600a5481565b60008060000180546111e190611f83565b80601f016020809104026020016040519081016040528092919081815260200182805461120d90611f83565b801561125a5780601f1061122f5761010080835404028352916020019161125a565b820191906000526020600020905b81548152906001019060200180831161123d57829003601f168201915b5050505050908060010160009054906101000a900473ffffffffffffffffffffffffffffffffffffffff16908060020154908060030154908060040154908060050154905086565b600680546112af90611f83565b80601f01602080910402602001604051908101604052809291908181526020018280546112db90611f83565b80156113285780601f106112fd57610100808354040283529160200191611328565b820191906000526020600020905b81548152906001019060200180831161130b57829003601f168201915b505050505081565b6000806001830361142e57600060116000600181526020019081526020016000206000015414611379576011600060018152602001908152602001600020600001549050611429565b600960009054906101000a900473ffffffffffffffffffffffffffffffffffffffff1673ffffffffffffffffffffffffffffffffffffffff16630f00fa116040518163ffffffff1660e01b8152600401602060405180830381865afa1580156113e6573d6000803e3d6000fd5b505050506040513d601f19601f8201168201806040525081019061140a919061236c565b9050806011600060018152602001908152602001600020600001819055505b611916565b6002830361152957600060116000600281526020019081526020016000206000015414611474576011600060028152602001908152602001600020600001549050611524565b600960009054906101000a900473ffffffffffffffffffffffffffffffffffffffff1673ffffffffffffffffffffffffffffffffffffffff166394e992566040518163ffffffff1660e01b8152600401602060405180830381865afa1580156114e1573d6000803e3d6000fd5b505050506040513d601f19601f82011682018060405250810190611505919061236c565b9050806011600060028152602001908152602001600020600001819055505b611915565b600383036116245760006011600060038152602001908152602001600020600001541461156f57601160006003815260200190815260200160002060000154905061161f565b600960009054906101000a900473ffffffffffffffffffffffffffffffffffffffff1673ffffffffffffffffffffffffffffffffffffffff1663566a0c276040518163ffffffff1660e01b8152600401602060405180830381865afa1580156115dc573d6000803e3d6000fd5b505050506040513d601f19601f82011682018060405250810190611600919061236c565b9050806011600060038152602001908152602001600020600001819055505b611914565b6004830361171f5760006011600060048152602001908152602001600020600001541461166a57601160006004815260200190815260200160002060000154905061171a565b600960009054906101000a900473ffffffffffffffffffffffffffffffffffffffff1673ffffffffffffffffffffffffffffffffffffffff1663f77e499c6040518163ffffffff1660e01b8152600401602060405180830381865afa1580156116d7573d6000803e3d6000fd5b505050506040513d601f19601f820116820180604052508101906116fb919061236c565b9050806011600060048152602001908152602001600020600001819055505b611913565b6005830361181a57600060116000600581526020019081526020016000206000015414611765576011600060058152602001908152602001600020600001549050611815565b600960009054906101000a900473ffffffffffffffffffffffffffffffffffffffff1673ffffffffffffffffffffffffffffffffffffffff1663b4768dd46040518163ffffffff1660e01b8152600401602060405180830381865afa1580156117d2573d6000803e3d6000fd5b505050506040513d601f19601f820116820180604052508101906117f6919061236c565b9050806011600060058152602001908152602001600020600001819055505b611912565b6006830361191157600060116000600681526020019081526020016000206000015414611860576011600060068152602001908152602001600020600001549050611910565b600960009054906101000a900473ffffffffffffffffffffffffffffffffffffffff1673ffffffffffffffffffffffffffffffffffffffff166314ec67576040518163ffffffff1660e01b8152600401602060405180830381865afa1580156118cd573d6000803e3d6000fd5b505050506040513d601f19601f820116820180604052508101906118f1919061236c565b9050806011600060068152602001908152602001600020600001819055505b5b5b5b5b5b5b80915050919050565b600860009054906101000a900473ffffffffffffffffffffffffffffffffffffffff1681565b600d5481565b6040518060c0016040528060608152602001600073ffffffffffffffffffffffffffffffffffffffff168152602001600081526020016000815260200160008152602001600081525090565b6000819050919050565b6119aa81611997565b82525050565b60006020820190506119c560008301846119a1565b92915050565b600080fd5b600080fd5b6119de81611997565b81146119e957600080fd5b50565b6000813590506119fb816119d5565b92915050565b600060208284031215611a1757611a166119cb565b5b6000611a25848285016119ec565b91505092915050565b600081519050919050565b600082825260208201905092915050565b60005b83811015611a68578082015181840152602081019050611a4d565b60008484015250505050565b6000601f19601f8301169050919050565b6000611a9082611a2e565b611a9a8185611a39565b9350611aaa818560208601611a4a565b611ab381611a74565b840191505092915050565b600073ffffffffffffffffffffffffffffffffffffffff82169050919050565b6000611ae982611abe565b9050919050565b611af981611ade565b82525050565b6000819050919050565b611b1281611aff565b82525050565b600060c0820190508181036000830152611b328189611a85565b9050611b416020830188611af0565b611b4e60408301876119a1565b611b5b6060830186611b09565b611b686080830185611b09565b611b7560a0830184611b09565b979650505050505050565b600080fd5b600080fd5b600080fd5b60008083601f840112611ba557611ba4611b80565b5b8235905067ffffffffffffffff811115611bc257611bc1611b85565b5b602083019150836001820283011115611bde57611bdd611b8a565b5b9250929050565b60008060208385031215611bfc57611bfb6119cb565b5b600083013567ffffffffffffffff811115611c1a57611c196119d0565b5b611c2685828601611b8f565b92509250509250929050565b6000606082019050611c476000830186611b09565b611c546020830185611b09565b611c616040830184611b09565b949350505050565b60008115159050919050565b611c7e81611c69565b82525050565b6000602082019050611c996000830184611c75565b92915050565b600082825260208201905092915050565b6000611cbb82611a2e565b611cc58185611c9f565b9350611cd5818560208601611a4a565b611cde81611a74565b840191505092915050565b611cf281611ade565b82525050565b611d0181611997565b82525050565b611d1081611aff565b82525050565b600060c0830160008301518482036000860152611d338282611cb0565b9150506020830151611d486020860182611ce9565b506040830151611d5b6040860182611cf8565b506060830151611d6e6060860182611d07565b506080830151611d816080860182611d07565b5060a0830151611d9460a0860182611d07565b508091505092915050565b60006020820190508181036000830152611db98184611d16565b905092915050565b600081519050919050565b600082825260208201905092915050565b6000611de882611dc1565b611df28185611dcc565b9350611e02818560208601611a4a565b611e0b81611a74565b840191505092915050565b6000604082019050611e2b6000830185611c75565b8181036020830152611e3d8184611ddd565b90509392505050565b6000602082019050611e5b6000830184611b09565b92915050565b60008083601f840112611e7757611e76611b80565b5b8235905067ffffffffffffffff811115611e9457611e93611b85565b5b602083019150836001820283011115611eb057611eaf611b8a565b5b9250929050565b600080600060408486031215611ed057611ecf6119cb565b5b600084013567ffffffffffffffff811115611eee57611eed6119d0565b5b611efa86828701611e61565b93509350506020611f0d868287016119ec565b9150509250925092565b60006020820190508181036000830152611f318184611a85565b905092915050565b6000602082019050611f4e6000830184611af0565b92915050565b7f4e487b7100000000000000000000000000000000000000000000000000000000600052602260045260246000fd5b60006002820490506001821680611f9b57607f821691505b602082108103611fae57611fad611f54565b5b50919050565b7f4e487b7100000000000000000000000000000000000000000000000000000000600052601160045260246000fd5b6000611fee82611997565b9150611ff983611997565b925082820390508181111561201157612010611fb4565b5b92915050565b600061202282611997565b915061202d83611997565b925082820190508082111561204557612044611fb4565b5b92915050565b600061205682611997565b91507fffffffffffffffffffffffffffffffffffffffffffffffffffffffffffffffff820361208857612087611fb4565b5b600182019050919050565b7f4e487b7100000000000000000000000000000000000000000000000000000000600052604160045260246000fd5b60008190508160005260206000209050919050565b60006020601f8301049050919050565b600082821b905092915050565b6000600883026121247fffffffffffffffffffffffffffffffffffffffffffffffffffffffffffffffff826120e7565b61212e86836120e7565b95508019841693508086168417925050509392505050565b6000819050919050565b600061216b61216661216184611997565b612146565b611997565b9050919050565b6000819050919050565b61218583612150565b61219961219182612172565b8484546120f4565b825550505050565b600090565b6121ae6121a1565b6121b981848461217c565b505050565b5b818110156121dd576121d26000826121a6565b6001810190506121bf565b5050565b601f821115612222576121f3816120c2565b6121fc846120d7565b8101602085101561220b578190505b61221f612217856120d7565b8301826121be565b50505b505050565b600082821c905092915050565b600061224560001984600802612227565b1980831691505092915050565b600061225e8383612234565b9150826002028217905092915050565b61227782611a2e565b67ffffffffffffffff8111156122905761228f612093565b5b61229a8254611f83565b6122a58282856121e1565b600060209050601f8311600181146122d857600084156122c6578287015190505b6122d08582612252565b865550612338565b601f1984166122e6866120c2565b60005b8281101561230e578489015182556001820191506020850194506020810190506122e9565b8683101561232b5784890151612327601f891682612234565b8355505b6001600288020188555050505b505050505050565b61234981611aff565b811461235457600080fd5b50565b60008151905061236681612340565b92915050565b600060208284031215612382576123816119cb565b5b600061239084828501612357565b91505092915050565b60006123a482611aff565b91506123af83611aff565b92508282039050818112600084121682821360008512151617156123d6576123d5611fb4565b5b92915050565b60006123e782611aff565b91506123f283611aff565b925082820261240081611aff565b91507f8000000000000000000000000000000000000000000000000000000000000000841460008412161561243857612437611fb4565b5b828205841483151761244d5761244c611fb4565b5b5092915050565b7f4e487b7100000000000000000000000000000000000000000000000000000000600052601260045260246000fd5b600061248e82611aff565b915061249983611aff565b9250826124a9576124a8612454565b5b600160000383147f8000000000000000000000000000000000000000000000000000000000000000831416156124e2576124e1611fb4565b5b828205905092915050565b82818337600083830152505050565b60006125088385611a39565b93506125158385846124ed565b61251e83611a74565b840190509392505050565b600060408201905081810360008301526125448185876124fc565b905061255360208301846119a1565b94935050505056fea26469706673582212209c2eacb85c8585f1f57de950531d2574d19ad55848ea9cf0e0a165fac3eaf21464736f6c63430008110033","opcodes":"PUSH1 0x80 PUSH1 0x40 MSTORE PUSH1 0x1 PUSH1 0xF PUSH1 0x0 PUSH2 0x100 EXP DUP2 SLOAD DUP2 PUSH1 0xFF MUL NOT AND SWAP1 DUP4 ISZERO ISZERO MUL OR SWAP1 SSTORE POP CALLVALUE DUP1 ISZERO PUSH3 0x2C JUMPI PUSH1 0x0 DUP1 REVERT JUMPDEST POP PUSH1 0x40 MLOAD PUSH3 0x276A CODESIZE SUB DUP1 PUSH3 0x276A DUP4 CODECOPY DUP2 DUP2 ADD PUSH1 0x40 MSTORE DUP2 ADD SWAP1 PUSH3 0x52 SWAP2 SWAP1 PUSH3 0x157 JUMP JUMPDEST DUP4 PUSH1 0x9 PUSH1 0x0 PUSH2 0x100 EXP DUP2 SLOAD DUP2 PUSH20 0xFFFFFFFFFFFFFFFFFFFFFFFFFFFFFFFFFFFFFFFF MUL NOT AND SWAP1 DUP4 PUSH20 0xFFFFFFFFFFFFFFFFFFFFFFFFFFFFFFFFFFFFFFFF AND MUL OR SWAP1 SSTORE POP DUP3 PUSH1 0xA DUP2 SWAP1 SSTORE POP DUP2 PUSH1 0xB DUP2 SWAP1 SSTORE POP DUP1 PUSH1 0xD DUP2 SWAP1 SSTORE POP POP POP POP POP PUSH3 0x1C9 JUMP JUMPDEST PUSH1 0x0 DUP1 REVERT JUMPDEST PUSH1 0x0 PUSH20 0xFFFFFFFFFFFFFFFFFFFFFFFFFFFFFFFFFFFFFFFF DUP3 AND SWAP1 POP SWAP2 SWAP1 POP JUMP JUMPDEST PUSH1 0x0 PUSH3 0xE4 DUP3 PUSH3 0xB7 JUMP JUMPDEST SWAP1 POP SWAP2 SWAP1 POP JUMP JUMPDEST PUSH3 0xF6 DUP2 PUSH3 0xD7 JUMP JUMPDEST DUP2 EQ PUSH3 0x102 JUMPI PUSH1 0x0 DUP1 REVERT JUMPDEST POP JUMP JUMPDEST PUSH1 0x0 DUP2 MLOAD SWAP1 POP PUSH3 0x116 DUP2 PUSH3 0xEB JUMP JUMPDEST SWAP3 SWAP2 POP POP JUMP JUMPDEST PUSH1 0x0 DUP2 SWAP1 POP SWAP2 SWAP1 POP JUMP JUMPDEST PUSH3 0x131 DUP2 PUSH3 0x11C JUMP JUMPDEST DUP2 EQ PUSH3 0x13D JUMPI PUSH1 0x0 DUP1 REVERT JUMPDEST POP JUMP JUMPDEST PUSH1 0x0 DUP2 MLOAD SWAP1 POP PUSH3 0x151 DUP2 PUSH3 0x126 JUMP JUMPDEST SWAP3 SWAP2 POP POP JUMP JUMPDEST PUSH1 0x0 DUP1 PUSH1 0x0 DUP1 PUSH1 0x80 DUP6 DUP8 SUB SLT ISZERO PUSH3 0x174 JUMPI PUSH3 0x173 PUSH3 0xB2 JUMP JUMPDEST JUMPDEST PUSH1 0x0 PUSH3 0x184 DUP8 DUP3 DUP9 ADD PUSH3 0x105 JUMP JUMPDEST SWAP5 POP POP PUSH1 0x20 PUSH3 0x197 DUP8 DUP3 DUP9 ADD PUSH3 0x140 JUMP JUMPDEST SWAP4 POP POP PUSH1 0x40 PUSH3 0x1AA DUP8 DUP3 DUP9 ADD PUSH3 0x140 JUMP JUMPDEST SWAP3 POP POP PUSH1 0x60 PUSH3 0x1BD DUP8 DUP3 DUP9 ADD PUSH3 0x140 JUMP JUMPDEST SWAP2 POP POP SWAP3 SWAP6 SWAP2 SWAP5 POP SWAP3 POP JUMP JUMPDEST PUSH2 0x2591 DUP1 PUSH3 0x1D9 PUSH1 0x0 CODECOPY PUSH1 0x0 RETURN INVALID PUSH1 0x80 PUSH1 0x40 MSTORE CALLVALUE DUP1 ISZERO PUSH2 0x10 JUMPI PUSH1 0x0 DUP1 REVERT JUMPDEST POP PUSH1 0x4 CALLDATASIZE LT PUSH2 0x142 JUMPI PUSH1 0x0 CALLDATALOAD PUSH1 0xE0 SHR DUP1 PUSH4 0x70F838AA GT PUSH2 0xB8 JUMPI DUP1 PUSH4 0xDC0B3564 GT PUSH2 0x7C JUMPI DUP1 PUSH4 0xDC0B3564 EQ PUSH2 0x339 JUMPI DUP1 PUSH4 0xDFBF53AE EQ PUSH2 0x357 JUMPI DUP1 PUSH4 0xE2BA53F0 EQ PUSH2 0x37A JUMPI DUP1 PUSH4 0xE9FC9CED EQ PUSH2 0x398 JUMPI DUP1 PUSH4 0xED7A4E0B EQ PUSH2 0x3C8 JUMPI DUP1 PUSH4 0xEF78D4FD EQ PUSH2 0x3E6 JUMPI PUSH2 0x142 JUMP JUMPDEST DUP1 PUSH4 0x70F838AA EQ PUSH2 0x2B9 JUMPI DUP1 PUSH4 0x9E2AB372 EQ PUSH2 0x2C3 JUMPI DUP1 PUSH4 0xACC591C7 EQ PUSH2 0x2E1 JUMPI DUP1 PUSH4 0xBE9A6555 EQ PUSH2 0x311 JUMPI DUP1 PUSH4 0xD65AB5F2 EQ PUSH2 0x32F JUMPI PUSH2 0x142 JUMP JUMPDEST DUP1 PUSH4 0x50E757C6 GT PUSH2 0x10A JUMPI DUP1 PUSH4 0x50E757C6 EQ PUSH2 0x1F2 JUMPI DUP1 PUSH4 0x5C975ABB EQ PUSH2 0x224 JUMPI DUP1 PUSH4 0x5D495AEA EQ PUSH2 0x242 JUMPI DUP1 PUSH4 0x61BC221A EQ PUSH2 0x260 JUMPI DUP1 PUSH4 0x6CBC2DED EQ PUSH2 0x27E JUMPI DUP1 PUSH4 0x6E04FF0D EQ PUSH2 0x288 JUMPI PUSH2 0x142 JUMP JUMPDEST DUP1 PUSH4 0x12065FE0 EQ PUSH2 0x147 JUMPI DUP1 PUSH4 0x1209B1F6 EQ PUSH2 0x165 JUMPI DUP1 PUSH4 0x188EC356 EQ PUSH2 0x183 JUMPI DUP1 PUSH4 0x2D487EBA EQ PUSH2 0x1A1 JUMPI DUP1 PUSH4 0x4585E33B EQ PUSH2 0x1D6 JUMPI JUMPDEST PUSH1 0x0 DUP1 REVERT JUMPDEST PUSH2 0x14F PUSH2 0x404 JUMP JUMPDEST PUSH1 0x40 MLOAD PUSH2 0x15C SWAP2 SWAP1 PUSH2 0x19B0 JUMP JUMPDEST PUSH1 0x40 MLOAD DUP1 SWAP2 SUB SWAP1 RETURN JUMPDEST PUSH2 0x16D PUSH2 0x40C JUMP JUMPDEST PUSH1 0x40 MLOAD PUSH2 0x17A SWAP2 SWAP1 PUSH2 0x19B0 JUMP JUMPDEST PUSH1 0x40 MLOAD DUP1 SWAP2 SUB SWAP1 RETURN JUMPDEST PUSH2 0x18B PUSH2 0x412 JUMP JUMPDEST PUSH1 0x40 MLOAD PUSH2 0x198 SWAP2 SWAP1 PUSH2 0x19B0 JUMP JUMPDEST PUSH1 0x40 MLOAD DUP1 SWAP2 SUB SWAP1 RETURN JUMPDEST PUSH2 0x1BB PUSH1 0x4 DUP1 CALLDATASIZE SUB DUP2 ADD SWAP1 PUSH2 0x1B6 SWAP2 SWAP1 PUSH2 0x1A01 JUMP JUMPDEST PUSH2 0x41A JUMP JUMPDEST PUSH1 0x40 MLOAD PUSH2 0x1CD SWAP7 SWAP6 SWAP5 SWAP4 SWAP3 SWAP2 SWAP1 PUSH2 0x1B18 JUMP JUMPDEST PUSH1 0x40 MLOAD DUP1 SWAP2 SUB SWAP1 RETURN JUMPDEST PUSH2 0x1F0 PUSH1 0x4 DUP1 CALLDATASIZE SUB DUP2 ADD SWAP1 PUSH2 0x1EB SWAP2 SWAP1 PUSH2 0x1BE5 JUMP JUMPDEST PUSH2 0x4FE JUMP JUMPDEST STOP JUMPDEST PUSH2 0x20C PUSH1 0x4 DUP1 CALLDATASIZE SUB DUP2 ADD SWAP1 PUSH2 0x207 SWAP2 SWAP1 PUSH2 0x1A01 JUMP JUMPDEST PUSH2 0x522 JUMP JUMPDEST PUSH1 0x40 MLOAD PUSH2 0x21B SWAP4 SWAP3 SWAP2 SWAP1 PUSH2 0x1C32 JUMP JUMPDEST PUSH1 0x40 MLOAD DUP1 SWAP2 SUB SWAP1 RETURN JUMPDEST PUSH2 0x22C PUSH2 0x54C JUMP JUMPDEST PUSH1 0x40 MLOAD PUSH2 0x239 SWAP2 SWAP1 PUSH2 0x1C84 JUMP JUMPDEST PUSH1 0x40 MLOAD DUP1 SWAP2 SUB SWAP1 RETURN JUMPDEST PUSH2 0x24A PUSH2 0x55F JUMP JUMPDEST PUSH1 0x40 MLOAD PUSH2 0x257 SWAP2 SWAP1 PUSH2 0x1D9F JUMP JUMPDEST PUSH1 0x40 MLOAD DUP1 SWAP2 SUB SWAP1 RETURN JUMPDEST PUSH2 0x268 PUSH2 0xA46 JUMP JUMPDEST PUSH1 0x40 MLOAD PUSH2 0x275 SWAP2 SWAP1 PUSH2 0x19B0 JUMP JUMPDEST PUSH1 0x40 MLOAD DUP1 SWAP2 SUB SWAP1 RETURN JUMPDEST PUSH2 0x286 PUSH2 0xA4C JUMP JUMPDEST STOP JUMPDEST PUSH2 0x2A2 PUSH1 0x4 DUP1 CALLDATASIZE SUB DUP2 ADD SWAP1 PUSH2 0x29D SWAP2 SWAP1 PUSH2 0x1BE5 JUMP JUMPDEST PUSH2 0xE9C JUMP JUMPDEST PUSH1 0x40 MLOAD PUSH2 0x2B0 SWAP3 SWAP2 SWAP1 PUSH2 0x1E16 JUMP JUMPDEST PUSH1 0x40 MLOAD DUP1 SWAP2 SUB SWAP1 RETURN JUMPDEST PUSH2 0x2C1 PUSH2 0xEDA JUMP JUMPDEST STOP JUMPDEST PUSH2 0x2CB PUSH2 0xF91 JUMP JUMPDEST PUSH1 0x40 MLOAD PUSH2 0x2D8 SWAP2 SWAP1 PUSH2 0x1E46 JUMP JUMPDEST PUSH1 0x40 MLOAD DUP1 SWAP2 SUB SWAP1 RETURN JUMPDEST PUSH2 0x2FB PUSH1 0x4 DUP1 CALLDATASIZE SUB DUP2 ADD SWAP1 PUSH2 0x2F6 SWAP2 SWAP1 PUSH2 0x1EB7 JUMP JUMPDEST PUSH2 0xF97 JUMP JUMPDEST PUSH1 0x40 MLOAD PUSH2 0x308 SWAP2 SWAP1 PUSH2 0x1D9F JUMP JUMPDEST PUSH1 0x40 MLOAD DUP1 SWAP2 SUB SWAP1 RETURN JUMPDEST PUSH2 0x319 PUSH2 0x112B JUMP JUMPDEST PUSH1 0x40 MLOAD PUSH2 0x326 SWAP2 SWAP1 PUSH2 0x19B0 JUMP JUMPDEST PUSH1 0x40 MLOAD DUP1 SWAP2 SUB SWAP1 RETURN JUMPDEST PUSH2 0x337 PUSH2 0x1131 JUMP JUMPDEST STOP JUMPDEST PUSH2 0x341 PUSH2 0x11CA JUMP JUMPDEST PUSH1 0x40 MLOAD PUSH2 0x34E SWAP2 SWAP1 PUSH2 0x19B0 JUMP JUMPDEST PUSH1 0x40 MLOAD DUP1 SWAP2 SUB SWAP1 RETURN JUMPDEST PUSH2 0x35F PUSH2 0x11D0 JUMP JUMPDEST PUSH1 0x40 MLOAD PUSH2 0x371 SWAP7 SWAP6 SWAP5 SWAP4 SWAP3 SWAP2 SWAP1 PUSH2 0x1B18 JUMP JUMPDEST PUSH1 0x40 MLOAD DUP1 SWAP2 SUB SWAP1 RETURN JUMPDEST PUSH2 0x382 PUSH2 0x12A2 JUMP JUMPDEST PUSH1 0x40 MLOAD PUSH2 0x38F SWAP2 SWAP1 PUSH2 0x1F17 JUMP JUMPDEST PUSH1 0x40 MLOAD DUP1 SWAP2 SUB SWAP1 RETURN JUMPDEST PUSH2 0x3B2 PUSH1 0x4 DUP1 CALLDATASIZE SUB DUP2 ADD SWAP1 PUSH2 0x3AD SWAP2 SWAP1 PUSH2 0x1A01 JUMP JUMPDEST PUSH2 0x1330 JUMP JUMPDEST PUSH1 0x40 MLOAD PUSH2 0x3BF SWAP2 SWAP1 PUSH2 0x1E46 JUMP JUMPDEST PUSH1 0x40 MLOAD DUP1 SWAP2 SUB SWAP1 RETURN JUMPDEST PUSH2 0x3D0 PUSH2 0x191F JUMP JUMPDEST PUSH1 0x40 MLOAD PUSH2 0x3DD SWAP2 SWAP1 PUSH2 0x1F39 JUMP JUMPDEST PUSH1 0x40 MLOAD DUP1 SWAP2 SUB SWAP1 RETURN JUMPDEST PUSH2 0x3EE PUSH2 0x1945 JUMP JUMPDEST PUSH1 0x40 MLOAD PUSH2 0x3FB SWAP2 SWAP1 PUSH2 0x19B0 JUMP JUMPDEST PUSH1 0x40 MLOAD DUP1 SWAP2 SUB SWAP1 RETURN JUMPDEST PUSH1 0x0 SELFBALANCE SWAP1 POP SWAP1 JUMP JUMPDEST PUSH1 0xB SLOAD DUP2 JUMP JUMPDEST PUSH1 0x0 TIMESTAMP SWAP1 POP SWAP1 JUMP JUMPDEST PUSH1 0x10 PUSH1 0x20 MSTORE DUP1 PUSH1 0x0 MSTORE PUSH1 0x40 PUSH1 0x0 KECCAK256 PUSH1 0x0 SWAP2 POP SWAP1 POP DUP1 PUSH1 0x0 ADD DUP1 SLOAD PUSH2 0x43D SWAP1 PUSH2 0x1F83 JUMP JUMPDEST DUP1 PUSH1 0x1F ADD PUSH1 0x20 DUP1 SWAP2 DIV MUL PUSH1 0x20 ADD PUSH1 0x40 MLOAD SWAP1 DUP2 ADD PUSH1 0x40 MSTORE DUP1 SWAP3 SWAP2 SWAP1 DUP2 DUP2 MSTORE PUSH1 0x20 ADD DUP3 DUP1 SLOAD PUSH2 0x469 SWAP1 PUSH2 0x1F83 JUMP JUMPDEST DUP1 ISZERO PUSH2 0x4B6 JUMPI DUP1 PUSH1 0x1F LT PUSH2 0x48B JUMPI PUSH2 0x100 DUP1 DUP4 SLOAD DIV MUL DUP4 MSTORE SWAP2 PUSH1 0x20 ADD SWAP2 PUSH2 0x4B6 JUMP JUMPDEST DUP3 ADD SWAP2 SWAP1 PUSH1 0x0 MSTORE PUSH1 0x20 PUSH1 0x0 KECCAK256 SWAP1 JUMPDEST DUP2 SLOAD DUP2 MSTORE SWAP1 PUSH1 0x1 ADD SWAP1 PUSH1 0x20 ADD DUP1 DUP4 GT PUSH2 0x499 JUMPI DUP3 SWAP1 SUB PUSH1 0x1F AND DUP3 ADD SWAP2 JUMPDEST POP POP POP POP POP SWAP1 DUP1 PUSH1 0x1 ADD PUSH1 0x0 SWAP1 SLOAD SWAP1 PUSH2 0x100 EXP SWAP1 DIV PUSH20 0xFFFFFFFFFFFFFFFFFFFFFFFFFFFFFFFFFFFFFFFF AND SWAP1 DUP1 PUSH1 0x2 ADD SLOAD SWAP1 DUP1 PUSH1 0x3 ADD SLOAD SWAP1 DUP1 PUSH1 0x4 ADD SLOAD SWAP1 DUP1 PUSH1 0x5 ADD SLOAD SWAP1 POP DUP7 JUMP JUMPDEST PUSH1 0xD SLOAD PUSH1 0xE SLOAD TIMESTAMP PUSH2 0x50F SWAP2 SWAP1 PUSH2 0x1FE3 JUMP JUMPDEST GT ISZERO PUSH2 0x51E JUMPI PUSH2 0x51D PUSH2 0xA4C JUMP JUMPDEST JUMPDEST POP POP JUMP JUMPDEST PUSH1 0x11 PUSH1 0x20 MSTORE DUP1 PUSH1 0x0 MSTORE PUSH1 0x40 PUSH1 0x0 KECCAK256 PUSH1 0x0 SWAP2 POP SWAP1 POP DUP1 PUSH1 0x0 ADD SLOAD SWAP1 DUP1 PUSH1 0x1 ADD SLOAD SWAP1 DUP1 PUSH1 0x2 ADD SLOAD SWAP1 POP DUP4 JUMP JUMPDEST PUSH1 0xF PUSH1 0x0 SWAP1 SLOAD SWAP1 PUSH2 0x100 EXP SWAP1 DIV PUSH1 0xFF AND DUP2 JUMP JUMPDEST PUSH2 0x567 PUSH2 0x194B JUMP JUMPDEST PUSH1 0x0 DUP1 PUSH1 0x0 PUSH1 0x10 PUSH1 0x0 PUSH1 0x1 DUP2 MSTORE PUSH1 0x20 ADD SWAP1 DUP2 MSTORE PUSH1 0x20 ADD PUSH1 0x0 KECCAK256 PUSH1 0x40 MLOAD DUP1 PUSH1 0xC0 ADD PUSH1 0x40 MSTORE SWAP1 DUP2 PUSH1 0x0 DUP3 ADD DUP1 SLOAD PUSH2 0x59B SWAP1 PUSH2 0x1F83 JUMP JUMPDEST DUP1 PUSH1 0x1F ADD PUSH1 0x20 DUP1 SWAP2 DIV MUL PUSH1 0x20 ADD PUSH1 0x40 MLOAD SWAP1 DUP2 ADD PUSH1 0x40 MSTORE DUP1 SWAP3 SWAP2 SWAP1 DUP2 DUP2 MSTORE PUSH1 0x20 ADD DUP3 DUP1 SLOAD PUSH2 0x5C7 SWAP1 PUSH2 0x1F83 JUMP JUMPDEST DUP1 ISZERO PUSH2 0x614 JUMPI DUP1 PUSH1 0x1F LT PUSH2 0x5E9 JUMPI PUSH2 0x100 DUP1 DUP4 SLOAD DIV MUL DUP4 MSTORE SWAP2 PUSH1 0x20 ADD SWAP2 PUSH2 0x614 JUMP JUMPDEST DUP3 ADD SWAP2 SWAP1 PUSH1 0x0 MSTORE PUSH1 0x20 PUSH1 0x0 KECCAK256 SWAP1 JUMPDEST DUP2 SLOAD DUP2 MSTORE SWAP1 PUSH1 0x1 ADD SWAP1 PUSH1 0x20 ADD DUP1 DUP4 GT PUSH2 0x5F7 JUMPI DUP3 SWAP1 SUB PUSH1 0x1F AND DUP3 ADD SWAP2 JUMPDEST POP POP POP POP POP DUP2 MSTORE PUSH1 0x20 ADD PUSH1 0x1 DUP3 ADD PUSH1 0x0 SWAP1 SLOAD SWAP1 PUSH2 0x100 EXP SWAP1 DIV PUSH20 0xFFFFFFFFFFFFFFFFFFFFFFFFFFFFFFFFFFFFFFFF AND PUSH20 0xFFFFFFFFFFFFFFFFFFFFFFFFFFFFFFFFFFFFFFFF AND PUSH20 0xFFFFFFFFFFFFFFFFFFFFFFFFFFFFFFFFFFFFFFFF AND DUP2 MSTORE PUSH1 0x20 ADD PUSH1 0x2 DUP3 ADD SLOAD DUP2 MSTORE PUSH1 0x20 ADD PUSH1 0x3 DUP3 ADD SLOAD DUP2 MSTORE PUSH1 0x20 ADD PUSH1 0x4 DUP3 ADD SLOAD DUP2 MSTORE PUSH1 0x20 ADD PUSH1 0x5 DUP3 ADD SLOAD DUP2 MSTORE POP POP SWAP1 POP PUSH1 0x0 PUSH1 0x1 SWAP1 POP JUMPDEST PUSH1 0xC SLOAD DUP2 LT ISZERO PUSH2 0x832 JUMPI DUP2 PUSH1 0xA0 ADD MLOAD SWAP4 POP PUSH1 0x10 PUSH1 0x0 PUSH1 0x1 DUP4 PUSH2 0x6C6 SWAP2 SWAP1 PUSH2 0x2017 JUMP JUMPDEST DUP2 MSTORE PUSH1 0x20 ADD SWAP1 DUP2 MSTORE PUSH1 0x20 ADD PUSH1 0x0 KECCAK256 PUSH1 0x5 ADD SLOAD SWAP3 POP DUP4 DUP4 SGT ISZERO PUSH2 0x81F JUMPI PUSH1 0x10 PUSH1 0x0 PUSH1 0x1 DUP4 PUSH2 0x6F3 SWAP2 SWAP1 PUSH2 0x2017 JUMP JUMPDEST DUP2 MSTORE PUSH1 0x20 ADD SWAP1 DUP2 MSTORE PUSH1 0x20 ADD PUSH1 0x0 KECCAK256 PUSH1 0x40 MLOAD DUP1 PUSH1 0xC0 ADD PUSH1 0x40 MSTORE SWAP1 DUP2 PUSH1 0x0 DUP3 ADD DUP1 SLOAD PUSH2 0x71C SWAP1 PUSH2 0x1F83 JUMP JUMPDEST DUP1 PUSH1 0x1F ADD PUSH1 0x20 DUP1 SWAP2 DIV MUL PUSH1 0x20 ADD PUSH1 0x40 MLOAD SWAP1 DUP2 ADD PUSH1 0x40 MSTORE DUP1 SWAP3 SWAP2 SWAP1 DUP2 DUP2 MSTORE PUSH1 0x20 ADD DUP3 DUP1 SLOAD PUSH2 0x748 SWAP1 PUSH2 0x1F83 JUMP JUMPDEST DUP1 ISZERO PUSH2 0x795 JUMPI DUP1 PUSH1 0x1F LT PUSH2 0x76A JUMPI PUSH2 0x100 DUP1 DUP4 SLOAD DIV MUL DUP4 MSTORE SWAP2 PUSH1 0x20 ADD SWAP2 PUSH2 0x795 JUMP JUMPDEST DUP3 ADD SWAP2 SWAP1 PUSH1 0x0 MSTORE PUSH1 0x20 PUSH1 0x0 KECCAK256 SWAP1 JUMPDEST DUP2 SLOAD DUP2 MSTORE SWAP1 PUSH1 0x1 ADD SWAP1 PUSH1 0x20 ADD DUP1 DUP4 GT PUSH2 0x778 JUMPI DUP3 SWAP1 SUB PUSH1 0x1F AND DUP3 ADD SWAP2 JUMPDEST POP POP POP POP POP DUP2 MSTORE PUSH1 0x20 ADD PUSH1 0x1 DUP3 ADD PUSH1 0x0 SWAP1 SLOAD SWAP1 PUSH2 0x100 EXP SWAP1 DIV PUSH20 0xFFFFFFFFFFFFFFFFFFFFFFFFFFFFFFFFFFFFFFFF AND PUSH20 0xFFFFFFFFFFFFFFFFFFFFFFFFFFFFFFFFFFFFFFFF AND PUSH20 0xFFFFFFFFFFFFFFFFFFFFFFFFFFFFFFFFFFFFFFFF AND DUP2 MSTORE PUSH1 0x20 ADD PUSH1 0x2 DUP3 ADD SLOAD DUP2 MSTORE PUSH1 0x20 ADD PUSH1 0x3 DUP3 ADD SLOAD DUP2 MSTORE PUSH1 0x20 ADD PUSH1 0x4 DUP3 ADD SLOAD DUP2 MSTORE PUSH1 0x20 ADD PUSH1 0x5 DUP3 ADD SLOAD DUP2 MSTORE POP POP SWAP2 POP JUMPDEST DUP1 DUP1 PUSH2 0x82A SWAP1 PUSH2 0x204B JUMP JUMPDEST SWAP2 POP POP PUSH2 0x6A4 JUMP JUMPDEST POP DUP1 PUSH1 0x0 DUP1 DUP3 ADD MLOAD DUP2 PUSH1 0x0 ADD SWAP1 DUP2 PUSH2 0x84A SWAP2 SWAP1 PUSH2 0x226E JUMP JUMPDEST POP PUSH1 0x20 DUP3 ADD MLOAD DUP2 PUSH1 0x1 ADD PUSH1 0x0 PUSH2 0x100 EXP DUP2 SLOAD DUP2 PUSH20 0xFFFFFFFFFFFFFFFFFFFFFFFFFFFFFFFFFFFFFFFF MUL NOT AND SWAP1 DUP4 PUSH20 0xFFFFFFFFFFFFFFFFFFFFFFFFFFFFFFFFFFFFFFFF AND MUL OR SWAP1 SSTORE POP PUSH1 0x40 DUP3 ADD MLOAD DUP2 PUSH1 0x2 ADD SSTORE PUSH1 0x60 DUP3 ADD MLOAD DUP2 PUSH1 0x3 ADD SSTORE PUSH1 0x80 DUP3 ADD MLOAD DUP2 PUSH1 0x4 ADD SSTORE PUSH1 0xA0 DUP3 ADD MLOAD DUP2 PUSH1 0x5 ADD SSTORE SWAP1 POP POP DUP1 PUSH1 0x0 ADD MLOAD PUSH1 0x6 SWAP1 DUP2 PUSH2 0x8D0 SWAP2 SWAP1 PUSH2 0x226E JUMP JUMPDEST POP DUP1 PUSH1 0xA0 ADD MLOAD PUSH1 0x7 DUP2 SWAP1 SSTORE POP DUP1 PUSH1 0x20 ADD MLOAD PUSH1 0x8 PUSH1 0x0 PUSH2 0x100 EXP DUP2 SLOAD DUP2 PUSH20 0xFFFFFFFFFFFFFFFFFFFFFFFFFFFFFFFFFFFFFFFF MUL NOT AND SWAP1 DUP4 PUSH20 0xFFFFFFFFFFFFFFFFFFFFFFFFFFFFFFFFFFFFFFFF AND MUL OR SWAP1 SSTORE POP PUSH1 0x0 PUSH1 0x40 MLOAD DUP1 PUSH1 0xC0 ADD PUSH1 0x40 MSTORE SWAP1 DUP2 PUSH1 0x0 DUP3 ADD DUP1 SLOAD PUSH2 0x93E SWAP1 PUSH2 0x1F83 JUMP JUMPDEST DUP1 PUSH1 0x1F ADD PUSH1 0x20 DUP1 SWAP2 DIV MUL PUSH1 0x20 ADD PUSH1 0x40 MLOAD SWAP1 DUP2 ADD PUSH1 0x40 MSTORE DUP1 SWAP3 SWAP2 SWAP1 DUP2 DUP2 MSTORE PUSH1 0x20 ADD DUP3 DUP1 SLOAD PUSH2 0x96A SWAP1 PUSH2 0x1F83 JUMP JUMPDEST DUP1 ISZERO PUSH2 0x9B7 JUMPI DUP1 PUSH1 0x1F LT PUSH2 0x98C JUMPI PUSH2 0x100 DUP1 DUP4 SLOAD DIV MUL DUP4 MSTORE SWAP2 PUSH1 0x20 ADD SWAP2 PUSH2 0x9B7 JUMP JUMPDEST DUP3 ADD SWAP2 SWAP1 PUSH1 0x0 MSTORE PUSH1 0x20 PUSH1 0x0 KECCAK256 SWAP1 JUMPDEST DUP2 SLOAD DUP2 MSTORE SWAP1 PUSH1 0x1 ADD SWAP1 PUSH1 0x20 ADD DUP1 DUP4 GT PUSH2 0x99A JUMPI DUP3 SWAP1 SUB PUSH1 0x1F AND DUP3 ADD SWAP2 JUMPDEST POP POP POP POP POP DUP2 MSTORE PUSH1 0x20 ADD PUSH1 0x1 DUP3 ADD PUSH1 0x0 SWAP1 SLOAD SWAP1 PUSH2 0x100 EXP SWAP1 DIV PUSH20 0xFFFFFFFFFFFFFFFFFFFFFFFFFFFFFFFFFFFFFFFF AND PUSH20 0xFFFFFFFFFFFFFFFFFFFFFFFFFFFFFFFFFFFFFFFF AND PUSH20 0xFFFFFFFFFFFFFFFFFFFFFFFFFFFFFFFFFFFFFFFF AND DUP2 MSTORE PUSH1 0x20 ADD PUSH1 0x2 DUP3 ADD SLOAD DUP2 MSTORE PUSH1 0x20 ADD PUSH1 0x3 DUP3 ADD SLOAD DUP2 MSTORE PUSH1 0x20 ADD PUSH1 0x4 DUP3 ADD SLOAD DUP2 MSTORE PUSH1 0x20 ADD PUSH1 0x5 DUP3 ADD SLOAD DUP2 MSTORE POP POP SWAP4 POP POP POP POP SWAP1 JUMP JUMPDEST PUSH1 0xC SLOAD DUP2 JUMP JUMPDEST PUSH1 0x0 DUP1 PUSH1 0x0 PUSH1 0x1 SWAP1 POP JUMPDEST PUSH1 0x1 PUSH1 0xC SLOAD PUSH2 0xA65 SWAP2 SWAP1 PUSH2 0x2017 JUMP JUMPDEST DUP2 LT ISZERO PUSH2 0xE74 JUMPI PUSH1 0x10 PUSH1 0x0 DUP3 DUP2 MSTORE PUSH1 0x20 ADD SWAP1 DUP2 MSTORE PUSH1 0x20 ADD PUSH1 0x0 KECCAK256 PUSH1 0x2 ADD SLOAD SWAP3 POP PUSH1 0x1 DUP4 SUB PUSH2 0xB25 JUMPI PUSH1 0x9 PUSH1 0x0 SWAP1 SLOAD SWAP1 PUSH2 0x100 EXP SWAP1 DIV PUSH20 0xFFFFFFFFFFFFFFFFFFFFFFFFFFFFFFFFFFFFFFFF AND PUSH20 0xFFFFFFFFFFFFFFFFFFFFFFFFFFFFFFFFFFFFFFFF AND PUSH4 0xF00FA11 PUSH1 0x40 MLOAD DUP2 PUSH4 0xFFFFFFFF AND PUSH1 0xE0 SHL DUP2 MSTORE PUSH1 0x4 ADD PUSH1 0x20 PUSH1 0x40 MLOAD DUP1 DUP4 SUB DUP2 DUP7 GAS STATICCALL ISZERO DUP1 ISZERO PUSH2 0xAFA JUMPI RETURNDATASIZE PUSH1 0x0 DUP1 RETURNDATACOPY RETURNDATASIZE PUSH1 0x0 REVERT JUMPDEST POP POP POP POP PUSH1 0x40 MLOAD RETURNDATASIZE PUSH1 0x1F NOT PUSH1 0x1F DUP3 ADD AND DUP3 ADD DUP1 PUSH1 0x40 MSTORE POP DUP2 ADD SWAP1 PUSH2 0xB1E SWAP2 SWAP1 PUSH2 0x236C JUMP JUMPDEST SWAP2 POP PUSH2 0xE46 JUMP JUMPDEST PUSH1 0x2 DUP4 SUB PUSH2 0xBC5 JUMPI PUSH1 0x9 PUSH1 0x0 SWAP1 SLOAD SWAP1 PUSH2 0x100 EXP SWAP1 DIV PUSH20 0xFFFFFFFFFFFFFFFFFFFFFFFFFFFFFFFFFFFFFFFF AND PUSH20 0xFFFFFFFFFFFFFFFFFFFFFFFFFFFFFFFFFFFFFFFF AND PUSH4 0x94E99256 PUSH1 0x40 MLOAD DUP2 PUSH4 0xFFFFFFFF AND PUSH1 0xE0 SHL DUP2 MSTORE PUSH1 0x4 ADD PUSH1 0x20 PUSH1 0x40 MLOAD DUP1 DUP4 SUB DUP2 DUP7 GAS STATICCALL ISZERO DUP1 ISZERO PUSH2 0xB9A JUMPI RETURNDATASIZE PUSH1 0x0 DUP1 RETURNDATACOPY RETURNDATASIZE PUSH1 0x0 REVERT JUMPDEST POP POP POP POP PUSH1 0x40 MLOAD RETURNDATASIZE PUSH1 0x1F NOT PUSH1 0x1F DUP3 ADD AND DUP3 ADD DUP1 PUSH1 0x40 MSTORE POP DUP2 ADD SWAP1 PUSH2 0xBBE SWAP2 SWAP1 PUSH2 0x236C JUMP JUMPDEST SWAP2 POP PUSH2 0xE45 JUMP JUMPDEST PUSH1 0x3 DUP4 SUB PUSH2 0xC65 JUMPI PUSH1 0x9 PUSH1 0x0 SWAP1 SLOAD SWAP1 PUSH2 0x100 EXP SWAP1 DIV PUSH20 0xFFFFFFFFFFFFFFFFFFFFFFFFFFFFFFFFFFFFFFFF AND PUSH20 0xFFFFFFFFFFFFFFFFFFFFFFFFFFFFFFFFFFFFFFFF AND PUSH4 0x566A0C27 PUSH1 0x40 MLOAD DUP2 PUSH4 0xFFFFFFFF AND PUSH1 0xE0 SHL DUP2 MSTORE PUSH1 0x4 ADD PUSH1 0x20 PUSH1 0x40 MLOAD DUP1 DUP4 SUB DUP2 DUP7 GAS STATICCALL ISZERO DUP1 ISZERO PUSH2 0xC3A JUMPI RETURNDATASIZE PUSH1 0x0 DUP1 RETURNDATACOPY RETURNDATASIZE PUSH1 0x0 REVERT JUMPDEST POP POP POP POP PUSH1 0x40 MLOAD RETURNDATASIZE PUSH1 0x1F NOT PUSH1 0x1F DUP3 ADD AND DUP3 ADD DUP1 PUSH1 0x40 MSTORE POP DUP2 ADD SWAP1 PUSH2 0xC5E SWAP2 SWAP1 PUSH2 0x236C JUMP JUMPDEST SWAP2 POP PUSH2 0xE44 JUMP JUMPDEST PUSH1 0x4 DUP4 SUB PUSH2 0xD05 JUMPI PUSH1 0x9 PUSH1 0x0 SWAP1 SLOAD SWAP1 PUSH2 0x100 EXP SWAP1 DIV PUSH20 0xFFFFFFFFFFFFFFFFFFFFFFFFFFFFFFFFFFFFFFFF AND PUSH20 0xFFFFFFFFFFFFFFFFFFFFFFFFFFFFFFFFFFFFFFFF AND PUSH4 0xF77E499C PUSH1 0x40 MLOAD DUP2 PUSH4 0xFFFFFFFF AND PUSH1 0xE0 SHL DUP2 MSTORE PUSH1 0x4 ADD PUSH1 0x20 PUSH1 0x40 MLOAD DUP1 DUP4 SUB DUP2 DUP7 GAS STATICCALL ISZERO DUP1 ISZERO PUSH2 0xCDA JUMPI RETURNDATASIZE PUSH1 0x0 DUP1 RETURNDATACOPY RETURNDATASIZE PUSH1 0x0 REVERT JUMPDEST POP POP POP POP PUSH1 0x40 MLOAD RETURNDATASIZE PUSH1 0x1F NOT PUSH1 0x1F DUP3 ADD AND DUP3 ADD DUP1 PUSH1 0x40 MSTORE POP DUP2 ADD SWAP1 PUSH2 0xCFE SWAP2 SWAP1 PUSH2 0x236C JUMP JUMPDEST SWAP2 POP PUSH2 0xE43 JUMP JUMPDEST PUSH1 0x5 DUP4 SUB PUSH2 0xDA5 JUMPI PUSH1 0x9 PUSH1 0x0 SWAP1 SLOAD SWAP1 PUSH2 0x100 EXP SWAP1 DIV PUSH20 0xFFFFFFFFFFFFFFFFFFFFFFFFFFFFFFFFFFFFFFFF AND PUSH20 0xFFFFFFFFFFFFFFFFFFFFFFFFFFFFFFFFFFFFFFFF AND PUSH4 0xB4768DD4 PUSH1 0x40 MLOAD DUP2 PUSH4 0xFFFFFFFF AND PUSH1 0xE0 SHL DUP2 MSTORE PUSH1 0x4 ADD PUSH1 0x20 PUSH1 0x40 MLOAD DUP1 DUP4 SUB DUP2 DUP7 GAS STATICCALL ISZERO DUP1 ISZERO PUSH2 0xD7A JUMPI RETURNDATASIZE PUSH1 0x0 DUP1 RETURNDATACOPY RETURNDATASIZE PUSH1 0x0 REVERT JUMPDEST POP POP POP POP PUSH1 0x40 MLOAD RETURNDATASIZE PUSH1 0x1F NOT PUSH1 0x1F DUP3 ADD AND DUP3 ADD DUP1 PUSH1 0x40 MSTORE POP DUP2 ADD SWAP1 PUSH2 0xD9E SWAP2 SWAP1 PUSH2 0x236C JUMP JUMPDEST SWAP2 POP PUSH2 0xE42 JUMP JUMPDEST PUSH1 0x6 DUP4 SUB PUSH2 0xE41 JUMPI PUSH1 0x9 PUSH1 0x0 SWAP1 SLOAD SWAP1 PUSH2 0x100 EXP SWAP1 DIV PUSH20 0xFFFFFFFFFFFFFFFFFFFFFFFFFFFFFFFFFFFFFFFF AND PUSH20 0xFFFFFFFFFFFFFFFFFFFFFFFFFFFFFFFFFFFFFFFF AND PUSH4 0x14EC6757 PUSH1 0x40 MLOAD DUP2 PUSH4 0xFFFFFFFF AND PUSH1 0xE0 SHL DUP2 MSTORE PUSH1 0x4 ADD PUSH1 0x20 PUSH1 0x40 MLOAD DUP1 DUP4 SUB DUP2 DUP7 GAS STATICCALL ISZERO DUP1 ISZERO PUSH2 0xE1A JUMPI RETURNDATASIZE PUSH1 0x0 DUP1 RETURNDATACOPY RETURNDATASIZE PUSH1 0x0 REVERT JUMPDEST POP POP POP POP PUSH1 0x40 MLOAD RETURNDATASIZE PUSH1 0x1F NOT PUSH1 0x1F DUP3 ADD AND DUP3 ADD DUP1 PUSH1 0x40 MSTORE POP DUP2 ADD SWAP1 PUSH2 0xE3E SWAP2 SWAP1 PUSH2 0x236C JUMP JUMPDEST SWAP2 POP JUMPDEST JUMPDEST JUMPDEST JUMPDEST JUMPDEST JUMPDEST DUP2 PUSH1 0x10 PUSH1 0x0 DUP4 DUP2 MSTORE PUSH1 0x20 ADD SWAP1 DUP2 MSTORE PUSH1 0x20 ADD PUSH1 0x0 KECCAK256 PUSH1 0x4 ADD DUP2 SWAP1 SSTORE POP DUP1 DUP1 PUSH2 0xE6C SWAP1 PUSH2 0x204B JUMP JUMPDEST SWAP2 POP POP PUSH2 0xA56 JUMP JUMPDEST POP PUSH1 0x1 PUSH1 0xF PUSH1 0x0 PUSH2 0x100 EXP DUP2 SLOAD DUP2 PUSH1 0xFF MUL NOT AND SWAP1 DUP4 ISZERO ISZERO MUL OR SWAP1 SSTORE POP PUSH2 0xE98 PUSH2 0xEDA JUMP JUMPDEST POP POP JUMP JUMPDEST PUSH1 0x0 PUSH1 0x60 PUSH1 0xD SLOAD PUSH1 0xE SLOAD TIMESTAMP PUSH2 0xEB1 SWAP2 SWAP1 PUSH2 0x1FE3 JUMP JUMPDEST GT DUP1 ISZERO PUSH2 0xED1 JUMPI POP PUSH1 0x0 ISZERO ISZERO PUSH1 0xF PUSH1 0x0 SWAP1 SLOAD SWAP1 PUSH2 0x100 EXP SWAP1 DIV PUSH1 0xFF AND ISZERO ISZERO EQ JUMPDEST SWAP2 POP SWAP3 POP SWAP3 SWAP1 POP JUMP JUMPDEST PUSH1 0x0 DUP1 PUSH1 0x0 PUSH1 0x1 SWAP1 POP JUMPDEST PUSH1 0x1 PUSH1 0xC SLOAD PUSH2 0xEF3 SWAP2 SWAP1 PUSH2 0x2017 JUMP JUMPDEST DUP2 LT ISZERO PUSH2 0xF83 JUMPI PUSH1 0x10 PUSH1 0x0 DUP3 DUP2 MSTORE PUSH1 0x20 ADD SWAP1 DUP2 MSTORE PUSH1 0x20 ADD PUSH1 0x0 KECCAK256 PUSH1 0x3 ADD SLOAD SWAP3 POP PUSH1 0x10 PUSH1 0x0 DUP3 DUP2 MSTORE PUSH1 0x20 ADD SWAP1 DUP2 MSTORE PUSH1 0x20 ADD PUSH1 0x0 KECCAK256 PUSH1 0x4 ADD SLOAD SWAP2 POP DUP3 PUSH8 0xDE0B6B3A7640000 DUP5 DUP5 PUSH2 0xF42 SWAP2 SWAP1 PUSH2 0x2399 JUMP JUMPDEST PUSH2 0xF4C SWAP2 SWAP1 PUSH2 0x23DC JUMP JUMPDEST PUSH2 0xF56 SWAP2 SWAP1 PUSH2 0x2483 JUMP JUMPDEST PUSH1 0x10 PUSH1 0x0 DUP4 DUP2 MSTORE PUSH1 0x20 ADD SWAP1 DUP2 MSTORE PUSH1 0x20 ADD PUSH1 0x0 KECCAK256 PUSH1 0x5 ADD DUP2 SWAP1 SSTORE POP DUP1 DUP1 PUSH2 0xF7B SWAP1 PUSH2 0x204B JUMP JUMPDEST SWAP2 POP POP PUSH2 0xEE4 JUMP JUMPDEST POP PUSH2 0xF8C PUSH2 0x55F JUMP JUMPDEST POP POP POP JUMP JUMPDEST PUSH1 0x7 SLOAD DUP2 JUMP JUMPDEST PUSH2 0xF9F PUSH2 0x194B JUMP JUMPDEST PUSH1 0x0 PUSH1 0x40 MLOAD DUP1 PUSH1 0xC0 ADD PUSH1 0x40 MSTORE DUP1 DUP7 DUP7 DUP1 DUP1 PUSH1 0x1F ADD PUSH1 0x20 DUP1 SWAP2 DIV MUL PUSH1 0x20 ADD PUSH1 0x40 MLOAD SWAP1 DUP2 ADD PUSH1 0x40 MSTORE DUP1 SWAP4 SWAP3 SWAP2 SWAP1 DUP2 DUP2 MSTORE PUSH1 0x20 ADD DUP4 DUP4 DUP1 DUP3 DUP5 CALLDATACOPY PUSH1 0x0 DUP2 DUP5 ADD MSTORE PUSH1 0x1F NOT PUSH1 0x1F DUP3 ADD AND SWAP1 POP DUP1 DUP4 ADD SWAP3 POP POP POP POP POP POP POP DUP2 MSTORE PUSH1 0x20 ADD CALLER PUSH20 0xFFFFFFFFFFFFFFFFFFFFFFFFFFFFFFFFFFFFFFFF AND DUP2 MSTORE PUSH1 0x20 ADD DUP5 DUP2 MSTORE PUSH1 0x20 ADD PUSH1 0x0 DUP2 MSTORE PUSH1 0x20 ADD PUSH1 0x0 DUP2 MSTORE PUSH1 0x20 ADD PUSH1 0x0 DUP2 MSTORE POP SWAP1 POP PUSH1 0x1 PUSH1 0xC PUSH1 0x0 DUP3 DUP3 SLOAD PUSH2 0x1040 SWAP2 SWAP1 PUSH2 0x2017 JUMP JUMPDEST SWAP3 POP POP DUP2 SWAP1 SSTORE POP DUP1 PUSH1 0x10 PUSH1 0x0 PUSH1 0xC SLOAD DUP2 MSTORE PUSH1 0x20 ADD SWAP1 DUP2 MSTORE PUSH1 0x20 ADD PUSH1 0x0 KECCAK256 PUSH1 0x0 DUP3 ADD MLOAD DUP2 PUSH1 0x0 ADD SWAP1 DUP2 PUSH2 0x1072 SWAP2 SWAP1 PUSH2 0x226E JUMP JUMPDEST POP PUSH1 0x20 DUP3 ADD MLOAD DUP2 PUSH1 0x1 ADD PUSH1 0x0 PUSH2 0x100 EXP DUP2 SLOAD DUP2 PUSH20 0xFFFFFFFFFFFFFFFFFFFFFFFFFFFFFFFFFFFFFFFF MUL NOT AND SWAP1 DUP4 PUSH20 0xFFFFFFFFFFFFFFFFFFFFFFFFFFFFFFFFFFFFFFFF AND MUL OR SWAP1 SSTORE POP PUSH1 0x40 DUP3 ADD MLOAD DUP2 PUSH1 0x2 ADD SSTORE PUSH1 0x60 DUP3 ADD MLOAD DUP2 PUSH1 0x3 ADD SSTORE PUSH1 0x80 DUP3 ADD MLOAD DUP2 PUSH1 0x4 ADD SSTORE PUSH1 0xA0 DUP3 ADD MLOAD DUP2 PUSH1 0x5 ADD SSTORE SWAP1 POP POP PUSH32 0x2F725F58ED0934496D3FEC4407C56BE9ACB352BFBC08D44ED17691AAA315BA56 DUP6 DUP6 DUP6 PUSH1 0x40 MLOAD PUSH2 0x1118 SWAP4 SWAP3 SWAP2 SWAP1 PUSH2 0x2529 JUMP JUMPDEST PUSH1 0x40 MLOAD DUP1 SWAP2 SUB SWAP1 LOG1 DUP1 SWAP2 POP POP SWAP4 SWAP3 POP POP POP JUMP JUMPDEST PUSH1 0xE SLOAD DUP2 JUMP JUMPDEST PUSH1 0x0 DUP1 PUSH1 0x0 PUSH1 0x1 SWAP1 POP JUMPDEST PUSH1 0x1 PUSH1 0xC SLOAD PUSH2 0x114A SWAP2 SWAP1 PUSH2 0x2017 JUMP JUMPDEST DUP2 LT ISZERO PUSH2 0x11A3 JUMPI PUSH1 0x10 PUSH1 0x0 DUP3 DUP2 MSTORE PUSH1 0x20 ADD SWAP1 DUP2 MSTORE PUSH1 0x20 ADD PUSH1 0x0 KECCAK256 PUSH1 0x2 ADD SLOAD SWAP3 POP PUSH2 0x1173 DUP4 PUSH2 0x1330 JUMP JUMPDEST SWAP2 POP DUP2 PUSH1 0x10 PUSH1 0x0 DUP4 DUP2 MSTORE PUSH1 0x20 ADD SWAP1 DUP2 MSTORE PUSH1 0x20 ADD PUSH1 0x0 KECCAK256 PUSH1 0x3 ADD DUP2 SWAP1 SSTORE POP DUP1 DUP1 PUSH2 0x119B SWAP1 PUSH2 0x204B JUMP JUMPDEST SWAP2 POP POP PUSH2 0x113B JUMP JUMPDEST POP TIMESTAMP PUSH1 0xE DUP2 SWAP1 SSTORE POP PUSH1 0x0 PUSH1 0xF PUSH1 0x0 PUSH2 0x100 EXP DUP2 SLOAD DUP2 PUSH1 0xFF MUL NOT AND SWAP1 DUP4 ISZERO ISZERO MUL OR SWAP1 SSTORE POP POP POP JUMP JUMPDEST PUSH1 0xA SLOAD DUP2 JUMP JUMPDEST PUSH1 0x0 DUP1 PUSH1 0x0 ADD DUP1 SLOAD PUSH2 0x11E1 SWAP1 PUSH2 0x1F83 JUMP JUMPDEST DUP1 PUSH1 0x1F ADD PUSH1 0x20 DUP1 SWAP2 DIV MUL PUSH1 0x20 ADD PUSH1 0x40 MLOAD SWAP1 DUP2 ADD PUSH1 0x40 MSTORE DUP1 SWAP3 SWAP2 SWAP1 DUP2 DUP2 MSTORE PUSH1 0x20 ADD DUP3 DUP1 SLOAD PUSH2 0x120D SWAP1 PUSH2 0x1F83 JUMP JUMPDEST DUP1 ISZERO PUSH2 0x125A JUMPI DUP1 PUSH1 0x1F LT PUSH2 0x122F JUMPI PUSH2 0x100 DUP1 DUP4 SLOAD DIV MUL DUP4 MSTORE SWAP2 PUSH1 0x20 ADD SWAP2 PUSH2 0x125A JUMP JUMPDEST DUP3 ADD SWAP2 SWAP1 PUSH1 0x0 MSTORE PUSH1 0x20 PUSH1 0x0 KECCAK256 SWAP1 JUMPDEST DUP2 SLOAD DUP2 MSTORE SWAP1 PUSH1 0x1 ADD SWAP1 PUSH1 0x20 ADD DUP1 DUP4 GT PUSH2 0x123D JUMPI DUP3 SWAP1 SUB PUSH1 0x1F AND DUP3 ADD SWAP2 JUMPDEST POP POP POP POP POP SWAP1 DUP1 PUSH1 0x1 ADD PUSH1 0x0 SWAP1 SLOAD SWAP1 PUSH2 0x100 EXP SWAP1 DIV PUSH20 0xFFFFFFFFFFFFFFFFFFFFFFFFFFFFFFFFFFFFFFFF AND SWAP1 DUP1 PUSH1 0x2 ADD SLOAD SWAP1 DUP1 PUSH1 0x3 ADD SLOAD SWAP1 DUP1 PUSH1 0x4 ADD SLOAD SWAP1 DUP1 PUSH1 0x5 ADD SLOAD SWAP1 POP DUP7 JUMP JUMPDEST PUSH1 0x6 DUP1 SLOAD PUSH2 0x12AF SWAP1 PUSH2 0x1F83 JUMP JUMPDEST DUP1 PUSH1 0x1F ADD PUSH1 0x20 DUP1 SWAP2 DIV MUL PUSH1 0x20 ADD PUSH1 0x40 MLOAD SWAP1 DUP2 ADD PUSH1 0x40 MSTORE DUP1 SWAP3 SWAP2 SWAP1 DUP2 DUP2 MSTORE PUSH1 0x20 ADD DUP3 DUP1 SLOAD PUSH2 0x12DB SWAP1 PUSH2 0x1F83 JUMP JUMPDEST DUP1 ISZERO PUSH2 0x1328 JUMPI DUP1 PUSH1 0x1F LT PUSH2 0x12FD JUMPI PUSH2 0x100 DUP1 DUP4 SLOAD DIV MUL DUP4 MSTORE SWAP2 PUSH1 0x20 ADD SWAP2 PUSH2 0x1328 JUMP JUMPDEST DUP3 ADD SWAP2 SWAP1 PUSH1 0x0 MSTORE PUSH1 0x20 PUSH1 0x0 KECCAK256 SWAP1 JUMPDEST DUP2 SLOAD DUP2 MSTORE SWAP1 PUSH1 0x1 ADD SWAP1 PUSH1 0x20 ADD DUP1 DUP4 GT PUSH2 0x130B JUMPI DUP3 SWAP1 SUB PUSH1 0x1F AND DUP3 ADD SWAP2 JUMPDEST POP POP POP POP POP DUP2 JUMP JUMPDEST PUSH1 0x0 DUP1 PUSH1 0x1 DUP4 SUB PUSH2 0x142E JUMPI PUSH1 0x0 PUSH1 0x11 PUSH1 0x0 PUSH1 0x1 DUP2 MSTORE PUSH1 0x20 ADD SWAP1 DUP2 MSTORE PUSH1 0x20 ADD PUSH1 0x0 KECCAK256 PUSH1 0x0 ADD SLOAD EQ PUSH2 0x1379 JUMPI PUSH1 0x11 PUSH1 0x0 PUSH1 0x1 DUP2 MSTORE PUSH1 0x20 ADD SWAP1 DUP2 MSTORE PUSH1 0x20 ADD PUSH1 0x0 KECCAK256 PUSH1 0x0 ADD SLOAD SWAP1 POP PUSH2 0x1429 JUMP JUMPDEST PUSH1 0x9 PUSH1 0x0 SWAP1 SLOAD SWAP1 PUSH2 0x100 EXP SWAP1 DIV PUSH20 0xFFFFFFFFFFFFFFFFFFFFFFFFFFFFFFFFFFFFFFFF AND PUSH20 0xFFFFFFFFFFFFFFFFFFFFFFFFFFFFFFFFFFFFFFFF AND PUSH4 0xF00FA11 PUSH1 0x40 MLOAD DUP2 PUSH4 0xFFFFFFFF AND PUSH1 0xE0 SHL DUP2 MSTORE PUSH1 0x4 ADD PUSH1 0x20 PUSH1 0x40 MLOAD DUP1 DUP4 SUB DUP2 DUP7 GAS STATICCALL ISZERO DUP1 ISZERO PUSH2 0x13E6 JUMPI RETURNDATASIZE PUSH1 0x0 DUP1 RETURNDATACOPY RETURNDATASIZE PUSH1 0x0 REVERT JUMPDEST POP POP POP POP PUSH1 0x40 MLOAD RETURNDATASIZE PUSH1 0x1F NOT PUSH1 0x1F DUP3 ADD AND DUP3 ADD DUP1 PUSH1 0x40 MSTORE POP DUP2 ADD SWAP1 PUSH2 0x140A SWAP2 SWAP1 PUSH2 0x236C JUMP JUMPDEST SWAP1 POP DUP1 PUSH1 0x11 PUSH1 0x0 PUSH1 0x1 DUP2 MSTORE PUSH1 0x20 ADD SWAP1 DUP2 MSTORE PUSH1 0x20 ADD PUSH1 0x0 KECCAK256 PUSH1 0x0 ADD DUP2 SWAP1 SSTORE POP JUMPDEST PUSH2 0x1916 JUMP JUMPDEST PUSH1 0x2 DUP4 SUB PUSH2 0x1529 JUMPI PUSH1 0x0 PUSH1 0x11 PUSH1 0x0 PUSH1 0x2 DUP2 MSTORE PUSH1 0x20 ADD SWAP1 DUP2 MSTORE PUSH1 0x20 ADD PUSH1 0x0 KECCAK256 PUSH1 0x0 ADD SLOAD EQ PUSH2 0x1474 JUMPI PUSH1 0x11 PUSH1 0x0 PUSH1 0x2 DUP2 MSTORE PUSH1 0x20 ADD SWAP1 DUP2 MSTORE PUSH1 0x20 ADD PUSH1 0x0 KECCAK256 PUSH1 0x0 ADD SLOAD SWAP1 POP PUSH2 0x1524 JUMP JUMPDEST PUSH1 0x9 PUSH1 0x0 SWAP1 SLOAD SWAP1 PUSH2 0x100 EXP SWAP1 DIV PUSH20 0xFFFFFFFFFFFFFFFFFFFFFFFFFFFFFFFFFFFFFFFF AND PUSH20 0xFFFFFFFFFFFFFFFFFFFFFFFFFFFFFFFFFFFFFFFF AND PUSH4 0x94E99256 PUSH1 0x40 MLOAD DUP2 PUSH4 0xFFFFFFFF AND PUSH1 0xE0 SHL DUP2 MSTORE PUSH1 0x4 ADD PUSH1 0x20 PUSH1 0x40 MLOAD DUP1 DUP4 SUB DUP2 DUP7 GAS STATICCALL ISZERO DUP1 ISZERO PUSH2 0x14E1 JUMPI RETURNDATASIZE PUSH1 0x0 DUP1 RETURNDATACOPY RETURNDATASIZE PUSH1 0x0 REVERT JUMPDEST POP POP POP POP PUSH1 0x40 MLOAD RETURNDATASIZE PUSH1 0x1F NOT PUSH1 0x1F DUP3 ADD AND DUP3 ADD DUP1 PUSH1 0x40 MSTORE POP DUP2 ADD SWAP1 PUSH2 0x1505 SWAP2 SWAP1 PUSH2 0x236C JUMP JUMPDEST SWAP1 POP DUP1 PUSH1 0x11 PUSH1 0x0 PUSH1 0x2 DUP2 MSTORE PUSH1 0x20 ADD SWAP1 DUP2 MSTORE PUSH1 0x20 ADD PUSH1 0x0 KECCAK256 PUSH1 0x0 ADD DUP2 SWAP1 SSTORE POP JUMPDEST PUSH2 0x1915 JUMP JUMPDEST PUSH1 0x3 DUP4 SUB PUSH2 0x1624 JUMPI PUSH1 0x0 PUSH1 0x11 PUSH1 0x0 PUSH1 0x3 DUP2 MSTORE PUSH1 0x20 ADD SWAP1 DUP2 MSTORE PUSH1 0x20 ADD PUSH1 0x0 KECCAK256 PUSH1 0x0 ADD SLOAD EQ PUSH2 0x156F JUMPI PUSH1 0x11 PUSH1 0x0 PUSH1 0x3 DUP2 MSTORE PUSH1 0x20 ADD SWAP1 DUP2 MSTORE PUSH1 0x20 ADD PUSH1 0x0 KECCAK256 PUSH1 0x0 ADD SLOAD SWAP1 POP PUSH2 0x161F JUMP JUMPDEST PUSH1 0x9 PUSH1 0x0 SWAP1 SLOAD SWAP1 PUSH2 0x100 EXP SWAP1 DIV PUSH20 0xFFFFFFFFFFFFFFFFFFFFFFFFFFFFFFFFFFFFFFFF AND PUSH20 0xFFFFFFFFFFFFFFFFFFFFFFFFFFFFFFFFFFFFFFFF AND PUSH4 0x566A0C27 PUSH1 0x40 MLOAD DUP2 PUSH4 0xFFFFFFFF AND PUSH1 0xE0 SHL DUP2 MSTORE PUSH1 0x4 ADD PUSH1 0x20 PUSH1 0x40 MLOAD DUP1 DUP4 SUB DUP2 DUP7 GAS STATICCALL ISZERO DUP1 ISZERO PUSH2 0x15DC JUMPI RETURNDATASIZE PUSH1 0x0 DUP1 RETURNDATACOPY RETURNDATASIZE PUSH1 0x0 REVERT JUMPDEST POP POP POP POP PUSH1 0x40 MLOAD RETURNDATASIZE PUSH1 0x1F NOT PUSH1 0x1F DUP3 ADD AND DUP3 ADD DUP1 PUSH1 0x40 MSTORE POP DUP2 ADD SWAP1 PUSH2 0x1600 SWAP2 SWAP1 PUSH2 0x236C JUMP JUMPDEST SWAP1 POP DUP1 PUSH1 0x11 PUSH1 0x0 PUSH1 0x3 DUP2 MSTORE PUSH1 0x20 ADD SWAP1 DUP2 MSTORE PUSH1 0x20 ADD PUSH1 0x0 KECCAK256 PUSH1 0x0 ADD DUP2 SWAP1 SSTORE POP JUMPDEST PUSH2 0x1914 JUMP JUMPDEST PUSH1 0x4 DUP4 SUB PUSH2 0x171F JUMPI PUSH1 0x0 PUSH1 0x11 PUSH1 0x0 PUSH1 0x4 DUP2 MSTORE PUSH1 0x20 ADD SWAP1 DUP2 MSTORE PUSH1 0x20 ADD PUSH1 0x0 KECCAK256 PUSH1 0x0 ADD SLOAD EQ PUSH2 0x166A JUMPI PUSH1 0x11 PUSH1 0x0 PUSH1 0x4 DUP2 MSTORE PUSH1 0x20 ADD SWAP1 DUP2 MSTORE PUSH1 0x20 ADD PUSH1 0x0 KECCAK256 PUSH1 0x0 ADD SLOAD SWAP1 POP PUSH2 0x171A JUMP JUMPDEST PUSH1 0x9 PUSH1 0x0 SWAP1 SLOAD SWAP1 PUSH2 0x100 EXP SWAP1 DIV PUSH20 0xFFFFFFFFFFFFFFFFFFFFFFFFFFFFFFFFFFFFFFFF AND PUSH20 0xFFFFFFFFFFFFFFFFFFFFFFFFFFFFFFFFFFFFFFFF AND PUSH4 0xF77E499C PUSH1 0x40 MLOAD DUP2 PUSH4 0xFFFFFFFF AND PUSH1 0xE0 SHL DUP2 MSTORE PUSH1 0x4 ADD PUSH1 0x20 PUSH1 0x40 MLOAD DUP1 DUP4 SUB DUP2 DUP7 GAS STATICCALL ISZERO DUP1 ISZERO PUSH2 0x16D7 JUMPI RETURNDATASIZE PUSH1 0x0 DUP1 RETURNDATACOPY RETURNDATASIZE PUSH1 0x0 REVERT JUMPDEST POP POP POP POP PUSH1 0x40 MLOAD RETURNDATASIZE PUSH1 0x1F NOT PUSH1 0x1F DUP3 ADD AND DUP3 ADD DUP1 PUSH1 0x40 MSTORE POP DUP2 ADD SWAP1 PUSH2 0x16FB SWAP2 SWAP1 PUSH2 0x236C JUMP JUMPDEST SWAP1 POP DUP1 PUSH1 0x11 PUSH1 0x0 PUSH1 0x4 DUP2 MSTORE PUSH1 0x20 ADD SWAP1 DUP2 MSTORE PUSH1 0x20 ADD PUSH1 0x0 KECCAK256 PUSH1 0x0 ADD DUP2 SWAP1 SSTORE POP JUMPDEST PUSH2 0x1913 JUMP JUMPDEST PUSH1 0x5 DUP4 SUB PUSH2 0x181A JUMPI PUSH1 0x0 PUSH1 0x11 PUSH1 0x0 PUSH1 0x5 DUP2 MSTORE PUSH1 0x20 ADD SWAP1 DUP2 MSTORE PUSH1 0x20 ADD PUSH1 0x0 KECCAK256 PUSH1 0x0 ADD SLOAD EQ PUSH2 0x1765 JUMPI PUSH1 0x11 PUSH1 0x0 PUSH1 0x5 DUP2 MSTORE PUSH1 0x20 ADD SWAP1 DUP2 MSTORE PUSH1 0x20 ADD PUSH1 0x0 KECCAK256 PUSH1 0x0 ADD SLOAD SWAP1 POP PUSH2 0x1815 JUMP JUMPDEST PUSH1 0x9 PUSH1 0x0 SWAP1 SLOAD SWAP1 PUSH2 0x100 EXP SWAP1 DIV PUSH20 0xFFFFFFFFFFFFFFFFFFFFFFFFFFFFFFFFFFFFFFFF AND PUSH20 0xFFFFFFFFFFFFFFFFFFFFFFFFFFFFFFFFFFFFFFFF AND PUSH4 0xB4768DD4 PUSH1 0x40 MLOAD DUP2 PUSH4 0xFFFFFFFF AND PUSH1 0xE0 SHL DUP2 MSTORE PUSH1 0x4 ADD PUSH1 0x20 PUSH1 0x40 MLOAD DUP1 DUP4 SUB DUP2 DUP7 GAS STATICCALL ISZERO DUP1 ISZERO PUSH2 0x17D2 JUMPI RETURNDATASIZE PUSH1 0x0 DUP1 RETURNDATACOPY RETURNDATASIZE PUSH1 0x0 REVERT JUMPDEST POP POP POP POP PUSH1 0x40 MLOAD RETURNDATASIZE PUSH1 0x1F NOT PUSH1 0x1F DUP3 ADD AND DUP3 ADD DUP1 PUSH1 0x40 MSTORE POP DUP2 ADD SWAP1 PUSH2 0x17F6 SWAP2 SWAP1 PUSH2 0x236C JUMP JUMPDEST SWAP1 POP DUP1 PUSH1 0x11 PUSH1 0x0 PUSH1 0x5 DUP2 MSTORE PUSH1 0x20 ADD SWAP1 DUP2 MSTORE PUSH1 0x20 ADD PUSH1 0x0 KECCAK256 PUSH1 0x0 ADD DUP2 SWAP1 SSTORE POP JUMPDEST PUSH2 0x1912 JUMP JUMPDEST PUSH1 0x6 DUP4 SUB PUSH2 0x1911 JUMPI PUSH1 0x0 PUSH1 0x11 PUSH1 0x0 PUSH1 0x6 DUP2 MSTORE PUSH1 0x20 ADD SWAP1 DUP2 MSTORE PUSH1 0x20 ADD PUSH1 0x0 KECCAK256 PUSH1 0x0 ADD SLOAD EQ PUSH2 0x1860 JUMPI PUSH1 0x11 PUSH1 0x0 PUSH1 0x6 DUP2 MSTORE PUSH1 0x20 ADD SWAP1 DUP2 MSTORE PUSH1 0x20 ADD PUSH1 0x0 KECCAK256 PUSH1 0x0 ADD SLOAD SWAP1 POP PUSH2 0x1910 JUMP JUMPDEST PUSH1 0x9 PUSH1 0x0 SWAP1 SLOAD SWAP1 PUSH2 0x100 EXP SWAP1 DIV PUSH20 0xFFFFFFFFFFFFFFFFFFFFFFFFFFFFFFFFFFFFFFFF AND PUSH20 0xFFFFFFFFFFFFFFFFFFFFFFFFFFFFFFFFFFFFFFFF AND PUSH4 0x14EC6757 PUSH1 0x40 MLOAD DUP2 PUSH4 0xFFFFFFFF AND PUSH1 0xE0 SHL DUP2 MSTORE PUSH1 0x4 ADD PUSH1 0x20 PUSH1 0x40 MLOAD DUP1 DUP4 SUB DUP2 DUP7 GAS STATICCALL ISZERO DUP1 ISZERO PUSH2 0x18CD JUMPI RETURNDATASIZE PUSH1 0x0 DUP1 RETURNDATACOPY RETURNDATASIZE PUSH1 0x0 REVERT JUMPDEST POP POP POP POP PUSH1 0x40 MLOAD RETURNDATASIZE PUSH1 0x1F NOT PUSH1 0x1F DUP3 ADD AND DUP3 ADD DUP1 PUSH1 0x40 MSTORE POP DUP2 ADD SWAP1 PUSH2 0x18F1 SWAP2 SWAP1 PUSH2 0x236C JUMP JUMPDEST SWAP1 POP DUP1 PUSH1 0x11 PUSH1 0x0 PUSH1 0x6 DUP2 MSTORE PUSH1 0x20 ADD SWAP1 DUP2 MSTORE PUSH1 0x20 ADD PUSH1 0x0 KECCAK256 PUSH1 0x0 ADD DUP2 SWAP1 SSTORE POP JUMPDEST JUMPDEST JUMPDEST JUMPDEST JUMPDEST JUMPDEST JUMPDEST DUP1 SWAP2 POP POP SWAP2 SWAP1 POP JUMP JUMPDEST PUSH1 0x8 PUSH1 0x0 SWAP1 SLOAD SWAP1 PUSH2 0x100 EXP SWAP1 DIV PUSH20 0xFFFFFFFFFFFFFFFFFFFFFFFFFFFFFFFFFFFFFFFF AND DUP2 JUMP JUMPDEST PUSH1 0xD SLOAD DUP2 JUMP JUMPDEST PUSH1 0x40 MLOAD DUP1 PUSH1 0xC0 ADD PUSH1 0x40 MSTORE DUP1 PUSH1 0x60 DUP2 MSTORE PUSH1 0x20 ADD PUSH1 0x0 PUSH20 0xFFFFFFFFFFFFFFFFFFFFFFFFFFFFFFFFFFFFFFFF AND DUP2 MSTORE PUSH1 0x20 ADD PUSH1 0x0 DUP2 MSTORE PUSH1 0x20 ADD PUSH1 0x0 DUP2 MSTORE PUSH1 0x20 ADD PUSH1 0x0 DUP2 MSTORE PUSH1 0x20 ADD PUSH1 0x0 DUP2 MSTORE POP SWAP1 JUMP JUMPDEST PUSH1 0x0 DUP2 SWAP1 POP SWAP2 SWAP1 POP JUMP JUMPDEST PUSH2 0x19AA DUP2 PUSH2 0x1997 JUMP JUMPDEST DUP3 MSTORE POP POP JUMP JUMPDEST PUSH1 0x0 PUSH1 0x20 DUP3 ADD SWAP1 POP PUSH2 0x19C5 PUSH1 0x0 DUP4 ADD DUP5 PUSH2 0x19A1 JUMP JUMPDEST SWAP3 SWAP2 POP POP JUMP JUMPDEST PUSH1 0x0 DUP1 REVERT JUMPDEST PUSH1 0x0 DUP1 REVERT JUMPDEST PUSH2 0x19DE DUP2 PUSH2 0x1997 JUMP JUMPDEST DUP2 EQ PUSH2 0x19E9 JUMPI PUSH1 0x0 DUP1 REVERT JUMPDEST POP JUMP JUMPDEST PUSH1 0x0 DUP2 CALLDATALOAD SWAP1 POP PUSH2 0x19FB DUP2 PUSH2 0x19D5 JUMP JUMPDEST SWAP3 SWAP2 POP POP JUMP JUMPDEST PUSH1 0x0 PUSH1 0x20 DUP3 DUP5 SUB SLT ISZERO PUSH2 0x1A17 JUMPI PUSH2 0x1A16 PUSH2 0x19CB JUMP JUMPDEST JUMPDEST PUSH1 0x0 PUSH2 0x1A25 DUP5 DUP3 DUP6 ADD PUSH2 0x19EC JUMP JUMPDEST SWAP2 POP POP SWAP3 SWAP2 POP POP JUMP JUMPDEST PUSH1 0x0 DUP2 MLOAD SWAP1 POP SWAP2 SWAP1 POP JUMP JUMPDEST PUSH1 0x0 DUP3 DUP3 MSTORE PUSH1 0x20 DUP3 ADD SWAP1 POP SWAP3 SWAP2 POP POP JUMP JUMPDEST PUSH1 0x0 JUMPDEST DUP4 DUP2 LT ISZERO PUSH2 0x1A68 JUMPI DUP1 DUP3 ADD MLOAD DUP2 DUP5 ADD MSTORE PUSH1 0x20 DUP2 ADD SWAP1 POP PUSH2 0x1A4D JUMP JUMPDEST PUSH1 0x0 DUP5 DUP5 ADD MSTORE POP POP POP POP JUMP JUMPDEST PUSH1 0x0 PUSH1 0x1F NOT PUSH1 0x1F DUP4 ADD AND SWAP1 POP SWAP2 SWAP1 POP JUMP JUMPDEST PUSH1 0x0 PUSH2 0x1A90 DUP3 PUSH2 0x1A2E JUMP JUMPDEST PUSH2 0x1A9A DUP2 DUP6 PUSH2 0x1A39 JUMP JUMPDEST SWAP4 POP PUSH2 0x1AAA DUP2 DUP6 PUSH1 0x20 DUP7 ADD PUSH2 0x1A4A JUMP JUMPDEST PUSH2 0x1AB3 DUP2 PUSH2 0x1A74 JUMP JUMPDEST DUP5 ADD SWAP2 POP POP SWAP3 SWAP2 POP POP JUMP JUMPDEST PUSH1 0x0 PUSH20 0xFFFFFFFFFFFFFFFFFFFFFFFFFFFFFFFFFFFFFFFF DUP3 AND SWAP1 POP SWAP2 SWAP1 POP JUMP JUMPDEST PUSH1 0x0 PUSH2 0x1AE9 DUP3 PUSH2 0x1ABE JUMP JUMPDEST SWAP1 POP SWAP2 SWAP1 POP JUMP JUMPDEST PUSH2 0x1AF9 DUP2 PUSH2 0x1ADE JUMP JUMPDEST DUP3 MSTORE POP POP JUMP JUMPDEST PUSH1 0x0 DUP2 SWAP1 POP SWAP2 SWAP1 POP JUMP JUMPDEST PUSH2 0x1B12 DUP2 PUSH2 0x1AFF JUMP JUMPDEST DUP3 MSTORE POP POP JUMP JUMPDEST PUSH1 0x0 PUSH1 0xC0 DUP3 ADD SWAP1 POP DUP2 DUP2 SUB PUSH1 0x0 DUP4 ADD MSTORE PUSH2 0x1B32 DUP2 DUP10 PUSH2 0x1A85 JUMP JUMPDEST SWAP1 POP PUSH2 0x1B41 PUSH1 0x20 DUP4 ADD DUP9 PUSH2 0x1AF0 JUMP JUMPDEST PUSH2 0x1B4E PUSH1 0x40 DUP4 ADD DUP8 PUSH2 0x19A1 JUMP JUMPDEST PUSH2 0x1B5B PUSH1 0x60 DUP4 ADD DUP7 PUSH2 0x1B09 JUMP JUMPDEST PUSH2 0x1B68 PUSH1 0x80 DUP4 ADD DUP6 PUSH2 0x1B09 JUMP JUMPDEST PUSH2 0x1B75 PUSH1 0xA0 DUP4 ADD DUP5 PUSH2 0x1B09 JUMP JUMPDEST SWAP8 SWAP7 POP POP POP POP POP POP POP JUMP JUMPDEST PUSH1 0x0 DUP1 REVERT JUMPDEST PUSH1 0x0 DUP1 REVERT JUMPDEST PUSH1 0x0 DUP1 REVERT JUMPDEST PUSH1 0x0 DUP1 DUP4 PUSH1 0x1F DUP5 ADD SLT PUSH2 0x1BA5 JUMPI PUSH2 0x1BA4 PUSH2 0x1B80 JUMP JUMPDEST JUMPDEST DUP3 CALLDATALOAD SWAP1 POP PUSH8 0xFFFFFFFFFFFFFFFF DUP2 GT ISZERO PUSH2 0x1BC2 JUMPI PUSH2 0x1BC1 PUSH2 0x1B85 JUMP JUMPDEST JUMPDEST PUSH1 0x20 DUP4 ADD SWAP2 POP DUP4 PUSH1 0x1 DUP3 MUL DUP4 ADD GT ISZERO PUSH2 0x1BDE JUMPI PUSH2 0x1BDD PUSH2 0x1B8A JUMP JUMPDEST JUMPDEST SWAP3 POP SWAP3 SWAP1 POP JUMP JUMPDEST PUSH1 0x0 DUP1 PUSH1 0x20 DUP4 DUP6 SUB SLT ISZERO PUSH2 0x1BFC JUMPI PUSH2 0x1BFB PUSH2 0x19CB JUMP JUMPDEST JUMPDEST PUSH1 0x0 DUP4 ADD CALLDATALOAD PUSH8 0xFFFFFFFFFFFFFFFF DUP2 GT ISZERO PUSH2 0x1C1A JUMPI PUSH2 0x1C19 PUSH2 0x19D0 JUMP JUMPDEST JUMPDEST PUSH2 0x1C26 DUP6 DUP3 DUP7 ADD PUSH2 0x1B8F JUMP JUMPDEST SWAP3 POP SWAP3 POP POP SWAP3 POP SWAP3 SWAP1 POP JUMP JUMPDEST PUSH1 0x0 PUSH1 0x60 DUP3 ADD SWAP1 POP PUSH2 0x1C47 PUSH1 0x0 DUP4 ADD DUP7 PUSH2 0x1B09 JUMP JUMPDEST PUSH2 0x1C54 PUSH1 0x20 DUP4 ADD DUP6 PUSH2 0x1B09 JUMP JUMPDEST PUSH2 0x1C61 PUSH1 0x40 DUP4 ADD DUP5 PUSH2 0x1B09 JUMP JUMPDEST SWAP5 SWAP4 POP POP POP POP JUMP JUMPDEST PUSH1 0x0 DUP2 ISZERO ISZERO SWAP1 POP SWAP2 SWAP1 POP JUMP JUMPDEST PUSH2 0x1C7E DUP2 PUSH2 0x1C69 JUMP JUMPDEST DUP3 MSTORE POP POP JUMP JUMPDEST PUSH1 0x0 PUSH1 0x20 DUP3 ADD SWAP1 POP PUSH2 0x1C99 PUSH1 0x0 DUP4 ADD DUP5 PUSH2 0x1C75 JUMP JUMPDEST SWAP3 SWAP2 POP POP JUMP JUMPDEST PUSH1 0x0 DUP3 DUP3 MSTORE PUSH1 0x20 DUP3 ADD SWAP1 POP SWAP3 SWAP2 POP POP JUMP JUMPDEST PUSH1 0x0 PUSH2 0x1CBB DUP3 PUSH2 0x1A2E JUMP JUMPDEST PUSH2 0x1CC5 DUP2 DUP6 PUSH2 0x1C9F JUMP JUMPDEST SWAP4 POP PUSH2 0x1CD5 DUP2 DUP6 PUSH1 0x20 DUP7 ADD PUSH2 0x1A4A JUMP JUMPDEST PUSH2 0x1CDE DUP2 PUSH2 0x1A74 JUMP JUMPDEST DUP5 ADD SWAP2 POP POP SWAP3 SWAP2 POP POP JUMP JUMPDEST PUSH2 0x1CF2 DUP2 PUSH2 0x1ADE JUMP JUMPDEST DUP3 MSTORE POP POP JUMP JUMPDEST PUSH2 0x1D01 DUP2 PUSH2 0x1997 JUMP JUMPDEST DUP3 MSTORE POP POP JUMP JUMPDEST PUSH2 0x1D10 DUP2 PUSH2 0x1AFF JUMP JUMPDEST DUP3 MSTORE POP POP JUMP JUMPDEST PUSH1 0x0 PUSH1 0xC0 DUP4 ADD PUSH1 0x0 DUP4 ADD MLOAD DUP5 DUP3 SUB PUSH1 0x0 DUP7 ADD MSTORE PUSH2 0x1D33 DUP3 DUP3 PUSH2 0x1CB0 JUMP JUMPDEST SWAP2 POP POP PUSH1 0x20 DUP4 ADD MLOAD PUSH2 0x1D48 PUSH1 0x20 DUP7 ADD DUP3 PUSH2 0x1CE9 JUMP JUMPDEST POP PUSH1 0x40 DUP4 ADD MLOAD PUSH2 0x1D5B PUSH1 0x40 DUP7 ADD DUP3 PUSH2 0x1CF8 JUMP JUMPDEST POP PUSH1 0x60 DUP4 ADD MLOAD PUSH2 0x1D6E PUSH1 0x60 DUP7 ADD DUP3 PUSH2 0x1D07 JUMP JUMPDEST POP PUSH1 0x80 DUP4 ADD MLOAD PUSH2 0x1D81 PUSH1 0x80 DUP7 ADD DUP3 PUSH2 0x1D07 JUMP JUMPDEST POP PUSH1 0xA0 DUP4 ADD MLOAD PUSH2 0x1D94 PUSH1 0xA0 DUP7 ADD DUP3 PUSH2 0x1D07 JUMP JUMPDEST POP DUP1 SWAP2 POP POP SWAP3 SWAP2 POP POP JUMP JUMPDEST PUSH1 0x0 PUSH1 0x20 DUP3 ADD SWAP1 POP DUP2 DUP2 SUB PUSH1 0x0 DUP4 ADD MSTORE PUSH2 0x1DB9 DUP2 DUP5 PUSH2 0x1D16 JUMP JUMPDEST SWAP1 POP SWAP3 SWAP2 POP POP JUMP JUMPDEST PUSH1 0x0 DUP2 MLOAD SWAP1 POP SWAP2 SWAP1 POP JUMP JUMPDEST PUSH1 0x0 DUP3 DUP3 MSTORE PUSH1 0x20 DUP3 ADD SWAP1 POP SWAP3 SWAP2 POP POP JUMP JUMPDEST PUSH1 0x0 PUSH2 0x1DE8 DUP3 PUSH2 0x1DC1 JUMP JUMPDEST PUSH2 0x1DF2 DUP2 DUP6 PUSH2 0x1DCC JUMP JUMPDEST SWAP4 POP PUSH2 0x1E02 DUP2 DUP6 PUSH1 0x20 DUP7 ADD PUSH2 0x1A4A JUMP JUMPDEST PUSH2 0x1E0B DUP2 PUSH2 0x1A74 JUMP JUMPDEST DUP5 ADD SWAP2 POP POP SWAP3 SWAP2 POP POP JUMP JUMPDEST PUSH1 0x0 PUSH1 0x40 DUP3 ADD SWAP1 POP PUSH2 0x1E2B PUSH1 0x0 DUP4 ADD DUP6 PUSH2 0x1C75 JUMP JUMPDEST DUP2 DUP2 SUB PUSH1 0x20 DUP4 ADD MSTORE PUSH2 0x1E3D DUP2 DUP5 PUSH2 0x1DDD JUMP JUMPDEST SWAP1 POP SWAP4 SWAP3 POP POP POP JUMP JUMPDEST PUSH1 0x0 PUSH1 0x20 DUP3 ADD SWAP1 POP PUSH2 0x1E5B PUSH1 0x0 DUP4 ADD DUP5 PUSH2 0x1B09 JUMP JUMPDEST SWAP3 SWAP2 POP POP JUMP JUMPDEST PUSH1 0x0 DUP1 DUP4 PUSH1 0x1F DUP5 ADD SLT PUSH2 0x1E77 JUMPI PUSH2 0x1E76 PUSH2 0x1B80 JUMP JUMPDEST JUMPDEST DUP3 CALLDATALOAD SWAP1 POP PUSH8 0xFFFFFFFFFFFFFFFF DUP2 GT ISZERO PUSH2 0x1E94 JUMPI PUSH2 0x1E93 PUSH2 0x1B85 JUMP JUMPDEST JUMPDEST PUSH1 0x20 DUP4 ADD SWAP2 POP DUP4 PUSH1 0x1 DUP3 MUL DUP4 ADD GT ISZERO PUSH2 0x1EB0 JUMPI PUSH2 0x1EAF PUSH2 0x1B8A JUMP JUMPDEST JUMPDEST SWAP3 POP SWAP3 SWAP1 POP JUMP JUMPDEST PUSH1 0x0 DUP1 PUSH1 0x0 PUSH1 0x40 DUP5 DUP7 SUB SLT ISZERO PUSH2 0x1ED0 JUMPI PUSH2 0x1ECF PUSH2 0x19CB JUMP JUMPDEST JUMPDEST PUSH1 0x0 DUP5 ADD CALLDATALOAD PUSH8 0xFFFFFFFFFFFFFFFF DUP2 GT ISZERO PUSH2 0x1EEE JUMPI PUSH2 0x1EED PUSH2 0x19D0 JUMP JUMPDEST JUMPDEST PUSH2 0x1EFA DUP7 DUP3 DUP8 ADD PUSH2 0x1E61 JUMP JUMPDEST SWAP4 POP SWAP4 POP POP PUSH1 0x20 PUSH2 0x1F0D DUP7 DUP3 DUP8 ADD PUSH2 0x19EC JUMP JUMPDEST SWAP2 POP POP SWAP3 POP SWAP3 POP SWAP3 JUMP JUMPDEST PUSH1 0x0 PUSH1 0x20 DUP3 ADD SWAP1 POP DUP2 DUP2 SUB PUSH1 0x0 DUP4 ADD MSTORE PUSH2 0x1F31 DUP2 DUP5 PUSH2 0x1A85 JUMP JUMPDEST SWAP1 POP SWAP3 SWAP2 POP POP JUMP JUMPDEST PUSH1 0x0 PUSH1 0x20 DUP3 ADD SWAP1 POP PUSH2 0x1F4E PUSH1 0x0 DUP4 ADD DUP5 PUSH2 0x1AF0 JUMP JUMPDEST SWAP3 SWAP2 POP POP JUMP JUMPDEST PUSH32 0x4E487B7100000000000000000000000000000000000000000000000000000000 PUSH1 0x0 MSTORE PUSH1 0x22 PUSH1 0x4 MSTORE PUSH1 0x24 PUSH1 0x0 REVERT JUMPDEST PUSH1 0x0 PUSH1 0x2 DUP3 DIV SWAP1 POP PUSH1 0x1 DUP3 AND DUP1 PUSH2 0x1F9B JUMPI PUSH1 0x7F DUP3 AND SWAP2 POP JUMPDEST PUSH1 0x20 DUP3 LT DUP2 SUB PUSH2 0x1FAE JUMPI PUSH2 0x1FAD PUSH2 0x1F54 JUMP JUMPDEST JUMPDEST POP SWAP2 SWAP1 POP JUMP JUMPDEST PUSH32 0x4E487B7100000000000000000000000000000000000000000000000000000000 PUSH1 0x0 MSTORE PUSH1 0x11 PUSH1 0x4 MSTORE PUSH1 0x24 PUSH1 0x0 REVERT JUMPDEST PUSH1 0x0 PUSH2 0x1FEE DUP3 PUSH2 0x1997 JUMP JUMPDEST SWAP2 POP PUSH2 0x1FF9 DUP4 PUSH2 0x1997 JUMP JUMPDEST SWAP3 POP DUP3 DUP3 SUB SWAP1 POP DUP2 DUP2 GT ISZERO PUSH2 0x2011 JUMPI PUSH2 0x2010 PUSH2 0x1FB4 JUMP JUMPDEST JUMPDEST SWAP3 SWAP2 POP POP JUMP JUMPDEST PUSH1 0x0 PUSH2 0x2022 DUP3 PUSH2 0x1997 JUMP JUMPDEST SWAP2 POP PUSH2 0x202D DUP4 PUSH2 0x1997 JUMP JUMPDEST SWAP3 POP DUP3 DUP3 ADD SWAP1 POP DUP1 DUP3 GT ISZERO PUSH2 0x2045 JUMPI PUSH2 0x2044 PUSH2 0x1FB4 JUMP JUMPDEST JUMPDEST SWAP3 SWAP2 POP POP JUMP JUMPDEST PUSH1 0x0 PUSH2 0x2056 DUP3 PUSH2 0x1997 JUMP JUMPDEST SWAP2 POP PUSH32 0xFFFFFFFFFFFFFFFFFFFFFFFFFFFFFFFFFFFFFFFFFFFFFFFFFFFFFFFFFFFFFFFF DUP3 SUB PUSH2 0x2088 JUMPI PUSH2 0x2087 PUSH2 0x1FB4 JUMP JUMPDEST JUMPDEST PUSH1 0x1 DUP3 ADD SWAP1 POP SWAP2 SWAP1 POP JUMP JUMPDEST PUSH32 0x4E487B7100000000000000000000000000000000000000000000000000000000 PUSH1 0x0 MSTORE PUSH1 0x41 PUSH1 0x4 MSTORE PUSH1 0x24 PUSH1 0x0 REVERT JUMPDEST PUSH1 0x0 DUP2 SWAP1 POP DUP2 PUSH1 0x0 MSTORE PUSH1 0x20 PUSH1 0x0 KECCAK256 SWAP1 POP SWAP2 SWAP1 POP JUMP JUMPDEST PUSH1 0x0 PUSH1 0x20 PUSH1 0x1F DUP4 ADD DIV SWAP1 POP SWAP2 SWAP1 POP JUMP JUMPDEST PUSH1 0x0 DUP3 DUP3 SHL SWAP1 POP SWAP3 SWAP2 POP POP JUMP JUMPDEST PUSH1 0x0 PUSH1 0x8 DUP4 MUL PUSH2 0x2124 PUSH32 0xFFFFFFFFFFFFFFFFFFFFFFFFFFFFFFFFFFFFFFFFFFFFFFFFFFFFFFFFFFFFFFFF DUP3 PUSH2 0x20E7 JUMP JUMPDEST PUSH2 0x212E DUP7 DUP4 PUSH2 0x20E7 JUMP JUMPDEST SWAP6 POP DUP1 NOT DUP5 AND SWAP4 POP DUP1 DUP7 AND DUP5 OR SWAP3 POP POP POP SWAP4 SWAP3 POP POP POP JUMP JUMPDEST PUSH1 0x0 DUP2 SWAP1 POP SWAP2 SWAP1 POP JUMP JUMPDEST PUSH1 0x0 PUSH2 0x216B PUSH2 0x2166 PUSH2 0x2161 DUP5 PUSH2 0x1997 JUMP JUMPDEST PUSH2 0x2146 JUMP JUMPDEST PUSH2 0x1997 JUMP JUMPDEST SWAP1 POP SWAP2 SWAP1 POP JUMP JUMPDEST PUSH1 0x0 DUP2 SWAP1 POP SWAP2 SWAP1 POP JUMP JUMPDEST PUSH2 0x2185 DUP4 PUSH2 0x2150 JUMP JUMPDEST PUSH2 0x2199 PUSH2 0x2191 DUP3 PUSH2 0x2172 JUMP JUMPDEST DUP5 DUP5 SLOAD PUSH2 0x20F4 JUMP JUMPDEST DUP3 SSTORE POP POP POP POP JUMP JUMPDEST PUSH1 0x0 SWAP1 JUMP JUMPDEST PUSH2 0x21AE PUSH2 0x21A1 JUMP JUMPDEST PUSH2 0x21B9 DUP2 DUP5 DUP5 PUSH2 0x217C JUMP JUMPDEST POP POP POP JUMP JUMPDEST JUMPDEST DUP2 DUP2 LT ISZERO PUSH2 0x21DD JUMPI PUSH2 0x21D2 PUSH1 0x0 DUP3 PUSH2 0x21A6 JUMP JUMPDEST PUSH1 0x1 DUP2 ADD SWAP1 POP PUSH2 0x21BF JUMP JUMPDEST POP POP JUMP JUMPDEST PUSH1 0x1F DUP3 GT ISZERO PUSH2 0x2222 JUMPI PUSH2 0x21F3 DUP2 PUSH2 0x20C2 JUMP JUMPDEST PUSH2 0x21FC DUP5 PUSH2 0x20D7 JUMP JUMPDEST DUP2 ADD PUSH1 0x20 DUP6 LT ISZERO PUSH2 0x220B JUMPI DUP2 SWAP1 POP JUMPDEST PUSH2 0x221F PUSH2 0x2217 DUP6 PUSH2 0x20D7 JUMP JUMPDEST DUP4 ADD DUP3 PUSH2 0x21BE JUMP JUMPDEST POP POP JUMPDEST POP POP POP JUMP JUMPDEST PUSH1 0x0 DUP3 DUP3 SHR SWAP1 POP SWAP3 SWAP2 POP POP JUMP JUMPDEST PUSH1 0x0 PUSH2 0x2245 PUSH1 0x0 NOT DUP5 PUSH1 0x8 MUL PUSH2 0x2227 JUMP JUMPDEST NOT DUP1 DUP4 AND SWAP2 POP POP SWAP3 SWAP2 POP POP JUMP JUMPDEST PUSH1 0x0 PUSH2 0x225E DUP4 DUP4 PUSH2 0x2234 JUMP JUMPDEST SWAP2 POP DUP3 PUSH1 0x2 MUL DUP3 OR SWAP1 POP SWAP3 SWAP2 POP POP JUMP JUMPDEST PUSH2 0x2277 DUP3 PUSH2 0x1A2E JUMP JUMPDEST PUSH8 0xFFFFFFFFFFFFFFFF DUP2 GT ISZERO PUSH2 0x2290 JUMPI PUSH2 0x228F PUSH2 0x2093 JUMP JUMPDEST JUMPDEST PUSH2 0x229A DUP3 SLOAD PUSH2 0x1F83 JUMP JUMPDEST PUSH2 0x22A5 DUP3 DUP3 DUP6 PUSH2 0x21E1 JUMP JUMPDEST PUSH1 0x0 PUSH1 0x20 SWAP1 POP PUSH1 0x1F DUP4 GT PUSH1 0x1 DUP2 EQ PUSH2 0x22D8 JUMPI PUSH1 0x0 DUP5 ISZERO PUSH2 0x22C6 JUMPI DUP3 DUP8 ADD MLOAD SWAP1 POP JUMPDEST PUSH2 0x22D0 DUP6 DUP3 PUSH2 0x2252 JUMP JUMPDEST DUP7 SSTORE POP PUSH2 0x2338 JUMP JUMPDEST PUSH1 0x1F NOT DUP5 AND PUSH2 0x22E6 DUP7 PUSH2 0x20C2 JUMP JUMPDEST PUSH1 0x0 JUMPDEST DUP3 DUP2 LT ISZERO PUSH2 0x230E JUMPI DUP5 DUP10 ADD MLOAD DUP3 SSTORE PUSH1 0x1 DUP3 ADD SWAP2 POP PUSH1 0x20 DUP6 ADD SWAP5 POP PUSH1 0x20 DUP2 ADD SWAP1 POP PUSH2 0x22E9 JUMP JUMPDEST DUP7 DUP4 LT ISZERO PUSH2 0x232B JUMPI DUP5 DUP10 ADD MLOAD PUSH2 0x2327 PUSH1 0x1F DUP10 AND DUP3 PUSH2 0x2234 JUMP JUMPDEST DUP4 SSTORE POP JUMPDEST PUSH1 0x1 PUSH1 0x2 DUP9 MUL ADD DUP9 SSTORE POP POP POP JUMPDEST POP POP POP POP POP POP JUMP JUMPDEST PUSH2 0x2349 DUP2 PUSH2 0x1AFF JUMP JUMPDEST DUP2 EQ PUSH2 0x2354 JUMPI PUSH1 0x0 DUP1 REVERT JUMPDEST POP JUMP JUMPDEST PUSH1 0x0 DUP2 MLOAD SWAP1 POP PUSH2 0x2366 DUP2 PUSH2 0x2340 JUMP JUMPDEST SWAP3 SWAP2 POP POP JUMP JUMPDEST PUSH1 0x0 PUSH1 0x20 DUP3 DUP5 SUB SLT ISZERO PUSH2 0x2382 JUMPI PUSH2 0x2381 PUSH2 0x19CB JUMP JUMPDEST JUMPDEST PUSH1 0x0 PUSH2 0x2390 DUP5 DUP3 DUP6 ADD PUSH2 0x2357 JUMP JUMPDEST SWAP2 POP POP SWAP3 SWAP2 POP POP JUMP JUMPDEST PUSH1 0x0 PUSH2 0x23A4 DUP3 PUSH2 0x1AFF JUMP JUMPDEST SWAP2 POP PUSH2 0x23AF DUP4 PUSH2 0x1AFF JUMP JUMPDEST SWAP3 POP DUP3 DUP3 SUB SWAP1 POP DUP2 DUP2 SLT PUSH1 0x0 DUP5 SLT AND DUP3 DUP3 SGT PUSH1 0x0 DUP6 SLT ISZERO AND OR ISZERO PUSH2 0x23D6 JUMPI PUSH2 0x23D5 PUSH2 0x1FB4 JUMP JUMPDEST JUMPDEST SWAP3 SWAP2 POP POP JUMP JUMPDEST PUSH1 0x0 PUSH2 0x23E7 DUP3 PUSH2 0x1AFF JUMP JUMPDEST SWAP2 POP PUSH2 0x23F2 DUP4 PUSH2 0x1AFF JUMP JUMPDEST SWAP3 POP DUP3 DUP3 MUL PUSH2 0x2400 DUP2 PUSH2 0x1AFF JUMP JUMPDEST SWAP2 POP PUSH32 0x8000000000000000000000000000000000000000000000000000000000000000 DUP5 EQ PUSH1 0x0 DUP5 SLT AND ISZERO PUSH2 0x2438 JUMPI PUSH2 0x2437 PUSH2 0x1FB4 JUMP JUMPDEST JUMPDEST DUP3 DUP3 SDIV DUP5 EQ DUP4 ISZERO OR PUSH2 0x244D JUMPI PUSH2 0x244C PUSH2 0x1FB4 JUMP JUMPDEST JUMPDEST POP SWAP3 SWAP2 POP POP JUMP JUMPDEST PUSH32 0x4E487B7100000000000000000000000000000000000000000000000000000000 PUSH1 0x0 MSTORE PUSH1 0x12 PUSH1 0x4 MSTORE PUSH1 0x24 PUSH1 0x0 REVERT JUMPDEST PUSH1 0x0 PUSH2 0x248E DUP3 PUSH2 0x1AFF JUMP JUMPDEST SWAP2 POP PUSH2 0x2499 DUP4 PUSH2 0x1AFF JUMP JUMPDEST SWAP3 POP DUP3 PUSH2 0x24A9 JUMPI PUSH2 0x24A8 PUSH2 0x2454 JUMP JUMPDEST JUMPDEST PUSH1 0x1 PUSH1 0x0 SUB DUP4 EQ PUSH32 0x8000000000000000000000000000000000000000000000000000000000000000 DUP4 EQ AND ISZERO PUSH2 0x24E2 JUMPI PUSH2 0x24E1 PUSH2 0x1FB4 JUMP JUMPDEST JUMPDEST DUP3 DUP3 SDIV SWAP1 POP SWAP3 SWAP2 POP POP JUMP JUMPDEST DUP3 DUP2 DUP4 CALLDATACOPY PUSH1 0x0 DUP4 DUP4 ADD MSTORE POP POP POP JUMP JUMPDEST PUSH1 0x0 PUSH2 0x2508 DUP4 DUP6 PUSH2 0x1A39 JUMP JUMPDEST SWAP4 POP PUSH2 0x2515 DUP4 DUP6 DUP5 PUSH2 0x24ED JUMP JUMPDEST PUSH2 0x251E DUP4 PUSH2 0x1A74 JUMP JUMPDEST DUP5 ADD SWAP1 POP SWAP4 SWAP3 POP POP POP JUMP JUMPDEST PUSH1 0x0 PUSH1 0x40 DUP3 ADD SWAP1 POP DUP2 DUP2 SUB PUSH1 0x0 DUP4 ADD MSTORE PUSH2 0x2544 DUP2 DUP6 DUP8 PUSH2 0x24FC JUMP JUMPDEST SWAP1 POP PUSH2 0x2553 PUSH1 0x20 DUP4 ADD DUP5 PUSH2 0x19A1 JUMP JUMPDEST SWAP5 SWAP4 POP POP POP POP JUMP INVALID LOG2 PUSH5 0x6970667358 0x22 SLT KECCAK256 SWAP13 0x2E 0xAC 0xB8 0x5C DUP6 DUP6 CALL CREATE2 PUSH30 0xE950531D2574D19AD55848EA9CF0E0A165FAC3EAF21464736F6C63430008 GT STOP CALLER "},"methodIdentifiers":{"calculateRange()":"70f838aa","checkUpkeep(bytes)":"6e04ff0d","choiceToCoin(uint256)":"50e757c6","counter()":"61bc221a","counterToPlayer(uint256)":"2d487eba","endGame()":"6cbc2ded","getBalance()":"12065fe0","getTimestamp()":"188ec356","optionToOpenPrice(uint256)":"e9fc9ced","paused()":"5c975abb","performUpkeep(bytes)":"4585e33b","period()":"ef78d4fd","pickWinner()":"5d495aea","players()":"dc0b3564","start()":"be9a6555","startGame()":"d65ab5f2","takePart(string,uint256)":"acc591c7","ticketPrice()":"1209b1f6","winner()":"dfbf53ae","winnerAddress()":"ed7a4e0b","winnerName()":"e2ba53f0","winnerRange()":"9e2ab372"}}}}}