{"contracts/Game.sol":{"Game":{"abi":[{"inputs":[{"internalType":"address","name":"_priceFeed","type":"address"},{"internalType":"address","name":"_admin","type":"address"},{"internalType":"string","name":"_name","type":"string"},{"internalType":"uint256","name":"_ticketPrice","type":"uint256"},{"internalType":"uint256","name":"_period","type":"uint256"}],"stateMutability":"nonpayable","type":"constructor"},{"inputs":[],"name":"adminAddress","outputs":[{"internalType":"address","name":"","type":"address"}],"stateMutability":"view","type":"function"},{"inputs":[],"name":"adminName","outputs":[{"internalType":"string","name":"","type":"string"}],"stateMutability":"view","type":"function"},{"inputs":[],"name":"calculateRange","outputs":[],"stateMutability":"nonpayable","type":"function"},{"inputs":[{"internalType":"uint256","name":"","type":"uint256"}],"name":"choiceToCoin","outputs":[{"internalType":"uint256","name":"symbol","type":"uint256"},{"internalType":"int256","name":"open","type":"int256"},{"internalType":"int256","name":"close","type":"int256"},{"internalType":"int256","name":"range","type":"int256"}],"stateMutability":"view","type":"function"},{"inputs":[{"internalType":"uint256","name":"_option","type":"uint256"}],"name":"choiceToPrice","outputs":[{"internalType":"int256","name":"","type":"int256"}],"stateMutability":"view","type":"function"},{"inputs":[],"name":"countWinners","outputs":[],"stateMutability":"nonpayable","type":"function"},{"inputs":[],"name":"counter","outputs":[{"internalType":"uint256","name":"","type":"uint256"}],"stateMutability":"view","type":"function"},{"inputs":[{"internalType":"uint256","name":"","type":"uint256"}],"name":"counterToPlayer","outputs":[{"internalType":"string","name":"name","type":"string"},{"internalType":"address","name":"wallet","type":"address"},{"internalType":"uint256","name":"choice","type":"uint256"},{"internalType":"int256","name":"open","type":"int256"},{"internalType":"int256","name":"close","type":"int256"},{"internalType":"int256","name":"range","type":"int256"},{"internalType":"bool","name":"winner","type":"bool"}],"stateMutability":"view","type":"function"},{"inputs":[],"name":"endGame","outputs":[],"stateMutability":"nonpayable","type":"function"},{"inputs":[],"name":"executionRequired","outputs":[{"internalType":"bool","name":"","type":"bool"}],"stateMutability":"view","type":"function"},{"inputs":[],"name":"getBalance","outputs":[{"internalType":"uint256","name":"","type":"uint256"}],"stateMutability":"view","type":"function"},{"inputs":[{"internalType":"uint256","name":"_counter","type":"uint256"}],"name":"getPlayersInformation","outputs":[{"internalType":"string","name":"","type":"string"},{"internalType":"uint256","name":"","type":"uint256"},{"internalType":"int256","name":"","type":"int256"},{"internalType":"int256","name":"","type":"int256"},{"internalType":"int256","name":"","type":"int256"},{"internalType":"bool","name":"","type":"bool"}],"stateMutability":"view","type":"function"},{"inputs":[],"name":"getTimestamp","outputs":[{"internalType":"uint256","name":"","type":"uint256"}],"stateMutability":"view","type":"function"},{"inputs":[],"name":"paused","outputs":[{"internalType":"bool","name":"","type":"bool"}],"stateMutability":"view","type":"function"},{"inputs":[],"name":"period","outputs":[{"internalType":"uint256","name":"","type":"uint256"}],"stateMutability":"view","type":"function"},{"inputs":[],"name":"pickWinnerChoice","outputs":[],"stateMutability":"nonpayable","type":"function"},{"inputs":[],"name":"start","outputs":[{"internalType":"uint256","name":"","type":"uint256"}],"stateMutability":"view","type":"function"},{"inputs":[],"name":"startGame","outputs":[],"stateMutability":"nonpayable","type":"function"},{"inputs":[{"internalType":"string","name":"_name","type":"string"},{"internalType":"uint256","name":"_choice","type":"uint256"}],"name":"takePart","outputs":[{"components":[{"internalType":"string","name":"name","type":"string"},{"internalType":"address","name":"wallet","type":"address"},{"internalType":"uint256","name":"choice","type":"uint256"},{"internalType":"int256","name":"open","type":"int256"},{"internalType":"int256","name":"close","type":"int256"},{"internalType":"int256","name":"range","type":"int256"},{"internalType":"bool","name":"winner","type":"bool"}],"internalType":"struct Game.Player","name":"","type":"tuple"}],"stateMutability":"nonpayable","type":"function"},{"inputs":[],"name":"ticketPrice","outputs":[{"internalType":"uint256","name":"","type":"uint256"}],"stateMutability":"view","type":"function"},{"inputs":[],"name":"winnerChoice","outputs":[{"internalType":"uint256","name":"","type":"uint256"}],"stateMutability":"view","type":"function"},{"inputs":[],"name":"winners","outputs":[{"internalType":"uint256","name":"","type":"uint256"}],"stateMutability":"view","type":"function"}],"evm":{"bytecode":{"linkReferences":{},"object":"60806040526001600760006101000a81548160ff02191690831515021790555060006008553480156200003157600080fd5b50604051620023f2380380620023f2833981810160405281019062000057919062000336565b846000806101000a81548173ffffffffffffffffffffffffffffffffffffffff021916908373ffffffffffffffffffffffffffffffffffffffff16021790555083600160006101000a81548173ffffffffffffffffffffffffffffffffffffffff021916908373ffffffffffffffffffffffffffffffffffffffff16021790555081600381905550806005819055508260029081620000f791906200061e565b50505050505062000705565b6000604051905090565b600080fd5b600080fd5b600073ffffffffffffffffffffffffffffffffffffffff82169050919050565b6000620001448262000117565b9050919050565b620001568162000137565b81146200016257600080fd5b50565b60008151905062000176816200014b565b92915050565b600080fd5b600080fd5b6000601f19601f8301169050919050565b7f4e487b7100000000000000000000000000000000000000000000000000000000600052604160045260246000fd5b620001d18262000186565b810181811067ffffffffffffffff82111715620001f357620001f262000197565b5b80604052505050565b60006200020862000103565b9050620002168282620001c6565b919050565b600067ffffffffffffffff82111562000239576200023862000197565b5b620002448262000186565b9050602081019050919050565b60005b838110156200027157808201518184015260208101905062000254565b60008484015250505050565b6000620002946200028e846200021b565b620001fc565b905082815260208101848484011115620002b357620002b262000181565b5b620002c084828562000251565b509392505050565b600082601f830112620002e057620002df6200017c565b5b8151620002f28482602086016200027d565b91505092915050565b6000819050919050565b6200031081620002fb565b81146200031c57600080fd5b50565b600081519050620003308162000305565b92915050565b600080600080600060a086880312156200035557620003546200010d565b5b6000620003658882890162000165565b9550506020620003788882890162000165565b945050604086015167ffffffffffffffff8111156200039c576200039b62000112565b5b620003aa88828901620002c8565b9350506060620003bd888289016200031f565b9250506080620003d0888289016200031f565b9150509295509295909350565b600081519050919050565b7f4e487b7100000000000000000000000000000000000000000000000000000000600052602260045260246000fd5b600060028204905060018216806200043057607f821691505b602082108103620004465762000445620003e8565b5b50919050565b60008190508160005260206000209050919050565b60006020601f8301049050919050565b600082821b905092915050565b600060088302620004b07fffffffffffffffffffffffffffffffffffffffffffffffffffffffffffffffff8262000471565b620004bc868362000471565b95508019841693508086168417925050509392505050565b6000819050919050565b6000620004ff620004f9620004f384620002fb565b620004d4565b620002fb565b9050919050565b6000819050919050565b6200051b83620004de565b620005336200052a8262000506565b8484546200047e565b825550505050565b600090565b6200054a6200053b565b6200055781848462000510565b505050565b5b818110156200057f576200057360008262000540565b6001810190506200055d565b5050565b601f821115620005ce5762000598816200044c565b620005a38462000461565b81016020851015620005b3578190505b620005cb620005c28562000461565b8301826200055c565b50505b505050565b600082821c905092915050565b6000620005f360001984600802620005d3565b1980831691505092915050565b60006200060e8383620005e0565b9150826002028217905092915050565b6200062982620003dd565b67ffffffffffffffff81111562000645576200064462000197565b5b62000651825462000417565b6200065e82828562000583565b600060209050601f83116001811462000696576000841562000681578287015190505b6200068d858262000600565b865550620006fd565b601f198416620006a6866200044c565b60005b82811015620006d057848901518255600182019150602085019450602081019050620006a9565b86831015620006f05784890151620006ec601f891682620005e0565b8355505b6001600288020188555050505b505050505050565b611cdd80620007156000396000f3fe608060405234801561001057600080fd5b50600436106101425760003560e01c8063a487bcd8116100b8578063d65ab5f21161007c578063d65ab5f21461033c578063e6718d1414610346578063ed81378a1461037b578063ef78d4fd14610399578063f9832706146103b7578063fc6f9468146103c157610142565b8063a487bcd8146102a8578063a565efff146102c6578063a8a23e39146102d0578063acc591c7146102ee578063be9a65551461031e57610142565b80632d487eba1161010a5780632d487eba146101ef57806350e757c6146102255780635c975abb1461025857806361bc221a146102765780636cbc2ded1461029457806370f838aa1461029e57610142565b806310c58e9f1461014757806312065fe0146101655780631209b1f614610183578063129a14f2146101a1578063188ec356146101d1575b600080fd5b61014f6103df565b60405161015c91906111ee565b60405180910390f35b61016d610416565b60405161017a9190611222565b60405180910390f35b61018b61041e565b6040516101989190611222565b60405180910390f35b6101bb60048036038101906101b69190611273565b610424565b6040516101c891906112b9565b60405180910390f35b6101d96107e5565b6040516101e69190611222565b60405180910390f35b61020960048036038101906102049190611273565b6107ed565b60405161021c97969594939291906113a5565b60405180910390f35b61023f600480360381019061023a9190611273565b6108e4565b60405161024f949392919061141b565b60405180910390f35b610260610914565b60405161026d91906111ee565b60405180910390f35b61027e610927565b60405161028b9190611222565b60405180910390f35b61029c61092d565b005b6102a6610a2c565b005b6102b0610b89565b6040516102bd9190611222565b60405180910390f35b6102ce610b8f565b005b6102d8610c42565b6040516102e59190611460565b60405180910390f35b610308600480360381019061030391906114e7565b610cd0565b6040516103159190611669565b60405180910390f35b610326610e52565b6040516103339190611222565b60405180910390f35b610344610e58565b005b610360600480360381019061035b9190611273565b610f71565b6040516103729695949392919061168b565b60405180910390f35b6103836110d2565b6040516103909190611222565b60405180910390f35b6103a16110d8565b6040516103ae9190611222565b60405180910390f35b6103bf6110de565b005b6103c9611158565b6040516103d691906116f3565b60405180910390f35b6000801515600760009054906101000a900460ff16151514801561041157506005546006544261040f919061173d565b115b905090565b600047905090565b60035481565b600080600083036104c55760008054906101000a900473ffffffffffffffffffffffffffffffffffffffff1673ffffffffffffffffffffffffffffffffffffffff16630f00fa116040518163ffffffff1660e01b8152600401602060405180830381865afa15801561049a573d6000803e3d6000fd5b505050506040513d601f19601f820116820180604052508101906104be919061179d565b90506107dc565b600183036105635760008054906101000a900473ffffffffffffffffffffffffffffffffffffffff1673ffffffffffffffffffffffffffffffffffffffff166394e992566040518163ffffffff1660e01b8152600401602060405180830381865afa158015610538573d6000803e3d6000fd5b505050506040513d601f19601f8201168201806040525081019061055c919061179d565b90506107db565b600283036106015760008054906101000a900473ffffffffffffffffffffffffffffffffffffffff1673ffffffffffffffffffffffffffffffffffffffff1663566a0c276040518163ffffffff1660e01b8152600401602060405180830381865afa1580156105d6573d6000803e3d6000fd5b505050506040513d601f19601f820116820180604052508101906105fa919061179d565b90506107da565b6003830361069f5760008054906101000a900473ffffffffffffffffffffffffffffffffffffffff1673ffffffffffffffffffffffffffffffffffffffff1663f77e499c6040518163ffffffff1660e01b8152600401602060405180830381865afa158015610674573d6000803e3d6000fd5b505050506040513d601f19601f82011682018060405250810190610698919061179d565b90506107d9565b6004830361073d5760008054906101000a900473ffffffffffffffffffffffffffffffffffffffff1673ffffffffffffffffffffffffffffffffffffffff1663b4768dd46040518163ffffffff1660e01b8152600401602060405180830381865afa158015610712573d6000803e3d6000fd5b505050506040513d601f19601f82011682018060405250810190610736919061179d565b90506107d8565b600583036107d75760008054906101000a900473ffffffffffffffffffffffffffffffffffffffff1673ffffffffffffffffffffffffffffffffffffffff166314ec67576040518163ffffffff1660e01b8152600401602060405180830381865afa1580156107b0573d6000803e3d6000fd5b505050506040513d601f19601f820116820180604052508101906107d4919061179d565b90505b5b5b5b5b5b80915050919050565b600042905090565b600a602052806000526040600020600091509050806000018054610810906117f9565b80601f016020809104026020016040519081016040528092919081815260200182805461083c906117f9565b80156108895780601f1061085e57610100808354040283529160200191610889565b820191906000526020600020905b81548152906001019060200180831161086c57829003601f168201915b5050505050908060010160009054906101000a900473ffffffffffffffffffffffffffffffffffffffff16908060020154908060030154908060040154908060050154908060060160009054906101000a900460ff16905087565b600b6020528060005260406000206000915090508060000154908060010154908060020154908060030154905084565b600760009054906101000a900460ff1681565b60045481565b600080600190505b6001600454610944919061182a565b811015610a2057600a60008281526020019081526020016000206002015491506000600b600084815260200190815260200160002060020154146109b857600b600083815260200190815260200160002060020154600a600083815260200190815260200160002060040181905550610a0d565b6109c182610424565b600b600084815260200190815260200160002060020181905550600b600083815260200190815260200160002060020154600a6000838152602001908152602001600020600401819055505b8080610a189061185e565b915050610935565b50610a29610a2c565b50565b6000806000806000600190505b6001600454610a48919061182a565b811015610b7a57600a60008281526020019081526020016000206002015494506000600b60008781526020019081526020016000206003015414610abc57600b600086815260200190815260200160002060030154600a600083815260200190815260200160002060050181905550610b67565b600b6000868152602001908152602001600020600101549350600b600086815260200190815260200160002060020154925083670de0b6b3a76400008585610b0491906118a6565b610b0e91906118e9565b610b189190611990565b915081600b600087815260200190815260200160002060030181905550600b600086815260200190815260200160002060030154600a6000838152602001908152602001600020600501819055505b8080610b729061185e565b915050610a39565b50610b836110de565b50505050565b60085481565b60005b6001600454610ba1919061182a565b811015610c2457600954600a60008381526020019081526020016000206002015403610c11576001600a600083815260200190815260200160002060060160006101000a81548160ff021916908315150217905550600160086000828254610c09919061182a565b925050819055505b8080610c1c9061185e565b915050610b92565b506001600760006101000a81548160ff021916908315150217905550565b60028054610c4f906117f9565b80601f0160208091040260200160405190810160405280929190818152602001828054610c7b906117f9565b8015610cc85780601f10610c9d57610100808354040283529160200191610cc8565b820191906000526020600020905b815481529060010190602001808311610cab57829003601f168201915b505050505081565b610cd861117e565b60006040518060e0016040528086868080601f016020809104026020016040519081016040528093929190818152602001838380828437600081840152601f19601f8201169050808301925050505050505081526020013373ffffffffffffffffffffffffffffffffffffffff168152602001848152602001600081526020016000815260200160008152602001600015158152509050600160046000828254610d82919061182a565b9250508190555080600a600060045481526020019081526020016000206000820151816000019081610db49190611bd5565b5060208201518160010160006101000a81548173ffffffffffffffffffffffffffffffffffffffff021916908373ffffffffffffffffffffffffffffffffffffffff16021790555060408201518160020155606082015181600301556080820151816004015560a0820151816005015560c08201518160060160006101000a81548160ff021916908315150217905550905050809150509392505050565b60065481565b600080600190505b6001600454610e6f919061182a565b811015610f4b57600a60008281526020019081526020016000206002015491506000600b60008481526020019081526020016000206001015414610ee357600b600083815260200190815260200160002060010154600a600083815260200190815260200160002060030181905550610f38565b610eec82610424565b600b600084815260200190815260200160002060010181905550600b600083815260200190815260200160002060010154600a6000838152602001908152602001600020600301819055505b8080610f439061185e565b915050610e60565b50426006819055506000600760006101000a81548160ff02191690831515021790555050565b6060600080600080600080600a60008981526020019081526020016000206000018054610f9d906117f9565b80601f0160208091040260200160405190810160405280929190818152602001828054610fc9906117f9565b80156110165780601f10610feb57610100808354040283529160200191611016565b820191906000526020600020905b815481529060010190602001808311610ff957829003601f168201915b505050505090506000600a60008a81526020019081526020016000206002015490506000600a60008b81526020019081526020016000206003015490506000600a60008c81526020019081526020016000206004015490506000600a60008d81526020019081526020016000206005015490506000600a60008e815260200190815260200160002060060160009054906101000a900460ff1690508585858585859b509b509b509b509b509b5050505050505091939550919395565b60095481565b60055481565b600080600080600190505b600681101561114357600b6000838152602001908152602001600020600301549350600b600082815260200190815260200160002060030154925083831315611130578091505b808061113b9061185e565b9150506110e9565b5080600981905550611153610b8f565b505050565b600160009054906101000a900473ffffffffffffffffffffffffffffffffffffffff1681565b6040518060e0016040528060608152602001600073ffffffffffffffffffffffffffffffffffffffff168152602001600081526020016000815260200160008152602001600081526020016000151581525090565b60008115159050919050565b6111e8816111d3565b82525050565b600060208201905061120360008301846111df565b92915050565b6000819050919050565b61121c81611209565b82525050565b60006020820190506112376000830184611213565b92915050565b600080fd5b600080fd5b61125081611209565b811461125b57600080fd5b50565b60008135905061126d81611247565b92915050565b6000602082840312156112895761128861123d565b5b60006112978482850161125e565b91505092915050565b6000819050919050565b6112b3816112a0565b82525050565b60006020820190506112ce60008301846112aa565b92915050565b600081519050919050565b600082825260208201905092915050565b60005b8381101561130e5780820151818401526020810190506112f3565b60008484015250505050565b6000601f19601f8301169050919050565b6000611336826112d4565b61134081856112df565b93506113508185602086016112f0565b6113598161131a565b840191505092915050565b600073ffffffffffffffffffffffffffffffffffffffff82169050919050565b600061138f82611364565b9050919050565b61139f81611384565b82525050565b600060e08201905081810360008301526113bf818a61132b565b90506113ce6020830189611396565b6113db6040830188611213565b6113e860608301876112aa565b6113f560808301866112aa565b61140260a08301856112aa565b61140f60c08301846111df565b98975050505050505050565b60006080820190506114306000830187611213565b61143d60208301866112aa565b61144a60408301856112aa565b61145760608301846112aa565b95945050505050565b6000602082019050818103600083015261147a818461132b565b905092915050565b600080fd5b600080fd5b600080fd5b60008083601f8401126114a7576114a6611482565b5b8235905067ffffffffffffffff8111156114c4576114c3611487565b5b6020830191508360018202830111156114e0576114df61148c565b5b9250929050565b600080600060408486031215611500576114ff61123d565b5b600084013567ffffffffffffffff81111561151e5761151d611242565b5b61152a86828701611491565b9350935050602061153d8682870161125e565b9150509250925092565b600082825260208201905092915050565b6000611563826112d4565b61156d8185611547565b935061157d8185602086016112f0565b6115868161131a565b840191505092915050565b61159a81611384565b82525050565b6115a981611209565b82525050565b6115b8816112a0565b82525050565b6115c7816111d3565b82525050565b600060e08301600083015184820360008601526115ea8282611558565b91505060208301516115ff6020860182611591565b50604083015161161260408601826115a0565b50606083015161162560608601826115af565b50608083015161163860808601826115af565b5060a083015161164b60a08601826115af565b5060c083015161165e60c08601826115be565b508091505092915050565b6000602082019050818103600083015261168381846115cd565b905092915050565b600060c08201905081810360008301526116a5818961132b565b90506116b46020830188611213565b6116c160408301876112aa565b6116ce60608301866112aa565b6116db60808301856112aa565b6116e860a08301846111df565b979650505050505050565b60006020820190506117086000830184611396565b92915050565b7f4e487b7100000000000000000000000000000000000000000000000000000000600052601160045260246000fd5b600061174882611209565b915061175383611209565b925082820390508181111561176b5761176a61170e565b5b92915050565b61177a816112a0565b811461178557600080fd5b50565b60008151905061179781611771565b92915050565b6000602082840312156117b3576117b261123d565b5b60006117c184828501611788565b91505092915050565b7f4e487b7100000000000000000000000000000000000000000000000000000000600052602260045260246000fd5b6000600282049050600182168061181157607f821691505b602082108103611824576118236117ca565b5b50919050565b600061183582611209565b915061184083611209565b92508282019050808211156118585761185761170e565b5b92915050565b600061186982611209565b91507fffffffffffffffffffffffffffffffffffffffffffffffffffffffffffffffff820361189b5761189a61170e565b5b600182019050919050565b60006118b1826112a0565b91506118bc836112a0565b92508282039050818112600084121682821360008512151617156118e3576118e261170e565b5b92915050565b60006118f4826112a0565b91506118ff836112a0565b925082820261190d816112a0565b91507f800000000000000000000000000000000000000000000000000000000000000084146000841216156119455761194461170e565b5b828205841483151761195a5761195961170e565b5b5092915050565b7f4e487b7100000000000000000000000000000000000000000000000000000000600052601260045260246000fd5b600061199b826112a0565b91506119a6836112a0565b9250826119b6576119b5611961565b5b600160000383147f8000000000000000000000000000000000000000000000000000000000000000831416156119ef576119ee61170e565b5b828205905092915050565b7f4e487b7100000000000000000000000000000000000000000000000000000000600052604160045260246000fd5b60008190508160005260206000209050919050565b60006020601f8301049050919050565b600082821b905092915050565b600060088302611a8b7fffffffffffffffffffffffffffffffffffffffffffffffffffffffffffffffff82611a4e565b611a958683611a4e565b95508019841693508086168417925050509392505050565b6000819050919050565b6000611ad2611acd611ac884611209565b611aad565b611209565b9050919050565b6000819050919050565b611aec83611ab7565b611b00611af882611ad9565b848454611a5b565b825550505050565b600090565b611b15611b08565b611b20818484611ae3565b505050565b5b81811015611b4457611b39600082611b0d565b600181019050611b26565b5050565b601f821115611b8957611b5a81611a29565b611b6384611a3e565b81016020851015611b72578190505b611b86611b7e85611a3e565b830182611b25565b50505b505050565b600082821c905092915050565b6000611bac60001984600802611b8e565b1980831691505092915050565b6000611bc58383611b9b565b9150826002028217905092915050565b611bde826112d4565b67ffffffffffffffff811115611bf757611bf66119fa565b5b611c0182546117f9565b611c0c828285611b48565b600060209050601f831160018114611c3f5760008415611c2d578287015190505b611c378582611bb9565b865550611c9f565b601f198416611c4d86611a29565b60005b82811015611c7557848901518255600182019150602085019450602081019050611c50565b86831015611c925784890151611c8e601f891682611b9b565b8355505b6001600288020188555050505b50505050505056fea2646970667358221220af82594e2322849d02e96b614cd06015e0a097c79c73394d0eee3d53a1cc696a64736f6c63430008110033","opcodes":"PUSH1 0x80 PUSH1 0x40 MSTORE PUSH1 0x1 PUSH1 0x7 PUSH1 0x0 PUSH2 0x100 EXP DUP2 SLOAD DUP2 PUSH1 0xFF MUL NOT AND SWAP1 DUP4 ISZERO ISZERO MUL OR SWAP1 SSTORE POP PUSH1 0x0 PUSH1 0x8 SSTORE CALLVALUE DUP1 ISZERO PUSH3 0x31 JUMPI PUSH1 0x0 DUP1 REVERT JUMPDEST POP PUSH1 0x40 MLOAD PUSH3 0x23F2 CODESIZE SUB DUP1 PUSH3 0x23F2 DUP4 CODECOPY DUP2 DUP2 ADD PUSH1 0x40 MSTORE DUP2 ADD SWAP1 PUSH3 0x57 SWAP2 SWAP1 PUSH3 0x336 JUMP JUMPDEST DUP5 PUSH1 0x0 DUP1 PUSH2 0x100 EXP DUP2 SLOAD DUP2 PUSH20 0xFFFFFFFFFFFFFFFFFFFFFFFFFFFFFFFFFFFFFFFF MUL NOT AND SWAP1 DUP4 PUSH20 0xFFFFFFFFFFFFFFFFFFFFFFFFFFFFFFFFFFFFFFFF AND MUL OR SWAP1 SSTORE POP DUP4 PUSH1 0x1 PUSH1 0x0 PUSH2 0x100 EXP DUP2 SLOAD DUP2 PUSH20 0xFFFFFFFFFFFFFFFFFFFFFFFFFFFFFFFFFFFFFFFF MUL NOT AND SWAP1 DUP4 PUSH20 0xFFFFFFFFFFFFFFFFFFFFFFFFFFFFFFFFFFFFFFFF AND MUL OR SWAP1 SSTORE POP DUP2 PUSH1 0x3 DUP2 SWAP1 SSTORE POP DUP1 PUSH1 0x5 DUP2 SWAP1 SSTORE POP DUP3 PUSH1 0x2 SWAP1 DUP2 PUSH3 0xF7 SWAP2 SWAP1 PUSH3 0x61E JUMP JUMPDEST POP POP POP POP POP POP PUSH3 0x705 JUMP JUMPDEST PUSH1 0x0 PUSH1 0x40 MLOAD SWAP1 POP SWAP1 JUMP JUMPDEST PUSH1 0x0 DUP1 REVERT JUMPDEST PUSH1 0x0 DUP1 REVERT JUMPDEST PUSH1 0x0 PUSH20 0xFFFFFFFFFFFFFFFFFFFFFFFFFFFFFFFFFFFFFFFF DUP3 AND SWAP1 POP SWAP2 SWAP1 POP JUMP JUMPDEST PUSH1 0x0 PUSH3 0x144 DUP3 PUSH3 0x117 JUMP JUMPDEST SWAP1 POP SWAP2 SWAP1 POP JUMP JUMPDEST PUSH3 0x156 DUP2 PUSH3 0x137 JUMP JUMPDEST DUP2 EQ PUSH3 0x162 JUMPI PUSH1 0x0 DUP1 REVERT JUMPDEST POP JUMP JUMPDEST PUSH1 0x0 DUP2 MLOAD SWAP1 POP PUSH3 0x176 DUP2 PUSH3 0x14B JUMP JUMPDEST SWAP3 SWAP2 POP POP JUMP JUMPDEST PUSH1 0x0 DUP1 REVERT JUMPDEST PUSH1 0x0 DUP1 REVERT JUMPDEST PUSH1 0x0 PUSH1 0x1F NOT PUSH1 0x1F DUP4 ADD AND SWAP1 POP SWAP2 SWAP1 POP JUMP JUMPDEST PUSH32 0x4E487B7100000000000000000000000000000000000000000000000000000000 PUSH1 0x0 MSTORE PUSH1 0x41 PUSH1 0x4 MSTORE PUSH1 0x24 PUSH1 0x0 REVERT JUMPDEST PUSH3 0x1D1 DUP3 PUSH3 0x186 JUMP JUMPDEST DUP2 ADD DUP2 DUP2 LT PUSH8 0xFFFFFFFFFFFFFFFF DUP3 GT OR ISZERO PUSH3 0x1F3 JUMPI PUSH3 0x1F2 PUSH3 0x197 JUMP JUMPDEST JUMPDEST DUP1 PUSH1 0x40 MSTORE POP POP POP JUMP JUMPDEST PUSH1 0x0 PUSH3 0x208 PUSH3 0x103 JUMP JUMPDEST SWAP1 POP PUSH3 0x216 DUP3 DUP3 PUSH3 0x1C6 JUMP JUMPDEST SWAP2 SWAP1 POP JUMP JUMPDEST PUSH1 0x0 PUSH8 0xFFFFFFFFFFFFFFFF DUP3 GT ISZERO PUSH3 0x239 JUMPI PUSH3 0x238 PUSH3 0x197 JUMP JUMPDEST JUMPDEST PUSH3 0x244 DUP3 PUSH3 0x186 JUMP JUMPDEST SWAP1 POP PUSH1 0x20 DUP2 ADD SWAP1 POP SWAP2 SWAP1 POP JUMP JUMPDEST PUSH1 0x0 JUMPDEST DUP4 DUP2 LT ISZERO PUSH3 0x271 JUMPI DUP1 DUP3 ADD MLOAD DUP2 DUP5 ADD MSTORE PUSH1 0x20 DUP2 ADD SWAP1 POP PUSH3 0x254 JUMP JUMPDEST PUSH1 0x0 DUP5 DUP5 ADD MSTORE POP POP POP POP JUMP JUMPDEST PUSH1 0x0 PUSH3 0x294 PUSH3 0x28E DUP5 PUSH3 0x21B JUMP JUMPDEST PUSH3 0x1FC JUMP JUMPDEST SWAP1 POP DUP3 DUP2 MSTORE PUSH1 0x20 DUP2 ADD DUP5 DUP5 DUP5 ADD GT ISZERO PUSH3 0x2B3 JUMPI PUSH3 0x2B2 PUSH3 0x181 JUMP JUMPDEST JUMPDEST PUSH3 0x2C0 DUP5 DUP3 DUP6 PUSH3 0x251 JUMP JUMPDEST POP SWAP4 SWAP3 POP POP POP JUMP JUMPDEST PUSH1 0x0 DUP3 PUSH1 0x1F DUP4 ADD SLT PUSH3 0x2E0 JUMPI PUSH3 0x2DF PUSH3 0x17C JUMP JUMPDEST JUMPDEST DUP2 MLOAD PUSH3 0x2F2 DUP5 DUP3 PUSH1 0x20 DUP7 ADD PUSH3 0x27D JUMP JUMPDEST SWAP2 POP POP SWAP3 SWAP2 POP POP JUMP JUMPDEST PUSH1 0x0 DUP2 SWAP1 POP SWAP2 SWAP1 POP JUMP JUMPDEST PUSH3 0x310 DUP2 PUSH3 0x2FB JUMP JUMPDEST DUP2 EQ PUSH3 0x31C JUMPI PUSH1 0x0 DUP1 REVERT JUMPDEST POP JUMP JUMPDEST PUSH1 0x0 DUP2 MLOAD SWAP1 POP PUSH3 0x330 DUP2 PUSH3 0x305 JUMP JUMPDEST SWAP3 SWAP2 POP POP JUMP JUMPDEST PUSH1 0x0 DUP1 PUSH1 0x0 DUP1 PUSH1 0x0 PUSH1 0xA0 DUP7 DUP9 SUB SLT ISZERO PUSH3 0x355 JUMPI PUSH3 0x354 PUSH3 0x10D JUMP JUMPDEST JUMPDEST PUSH1 0x0 PUSH3 0x365 DUP9 DUP3 DUP10 ADD PUSH3 0x165 JUMP JUMPDEST SWAP6 POP POP PUSH1 0x20 PUSH3 0x378 DUP9 DUP3 DUP10 ADD PUSH3 0x165 JUMP JUMPDEST SWAP5 POP POP PUSH1 0x40 DUP7 ADD MLOAD PUSH8 0xFFFFFFFFFFFFFFFF DUP2 GT ISZERO PUSH3 0x39C JUMPI PUSH3 0x39B PUSH3 0x112 JUMP JUMPDEST JUMPDEST PUSH3 0x3AA DUP9 DUP3 DUP10 ADD PUSH3 0x2C8 JUMP JUMPDEST SWAP4 POP POP PUSH1 0x60 PUSH3 0x3BD DUP9 DUP3 DUP10 ADD PUSH3 0x31F JUMP JUMPDEST SWAP3 POP POP PUSH1 0x80 PUSH3 0x3D0 DUP9 DUP3 DUP10 ADD PUSH3 0x31F JUMP JUMPDEST SWAP2 POP POP SWAP3 SWAP6 POP SWAP3 SWAP6 SWAP1 SWAP4 POP JUMP JUMPDEST PUSH1 0x0 DUP2 MLOAD SWAP1 POP SWAP2 SWAP1 POP JUMP JUMPDEST PUSH32 0x4E487B7100000000000000000000000000000000000000000000000000000000 PUSH1 0x0 MSTORE PUSH1 0x22 PUSH1 0x4 MSTORE PUSH1 0x24 PUSH1 0x0 REVERT JUMPDEST PUSH1 0x0 PUSH1 0x2 DUP3 DIV SWAP1 POP PUSH1 0x1 DUP3 AND DUP1 PUSH3 0x430 JUMPI PUSH1 0x7F DUP3 AND SWAP2 POP JUMPDEST PUSH1 0x20 DUP3 LT DUP2 SUB PUSH3 0x446 JUMPI PUSH3 0x445 PUSH3 0x3E8 JUMP JUMPDEST JUMPDEST POP SWAP2 SWAP1 POP JUMP JUMPDEST PUSH1 0x0 DUP2 SWAP1 POP DUP2 PUSH1 0x0 MSTORE PUSH1 0x20 PUSH1 0x0 KECCAK256 SWAP1 POP SWAP2 SWAP1 POP JUMP JUMPDEST PUSH1 0x0 PUSH1 0x20 PUSH1 0x1F DUP4 ADD DIV SWAP1 POP SWAP2 SWAP1 POP JUMP JUMPDEST PUSH1 0x0 DUP3 DUP3 SHL SWAP1 POP SWAP3 SWAP2 POP POP JUMP JUMPDEST PUSH1 0x0 PUSH1 0x8 DUP4 MUL PUSH3 0x4B0 PUSH32 0xFFFFFFFFFFFFFFFFFFFFFFFFFFFFFFFFFFFFFFFFFFFFFFFFFFFFFFFFFFFFFFFF DUP3 PUSH3 0x471 JUMP JUMPDEST PUSH3 0x4BC DUP7 DUP4 PUSH3 0x471 JUMP JUMPDEST SWAP6 POP DUP1 NOT DUP5 AND SWAP4 POP DUP1 DUP7 AND DUP5 OR SWAP3 POP POP POP SWAP4 SWAP3 POP POP POP JUMP JUMPDEST PUSH1 0x0 DUP2 SWAP1 POP SWAP2 SWAP1 POP JUMP JUMPDEST PUSH1 0x0 PUSH3 0x4FF PUSH3 0x4F9 PUSH3 0x4F3 DUP5 PUSH3 0x2FB JUMP JUMPDEST PUSH3 0x4D4 JUMP JUMPDEST PUSH3 0x2FB JUMP JUMPDEST SWAP1 POP SWAP2 SWAP1 POP JUMP JUMPDEST PUSH1 0x0 DUP2 SWAP1 POP SWAP2 SWAP1 POP JUMP JUMPDEST PUSH3 0x51B DUP4 PUSH3 0x4DE JUMP JUMPDEST PUSH3 0x533 PUSH3 0x52A DUP3 PUSH3 0x506 JUMP JUMPDEST DUP5 DUP5 SLOAD PUSH3 0x47E JUMP JUMPDEST DUP3 SSTORE POP POP POP POP JUMP JUMPDEST PUSH1 0x0 SWAP1 JUMP JUMPDEST PUSH3 0x54A PUSH3 0x53B JUMP JUMPDEST PUSH3 0x557 DUP2 DUP5 DUP5 PUSH3 0x510 JUMP JUMPDEST POP POP POP JUMP JUMPDEST JUMPDEST DUP2 DUP2 LT ISZERO PUSH3 0x57F JUMPI PUSH3 0x573 PUSH1 0x0 DUP3 PUSH3 0x540 JUMP JUMPDEST PUSH1 0x1 DUP2 ADD SWAP1 POP PUSH3 0x55D JUMP JUMPDEST POP POP JUMP JUMPDEST PUSH1 0x1F DUP3 GT ISZERO PUSH3 0x5CE JUMPI PUSH3 0x598 DUP2 PUSH3 0x44C JUMP JUMPDEST PUSH3 0x5A3 DUP5 PUSH3 0x461 JUMP JUMPDEST DUP2 ADD PUSH1 0x20 DUP6 LT ISZERO PUSH3 0x5B3 JUMPI DUP2 SWAP1 POP JUMPDEST PUSH3 0x5CB PUSH3 0x5C2 DUP6 PUSH3 0x461 JUMP JUMPDEST DUP4 ADD DUP3 PUSH3 0x55C JUMP JUMPDEST POP POP JUMPDEST POP POP POP JUMP JUMPDEST PUSH1 0x0 DUP3 DUP3 SHR SWAP1 POP SWAP3 SWAP2 POP POP JUMP JUMPDEST PUSH1 0x0 PUSH3 0x5F3 PUSH1 0x0 NOT DUP5 PUSH1 0x8 MUL PUSH3 0x5D3 JUMP JUMPDEST NOT DUP1 DUP4 AND SWAP2 POP POP SWAP3 SWAP2 POP POP JUMP JUMPDEST PUSH1 0x0 PUSH3 0x60E DUP4 DUP4 PUSH3 0x5E0 JUMP JUMPDEST SWAP2 POP DUP3 PUSH1 0x2 MUL DUP3 OR SWAP1 POP SWAP3 SWAP2 POP POP JUMP JUMPDEST PUSH3 0x629 DUP3 PUSH3 0x3DD JUMP JUMPDEST PUSH8 0xFFFFFFFFFFFFFFFF DUP2 GT ISZERO PUSH3 0x645 JUMPI PUSH3 0x644 PUSH3 0x197 JUMP JUMPDEST JUMPDEST PUSH3 0x651 DUP3 SLOAD PUSH3 0x417 JUMP JUMPDEST PUSH3 0x65E DUP3 DUP3 DUP6 PUSH3 0x583 JUMP JUMPDEST PUSH1 0x0 PUSH1 0x20 SWAP1 POP PUSH1 0x1F DUP4 GT PUSH1 0x1 DUP2 EQ PUSH3 0x696 JUMPI PUSH1 0x0 DUP5 ISZERO PUSH3 0x681 JUMPI DUP3 DUP8 ADD MLOAD SWAP1 POP JUMPDEST PUSH3 0x68D DUP6 DUP3 PUSH3 0x600 JUMP JUMPDEST DUP7 SSTORE POP PUSH3 0x6FD JUMP JUMPDEST PUSH1 0x1F NOT DUP5 AND PUSH3 0x6A6 DUP7 PUSH3 0x44C JUMP JUMPDEST PUSH1 0x0 JUMPDEST DUP3 DUP2 LT ISZERO PUSH3 0x6D0 JUMPI DUP5 DUP10 ADD MLOAD DUP3 SSTORE PUSH1 0x1 DUP3 ADD SWAP2 POP PUSH1 0x20 DUP6 ADD SWAP5 POP PUSH1 0x20 DUP2 ADD SWAP1 POP PUSH3 0x6A9 JUMP JUMPDEST DUP7 DUP4 LT ISZERO PUSH3 0x6F0 JUMPI DUP5 DUP10 ADD MLOAD PUSH3 0x6EC PUSH1 0x1F DUP10 AND DUP3 PUSH3 0x5E0 JUMP JUMPDEST DUP4 SSTORE POP JUMPDEST PUSH1 0x1 PUSH1 0x2 DUP9 MUL ADD DUP9 SSTORE POP POP POP JUMPDEST POP POP POP POP POP POP JUMP JUMPDEST PUSH2 0x1CDD DUP1 PUSH3 0x715 PUSH1 0x0 CODECOPY PUSH1 0x0 RETURN INVALID PUSH1 0x80 PUSH1 0x40 MSTORE CALLVALUE DUP1 ISZERO PUSH2 0x10 JUMPI PUSH1 0x0 DUP1 REVERT JUMPDEST POP PUSH1 0x4 CALLDATASIZE LT PUSH2 0x142 JUMPI PUSH1 0x0 CALLDATALOAD PUSH1 0xE0 SHR DUP1 PUSH4 0xA487BCD8 GT PUSH2 0xB8 JUMPI DUP1 PUSH4 0xD65AB5F2 GT PUSH2 0x7C JUMPI DUP1 PUSH4 0xD65AB5F2 EQ PUSH2 0x33C JUMPI DUP1 PUSH4 0xE6718D14 EQ PUSH2 0x346 JUMPI DUP1 PUSH4 0xED81378A EQ PUSH2 0x37B JUMPI DUP1 PUSH4 0xEF78D4FD EQ PUSH2 0x399 JUMPI DUP1 PUSH4 0xF9832706 EQ PUSH2 0x3B7 JUMPI DUP1 PUSH4 0xFC6F9468 EQ PUSH2 0x3C1 JUMPI PUSH2 0x142 JUMP JUMPDEST DUP1 PUSH4 0xA487BCD8 EQ PUSH2 0x2A8 JUMPI DUP1 PUSH4 0xA565EFFF EQ PUSH2 0x2C6 JUMPI DUP1 PUSH4 0xA8A23E39 EQ PUSH2 0x2D0 JUMPI DUP1 PUSH4 0xACC591C7 EQ PUSH2 0x2EE JUMPI DUP1 PUSH4 0xBE9A6555 EQ PUSH2 0x31E JUMPI PUSH2 0x142 JUMP JUMPDEST DUP1 PUSH4 0x2D487EBA GT PUSH2 0x10A JUMPI DUP1 PUSH4 0x2D487EBA EQ PUSH2 0x1EF JUMPI DUP1 PUSH4 0x50E757C6 EQ PUSH2 0x225 JUMPI DUP1 PUSH4 0x5C975ABB EQ PUSH2 0x258 JUMPI DUP1 PUSH4 0x61BC221A EQ PUSH2 0x276 JUMPI DUP1 PUSH4 0x6CBC2DED EQ PUSH2 0x294 JUMPI DUP1 PUSH4 0x70F838AA EQ PUSH2 0x29E JUMPI PUSH2 0x142 JUMP JUMPDEST DUP1 PUSH4 0x10C58E9F EQ PUSH2 0x147 JUMPI DUP1 PUSH4 0x12065FE0 EQ PUSH2 0x165 JUMPI DUP1 PUSH4 0x1209B1F6 EQ PUSH2 0x183 JUMPI DUP1 PUSH4 0x129A14F2 EQ PUSH2 0x1A1 JUMPI DUP1 PUSH4 0x188EC356 EQ PUSH2 0x1D1 JUMPI JUMPDEST PUSH1 0x0 DUP1 REVERT JUMPDEST PUSH2 0x14F PUSH2 0x3DF JUMP JUMPDEST PUSH1 0x40 MLOAD PUSH2 0x15C SWAP2 SWAP1 PUSH2 0x11EE JUMP JUMPDEST PUSH1 0x40 MLOAD DUP1 SWAP2 SUB SWAP1 RETURN JUMPDEST PUSH2 0x16D PUSH2 0x416 JUMP JUMPDEST PUSH1 0x40 MLOAD PUSH2 0x17A SWAP2 SWAP1 PUSH2 0x1222 JUMP JUMPDEST PUSH1 0x40 MLOAD DUP1 SWAP2 SUB SWAP1 RETURN JUMPDEST PUSH2 0x18B PUSH2 0x41E JUMP JUMPDEST PUSH1 0x40 MLOAD PUSH2 0x198 SWAP2 SWAP1 PUSH2 0x1222 JUMP JUMPDEST PUSH1 0x40 MLOAD DUP1 SWAP2 SUB SWAP1 RETURN JUMPDEST PUSH2 0x1BB PUSH1 0x4 DUP1 CALLDATASIZE SUB DUP2 ADD SWAP1 PUSH2 0x1B6 SWAP2 SWAP1 PUSH2 0x1273 JUMP JUMPDEST PUSH2 0x424 JUMP JUMPDEST PUSH1 0x40 MLOAD PUSH2 0x1C8 SWAP2 SWAP1 PUSH2 0x12B9 JUMP JUMPDEST PUSH1 0x40 MLOAD DUP1 SWAP2 SUB SWAP1 RETURN JUMPDEST PUSH2 0x1D9 PUSH2 0x7E5 JUMP JUMPDEST PUSH1 0x40 MLOAD PUSH2 0x1E6 SWAP2 SWAP1 PUSH2 0x1222 JUMP JUMPDEST PUSH1 0x40 MLOAD DUP1 SWAP2 SUB SWAP1 RETURN JUMPDEST PUSH2 0x209 PUSH1 0x4 DUP1 CALLDATASIZE SUB DUP2 ADD SWAP1 PUSH2 0x204 SWAP2 SWAP1 PUSH2 0x1273 JUMP JUMPDEST PUSH2 0x7ED JUMP JUMPDEST PUSH1 0x40 MLOAD PUSH2 0x21C SWAP8 SWAP7 SWAP6 SWAP5 SWAP4 SWAP3 SWAP2 SWAP1 PUSH2 0x13A5 JUMP JUMPDEST PUSH1 0x40 MLOAD DUP1 SWAP2 SUB SWAP1 RETURN JUMPDEST PUSH2 0x23F PUSH1 0x4 DUP1 CALLDATASIZE SUB DUP2 ADD SWAP1 PUSH2 0x23A SWAP2 SWAP1 PUSH2 0x1273 JUMP JUMPDEST PUSH2 0x8E4 JUMP JUMPDEST PUSH1 0x40 MLOAD PUSH2 0x24F SWAP5 SWAP4 SWAP3 SWAP2 SWAP1 PUSH2 0x141B JUMP JUMPDEST PUSH1 0x40 MLOAD DUP1 SWAP2 SUB SWAP1 RETURN JUMPDEST PUSH2 0x260 PUSH2 0x914 JUMP JUMPDEST PUSH1 0x40 MLOAD PUSH2 0x26D SWAP2 SWAP1 PUSH2 0x11EE JUMP JUMPDEST PUSH1 0x40 MLOAD DUP1 SWAP2 SUB SWAP1 RETURN JUMPDEST PUSH2 0x27E PUSH2 0x927 JUMP JUMPDEST PUSH1 0x40 MLOAD PUSH2 0x28B SWAP2 SWAP1 PUSH2 0x1222 JUMP JUMPDEST PUSH1 0x40 MLOAD DUP1 SWAP2 SUB SWAP1 RETURN JUMPDEST PUSH2 0x29C PUSH2 0x92D JUMP JUMPDEST STOP JUMPDEST PUSH2 0x2A6 PUSH2 0xA2C JUMP JUMPDEST STOP JUMPDEST PUSH2 0x2B0 PUSH2 0xB89 JUMP JUMPDEST PUSH1 0x40 MLOAD PUSH2 0x2BD SWAP2 SWAP1 PUSH2 0x1222 JUMP JUMPDEST PUSH1 0x40 MLOAD DUP1 SWAP2 SUB SWAP1 RETURN JUMPDEST PUSH2 0x2CE PUSH2 0xB8F JUMP JUMPDEST STOP JUMPDEST PUSH2 0x2D8 PUSH2 0xC42 JUMP JUMPDEST PUSH1 0x40 MLOAD PUSH2 0x2E5 SWAP2 SWAP1 PUSH2 0x1460 JUMP JUMPDEST PUSH1 0x40 MLOAD DUP1 SWAP2 SUB SWAP1 RETURN JUMPDEST PUSH2 0x308 PUSH1 0x4 DUP1 CALLDATASIZE SUB DUP2 ADD SWAP1 PUSH2 0x303 SWAP2 SWAP1 PUSH2 0x14E7 JUMP JUMPDEST PUSH2 0xCD0 JUMP JUMPDEST PUSH1 0x40 MLOAD PUSH2 0x315 SWAP2 SWAP1 PUSH2 0x1669 JUMP JUMPDEST PUSH1 0x40 MLOAD DUP1 SWAP2 SUB SWAP1 RETURN JUMPDEST PUSH2 0x326 PUSH2 0xE52 JUMP JUMPDEST PUSH1 0x40 MLOAD PUSH2 0x333 SWAP2 SWAP1 PUSH2 0x1222 JUMP JUMPDEST PUSH1 0x40 MLOAD DUP1 SWAP2 SUB SWAP1 RETURN JUMPDEST PUSH2 0x344 PUSH2 0xE58 JUMP JUMPDEST STOP JUMPDEST PUSH2 0x360 PUSH1 0x4 DUP1 CALLDATASIZE SUB DUP2 ADD SWAP1 PUSH2 0x35B SWAP2 SWAP1 PUSH2 0x1273 JUMP JUMPDEST PUSH2 0xF71 JUMP JUMPDEST PUSH1 0x40 MLOAD PUSH2 0x372 SWAP7 SWAP6 SWAP5 SWAP4 SWAP3 SWAP2 SWAP1 PUSH2 0x168B JUMP JUMPDEST PUSH1 0x40 MLOAD DUP1 SWAP2 SUB SWAP1 RETURN JUMPDEST PUSH2 0x383 PUSH2 0x10D2 JUMP JUMPDEST PUSH1 0x40 MLOAD PUSH2 0x390 SWAP2 SWAP1 PUSH2 0x1222 JUMP JUMPDEST PUSH1 0x40 MLOAD DUP1 SWAP2 SUB SWAP1 RETURN JUMPDEST PUSH2 0x3A1 PUSH2 0x10D8 JUMP JUMPDEST PUSH1 0x40 MLOAD PUSH2 0x3AE SWAP2 SWAP1 PUSH2 0x1222 JUMP JUMPDEST PUSH1 0x40 MLOAD DUP1 SWAP2 SUB SWAP1 RETURN JUMPDEST PUSH2 0x3BF PUSH2 0x10DE JUMP JUMPDEST STOP JUMPDEST PUSH2 0x3C9 PUSH2 0x1158 JUMP JUMPDEST PUSH1 0x40 MLOAD PUSH2 0x3D6 SWAP2 SWAP1 PUSH2 0x16F3 JUMP JUMPDEST PUSH1 0x40 MLOAD DUP1 SWAP2 SUB SWAP1 RETURN JUMPDEST PUSH1 0x0 DUP1 ISZERO ISZERO PUSH1 0x7 PUSH1 0x0 SWAP1 SLOAD SWAP1 PUSH2 0x100 EXP SWAP1 DIV PUSH1 0xFF AND ISZERO ISZERO EQ DUP1 ISZERO PUSH2 0x411 JUMPI POP PUSH1 0x5 SLOAD PUSH1 0x6 SLOAD TIMESTAMP PUSH2 0x40F SWAP2 SWAP1 PUSH2 0x173D JUMP JUMPDEST GT JUMPDEST SWAP1 POP SWAP1 JUMP JUMPDEST PUSH1 0x0 SELFBALANCE SWAP1 POP SWAP1 JUMP JUMPDEST PUSH1 0x3 SLOAD DUP2 JUMP JUMPDEST PUSH1 0x0 DUP1 PUSH1 0x0 DUP4 SUB PUSH2 0x4C5 JUMPI PUSH1 0x0 DUP1 SLOAD SWAP1 PUSH2 0x100 EXP SWAP1 DIV PUSH20 0xFFFFFFFFFFFFFFFFFFFFFFFFFFFFFFFFFFFFFFFF AND PUSH20 0xFFFFFFFFFFFFFFFFFFFFFFFFFFFFFFFFFFFFFFFF AND PUSH4 0xF00FA11 PUSH1 0x40 MLOAD DUP2 PUSH4 0xFFFFFFFF AND PUSH1 0xE0 SHL DUP2 MSTORE PUSH1 0x4 ADD PUSH1 0x20 PUSH1 0x40 MLOAD DUP1 DUP4 SUB DUP2 DUP7 GAS STATICCALL ISZERO DUP1 ISZERO PUSH2 0x49A JUMPI RETURNDATASIZE PUSH1 0x0 DUP1 RETURNDATACOPY RETURNDATASIZE PUSH1 0x0 REVERT JUMPDEST POP POP POP POP PUSH1 0x40 MLOAD RETURNDATASIZE PUSH1 0x1F NOT PUSH1 0x1F DUP3 ADD AND DUP3 ADD DUP1 PUSH1 0x40 MSTORE POP DUP2 ADD SWAP1 PUSH2 0x4BE SWAP2 SWAP1 PUSH2 0x179D JUMP JUMPDEST SWAP1 POP PUSH2 0x7DC JUMP JUMPDEST PUSH1 0x1 DUP4 SUB PUSH2 0x563 JUMPI PUSH1 0x0 DUP1 SLOAD SWAP1 PUSH2 0x100 EXP SWAP1 DIV PUSH20 0xFFFFFFFFFFFFFFFFFFFFFFFFFFFFFFFFFFFFFFFF AND PUSH20 0xFFFFFFFFFFFFFFFFFFFFFFFFFFFFFFFFFFFFFFFF AND PUSH4 0x94E99256 PUSH1 0x40 MLOAD DUP2 PUSH4 0xFFFFFFFF AND PUSH1 0xE0 SHL DUP2 MSTORE PUSH1 0x4 ADD PUSH1 0x20 PUSH1 0x40 MLOAD DUP1 DUP4 SUB DUP2 DUP7 GAS STATICCALL ISZERO DUP1 ISZERO PUSH2 0x538 JUMPI RETURNDATASIZE PUSH1 0x0 DUP1 RETURNDATACOPY RETURNDATASIZE PUSH1 0x0 REVERT JUMPDEST POP POP POP POP PUSH1 0x40 MLOAD RETURNDATASIZE PUSH1 0x1F NOT PUSH1 0x1F DUP3 ADD AND DUP3 ADD DUP1 PUSH1 0x40 MSTORE POP DUP2 ADD SWAP1 PUSH2 0x55C SWAP2 SWAP1 PUSH2 0x179D JUMP JUMPDEST SWAP1 POP PUSH2 0x7DB JUMP JUMPDEST PUSH1 0x2 DUP4 SUB PUSH2 0x601 JUMPI PUSH1 0x0 DUP1 SLOAD SWAP1 PUSH2 0x100 EXP SWAP1 DIV PUSH20 0xFFFFFFFFFFFFFFFFFFFFFFFFFFFFFFFFFFFFFFFF AND PUSH20 0xFFFFFFFFFFFFFFFFFFFFFFFFFFFFFFFFFFFFFFFF AND PUSH4 0x566A0C27 PUSH1 0x40 MLOAD DUP2 PUSH4 0xFFFFFFFF AND PUSH1 0xE0 SHL DUP2 MSTORE PUSH1 0x4 ADD PUSH1 0x20 PUSH1 0x40 MLOAD DUP1 DUP4 SUB DUP2 DUP7 GAS STATICCALL ISZERO DUP1 ISZERO PUSH2 0x5D6 JUMPI RETURNDATASIZE PUSH1 0x0 DUP1 RETURNDATACOPY RETURNDATASIZE PUSH1 0x0 REVERT JUMPDEST POP POP POP POP PUSH1 0x40 MLOAD RETURNDATASIZE PUSH1 0x1F NOT PUSH1 0x1F DUP3 ADD AND DUP3 ADD DUP1 PUSH1 0x40 MSTORE POP DUP2 ADD SWAP1 PUSH2 0x5FA SWAP2 SWAP1 PUSH2 0x179D JUMP JUMPDEST SWAP1 POP PUSH2 0x7DA JUMP JUMPDEST PUSH1 0x3 DUP4 SUB PUSH2 0x69F JUMPI PUSH1 0x0 DUP1 SLOAD SWAP1 PUSH2 0x100 EXP SWAP1 DIV PUSH20 0xFFFFFFFFFFFFFFFFFFFFFFFFFFFFFFFFFFFFFFFF AND PUSH20 0xFFFFFFFFFFFFFFFFFFFFFFFFFFFFFFFFFFFFFFFF AND PUSH4 0xF77E499C PUSH1 0x40 MLOAD DUP2 PUSH4 0xFFFFFFFF AND PUSH1 0xE0 SHL DUP2 MSTORE PUSH1 0x4 ADD PUSH1 0x20 PUSH1 0x40 MLOAD DUP1 DUP4 SUB DUP2 DUP7 GAS STATICCALL ISZERO DUP1 ISZERO PUSH2 0x674 JUMPI RETURNDATASIZE PUSH1 0x0 DUP1 RETURNDATACOPY RETURNDATASIZE PUSH1 0x0 REVERT JUMPDEST POP POP POP POP PUSH1 0x40 MLOAD RETURNDATASIZE PUSH1 0x1F NOT PUSH1 0x1F DUP3 ADD AND DUP3 ADD DUP1 PUSH1 0x40 MSTORE POP DUP2 ADD SWAP1 PUSH2 0x698 SWAP2 SWAP1 PUSH2 0x179D JUMP JUMPDEST SWAP1 POP PUSH2 0x7D9 JUMP JUMPDEST PUSH1 0x4 DUP4 SUB PUSH2 0x73D JUMPI PUSH1 0x0 DUP1 SLOAD SWAP1 PUSH2 0x100 EXP SWAP1 DIV PUSH20 0xFFFFFFFFFFFFFFFFFFFFFFFFFFFFFFFFFFFFFFFF AND PUSH20 0xFFFFFFFFFFFFFFFFFFFFFFFFFFFFFFFFFFFFFFFF AND PUSH4 0xB4768DD4 PUSH1 0x40 MLOAD DUP2 PUSH4 0xFFFFFFFF AND PUSH1 0xE0 SHL DUP2 MSTORE PUSH1 0x4 ADD PUSH1 0x20 PUSH1 0x40 MLOAD DUP1 DUP4 SUB DUP2 DUP7 GAS STATICCALL ISZERO DUP1 ISZERO PUSH2 0x712 JUMPI RETURNDATASIZE PUSH1 0x0 DUP1 RETURNDATACOPY RETURNDATASIZE PUSH1 0x0 REVERT JUMPDEST POP POP POP POP PUSH1 0x40 MLOAD RETURNDATASIZE PUSH1 0x1F NOT PUSH1 0x1F DUP3 ADD AND DUP3 ADD DUP1 PUSH1 0x40 MSTORE POP DUP2 ADD SWAP1 PUSH2 0x736 SWAP2 SWAP1 PUSH2 0x179D JUMP JUMPDEST SWAP1 POP PUSH2 0x7D8 JUMP JUMPDEST PUSH1 0x5 DUP4 SUB PUSH2 0x7D7 JUMPI PUSH1 0x0 DUP1 SLOAD SWAP1 PUSH2 0x100 EXP SWAP1 DIV PUSH20 0xFFFFFFFFFFFFFFFFFFFFFFFFFFFFFFFFFFFFFFFF AND PUSH20 0xFFFFFFFFFFFFFFFFFFFFFFFFFFFFFFFFFFFFFFFF AND PUSH4 0x14EC6757 PUSH1 0x40 MLOAD DUP2 PUSH4 0xFFFFFFFF AND PUSH1 0xE0 SHL DUP2 MSTORE PUSH1 0x4 ADD PUSH1 0x20 PUSH1 0x40 MLOAD DUP1 DUP4 SUB DUP2 DUP7 GAS STATICCALL ISZERO DUP1 ISZERO PUSH2 0x7B0 JUMPI RETURNDATASIZE PUSH1 0x0 DUP1 RETURNDATACOPY RETURNDATASIZE PUSH1 0x0 REVERT JUMPDEST POP POP POP POP PUSH1 0x40 MLOAD RETURNDATASIZE PUSH1 0x1F NOT PUSH1 0x1F DUP3 ADD AND DUP3 ADD DUP1 PUSH1 0x40 MSTORE POP DUP2 ADD SWAP1 PUSH2 0x7D4 SWAP2 SWAP1 PUSH2 0x179D JUMP JUMPDEST SWAP1 POP JUMPDEST JUMPDEST JUMPDEST JUMPDEST JUMPDEST JUMPDEST DUP1 SWAP2 POP POP SWAP2 SWAP1 POP JUMP JUMPDEST PUSH1 0x0 TIMESTAMP SWAP1 POP SWAP1 JUMP JUMPDEST PUSH1 0xA PUSH1 0x20 MSTORE DUP1 PUSH1 0x0 MSTORE PUSH1 0x40 PUSH1 0x0 KECCAK256 PUSH1 0x0 SWAP2 POP SWAP1 POP DUP1 PUSH1 0x0 ADD DUP1 SLOAD PUSH2 0x810 SWAP1 PUSH2 0x17F9 JUMP JUMPDEST DUP1 PUSH1 0x1F ADD PUSH1 0x20 DUP1 SWAP2 DIV MUL PUSH1 0x20 ADD PUSH1 0x40 MLOAD SWAP1 DUP2 ADD PUSH1 0x40 MSTORE DUP1 SWAP3 SWAP2 SWAP1 DUP2 DUP2 MSTORE PUSH1 0x20 ADD DUP3 DUP1 SLOAD PUSH2 0x83C SWAP1 PUSH2 0x17F9 JUMP JUMPDEST DUP1 ISZERO PUSH2 0x889 JUMPI DUP1 PUSH1 0x1F LT PUSH2 0x85E JUMPI PUSH2 0x100 DUP1 DUP4 SLOAD DIV MUL DUP4 MSTORE SWAP2 PUSH1 0x20 ADD SWAP2 PUSH2 0x889 JUMP JUMPDEST DUP3 ADD SWAP2 SWAP1 PUSH1 0x0 MSTORE PUSH1 0x20 PUSH1 0x0 KECCAK256 SWAP1 JUMPDEST DUP2 SLOAD DUP2 MSTORE SWAP1 PUSH1 0x1 ADD SWAP1 PUSH1 0x20 ADD DUP1 DUP4 GT PUSH2 0x86C JUMPI DUP3 SWAP1 SUB PUSH1 0x1F AND DUP3 ADD SWAP2 JUMPDEST POP POP POP POP POP SWAP1 DUP1 PUSH1 0x1 ADD PUSH1 0x0 SWAP1 SLOAD SWAP1 PUSH2 0x100 EXP SWAP1 DIV PUSH20 0xFFFFFFFFFFFFFFFFFFFFFFFFFFFFFFFFFFFFFFFF AND SWAP1 DUP1 PUSH1 0x2 ADD SLOAD SWAP1 DUP1 PUSH1 0x3 ADD SLOAD SWAP1 DUP1 PUSH1 0x4 ADD SLOAD SWAP1 DUP1 PUSH1 0x5 ADD SLOAD SWAP1 DUP1 PUSH1 0x6 ADD PUSH1 0x0 SWAP1 SLOAD SWAP1 PUSH2 0x100 EXP SWAP1 DIV PUSH1 0xFF AND SWAP1 POP DUP8 JUMP JUMPDEST PUSH1 0xB PUSH1 0x20 MSTORE DUP1 PUSH1 0x0 MSTORE PUSH1 0x40 PUSH1 0x0 KECCAK256 PUSH1 0x0 SWAP2 POP SWAP1 POP DUP1 PUSH1 0x0 ADD SLOAD SWAP1 DUP1 PUSH1 0x1 ADD SLOAD SWAP1 DUP1 PUSH1 0x2 ADD SLOAD SWAP1 DUP1 PUSH1 0x3 ADD SLOAD SWAP1 POP DUP5 JUMP JUMPDEST PUSH1 0x7 PUSH1 0x0 SWAP1 SLOAD SWAP1 PUSH2 0x100 EXP SWAP1 DIV PUSH1 0xFF AND DUP2 JUMP JUMPDEST PUSH1 0x4 SLOAD DUP2 JUMP JUMPDEST PUSH1 0x0 DUP1 PUSH1 0x1 SWAP1 POP JUMPDEST PUSH1 0x1 PUSH1 0x4 SLOAD PUSH2 0x944 SWAP2 SWAP1 PUSH2 0x182A JUMP JUMPDEST DUP2 LT ISZERO PUSH2 0xA20 JUMPI PUSH1 0xA PUSH1 0x0 DUP3 DUP2 MSTORE PUSH1 0x20 ADD SWAP1 DUP2 MSTORE PUSH1 0x20 ADD PUSH1 0x0 KECCAK256 PUSH1 0x2 ADD SLOAD SWAP2 POP PUSH1 0x0 PUSH1 0xB PUSH1 0x0 DUP5 DUP2 MSTORE PUSH1 0x20 ADD SWAP1 DUP2 MSTORE PUSH1 0x20 ADD PUSH1 0x0 KECCAK256 PUSH1 0x2 ADD SLOAD EQ PUSH2 0x9B8 JUMPI PUSH1 0xB PUSH1 0x0 DUP4 DUP2 MSTORE PUSH1 0x20 ADD SWAP1 DUP2 MSTORE PUSH1 0x20 ADD PUSH1 0x0 KECCAK256 PUSH1 0x2 ADD SLOAD PUSH1 0xA PUSH1 0x0 DUP4 DUP2 MSTORE PUSH1 0x20 ADD SWAP1 DUP2 MSTORE PUSH1 0x20 ADD PUSH1 0x0 KECCAK256 PUSH1 0x4 ADD DUP2 SWAP1 SSTORE POP PUSH2 0xA0D JUMP JUMPDEST PUSH2 0x9C1 DUP3 PUSH2 0x424 JUMP JUMPDEST PUSH1 0xB PUSH1 0x0 DUP5 DUP2 MSTORE PUSH1 0x20 ADD SWAP1 DUP2 MSTORE PUSH1 0x20 ADD PUSH1 0x0 KECCAK256 PUSH1 0x2 ADD DUP2 SWAP1 SSTORE POP PUSH1 0xB PUSH1 0x0 DUP4 DUP2 MSTORE PUSH1 0x20 ADD SWAP1 DUP2 MSTORE PUSH1 0x20 ADD PUSH1 0x0 KECCAK256 PUSH1 0x2 ADD SLOAD PUSH1 0xA PUSH1 0x0 DUP4 DUP2 MSTORE PUSH1 0x20 ADD SWAP1 DUP2 MSTORE PUSH1 0x20 ADD PUSH1 0x0 KECCAK256 PUSH1 0x4 ADD DUP2 SWAP1 SSTORE POP JUMPDEST DUP1 DUP1 PUSH2 0xA18 SWAP1 PUSH2 0x185E JUMP JUMPDEST SWAP2 POP POP PUSH2 0x935 JUMP JUMPDEST POP PUSH2 0xA29 PUSH2 0xA2C JUMP JUMPDEST POP JUMP JUMPDEST PUSH1 0x0 DUP1 PUSH1 0x0 DUP1 PUSH1 0x0 PUSH1 0x1 SWAP1 POP JUMPDEST PUSH1 0x1 PUSH1 0x4 SLOAD PUSH2 0xA48 SWAP2 SWAP1 PUSH2 0x182A JUMP JUMPDEST DUP2 LT ISZERO PUSH2 0xB7A JUMPI PUSH1 0xA PUSH1 0x0 DUP3 DUP2 MSTORE PUSH1 0x20 ADD SWAP1 DUP2 MSTORE PUSH1 0x20 ADD PUSH1 0x0 KECCAK256 PUSH1 0x2 ADD SLOAD SWAP5 POP PUSH1 0x0 PUSH1 0xB PUSH1 0x0 DUP8 DUP2 MSTORE PUSH1 0x20 ADD SWAP1 DUP2 MSTORE PUSH1 0x20 ADD PUSH1 0x0 KECCAK256 PUSH1 0x3 ADD SLOAD EQ PUSH2 0xABC JUMPI PUSH1 0xB PUSH1 0x0 DUP7 DUP2 MSTORE PUSH1 0x20 ADD SWAP1 DUP2 MSTORE PUSH1 0x20 ADD PUSH1 0x0 KECCAK256 PUSH1 0x3 ADD SLOAD PUSH1 0xA PUSH1 0x0 DUP4 DUP2 MSTORE PUSH1 0x20 ADD SWAP1 DUP2 MSTORE PUSH1 0x20 ADD PUSH1 0x0 KECCAK256 PUSH1 0x5 ADD DUP2 SWAP1 SSTORE POP PUSH2 0xB67 JUMP JUMPDEST PUSH1 0xB PUSH1 0x0 DUP7 DUP2 MSTORE PUSH1 0x20 ADD SWAP1 DUP2 MSTORE PUSH1 0x20 ADD PUSH1 0x0 KECCAK256 PUSH1 0x1 ADD SLOAD SWAP4 POP PUSH1 0xB PUSH1 0x0 DUP7 DUP2 MSTORE PUSH1 0x20 ADD SWAP1 DUP2 MSTORE PUSH1 0x20 ADD PUSH1 0x0 KECCAK256 PUSH1 0x2 ADD SLOAD SWAP3 POP DUP4 PUSH8 0xDE0B6B3A7640000 DUP6 DUP6 PUSH2 0xB04 SWAP2 SWAP1 PUSH2 0x18A6 JUMP JUMPDEST PUSH2 0xB0E SWAP2 SWAP1 PUSH2 0x18E9 JUMP JUMPDEST PUSH2 0xB18 SWAP2 SWAP1 PUSH2 0x1990 JUMP JUMPDEST SWAP2 POP DUP2 PUSH1 0xB PUSH1 0x0 DUP8 DUP2 MSTORE PUSH1 0x20 ADD SWAP1 DUP2 MSTORE PUSH1 0x20 ADD PUSH1 0x0 KECCAK256 PUSH1 0x3 ADD DUP2 SWAP1 SSTORE POP PUSH1 0xB PUSH1 0x0 DUP7 DUP2 MSTORE PUSH1 0x20 ADD SWAP1 DUP2 MSTORE PUSH1 0x20 ADD PUSH1 0x0 KECCAK256 PUSH1 0x3 ADD SLOAD PUSH1 0xA PUSH1 0x0 DUP4 DUP2 MSTORE PUSH1 0x20 ADD SWAP1 DUP2 MSTORE PUSH1 0x20 ADD PUSH1 0x0 KECCAK256 PUSH1 0x5 ADD DUP2 SWAP1 SSTORE POP JUMPDEST DUP1 DUP1 PUSH2 0xB72 SWAP1 PUSH2 0x185E JUMP JUMPDEST SWAP2 POP POP PUSH2 0xA39 JUMP JUMPDEST POP PUSH2 0xB83 PUSH2 0x10DE JUMP JUMPDEST POP POP POP POP JUMP JUMPDEST PUSH1 0x8 SLOAD DUP2 JUMP JUMPDEST PUSH1 0x0 JUMPDEST PUSH1 0x1 PUSH1 0x4 SLOAD PUSH2 0xBA1 SWAP2 SWAP1 PUSH2 0x182A JUMP JUMPDEST DUP2 LT ISZERO PUSH2 0xC24 JUMPI PUSH1 0x9 SLOAD PUSH1 0xA PUSH1 0x0 DUP4 DUP2 MSTORE PUSH1 0x20 ADD SWAP1 DUP2 MSTORE PUSH1 0x20 ADD PUSH1 0x0 KECCAK256 PUSH1 0x2 ADD SLOAD SUB PUSH2 0xC11 JUMPI PUSH1 0x1 PUSH1 0xA PUSH1 0x0 DUP4 DUP2 MSTORE PUSH1 0x20 ADD SWAP1 DUP2 MSTORE PUSH1 0x20 ADD PUSH1 0x0 KECCAK256 PUSH1 0x6 ADD PUSH1 0x0 PUSH2 0x100 EXP DUP2 SLOAD DUP2 PUSH1 0xFF MUL NOT AND SWAP1 DUP4 ISZERO ISZERO MUL OR SWAP1 SSTORE POP PUSH1 0x1 PUSH1 0x8 PUSH1 0x0 DUP3 DUP3 SLOAD PUSH2 0xC09 SWAP2 SWAP1 PUSH2 0x182A JUMP JUMPDEST SWAP3 POP POP DUP2 SWAP1 SSTORE POP JUMPDEST DUP1 DUP1 PUSH2 0xC1C SWAP1 PUSH2 0x185E JUMP JUMPDEST SWAP2 POP POP PUSH2 0xB92 JUMP JUMPDEST POP PUSH1 0x1 PUSH1 0x7 PUSH1 0x0 PUSH2 0x100 EXP DUP2 SLOAD DUP2 PUSH1 0xFF MUL NOT AND SWAP1 DUP4 ISZERO ISZERO MUL OR SWAP1 SSTORE POP JUMP JUMPDEST PUSH1 0x2 DUP1 SLOAD PUSH2 0xC4F SWAP1 PUSH2 0x17F9 JUMP JUMPDEST DUP1 PUSH1 0x1F ADD PUSH1 0x20 DUP1 SWAP2 DIV MUL PUSH1 0x20 ADD PUSH1 0x40 MLOAD SWAP1 DUP2 ADD PUSH1 0x40 MSTORE DUP1 SWAP3 SWAP2 SWAP1 DUP2 DUP2 MSTORE PUSH1 0x20 ADD DUP3 DUP1 SLOAD PUSH2 0xC7B SWAP1 PUSH2 0x17F9 JUMP JUMPDEST DUP1 ISZERO PUSH2 0xCC8 JUMPI DUP1 PUSH1 0x1F LT PUSH2 0xC9D JUMPI PUSH2 0x100 DUP1 DUP4 SLOAD DIV MUL DUP4 MSTORE SWAP2 PUSH1 0x20 ADD SWAP2 PUSH2 0xCC8 JUMP JUMPDEST DUP3 ADD SWAP2 SWAP1 PUSH1 0x0 MSTORE PUSH1 0x20 PUSH1 0x0 KECCAK256 SWAP1 JUMPDEST DUP2 SLOAD DUP2 MSTORE SWAP1 PUSH1 0x1 ADD SWAP1 PUSH1 0x20 ADD DUP1 DUP4 GT PUSH2 0xCAB JUMPI DUP3 SWAP1 SUB PUSH1 0x1F AND DUP3 ADD SWAP2 JUMPDEST POP POP POP POP POP DUP2 JUMP JUMPDEST PUSH2 0xCD8 PUSH2 0x117E JUMP JUMPDEST PUSH1 0x0 PUSH1 0x40 MLOAD DUP1 PUSH1 0xE0 ADD PUSH1 0x40 MSTORE DUP1 DUP7 DUP7 DUP1 DUP1 PUSH1 0x1F ADD PUSH1 0x20 DUP1 SWAP2 DIV MUL PUSH1 0x20 ADD PUSH1 0x40 MLOAD SWAP1 DUP2 ADD PUSH1 0x40 MSTORE DUP1 SWAP4 SWAP3 SWAP2 SWAP1 DUP2 DUP2 MSTORE PUSH1 0x20 ADD DUP4 DUP4 DUP1 DUP3 DUP5 CALLDATACOPY PUSH1 0x0 DUP2 DUP5 ADD MSTORE PUSH1 0x1F NOT PUSH1 0x1F DUP3 ADD AND SWAP1 POP DUP1 DUP4 ADD SWAP3 POP POP POP POP POP POP POP DUP2 MSTORE PUSH1 0x20 ADD CALLER PUSH20 0xFFFFFFFFFFFFFFFFFFFFFFFFFFFFFFFFFFFFFFFF AND DUP2 MSTORE PUSH1 0x20 ADD DUP5 DUP2 MSTORE PUSH1 0x20 ADD PUSH1 0x0 DUP2 MSTORE PUSH1 0x20 ADD PUSH1 0x0 DUP2 MSTORE PUSH1 0x20 ADD PUSH1 0x0 DUP2 MSTORE PUSH1 0x20 ADD PUSH1 0x0 ISZERO ISZERO DUP2 MSTORE POP SWAP1 POP PUSH1 0x1 PUSH1 0x4 PUSH1 0x0 DUP3 DUP3 SLOAD PUSH2 0xD82 SWAP2 SWAP1 PUSH2 0x182A JUMP JUMPDEST SWAP3 POP POP DUP2 SWAP1 SSTORE POP DUP1 PUSH1 0xA PUSH1 0x0 PUSH1 0x4 SLOAD DUP2 MSTORE PUSH1 0x20 ADD SWAP1 DUP2 MSTORE PUSH1 0x20 ADD PUSH1 0x0 KECCAK256 PUSH1 0x0 DUP3 ADD MLOAD DUP2 PUSH1 0x0 ADD SWAP1 DUP2 PUSH2 0xDB4 SWAP2 SWAP1 PUSH2 0x1BD5 JUMP JUMPDEST POP PUSH1 0x20 DUP3 ADD MLOAD DUP2 PUSH1 0x1 ADD PUSH1 0x0 PUSH2 0x100 EXP DUP2 SLOAD DUP2 PUSH20 0xFFFFFFFFFFFFFFFFFFFFFFFFFFFFFFFFFFFFFFFF MUL NOT AND SWAP1 DUP4 PUSH20 0xFFFFFFFFFFFFFFFFFFFFFFFFFFFFFFFFFFFFFFFF AND MUL OR SWAP1 SSTORE POP PUSH1 0x40 DUP3 ADD MLOAD DUP2 PUSH1 0x2 ADD SSTORE PUSH1 0x60 DUP3 ADD MLOAD DUP2 PUSH1 0x3 ADD SSTORE PUSH1 0x80 DUP3 ADD MLOAD DUP2 PUSH1 0x4 ADD SSTORE PUSH1 0xA0 DUP3 ADD MLOAD DUP2 PUSH1 0x5 ADD SSTORE PUSH1 0xC0 DUP3 ADD MLOAD DUP2 PUSH1 0x6 ADD PUSH1 0x0 PUSH2 0x100 EXP DUP2 SLOAD DUP2 PUSH1 0xFF MUL NOT AND SWAP1 DUP4 ISZERO ISZERO MUL OR SWAP1 SSTORE POP SWAP1 POP POP DUP1 SWAP2 POP POP SWAP4 SWAP3 POP POP POP JUMP JUMPDEST PUSH1 0x6 SLOAD DUP2 JUMP JUMPDEST PUSH1 0x0 DUP1 PUSH1 0x1 SWAP1 POP JUMPDEST PUSH1 0x1 PUSH1 0x4 SLOAD PUSH2 0xE6F SWAP2 SWAP1 PUSH2 0x182A JUMP JUMPDEST DUP2 LT ISZERO PUSH2 0xF4B JUMPI PUSH1 0xA PUSH1 0x0 DUP3 DUP2 MSTORE PUSH1 0x20 ADD SWAP1 DUP2 MSTORE PUSH1 0x20 ADD PUSH1 0x0 KECCAK256 PUSH1 0x2 ADD SLOAD SWAP2 POP PUSH1 0x0 PUSH1 0xB PUSH1 0x0 DUP5 DUP2 MSTORE PUSH1 0x20 ADD SWAP1 DUP2 MSTORE PUSH1 0x20 ADD PUSH1 0x0 KECCAK256 PUSH1 0x1 ADD SLOAD EQ PUSH2 0xEE3 JUMPI PUSH1 0xB PUSH1 0x0 DUP4 DUP2 MSTORE PUSH1 0x20 ADD SWAP1 DUP2 MSTORE PUSH1 0x20 ADD PUSH1 0x0 KECCAK256 PUSH1 0x1 ADD SLOAD PUSH1 0xA PUSH1 0x0 DUP4 DUP2 MSTORE PUSH1 0x20 ADD SWAP1 DUP2 MSTORE PUSH1 0x20 ADD PUSH1 0x0 KECCAK256 PUSH1 0x3 ADD DUP2 SWAP1 SSTORE POP PUSH2 0xF38 JUMP JUMPDEST PUSH2 0xEEC DUP3 PUSH2 0x424 JUMP JUMPDEST PUSH1 0xB PUSH1 0x0 DUP5 DUP2 MSTORE PUSH1 0x20 ADD SWAP1 DUP2 MSTORE PUSH1 0x20 ADD PUSH1 0x0 KECCAK256 PUSH1 0x1 ADD DUP2 SWAP1 SSTORE POP PUSH1 0xB PUSH1 0x0 DUP4 DUP2 MSTORE PUSH1 0x20 ADD SWAP1 DUP2 MSTORE PUSH1 0x20 ADD PUSH1 0x0 KECCAK256 PUSH1 0x1 ADD SLOAD PUSH1 0xA PUSH1 0x0 DUP4 DUP2 MSTORE PUSH1 0x20 ADD SWAP1 DUP2 MSTORE PUSH1 0x20 ADD PUSH1 0x0 KECCAK256 PUSH1 0x3 ADD DUP2 SWAP1 SSTORE POP JUMPDEST DUP1 DUP1 PUSH2 0xF43 SWAP1 PUSH2 0x185E JUMP JUMPDEST SWAP2 POP POP PUSH2 0xE60 JUMP JUMPDEST POP TIMESTAMP PUSH1 0x6 DUP2 SWAP1 SSTORE POP PUSH1 0x0 PUSH1 0x7 PUSH1 0x0 PUSH2 0x100 EXP DUP2 SLOAD DUP2 PUSH1 0xFF MUL NOT AND SWAP1 DUP4 ISZERO ISZERO MUL OR SWAP1 SSTORE POP POP JUMP JUMPDEST PUSH1 0x60 PUSH1 0x0 DUP1 PUSH1 0x0 DUP1 PUSH1 0x0 DUP1 PUSH1 0xA PUSH1 0x0 DUP10 DUP2 MSTORE PUSH1 0x20 ADD SWAP1 DUP2 MSTORE PUSH1 0x20 ADD PUSH1 0x0 KECCAK256 PUSH1 0x0 ADD DUP1 SLOAD PUSH2 0xF9D SWAP1 PUSH2 0x17F9 JUMP JUMPDEST DUP1 PUSH1 0x1F ADD PUSH1 0x20 DUP1 SWAP2 DIV MUL PUSH1 0x20 ADD PUSH1 0x40 MLOAD SWAP1 DUP2 ADD PUSH1 0x40 MSTORE DUP1 SWAP3 SWAP2 SWAP1 DUP2 DUP2 MSTORE PUSH1 0x20 ADD DUP3 DUP1 SLOAD PUSH2 0xFC9 SWAP1 PUSH2 0x17F9 JUMP JUMPDEST DUP1 ISZERO PUSH2 0x1016 JUMPI DUP1 PUSH1 0x1F LT PUSH2 0xFEB JUMPI PUSH2 0x100 DUP1 DUP4 SLOAD DIV MUL DUP4 MSTORE SWAP2 PUSH1 0x20 ADD SWAP2 PUSH2 0x1016 JUMP JUMPDEST DUP3 ADD SWAP2 SWAP1 PUSH1 0x0 MSTORE PUSH1 0x20 PUSH1 0x0 KECCAK256 SWAP1 JUMPDEST DUP2 SLOAD DUP2 MSTORE SWAP1 PUSH1 0x1 ADD SWAP1 PUSH1 0x20 ADD DUP1 DUP4 GT PUSH2 0xFF9 JUMPI DUP3 SWAP1 SUB PUSH1 0x1F AND DUP3 ADD SWAP2 JUMPDEST POP POP POP POP POP SWAP1 POP PUSH1 0x0 PUSH1 0xA PUSH1 0x0 DUP11 DUP2 MSTORE PUSH1 0x20 ADD SWAP1 DUP2 MSTORE PUSH1 0x20 ADD PUSH1 0x0 KECCAK256 PUSH1 0x2 ADD SLOAD SWAP1 POP PUSH1 0x0 PUSH1 0xA PUSH1 0x0 DUP12 DUP2 MSTORE PUSH1 0x20 ADD SWAP1 DUP2 MSTORE PUSH1 0x20 ADD PUSH1 0x0 KECCAK256 PUSH1 0x3 ADD SLOAD SWAP1 POP PUSH1 0x0 PUSH1 0xA PUSH1 0x0 DUP13 DUP2 MSTORE PUSH1 0x20 ADD SWAP1 DUP2 MSTORE PUSH1 0x20 ADD PUSH1 0x0 KECCAK256 PUSH1 0x4 ADD SLOAD SWAP1 POP PUSH1 0x0 PUSH1 0xA PUSH1 0x0 DUP14 DUP2 MSTORE PUSH1 0x20 ADD SWAP1 DUP2 MSTORE PUSH1 0x20 ADD PUSH1 0x0 KECCAK256 PUSH1 0x5 ADD SLOAD SWAP1 POP PUSH1 0x0 PUSH1 0xA PUSH1 0x0 DUP15 DUP2 MSTORE PUSH1 0x20 ADD SWAP1 DUP2 MSTORE PUSH1 0x20 ADD PUSH1 0x0 KECCAK256 PUSH1 0x6 ADD PUSH1 0x0 SWAP1 SLOAD SWAP1 PUSH2 0x100 EXP SWAP1 DIV PUSH1 0xFF AND SWAP1 POP DUP6 DUP6 DUP6 DUP6 DUP6 DUP6 SWAP12 POP SWAP12 POP SWAP12 POP SWAP12 POP SWAP12 POP SWAP12 POP POP POP POP POP POP POP SWAP2 SWAP4 SWAP6 POP SWAP2 SWAP4 SWAP6 JUMP JUMPDEST PUSH1 0x9 SLOAD DUP2 JUMP JUMPDEST PUSH1 0x5 SLOAD DUP2 JUMP JUMPDEST PUSH1 0x0 DUP1 PUSH1 0x0 DUP1 PUSH1 0x1 SWAP1 POP JUMPDEST PUSH1 0x6 DUP2 LT ISZERO PUSH2 0x1143 JUMPI PUSH1 0xB PUSH1 0x0 DUP4 DUP2 MSTORE PUSH1 0x20 ADD SWAP1 DUP2 MSTORE PUSH1 0x20 ADD PUSH1 0x0 KECCAK256 PUSH1 0x3 ADD SLOAD SWAP4 POP PUSH1 0xB PUSH1 0x0 DUP3 DUP2 MSTORE PUSH1 0x20 ADD SWAP1 DUP2 MSTORE PUSH1 0x20 ADD PUSH1 0x0 KECCAK256 PUSH1 0x3 ADD SLOAD SWAP3 POP DUP4 DUP4 SGT ISZERO PUSH2 0x1130 JUMPI DUP1 SWAP2 POP JUMPDEST DUP1 DUP1 PUSH2 0x113B SWAP1 PUSH2 0x185E JUMP JUMPDEST SWAP2 POP POP PUSH2 0x10E9 JUMP JUMPDEST POP DUP1 PUSH1 0x9 DUP2 SWAP1 SSTORE POP PUSH2 0x1153 PUSH2 0xB8F JUMP JUMPDEST POP POP POP JUMP JUMPDEST PUSH1 0x1 PUSH1 0x0 SWAP1 SLOAD SWAP1 PUSH2 0x100 EXP SWAP1 DIV PUSH20 0xFFFFFFFFFFFFFFFFFFFFFFFFFFFFFFFFFFFFFFFF AND DUP2 JUMP JUMPDEST PUSH1 0x40 MLOAD DUP1 PUSH1 0xE0 ADD PUSH1 0x40 MSTORE DUP1 PUSH1 0x60 DUP2 MSTORE PUSH1 0x20 ADD PUSH1 0x0 PUSH20 0xFFFFFFFFFFFFFFFFFFFFFFFFFFFFFFFFFFFFFFFF AND DUP2 MSTORE PUSH1 0x20 ADD PUSH1 0x0 DUP2 MSTORE PUSH1 0x20 ADD PUSH1 0x0 DUP2 MSTORE PUSH1 0x20 ADD PUSH1 0x0 DUP2 MSTORE PUSH1 0x20 ADD PUSH1 0x0 DUP2 MSTORE PUSH1 0x20 ADD PUSH1 0x0 ISZERO ISZERO DUP2 MSTORE POP SWAP1 JUMP JUMPDEST PUSH1 0x0 DUP2 ISZERO ISZERO SWAP1 POP SWAP2 SWAP1 POP JUMP JUMPDEST PUSH2 0x11E8 DUP2 PUSH2 0x11D3 JUMP JUMPDEST DUP3 MSTORE POP POP JUMP JUMPDEST PUSH1 0x0 PUSH1 0x20 DUP3 ADD SWAP1 POP PUSH2 0x1203 PUSH1 0x0 DUP4 ADD DUP5 PUSH2 0x11DF JUMP JUMPDEST SWAP3 SWAP2 POP POP JUMP JUMPDEST PUSH1 0x0 DUP2 SWAP1 POP SWAP2 SWAP1 POP JUMP JUMPDEST PUSH2 0x121C DUP2 PUSH2 0x1209 JUMP JUMPDEST DUP3 MSTORE POP POP JUMP JUMPDEST PUSH1 0x0 PUSH1 0x20 DUP3 ADD SWAP1 POP PUSH2 0x1237 PUSH1 0x0 DUP4 ADD DUP5 PUSH2 0x1213 JUMP JUMPDEST SWAP3 SWAP2 POP POP JUMP JUMPDEST PUSH1 0x0 DUP1 REVERT JUMPDEST PUSH1 0x0 DUP1 REVERT JUMPDEST PUSH2 0x1250 DUP2 PUSH2 0x1209 JUMP JUMPDEST DUP2 EQ PUSH2 0x125B JUMPI PUSH1 0x0 DUP1 REVERT JUMPDEST POP JUMP JUMPDEST PUSH1 0x0 DUP2 CALLDATALOAD SWAP1 POP PUSH2 0x126D DUP2 PUSH2 0x1247 JUMP JUMPDEST SWAP3 SWAP2 POP POP JUMP JUMPDEST PUSH1 0x0 PUSH1 0x20 DUP3 DUP5 SUB SLT ISZERO PUSH2 0x1289 JUMPI PUSH2 0x1288 PUSH2 0x123D JUMP JUMPDEST JUMPDEST PUSH1 0x0 PUSH2 0x1297 DUP5 DUP3 DUP6 ADD PUSH2 0x125E JUMP JUMPDEST SWAP2 POP POP SWAP3 SWAP2 POP POP JUMP JUMPDEST PUSH1 0x0 DUP2 SWAP1 POP SWAP2 SWAP1 POP JUMP JUMPDEST PUSH2 0x12B3 DUP2 PUSH2 0x12A0 JUMP JUMPDEST DUP3 MSTORE POP POP JUMP JUMPDEST PUSH1 0x0 PUSH1 0x20 DUP3 ADD SWAP1 POP PUSH2 0x12CE PUSH1 0x0 DUP4 ADD DUP5 PUSH2 0x12AA JUMP JUMPDEST SWAP3 SWAP2 POP POP JUMP JUMPDEST PUSH1 0x0 DUP2 MLOAD SWAP1 POP SWAP2 SWAP1 POP JUMP JUMPDEST PUSH1 0x0 DUP3 DUP3 MSTORE PUSH1 0x20 DUP3 ADD SWAP1 POP SWAP3 SWAP2 POP POP JUMP JUMPDEST PUSH1 0x0 JUMPDEST DUP4 DUP2 LT ISZERO PUSH2 0x130E JUMPI DUP1 DUP3 ADD MLOAD DUP2 DUP5 ADD MSTORE PUSH1 0x20 DUP2 ADD SWAP1 POP PUSH2 0x12F3 JUMP JUMPDEST PUSH1 0x0 DUP5 DUP5 ADD MSTORE POP POP POP POP JUMP JUMPDEST PUSH1 0x0 PUSH1 0x1F NOT PUSH1 0x1F DUP4 ADD AND SWAP1 POP SWAP2 SWAP1 POP JUMP JUMPDEST PUSH1 0x0 PUSH2 0x1336 DUP3 PUSH2 0x12D4 JUMP JUMPDEST PUSH2 0x1340 DUP2 DUP6 PUSH2 0x12DF JUMP JUMPDEST SWAP4 POP PUSH2 0x1350 DUP2 DUP6 PUSH1 0x20 DUP7 ADD PUSH2 0x12F0 JUMP JUMPDEST PUSH2 0x1359 DUP2 PUSH2 0x131A JUMP JUMPDEST DUP5 ADD SWAP2 POP POP SWAP3 SWAP2 POP POP JUMP JUMPDEST PUSH1 0x0 PUSH20 0xFFFFFFFFFFFFFFFFFFFFFFFFFFFFFFFFFFFFFFFF DUP3 AND SWAP1 POP SWAP2 SWAP1 POP JUMP JUMPDEST PUSH1 0x0 PUSH2 0x138F DUP3 PUSH2 0x1364 JUMP JUMPDEST SWAP1 POP SWAP2 SWAP1 POP JUMP JUMPDEST PUSH2 0x139F DUP2 PUSH2 0x1384 JUMP JUMPDEST DUP3 MSTORE POP POP JUMP JUMPDEST PUSH1 0x0 PUSH1 0xE0 DUP3 ADD SWAP1 POP DUP2 DUP2 SUB PUSH1 0x0 DUP4 ADD MSTORE PUSH2 0x13BF DUP2 DUP11 PUSH2 0x132B JUMP JUMPDEST SWAP1 POP PUSH2 0x13CE PUSH1 0x20 DUP4 ADD DUP10 PUSH2 0x1396 JUMP JUMPDEST PUSH2 0x13DB PUSH1 0x40 DUP4 ADD DUP9 PUSH2 0x1213 JUMP JUMPDEST PUSH2 0x13E8 PUSH1 0x60 DUP4 ADD DUP8 PUSH2 0x12AA JUMP JUMPDEST PUSH2 0x13F5 PUSH1 0x80 DUP4 ADD DUP7 PUSH2 0x12AA JUMP JUMPDEST PUSH2 0x1402 PUSH1 0xA0 DUP4 ADD DUP6 PUSH2 0x12AA JUMP JUMPDEST PUSH2 0x140F PUSH1 0xC0 DUP4 ADD DUP5 PUSH2 0x11DF JUMP JUMPDEST SWAP9 SWAP8 POP POP POP POP POP POP POP POP JUMP JUMPDEST PUSH1 0x0 PUSH1 0x80 DUP3 ADD SWAP1 POP PUSH2 0x1430 PUSH1 0x0 DUP4 ADD DUP8 PUSH2 0x1213 JUMP JUMPDEST PUSH2 0x143D PUSH1 0x20 DUP4 ADD DUP7 PUSH2 0x12AA JUMP JUMPDEST PUSH2 0x144A PUSH1 0x40 DUP4 ADD DUP6 PUSH2 0x12AA JUMP JUMPDEST PUSH2 0x1457 PUSH1 0x60 DUP4 ADD DUP5 PUSH2 0x12AA JUMP JUMPDEST SWAP6 SWAP5 POP POP POP POP POP JUMP JUMPDEST PUSH1 0x0 PUSH1 0x20 DUP3 ADD SWAP1 POP DUP2 DUP2 SUB PUSH1 0x0 DUP4 ADD MSTORE PUSH2 0x147A DUP2 DUP5 PUSH2 0x132B JUMP JUMPDEST SWAP1 POP SWAP3 SWAP2 POP POP JUMP JUMPDEST PUSH1 0x0 DUP1 REVERT JUMPDEST PUSH1 0x0 DUP1 REVERT JUMPDEST PUSH1 0x0 DUP1 REVERT JUMPDEST PUSH1 0x0 DUP1 DUP4 PUSH1 0x1F DUP5 ADD SLT PUSH2 0x14A7 JUMPI PUSH2 0x14A6 PUSH2 0x1482 JUMP JUMPDEST JUMPDEST DUP3 CALLDATALOAD SWAP1 POP PUSH8 0xFFFFFFFFFFFFFFFF DUP2 GT ISZERO PUSH2 0x14C4 JUMPI PUSH2 0x14C3 PUSH2 0x1487 JUMP JUMPDEST JUMPDEST PUSH1 0x20 DUP4 ADD SWAP2 POP DUP4 PUSH1 0x1 DUP3 MUL DUP4 ADD GT ISZERO PUSH2 0x14E0 JUMPI PUSH2 0x14DF PUSH2 0x148C JUMP JUMPDEST JUMPDEST SWAP3 POP SWAP3 SWAP1 POP JUMP JUMPDEST PUSH1 0x0 DUP1 PUSH1 0x0 PUSH1 0x40 DUP5 DUP7 SUB SLT ISZERO PUSH2 0x1500 JUMPI PUSH2 0x14FF PUSH2 0x123D JUMP JUMPDEST JUMPDEST PUSH1 0x0 DUP5 ADD CALLDATALOAD PUSH8 0xFFFFFFFFFFFFFFFF DUP2 GT ISZERO PUSH2 0x151E JUMPI PUSH2 0x151D PUSH2 0x1242 JUMP JUMPDEST JUMPDEST PUSH2 0x152A DUP7 DUP3 DUP8 ADD PUSH2 0x1491 JUMP JUMPDEST SWAP4 POP SWAP4 POP POP PUSH1 0x20 PUSH2 0x153D DUP7 DUP3 DUP8 ADD PUSH2 0x125E JUMP JUMPDEST SWAP2 POP POP SWAP3 POP SWAP3 POP SWAP3 JUMP JUMPDEST PUSH1 0x0 DUP3 DUP3 MSTORE PUSH1 0x20 DUP3 ADD SWAP1 POP SWAP3 SWAP2 POP POP JUMP JUMPDEST PUSH1 0x0 PUSH2 0x1563 DUP3 PUSH2 0x12D4 JUMP JUMPDEST PUSH2 0x156D DUP2 DUP6 PUSH2 0x1547 JUMP JUMPDEST SWAP4 POP PUSH2 0x157D DUP2 DUP6 PUSH1 0x20 DUP7 ADD PUSH2 0x12F0 JUMP JUMPDEST PUSH2 0x1586 DUP2 PUSH2 0x131A JUMP JUMPDEST DUP5 ADD SWAP2 POP POP SWAP3 SWAP2 POP POP JUMP JUMPDEST PUSH2 0x159A DUP2 PUSH2 0x1384 JUMP JUMPDEST DUP3 MSTORE POP POP JUMP JUMPDEST PUSH2 0x15A9 DUP2 PUSH2 0x1209 JUMP JUMPDEST DUP3 MSTORE POP POP JUMP JUMPDEST PUSH2 0x15B8 DUP2 PUSH2 0x12A0 JUMP JUMPDEST DUP3 MSTORE POP POP JUMP JUMPDEST PUSH2 0x15C7 DUP2 PUSH2 0x11D3 JUMP JUMPDEST DUP3 MSTORE POP POP JUMP JUMPDEST PUSH1 0x0 PUSH1 0xE0 DUP4 ADD PUSH1 0x0 DUP4 ADD MLOAD DUP5 DUP3 SUB PUSH1 0x0 DUP7 ADD MSTORE PUSH2 0x15EA DUP3 DUP3 PUSH2 0x1558 JUMP JUMPDEST SWAP2 POP POP PUSH1 0x20 DUP4 ADD MLOAD PUSH2 0x15FF PUSH1 0x20 DUP7 ADD DUP3 PUSH2 0x1591 JUMP JUMPDEST POP PUSH1 0x40 DUP4 ADD MLOAD PUSH2 0x1612 PUSH1 0x40 DUP7 ADD DUP3 PUSH2 0x15A0 JUMP JUMPDEST POP PUSH1 0x60 DUP4 ADD MLOAD PUSH2 0x1625 PUSH1 0x60 DUP7 ADD DUP3 PUSH2 0x15AF JUMP JUMPDEST POP PUSH1 0x80 DUP4 ADD MLOAD PUSH2 0x1638 PUSH1 0x80 DUP7 ADD DUP3 PUSH2 0x15AF JUMP JUMPDEST POP PUSH1 0xA0 DUP4 ADD MLOAD PUSH2 0x164B PUSH1 0xA0 DUP7 ADD DUP3 PUSH2 0x15AF JUMP JUMPDEST POP PUSH1 0xC0 DUP4 ADD MLOAD PUSH2 0x165E PUSH1 0xC0 DUP7 ADD DUP3 PUSH2 0x15BE JUMP JUMPDEST POP DUP1 SWAP2 POP POP SWAP3 SWAP2 POP POP JUMP JUMPDEST PUSH1 0x0 PUSH1 0x20 DUP3 ADD SWAP1 POP DUP2 DUP2 SUB PUSH1 0x0 DUP4 ADD MSTORE PUSH2 0x1683 DUP2 DUP5 PUSH2 0x15CD JUMP JUMPDEST SWAP1 POP SWAP3 SWAP2 POP POP JUMP JUMPDEST PUSH1 0x0 PUSH1 0xC0 DUP3 ADD SWAP1 POP DUP2 DUP2 SUB PUSH1 0x0 DUP4 ADD MSTORE PUSH2 0x16A5 DUP2 DUP10 PUSH2 0x132B JUMP JUMPDEST SWAP1 POP PUSH2 0x16B4 PUSH1 0x20 DUP4 ADD DUP9 PUSH2 0x1213 JUMP JUMPDEST PUSH2 0x16C1 PUSH1 0x40 DUP4 ADD DUP8 PUSH2 0x12AA JUMP JUMPDEST PUSH2 0x16CE PUSH1 0x60 DUP4 ADD DUP7 PUSH2 0x12AA JUMP JUMPDEST PUSH2 0x16DB PUSH1 0x80 DUP4 ADD DUP6 PUSH2 0x12AA JUMP JUMPDEST PUSH2 0x16E8 PUSH1 0xA0 DUP4 ADD DUP5 PUSH2 0x11DF JUMP JUMPDEST SWAP8 SWAP7 POP POP POP POP POP POP POP JUMP JUMPDEST PUSH1 0x0 PUSH1 0x20 DUP3 ADD SWAP1 POP PUSH2 0x1708 PUSH1 0x0 DUP4 ADD DUP5 PUSH2 0x1396 JUMP JUMPDEST SWAP3 SWAP2 POP POP JUMP JUMPDEST PUSH32 0x4E487B7100000000000000000000000000000000000000000000000000000000 PUSH1 0x0 MSTORE PUSH1 0x11 PUSH1 0x4 MSTORE PUSH1 0x24 PUSH1 0x0 REVERT JUMPDEST PUSH1 0x0 PUSH2 0x1748 DUP3 PUSH2 0x1209 JUMP JUMPDEST SWAP2 POP PUSH2 0x1753 DUP4 PUSH2 0x1209 JUMP JUMPDEST SWAP3 POP DUP3 DUP3 SUB SWAP1 POP DUP2 DUP2 GT ISZERO PUSH2 0x176B JUMPI PUSH2 0x176A PUSH2 0x170E JUMP JUMPDEST JUMPDEST SWAP3 SWAP2 POP POP JUMP JUMPDEST PUSH2 0x177A DUP2 PUSH2 0x12A0 JUMP JUMPDEST DUP2 EQ PUSH2 0x1785 JUMPI PUSH1 0x0 DUP1 REVERT JUMPDEST POP JUMP JUMPDEST PUSH1 0x0 DUP2 MLOAD SWAP1 POP PUSH2 0x1797 DUP2 PUSH2 0x1771 JUMP JUMPDEST SWAP3 SWAP2 POP POP JUMP JUMPDEST PUSH1 0x0 PUSH1 0x20 DUP3 DUP5 SUB SLT ISZERO PUSH2 0x17B3 JUMPI PUSH2 0x17B2 PUSH2 0x123D JUMP JUMPDEST JUMPDEST PUSH1 0x0 PUSH2 0x17C1 DUP5 DUP3 DUP6 ADD PUSH2 0x1788 JUMP JUMPDEST SWAP2 POP POP SWAP3 SWAP2 POP POP JUMP JUMPDEST PUSH32 0x4E487B7100000000000000000000000000000000000000000000000000000000 PUSH1 0x0 MSTORE PUSH1 0x22 PUSH1 0x4 MSTORE PUSH1 0x24 PUSH1 0x0 REVERT JUMPDEST PUSH1 0x0 PUSH1 0x2 DUP3 DIV SWAP1 POP PUSH1 0x1 DUP3 AND DUP1 PUSH2 0x1811 JUMPI PUSH1 0x7F DUP3 AND SWAP2 POP JUMPDEST PUSH1 0x20 DUP3 LT DUP2 SUB PUSH2 0x1824 JUMPI PUSH2 0x1823 PUSH2 0x17CA JUMP JUMPDEST JUMPDEST POP SWAP2 SWAP1 POP JUMP JUMPDEST PUSH1 0x0 PUSH2 0x1835 DUP3 PUSH2 0x1209 JUMP JUMPDEST SWAP2 POP PUSH2 0x1840 DUP4 PUSH2 0x1209 JUMP JUMPDEST SWAP3 POP DUP3 DUP3 ADD SWAP1 POP DUP1 DUP3 GT ISZERO PUSH2 0x1858 JUMPI PUSH2 0x1857 PUSH2 0x170E JUMP JUMPDEST JUMPDEST SWAP3 SWAP2 POP POP JUMP JUMPDEST PUSH1 0x0 PUSH2 0x1869 DUP3 PUSH2 0x1209 JUMP JUMPDEST SWAP2 POP PUSH32 0xFFFFFFFFFFFFFFFFFFFFFFFFFFFFFFFFFFFFFFFFFFFFFFFFFFFFFFFFFFFFFFFF DUP3 SUB PUSH2 0x189B JUMPI PUSH2 0x189A PUSH2 0x170E JUMP JUMPDEST JUMPDEST PUSH1 0x1 DUP3 ADD SWAP1 POP SWAP2 SWAP1 POP JUMP JUMPDEST PUSH1 0x0 PUSH2 0x18B1 DUP3 PUSH2 0x12A0 JUMP JUMPDEST SWAP2 POP PUSH2 0x18BC DUP4 PUSH2 0x12A0 JUMP JUMPDEST SWAP3 POP DUP3 DUP3 SUB SWAP1 POP DUP2 DUP2 SLT PUSH1 0x0 DUP5 SLT AND DUP3 DUP3 SGT PUSH1 0x0 DUP6 SLT ISZERO AND OR ISZERO PUSH2 0x18E3 JUMPI PUSH2 0x18E2 PUSH2 0x170E JUMP JUMPDEST JUMPDEST SWAP3 SWAP2 POP POP JUMP JUMPDEST PUSH1 0x0 PUSH2 0x18F4 DUP3 PUSH2 0x12A0 JUMP JUMPDEST SWAP2 POP PUSH2 0x18FF DUP4 PUSH2 0x12A0 JUMP JUMPDEST SWAP3 POP DUP3 DUP3 MUL PUSH2 0x190D DUP2 PUSH2 0x12A0 JUMP JUMPDEST SWAP2 POP PUSH32 0x8000000000000000000000000000000000000000000000000000000000000000 DUP5 EQ PUSH1 0x0 DUP5 SLT AND ISZERO PUSH2 0x1945 JUMPI PUSH2 0x1944 PUSH2 0x170E JUMP JUMPDEST JUMPDEST DUP3 DUP3 SDIV DUP5 EQ DUP4 ISZERO OR PUSH2 0x195A JUMPI PUSH2 0x1959 PUSH2 0x170E JUMP JUMPDEST JUMPDEST POP SWAP3 SWAP2 POP POP JUMP JUMPDEST PUSH32 0x4E487B7100000000000000000000000000000000000000000000000000000000 PUSH1 0x0 MSTORE PUSH1 0x12 PUSH1 0x4 MSTORE PUSH1 0x24 PUSH1 0x0 REVERT JUMPDEST PUSH1 0x0 PUSH2 0x199B DUP3 PUSH2 0x12A0 JUMP JUMPDEST SWAP2 POP PUSH2 0x19A6 DUP4 PUSH2 0x12A0 JUMP JUMPDEST SWAP3 POP DUP3 PUSH2 0x19B6 JUMPI PUSH2 0x19B5 PUSH2 0x1961 JUMP JUMPDEST JUMPDEST PUSH1 0x1 PUSH1 0x0 SUB DUP4 EQ PUSH32 0x8000000000000000000000000000000000000000000000000000000000000000 DUP4 EQ AND ISZERO PUSH2 0x19EF JUMPI PUSH2 0x19EE PUSH2 0x170E JUMP JUMPDEST JUMPDEST DUP3 DUP3 SDIV SWAP1 POP SWAP3 SWAP2 POP POP JUMP JUMPDEST PUSH32 0x4E487B7100000000000000000000000000000000000000000000000000000000 PUSH1 0x0 MSTORE PUSH1 0x41 PUSH1 0x4 MSTORE PUSH1 0x24 PUSH1 0x0 REVERT JUMPDEST PUSH1 0x0 DUP2 SWAP1 POP DUP2 PUSH1 0x0 MSTORE PUSH1 0x20 PUSH1 0x0 KECCAK256 SWAP1 POP SWAP2 SWAP1 POP JUMP JUMPDEST PUSH1 0x0 PUSH1 0x20 PUSH1 0x1F DUP4 ADD DIV SWAP1 POP SWAP2 SWAP1 POP JUMP JUMPDEST PUSH1 0x0 DUP3 DUP3 SHL SWAP1 POP SWAP3 SWAP2 POP POP JUMP JUMPDEST PUSH1 0x0 PUSH1 0x8 DUP4 MUL PUSH2 0x1A8B PUSH32 0xFFFFFFFFFFFFFFFFFFFFFFFFFFFFFFFFFFFFFFFFFFFFFFFFFFFFFFFFFFFFFFFF DUP3 PUSH2 0x1A4E JUMP JUMPDEST PUSH2 0x1A95 DUP7 DUP4 PUSH2 0x1A4E JUMP JUMPDEST SWAP6 POP DUP1 NOT DUP5 AND SWAP4 POP DUP1 DUP7 AND DUP5 OR SWAP3 POP POP POP SWAP4 SWAP3 POP POP POP JUMP JUMPDEST PUSH1 0x0 DUP2 SWAP1 POP SWAP2 SWAP1 POP JUMP JUMPDEST PUSH1 0x0 PUSH2 0x1AD2 PUSH2 0x1ACD PUSH2 0x1AC8 DUP5 PUSH2 0x1209 JUMP JUMPDEST PUSH2 0x1AAD JUMP JUMPDEST PUSH2 0x1209 JUMP JUMPDEST SWAP1 POP SWAP2 SWAP1 POP JUMP JUMPDEST PUSH1 0x0 DUP2 SWAP1 POP SWAP2 SWAP1 POP JUMP JUMPDEST PUSH2 0x1AEC DUP4 PUSH2 0x1AB7 JUMP JUMPDEST PUSH2 0x1B00 PUSH2 0x1AF8 DUP3 PUSH2 0x1AD9 JUMP JUMPDEST DUP5 DUP5 SLOAD PUSH2 0x1A5B JUMP JUMPDEST DUP3 SSTORE POP POP POP POP JUMP JUMPDEST PUSH1 0x0 SWAP1 JUMP JUMPDEST PUSH2 0x1B15 PUSH2 0x1B08 JUMP JUMPDEST PUSH2 0x1B20 DUP2 DUP5 DUP5 PUSH2 0x1AE3 JUMP JUMPDEST POP POP POP JUMP JUMPDEST JUMPDEST DUP2 DUP2 LT ISZERO PUSH2 0x1B44 JUMPI PUSH2 0x1B39 PUSH1 0x0 DUP3 PUSH2 0x1B0D JUMP JUMPDEST PUSH1 0x1 DUP2 ADD SWAP1 POP PUSH2 0x1B26 JUMP JUMPDEST POP POP JUMP JUMPDEST PUSH1 0x1F DUP3 GT ISZERO PUSH2 0x1B89 JUMPI PUSH2 0x1B5A DUP2 PUSH2 0x1A29 JUMP JUMPDEST PUSH2 0x1B63 DUP5 PUSH2 0x1A3E JUMP JUMPDEST DUP2 ADD PUSH1 0x20 DUP6 LT ISZERO PUSH2 0x1B72 JUMPI DUP2 SWAP1 POP JUMPDEST PUSH2 0x1B86 PUSH2 0x1B7E DUP6 PUSH2 0x1A3E JUMP JUMPDEST DUP4 ADD DUP3 PUSH2 0x1B25 JUMP JUMPDEST POP POP JUMPDEST POP POP POP JUMP JUMPDEST PUSH1 0x0 DUP3 DUP3 SHR SWAP1 POP SWAP3 SWAP2 POP POP JUMP JUMPDEST PUSH1 0x0 PUSH2 0x1BAC PUSH1 0x0 NOT DUP5 PUSH1 0x8 MUL PUSH2 0x1B8E JUMP JUMPDEST NOT DUP1 DUP4 AND SWAP2 POP POP SWAP3 SWAP2 POP POP JUMP JUMPDEST PUSH1 0x0 PUSH2 0x1BC5 DUP4 DUP4 PUSH2 0x1B9B JUMP JUMPDEST SWAP2 POP DUP3 PUSH1 0x2 MUL DUP3 OR SWAP1 POP SWAP3 SWAP2 POP POP JUMP JUMPDEST PUSH2 0x1BDE DUP3 PUSH2 0x12D4 JUMP JUMPDEST PUSH8 0xFFFFFFFFFFFFFFFF DUP2 GT ISZERO PUSH2 0x1BF7 JUMPI PUSH2 0x1BF6 PUSH2 0x19FA JUMP JUMPDEST JUMPDEST PUSH2 0x1C01 DUP3 SLOAD PUSH2 0x17F9 JUMP JUMPDEST PUSH2 0x1C0C DUP3 DUP3 DUP6 PUSH2 0x1B48 JUMP JUMPDEST PUSH1 0x0 PUSH1 0x20 SWAP1 POP PUSH1 0x1F DUP4 GT PUSH1 0x1 DUP2 EQ PUSH2 0x1C3F JUMPI PUSH1 0x0 DUP5 ISZERO PUSH2 0x1C2D JUMPI DUP3 DUP8 ADD MLOAD SWAP1 POP JUMPDEST PUSH2 0x1C37 DUP6 DUP3 PUSH2 0x1BB9 JUMP JUMPDEST DUP7 SSTORE POP PUSH2 0x1C9F JUMP JUMPDEST PUSH1 0x1F NOT DUP5 AND PUSH2 0x1C4D DUP7 PUSH2 0x1A29 JUMP JUMPDEST PUSH1 0x0 JUMPDEST DUP3 DUP2 LT ISZERO PUSH2 0x1C75 JUMPI DUP5 DUP10 ADD MLOAD DUP3 SSTORE PUSH1 0x1 DUP3 ADD SWAP2 POP PUSH1 0x20 DUP6 ADD SWAP5 POP PUSH1 0x20 DUP2 ADD SWAP1 POP PUSH2 0x1C50 JUMP JUMPDEST DUP7 DUP4 LT ISZERO PUSH2 0x1C92 JUMPI DUP5 DUP10 ADD MLOAD PUSH2 0x1C8E PUSH1 0x1F DUP10 AND DUP3 PUSH2 0x1B9B JUMP JUMPDEST DUP4 SSTORE POP JUMPDEST PUSH1 0x1 PUSH1 0x2 DUP9 MUL ADD DUP9 SSTORE POP POP POP JUMPDEST POP POP POP POP POP POP JUMP INVALID LOG2 PUSH5 0x6970667358 0x22 SLT KECCAK256 0xAF DUP3 MSIZE 0x4E 0x23 0x22 DUP5 SWAP14 MUL 0xE9 PUSH12 0x614CD06015E0A097C79C7339 0x4D 0xE 0xEE RETURNDATASIZE MSTORE8 LOG1 0xCC PUSH10 0x6A64736F6C6343000811 STOP CALLER "},"methodIdentifiers":{"adminAddress()":"fc6f9468","adminName()":"a8a23e39","calculateRange()":"70f838aa","choiceToCoin(uint256)":"50e757c6","choiceToPrice(uint256)":"129a14f2","countWinners()":"a565efff","counter()":"61bc221a","counterToPlayer(uint256)":"2d487eba","endGame()":"6cbc2ded","executionRequired()":"10c58e9f","getBalance()":"12065fe0","getPlayersInformation(uint256)":"e6718d14","getTimestamp()":"188ec356","paused()":"5c975abb","period()":"ef78d4fd","pickWinnerChoice()":"f9832706","start()":"be9a6555","startGame()":"d65ab5f2","takePart(string,uint256)":"acc591c7","ticketPrice()":"1209b1f6","winnerChoice()":"ed81378a","winners()":"a487bcd8"}}}}}