{
  "_format": "hh-sol-artifact-1",
  "contractName": "Game",
  "sourceName": "contracts/Game.sol",
  "abi": [
    {
      "inputs": [
        {
          "internalType": "address",
          "name": "_priceFeed",
          "type": "address"
        },
        {
          "internalType": "address",
          "name": "_admin",
          "type": "address"
        },
        {
          "internalType": "string",
          "name": "_name",
          "type": "string"
        },
        {
          "internalType": "uint256",
          "name": "_ticketPrice",
          "type": "uint256"
        },
        {
          "internalType": "uint256",
          "name": "_period",
          "type": "uint256"
        }
      ],
      "stateMutability": "nonpayable",
      "type": "constructor"
    },
    {
      "inputs": [],
      "name": "adminAddress",
      "outputs": [
        {
          "internalType": "address",
          "name": "",
          "type": "address"
        }
      ],
      "stateMutability": "view",
      "type": "function"
    },
    {
      "inputs": [],
      "name": "adminName",
      "outputs": [
        {
          "internalType": "string",
          "name": "",
          "type": "string"
        }
      ],
      "stateMutability": "view",
      "type": "function"
    },
    {
      "inputs": [],
      "name": "calculateRange",
      "outputs": [],
      "stateMutability": "nonpayable",
      "type": "function"
    },
    {
      "inputs": [
        {
          "internalType": "uint256",
          "name": "",
          "type": "uint256"
        }
      ],
      "name": "choiceToCoin",
      "outputs": [
        {
          "internalType": "uint256",
          "name": "symbol",
          "type": "uint256"
        },
        {
          "internalType": "int256",
          "name": "open",
          "type": "int256"
        },
        {
          "internalType": "int256",
          "name": "close",
          "type": "int256"
        },
        {
          "internalType": "int256",
          "name": "range",
          "type": "int256"
        }
      ],
      "stateMutability": "view",
      "type": "function"
    },
    {
      "inputs": [
        {
          "internalType": "uint256",
          "name": "_option",
          "type": "uint256"
        }
      ],
      "name": "choiceToPrice",
      "outputs": [
        {
          "internalType": "int256",
          "name": "",
          "type": "int256"
        }
      ],
      "stateMutability": "view",
      "type": "function"
    },
    {
      "inputs": [],
      "name": "countWinners",
      "outputs": [],
      "stateMutability": "nonpayable",
      "type": "function"
    },
    {
      "inputs": [],
      "name": "counter",
      "outputs": [
        {
          "internalType": "uint256",
          "name": "",
          "type": "uint256"
        }
      ],
      "stateMutability": "view",
      "type": "function"
    },
    {
      "inputs": [
        {
          "internalType": "uint256",
          "name": "",
          "type": "uint256"
        }
      ],
      "name": "counterToPlayer",
      "outputs": [
        {
          "internalType": "string",
          "name": "name",
          "type": "string"
        },
        {
          "internalType": "address",
          "name": "wallet",
          "type": "address"
        },
        {
          "internalType": "uint256",
          "name": "choice",
          "type": "uint256"
        },
        {
          "internalType": "int256",
          "name": "open",
          "type": "int256"
        },
        {
          "internalType": "int256",
          "name": "close",
          "type": "int256"
        },
        {
          "internalType": "int256",
          "name": "range",
          "type": "int256"
        },
        {
          "internalType": "bool",
          "name": "winner",
          "type": "bool"
        }
      ],
      "stateMutability": "view",
      "type": "function"
    },
    {
      "inputs": [],
      "name": "endGame",
      "outputs": [],
      "stateMutability": "nonpayable",
      "type": "function"
    },
    {
      "inputs": [],
      "name": "executionRequired",
      "outputs": [
        {
          "internalType": "bool",
          "name": "",
          "type": "bool"
        }
      ],
      "stateMutability": "view",
      "type": "function"
    },
    {
      "inputs": [],
      "name": "getBalance",
      "outputs": [
        {
          "internalType": "uint256",
          "name": "",
          "type": "uint256"
        }
      ],
      "stateMutability": "view",
      "type": "function"
    },
    {
      "inputs": [
        {
          "internalType": "uint256",
          "name": "_counter",
          "type": "uint256"
        }
      ],
      "name": "getPlayersInformation",
      "outputs": [
        {
          "internalType": "string",
          "name": "",
          "type": "string"
        },
        {
          "internalType": "uint256",
          "name": "",
          "type": "uint256"
        },
        {
          "internalType": "int256",
          "name": "",
          "type": "int256"
        },
        {
          "internalType": "int256",
          "name": "",
          "type": "int256"
        },
        {
          "internalType": "int256",
          "name": "",
          "type": "int256"
        },
        {
          "internalType": "bool",
          "name": "",
          "type": "bool"
        }
      ],
      "stateMutability": "view",
      "type": "function"
    },
    {
      "inputs": [],
      "name": "getTimestamp",
      "outputs": [
        {
          "internalType": "uint256",
          "name": "",
          "type": "uint256"
        }
      ],
      "stateMutability": "view",
      "type": "function"
    },
    {
      "inputs": [],
      "name": "hub",
      "outputs": [
        {
          "internalType": "contract Hub",
          "name": "",
          "type": "address"
        }
      ],
      "stateMutability": "view",
      "type": "function"
    },
    {
      "inputs": [],
      "name": "index",
      "outputs": [
        {
          "internalType": "uint256",
          "name": "",
          "type": "uint256"
        }
      ],
      "stateMutability": "view",
      "type": "function"
    },
    {
      "inputs": [],
      "name": "paused",
      "outputs": [
        {
          "internalType": "bool",
          "name": "",
          "type": "bool"
        }
      ],
      "stateMutability": "view",
      "type": "function"
    },
    {
      "inputs": [],
      "name": "period",
      "outputs": [
        {
          "internalType": "uint256",
          "name": "",
          "type": "uint256"
        }
      ],
      "stateMutability": "view",
      "type": "function"
    },
    {
      "inputs": [],
      "name": "pickWinnerChoice",
      "outputs": [],
      "stateMutability": "nonpayable",
      "type": "function"
    },
    {
      "inputs": [],
      "name": "splitMoney",
      "outputs": [],
      "stateMutability": "nonpayable",
      "type": "function"
    },
    {
      "inputs": [],
      "name": "start",
      "outputs": [
        {
          "internalType": "uint256",
          "name": "",
          "type": "uint256"
        }
      ],
      "stateMutability": "view",
      "type": "function"
    },
    {
      "inputs": [],
      "name": "startGame",
      "outputs": [],
      "stateMutability": "nonpayable",
      "type": "function"
    },
    {
      "inputs": [],
      "name": "started",
      "outputs": [
        {
          "internalType": "bool",
          "name": "",
          "type": "bool"
        }
      ],
      "stateMutability": "view",
      "type": "function"
    },
    {
      "inputs": [
        {
          "internalType": "string",
          "name": "_name",
          "type": "string"
        },
        {
          "internalType": "uint256",
          "name": "_choice",
          "type": "uint256"
        }
      ],
      "name": "takePart",
      "outputs": [
        {
          "components": [
            {
              "internalType": "string",
              "name": "name",
              "type": "string"
            },
            {
              "internalType": "address",
              "name": "wallet",
              "type": "address"
            },
            {
              "internalType": "uint256",
              "name": "choice",
              "type": "uint256"
            },
            {
              "internalType": "int256",
              "name": "open",
              "type": "int256"
            },
            {
              "internalType": "int256",
              "name": "close",
              "type": "int256"
            },
            {
              "internalType": "int256",
              "name": "range",
              "type": "int256"
            },
            {
              "internalType": "bool",
              "name": "winner",
              "type": "bool"
            }
          ],
          "internalType": "struct Game.Player",
          "name": "",
          "type": "tuple"
        }
      ],
      "stateMutability": "payable",
      "type": "function"
    },
    {
      "inputs": [],
      "name": "ticketPrice",
      "outputs": [
        {
          "internalType": "uint256",
          "name": "",
          "type": "uint256"
        }
      ],
      "stateMutability": "view",
      "type": "function"
    },
    {
      "inputs": [],
      "name": "winnerChoice",
      "outputs": [
        {
          "internalType": "uint256",
          "name": "",
          "type": "uint256"
        }
      ],
      "stateMutability": "view",
      "type": "function"
    },
    {
      "inputs": [],
      "name": "winners",
      "outputs": [
        {
          "internalType": "uint256",
          "name": "",
          "type": "uint256"
        }
      ],
      "stateMutability": "view",
      "type": "function"
    }
  ],
  "bytecode": "0x60806040526001600960006101000a81548160ff0219169083151502179055506000600a553480156200003157600080fd5b50604051620029a7380380620029a7833981810160405281019062000057919062000336565b846000806101000a81548173ffffffffffffffffffffffffffffffffffffffff021916908373ffffffffffffffffffffffffffffffffffffffff16021790555083600260006101000a81548173ffffffffffffffffffffffffffffffffffffffff021916908373ffffffffffffffffffffffffffffffffffffffff16021790555081600581905550806007819055508260039081620000f791906200061e565b50505050505062000705565b6000604051905090565b600080fd5b600080fd5b600073ffffffffffffffffffffffffffffffffffffffff82169050919050565b6000620001448262000117565b9050919050565b620001568162000137565b81146200016257600080fd5b50565b60008151905062000176816200014b565b92915050565b600080fd5b600080fd5b6000601f19601f8301169050919050565b7f4e487b7100000000000000000000000000000000000000000000000000000000600052604160045260246000fd5b620001d18262000186565b810181811067ffffffffffffffff82111715620001f357620001f262000197565b5b80604052505050565b60006200020862000103565b9050620002168282620001c6565b919050565b600067ffffffffffffffff82111562000239576200023862000197565b5b620002448262000186565b9050602081019050919050565b60005b838110156200027157808201518184015260208101905062000254565b60008484015250505050565b6000620002946200028e846200021b565b620001fc565b905082815260208101848484011115620002b357620002b262000181565b5b620002c084828562000251565b509392505050565b600082601f830112620002e057620002df6200017c565b5b8151620002f28482602086016200027d565b91505092915050565b6000819050919050565b6200031081620002fb565b81146200031c57600080fd5b50565b600081519050620003308162000305565b92915050565b600080600080600060a086880312156200035557620003546200010d565b5b6000620003658882890162000165565b9550506020620003788882890162000165565b945050604086015167ffffffffffffffff8111156200039c576200039b62000112565b5b620003aa88828901620002c8565b9350506060620003bd888289016200031f565b9250506080620003d0888289016200031f565b9150509295509295909350565b600081519050919050565b7f4e487b7100000000000000000000000000000000000000000000000000000000600052602260045260246000fd5b600060028204905060018216806200043057607f821691505b602082108103620004465762000445620003e8565b5b50919050565b60008190508160005260206000209050919050565b60006020601f8301049050919050565b600082821b905092915050565b600060088302620004b07fffffffffffffffffffffffffffffffffffffffffffffffffffffffffffffffff8262000471565b620004bc868362000471565b95508019841693508086168417925050509392505050565b6000819050919050565b6000620004ff620004f9620004f384620002fb565b620004d4565b620002fb565b9050919050565b6000819050919050565b6200051b83620004de565b620005336200052a8262000506565b8484546200047e565b825550505050565b600090565b6200054a6200053b565b6200055781848462000510565b505050565b5b818110156200057f576200057360008262000540565b6001810190506200055d565b5050565b601f821115620005ce5762000598816200044c565b620005a38462000461565b81016020851015620005b3578190505b620005cb620005c28562000461565b8301826200055c565b50505b505050565b600082821c905092915050565b6000620005f360001984600802620005d3565b1980831691505092915050565b60006200060e8383620005e0565b9150826002028217905092915050565b6200062982620003dd565b67ffffffffffffffff81111562000645576200064462000197565b5b62000651825462000417565b6200065e82828562000583565b600060209050601f83116001811462000696576000841562000681578287015190505b6200068d858262000600565b865550620006fd565b601f198416620006a6866200044c565b60005b82811015620006d057848901518255600182019150602085019450602081019050620006a9565b86831015620006f05784890151620006ec601f891682620005e0565b8355505b6001600288020188555050505b505050505050565b61229280620007156000396000f3fe6080604052600436106101815760003560e01c80636cbc2ded116100d1578063be9a65551161008a578063ed81378a11610064578063ed81378a1461052f578063ef78d4fd1461055a578063f983270614610585578063fc6f94681461059c57610181565b8063be9a6555146104ab578063d65ab5f2146104d6578063e6718d14146104ed57610181565b80636cbc2ded146103e057806370f838aa146103f7578063a487bcd81461040e578063a565efff14610439578063a8a23e3914610450578063acc591c71461047b57610181565b80631f2698ab1161013e578063365a86fc11610118578063365a86fc1461031f57806350e757c61461034a5780635c975abb1461038a57806361bc221a146103b557610181565b80631f2698ab146102865780632986c0e5146102b15780632d487eba146102dc57610181565b806310c58e9f1461018657806312065fe0146101b15780631209b1f6146101dc578063129a14f214610207578063188ec356146102445780631a2c8bc21461026f575b600080fd5b34801561019257600080fd5b5061019b6105c7565b6040516101a89190611604565b60405180910390f35b3480156101bd57600080fd5b506101c66105fe565b6040516101d39190611638565b60405180910390f35b3480156101e857600080fd5b506101f1610606565b6040516101fe9190611638565b60405180910390f35b34801561021357600080fd5b5061022e60048036038101906102299190611689565b61060c565b60405161023b91906116cf565b60405180910390f35b34801561025057600080fd5b506102596109cd565b6040516102669190611638565b60405180910390f35b34801561027b57600080fd5b506102846109d5565b005b34801561029257600080fd5b5061029b610ae3565b6040516102a89190611604565b60405180910390f35b3480156102bd57600080fd5b506102c6610af6565b6040516102d39190611638565b60405180910390f35b3480156102e857600080fd5b5061030360048036038101906102fe9190611689565b610afc565b60405161031697969594939291906117bb565b60405180910390f35b34801561032b57600080fd5b50610334610bf3565b6040516103419190611890565b60405180910390f35b34801561035657600080fd5b50610371600480360381019061036c9190611689565b610c19565b60405161038194939291906118ab565b60405180910390f35b34801561039657600080fd5b5061039f610c49565b6040516103ac9190611604565b60405180910390f35b3480156103c157600080fd5b506103ca610c5c565b6040516103d79190611638565b60405180910390f35b3480156103ec57600080fd5b506103f5610c62565b005b34801561040357600080fd5b5061040c610d61565b005b34801561041a57600080fd5b50610423610ebe565b6040516104309190611638565b60405180910390f35b34801561044557600080fd5b5061044e610ec4565b005b34801561045c57600080fd5b50610465610f68565b60405161047291906118f0565b60405180910390f35b61049560048036038101906104909190611977565b610ff6565b6040516104a29190611af9565b60405180910390f35b3480156104b757600080fd5b506104c06111bd565b6040516104cd9190611638565b60405180910390f35b3480156104e257600080fd5b506104eb6111c3565b005b3480156104f957600080fd5b50610514600480360381019061050f9190611689565b611387565b60405161052696959493929190611b1b565b60405180910390f35b34801561053b57600080fd5b506105446114e8565b6040516105519190611638565b60405180910390f35b34801561056657600080fd5b5061056f6114ee565b60405161057c9190611638565b60405180910390f35b34801561059157600080fd5b5061059a6114f4565b005b3480156105a857600080fd5b506105b161156e565b6040516105be9190611b83565b60405180910390f35b6000801515600960009054906101000a900460ff1615151480156105f95750600754600854426105f79190611bcd565b115b905090565b600047905090565b60055481565b600080600083036106ad5760008054906101000a900473ffffffffffffffffffffffffffffffffffffffff1673ffffffffffffffffffffffffffffffffffffffff16630f00fa116040518163ffffffff1660e01b8152600401602060405180830381865afa158015610682573d6000803e3d6000fd5b505050506040513d601f19601f820116820180604052508101906106a69190611c2d565b90506109c4565b6001830361074b5760008054906101000a900473ffffffffffffffffffffffffffffffffffffffff1673ffffffffffffffffffffffffffffffffffffffff166394e992566040518163ffffffff1660e01b8152600401602060405180830381865afa158015610720573d6000803e3d6000fd5b505050506040513d601f19601f820116820180604052508101906107449190611c2d565b90506109c3565b600283036107e95760008054906101000a900473ffffffffffffffffffffffffffffffffffffffff1673ffffffffffffffffffffffffffffffffffffffff1663566a0c276040518163ffffffff1660e01b8152600401602060405180830381865afa1580156107be573d6000803e3d6000fd5b505050506040513d601f19601f820116820180604052508101906107e29190611c2d565b90506109c2565b600383036108875760008054906101000a900473ffffffffffffffffffffffffffffffffffffffff1673ffffffffffffffffffffffffffffffffffffffff1663f77e499c6040518163ffffffff1660e01b8152600401602060405180830381865afa15801561085c573d6000803e3d6000fd5b505050506040513d601f19601f820116820180604052508101906108809190611c2d565b90506109c1565b600483036109255760008054906101000a900473ffffffffffffffffffffffffffffffffffffffff1673ffffffffffffffffffffffffffffffffffffffff1663b4768dd46040518163ffffffff1660e01b8152600401602060405180830381865afa1580156108fa573d6000803e3d6000fd5b505050506040513d601f19601f8201168201806040525081019061091e9190611c2d565b90506109c0565b600583036109bf5760008054906101000a900473ffffffffffffffffffffffffffffffffffffffff1673ffffffffffffffffffffffffffffffffffffffff166314ec67576040518163ffffffff1660e01b8152600401602060405180830381865afa158015610998573d6000803e3d6000fd5b505050506040513d601f19601f820116820180604052508101906109bc9190611c2d565b90505b5b5b5b5b5b80915050919050565b600042905090565b6000600a54476109e59190611c89565b90506000600190505b60016006546109fd9190611cba565b811015610ac45760011515600c600083815260200190815260200160002060060160009054906101000a900460ff16151503610ab157600c600082815260200190815260200160002060010160009054906101000a900473ffffffffffffffffffffffffffffffffffffffff1673ffffffffffffffffffffffffffffffffffffffff166108fc839081150290604051600060405180830381858888f19350505050158015610aaf573d6000803e3d6000fd5b505b8080610abc90611cee565b9150506109ee565b506001600960006101000a81548160ff02191690831515021790555050565b600960019054906101000a900460ff1681565b60045481565b600c602052806000526040600020600091509050806000018054610b1f90611d65565b80601f0160208091040260200160405190810160405280929190818152602001828054610b4b90611d65565b8015610b985780601f10610b6d57610100808354040283529160200191610b98565b820191906000526020600020905b815481529060010190602001808311610b7b57829003601f168201915b5050505050908060010160009054906101000a900473ffffffffffffffffffffffffffffffffffffffff16908060020154908060030154908060040154908060050154908060060160009054906101000a900460ff16905087565b600160009054906101000a900473ffffffffffffffffffffffffffffffffffffffff1681565b600d6020528060005260406000206000915090508060000154908060010154908060020154908060030154905084565b600960009054906101000a900460ff1681565b60065481565b600080600190505b6001600654610c799190611cba565b811015610d5557600c60008281526020019081526020016000206002015491506000600d60008481526020019081526020016000206002015414610ced57600d600083815260200190815260200160002060020154600c600083815260200190815260200160002060040181905550610d42565b610cf68261060c565b600d600084815260200190815260200160002060020181905550600d600083815260200190815260200160002060020154600c6000838152602001908152602001600020600401819055505b8080610d4d90611cee565b915050610c6a565b50610d5e610d61565b50565b6000806000806000600190505b6001600654610d7d9190611cba565b811015610eaf57600c60008281526020019081526020016000206002015494506000600d60008781526020019081526020016000206003015414610df157600d600086815260200190815260200160002060030154600c600083815260200190815260200160002060050181905550610e9c565b600d6000868152602001908152602001600020600101549350600d600086815260200190815260200160002060020154925083670de0b6b3a76400008585610e399190611d96565b610e439190611dd9565b610e4d9190611e51565b915081600d600087815260200190815260200160002060030181905550600d600086815260200190815260200160002060030154600c6000838152602001908152602001600020600501819055505b8080610ea790611cee565b915050610d6e565b50610eb86114f4565b50505050565b600a5481565b6000600190505b6001600654610eda9190611cba565b811015610f5d57600b54600c60008381526020019081526020016000206002015403610f4a576001600c600083815260200190815260200160002060060160006101000a81548160ff0219169083151502179055506001600a6000828254610f429190611cba565b925050819055505b8080610f5590611cee565b915050610ecb565b50610f666109d5565b565b60038054610f7590611d65565b80601f0160208091040260200160405190810160405280929190818152602001828054610fa190611d65565b8015610fee5780601f10610fc357610100808354040283529160200191610fee565b820191906000526020600020905b815481529060010190602001808311610fd157829003601f168201915b505050505081565b610ffe611594565b600554341015611043576040517f08c379a000000000000000000000000000000000000000000000000000000000815260040161103a90611f07565b60405180910390fd5b60006040518060e0016040528086868080601f016020809104026020016040519081016040528093929190818152602001838380828437600081840152601f19601f8201169050808301925050505050505081526020013373ffffffffffffffffffffffffffffffffffffffff1681526020018481526020016000815260200160008152602001600081526020016000151581525090506001600660008282546110ed9190611cba565b9250508190555080600c60006006548152602001908152602001600020600082015181600001908161111f91906120f8565b5060208201518160010160006101000a81548173ffffffffffffffffffffffffffffffffffffffff021916908373ffffffffffffffffffffffffffffffffffffffff16021790555060408201518160020155606082015181600301556080820151816004015560a0820151816005015560c08201518160060160006101000a81548160ff021916908315150217905550905050809150509392505050565b60085481565b600260009054906101000a900473ffffffffffffffffffffffffffffffffffffffff1673ffffffffffffffffffffffffffffffffffffffff163373ffffffffffffffffffffffffffffffffffffffff1614611253576040517f08c379a000000000000000000000000000000000000000000000000000000000815260040161124a9061223c565b60405180910390fd5b600080600190505b600160065461126a9190611cba565b81101561134657600c60008281526020019081526020016000206002015491506000600d600084815260200190815260200160002060010154146112de57600d600083815260200190815260200160002060010154600c600083815260200190815260200160002060030181905550611333565b6112e78261060c565b600d600084815260200190815260200160002060010181905550600d600083815260200190815260200160002060010154600c6000838152602001908152602001600020600301819055505b808061133e90611cee565b91505061125b565b50426008819055506000600960006101000a81548160ff0219169083151502179055506001600960016101000a81548160ff02191690831515021790555050565b6060600080600080600080600c600089815260200190815260200160002060000180546113b390611d65565b80601f01602080910402602001604051908101604052809291908181526020018280546113df90611d65565b801561142c5780601f106114015761010080835404028352916020019161142c565b820191906000526020600020905b81548152906001019060200180831161140f57829003601f168201915b505050505090506000600c60008a81526020019081526020016000206002015490506000600c60008b81526020019081526020016000206003015490506000600c60008c81526020019081526020016000206004015490506000600c60008d81526020019081526020016000206005015490506000600c60008e815260200190815260200160002060060160009054906101000a900460ff1690508585858585859b509b509b509b509b509b5050505050505091939550919395565b600b5481565b60075481565b600080600080600190505b600681101561155957600d6000838152602001908152602001600020600301549350600d600082815260200190815260200160002060030154925083831315611546578091505b808061155190611cee565b9150506114ff565b5080600b81905550611569610ec4565b505050565b600260009054906101000a900473ffffffffffffffffffffffffffffffffffffffff1681565b6040518060e0016040528060608152602001600073ffffffffffffffffffffffffffffffffffffffff168152602001600081526020016000815260200160008152602001600081526020016000151581525090565b60008115159050919050565b6115fe816115e9565b82525050565b600060208201905061161960008301846115f5565b92915050565b6000819050919050565b6116328161161f565b82525050565b600060208201905061164d6000830184611629565b92915050565b600080fd5b600080fd5b6116668161161f565b811461167157600080fd5b50565b6000813590506116838161165d565b92915050565b60006020828403121561169f5761169e611653565b5b60006116ad84828501611674565b91505092915050565b6000819050919050565b6116c9816116b6565b82525050565b60006020820190506116e460008301846116c0565b92915050565b600081519050919050565b600082825260208201905092915050565b60005b83811015611724578082015181840152602081019050611709565b60008484015250505050565b6000601f19601f8301169050919050565b600061174c826116ea565b61175681856116f5565b9350611766818560208601611706565b61176f81611730565b840191505092915050565b600073ffffffffffffffffffffffffffffffffffffffff82169050919050565b60006117a58261177a565b9050919050565b6117b58161179a565b82525050565b600060e08201905081810360008301526117d5818a611741565b90506117e460208301896117ac565b6117f16040830188611629565b6117fe60608301876116c0565b61180b60808301866116c0565b61181860a08301856116c0565b61182560c08301846115f5565b98975050505050505050565b6000819050919050565b600061185661185161184c8461177a565b611831565b61177a565b9050919050565b60006118688261183b565b9050919050565b600061187a8261185d565b9050919050565b61188a8161186f565b82525050565b60006020820190506118a56000830184611881565b92915050565b60006080820190506118c06000830187611629565b6118cd60208301866116c0565b6118da60408301856116c0565b6118e760608301846116c0565b95945050505050565b6000602082019050818103600083015261190a8184611741565b905092915050565b600080fd5b600080fd5b600080fd5b60008083601f84011261193757611936611912565b5b8235905067ffffffffffffffff81111561195457611953611917565b5b6020830191508360018202830111156119705761196f61191c565b5b9250929050565b6000806000604084860312156119905761198f611653565b5b600084013567ffffffffffffffff8111156119ae576119ad611658565b5b6119ba86828701611921565b935093505060206119cd86828701611674565b9150509250925092565b600082825260208201905092915050565b60006119f3826116ea565b6119fd81856119d7565b9350611a0d818560208601611706565b611a1681611730565b840191505092915050565b611a2a8161179a565b82525050565b611a398161161f565b82525050565b611a48816116b6565b82525050565b611a57816115e9565b82525050565b600060e0830160008301518482036000860152611a7a82826119e8565b9150506020830151611a8f6020860182611a21565b506040830151611aa26040860182611a30565b506060830151611ab56060860182611a3f565b506080830151611ac86080860182611a3f565b5060a0830151611adb60a0860182611a3f565b5060c0830151611aee60c0860182611a4e565b508091505092915050565b60006020820190508181036000830152611b138184611a5d565b905092915050565b600060c0820190508181036000830152611b358189611741565b9050611b446020830188611629565b611b5160408301876116c0565b611b5e60608301866116c0565b611b6b60808301856116c0565b611b7860a08301846115f5565b979650505050505050565b6000602082019050611b9860008301846117ac565b92915050565b7f4e487b7100000000000000000000000000000000000000000000000000000000600052601160045260246000fd5b6000611bd88261161f565b9150611be38361161f565b9250828203905081811115611bfb57611bfa611b9e565b5b92915050565b611c0a816116b6565b8114611c1557600080fd5b50565b600081519050611c2781611c01565b92915050565b600060208284031215611c4357611c42611653565b5b6000611c5184828501611c18565b91505092915050565b7f4e487b7100000000000000000000000000000000000000000000000000000000600052601260045260246000fd5b6000611c948261161f565b9150611c9f8361161f565b925082611caf57611cae611c5a565b5b828204905092915050565b6000611cc58261161f565b9150611cd08361161f565b9250828201905080821115611ce857611ce7611b9e565b5b92915050565b6000611cf98261161f565b91507fffffffffffffffffffffffffffffffffffffffffffffffffffffffffffffffff8203611d2b57611d2a611b9e565b5b600182019050919050565b7f4e487b7100000000000000000000000000000000000000000000000000000000600052602260045260246000fd5b60006002820490506001821680611d7d57607f821691505b602082108103611d9057611d8f611d36565b5b50919050565b6000611da1826116b6565b9150611dac836116b6565b9250828203905081811260008412168282136000851215161715611dd357611dd2611b9e565b5b92915050565b6000611de4826116b6565b9150611def836116b6565b9250828202611dfd816116b6565b91507f80000000000000000000000000000000000000000000000000000000000000008414600084121615611e3557611e34611b9e565b5b8282058414831517611e4a57611e49611b9e565b5b5092915050565b6000611e5c826116b6565b9150611e67836116b6565b925082611e7757611e76611c5a565b5b600160000383147f800000000000000000000000000000000000000000000000000000000000000083141615611eb057611eaf611b9e565b5b828205905092915050565b7f4e6f7420656e6f7567682066756e64732070726f766964656400000000000000600082015250565b6000611ef16019836116f5565b9150611efc82611ebb565b602082019050919050565b60006020820190508181036000830152611f2081611ee4565b9050919050565b7f4e487b7100000000000000000000000000000000000000000000000000000000600052604160045260246000fd5b60008190508160005260206000209050919050565b60006020601f8301049050919050565b600082821b905092915050565b600060088302611fb87fffffffffffffffffffffffffffffffffffffffffffffffffffffffffffffffff82611f7b565b611fc28683611f7b565b95508019841693508086168417925050509392505050565b6000611ff5611ff0611feb8461161f565b611831565b61161f565b9050919050565b6000819050919050565b61200f83611fda565b61202361201b82611ffc565b848454611f88565b825550505050565b600090565b61203861202b565b612043818484612006565b505050565b5b818110156120675761205c600082612030565b600181019050612049565b5050565b601f8211156120ac5761207d81611f56565b61208684611f6b565b81016020851015612095578190505b6120a96120a185611f6b565b830182612048565b50505b505050565b600082821c905092915050565b60006120cf600019846008026120b1565b1980831691505092915050565b60006120e883836120be565b9150826002028217905092915050565b612101826116ea565b67ffffffffffffffff81111561211a57612119611f27565b5b6121248254611d65565b61212f82828561206b565b600060209050601f8311600181146121625760008415612150578287015190505b61215a85826120dc565b8655506121c2565b601f19841661217086611f56565b60005b8281101561219857848901518255600182019150602085019450602081019050612173565b868310156121b557848901516121b1601f8916826120be565b8355505b6001600288020188555050505b505050505050565b7f6d73672e73656e646572206973206e6f742061646d696e21206f6e6c7920616460008201527f6d696e2063616e207374617274207468652067616d6500000000000000000000602082015250565b60006122266036836116f5565b9150612231826121ca565b604082019050919050565b6000602082019050818103600083015261225581612219565b905091905056fea26469706673582212203f52e671381ffa4b3aad5adb488537196bdf2b7fec5b14c7e50acac8bbe87e1d64736f6c63430008110033",
  "linkReferences": {},
  "deployedLinkReferences": {}
}