{
  "_format": "hh-sol-artifact-1",
  "contractName": "Game",
  "sourceName": "contracts/Game.sol",
  "abi": [
    {
      "inputs": [
        {
          "internalType": "address",
          "name": "_priceFeed",
          "type": "address"
        },
        {
          "internalType": "uint256",
          "name": "_ticketPrice",
          "type": "uint256"
        },
        {
          "internalType": "uint256",
          "name": "_period",
          "type": "uint256"
        }
      ],
      "stateMutability": "nonpayable",
      "type": "constructor"
    },
    {
      "inputs": [],
      "name": "calculateRange",
      "outputs": [],
      "stateMutability": "nonpayable",
      "type": "function"
    },
    {
      "inputs": [
        {
          "internalType": "uint256",
          "name": "",
          "type": "uint256"
        }
      ],
      "name": "choiceToCoin",
      "outputs": [
        {
          "internalType": "uint256",
          "name": "symbol",
          "type": "uint256"
        },
        {
          "internalType": "int256",
          "name": "open",
          "type": "int256"
        },
        {
          "internalType": "int256",
          "name": "close",
          "type": "int256"
        },
        {
          "internalType": "int256",
          "name": "range",
          "type": "int256"
        }
      ],
      "stateMutability": "view",
      "type": "function"
    },
    {
      "inputs": [
        {
          "internalType": "uint256",
          "name": "_option",
          "type": "uint256"
        }
      ],
      "name": "choiceToPrice",
      "outputs": [
        {
          "internalType": "int256",
          "name": "",
          "type": "int256"
        }
      ],
      "stateMutability": "view",
      "type": "function"
    },
    {
      "inputs": [],
      "name": "countWinners",
      "outputs": [],
      "stateMutability": "nonpayable",
      "type": "function"
    },
    {
      "inputs": [],
      "name": "counter",
      "outputs": [
        {
          "internalType": "uint256",
          "name": "",
          "type": "uint256"
        }
      ],
      "stateMutability": "view",
      "type": "function"
    },
    {
      "inputs": [
        {
          "internalType": "uint256",
          "name": "",
          "type": "uint256"
        }
      ],
      "name": "counterToPlayer",
      "outputs": [
        {
          "internalType": "string",
          "name": "name",
          "type": "string"
        },
        {
          "internalType": "address",
          "name": "wallet",
          "type": "address"
        },
        {
          "internalType": "uint256",
          "name": "choice",
          "type": "uint256"
        },
        {
          "internalType": "int256",
          "name": "open",
          "type": "int256"
        },
        {
          "internalType": "int256",
          "name": "close",
          "type": "int256"
        },
        {
          "internalType": "int256",
          "name": "range",
          "type": "int256"
        },
        {
          "internalType": "bool",
          "name": "winner",
          "type": "bool"
        }
      ],
      "stateMutability": "view",
      "type": "function"
    },
    {
      "inputs": [],
      "name": "endGame",
      "outputs": [],
      "stateMutability": "nonpayable",
      "type": "function"
    },
    {
      "inputs": [],
      "name": "executionRequired",
      "outputs": [
        {
          "internalType": "bool",
          "name": "",
          "type": "bool"
        }
      ],
      "stateMutability": "view",
      "type": "function"
    },
    {
      "inputs": [],
      "name": "getBalance",
      "outputs": [
        {
          "internalType": "uint256",
          "name": "",
          "type": "uint256"
        }
      ],
      "stateMutability": "view",
      "type": "function"
    },
    {
      "inputs": [
        {
          "internalType": "uint256",
          "name": "_counter",
          "type": "uint256"
        }
      ],
      "name": "getPlayersInformation",
      "outputs": [
        {
          "internalType": "string",
          "name": "",
          "type": "string"
        },
        {
          "internalType": "uint256",
          "name": "",
          "type": "uint256"
        },
        {
          "internalType": "int256",
          "name": "",
          "type": "int256"
        },
        {
          "internalType": "int256",
          "name": "",
          "type": "int256"
        },
        {
          "internalType": "int256",
          "name": "",
          "type": "int256"
        },
        {
          "internalType": "bool",
          "name": "",
          "type": "bool"
        }
      ],
      "stateMutability": "view",
      "type": "function"
    },
    {
      "inputs": [],
      "name": "getTimestamp",
      "outputs": [
        {
          "internalType": "uint256",
          "name": "",
          "type": "uint256"
        }
      ],
      "stateMutability": "view",
      "type": "function"
    },
    {
      "inputs": [],
      "name": "paused",
      "outputs": [
        {
          "internalType": "bool",
          "name": "",
          "type": "bool"
        }
      ],
      "stateMutability": "view",
      "type": "function"
    },
    {
      "inputs": [],
      "name": "period",
      "outputs": [
        {
          "internalType": "uint256",
          "name": "",
          "type": "uint256"
        }
      ],
      "stateMutability": "view",
      "type": "function"
    },
    {
      "inputs": [],
      "name": "pickWinnerChoice",
      "outputs": [],
      "stateMutability": "nonpayable",
      "type": "function"
    },
    {
      "inputs": [],
      "name": "start",
      "outputs": [
        {
          "internalType": "uint256",
          "name": "",
          "type": "uint256"
        }
      ],
      "stateMutability": "view",
      "type": "function"
    },
    {
      "inputs": [],
      "name": "startGame",
      "outputs": [],
      "stateMutability": "nonpayable",
      "type": "function"
    },
    {
      "inputs": [
        {
          "internalType": "string",
          "name": "_name",
          "type": "string"
        },
        {
          "internalType": "uint256",
          "name": "_choice",
          "type": "uint256"
        }
      ],
      "name": "takePart",
      "outputs": [
        {
          "components": [
            {
              "internalType": "string",
              "name": "name",
              "type": "string"
            },
            {
              "internalType": "address",
              "name": "wallet",
              "type": "address"
            },
            {
              "internalType": "uint256",
              "name": "choice",
              "type": "uint256"
            },
            {
              "internalType": "int256",
              "name": "open",
              "type": "int256"
            },
            {
              "internalType": "int256",
              "name": "close",
              "type": "int256"
            },
            {
              "internalType": "int256",
              "name": "range",
              "type": "int256"
            },
            {
              "internalType": "bool",
              "name": "winner",
              "type": "bool"
            }
          ],
          "internalType": "struct Game.Player",
          "name": "",
          "type": "tuple"
        }
      ],
      "stateMutability": "nonpayable",
      "type": "function"
    },
    {
      "inputs": [],
      "name": "ticketPrice",
      "outputs": [
        {
          "internalType": "uint256",
          "name": "",
          "type": "uint256"
        }
      ],
      "stateMutability": "view",
      "type": "function"
    },
    {
      "inputs": [],
      "name": "winnerChoice",
      "outputs": [
        {
          "internalType": "uint256",
          "name": "",
          "type": "uint256"
        }
      ],
      "stateMutability": "view",
      "type": "function"
    },
    {
      "inputs": [],
      "name": "winners",
      "outputs": [
        {
          "internalType": "uint256",
          "name": "",
          "type": "uint256"
        }
      ],
      "stateMutability": "view",
      "type": "function"
    }
  ],
  "bytecode": "0x60806040526001600560006101000a81548160ff02191690831515021790555060006006553480156200003157600080fd5b5060405162001d5938038062001d59833981810160405281019062000057919062000153565b826000806101000a81548173ffffffffffffffffffffffffffffffffffffffff021916908373ffffffffffffffffffffffffffffffffffffffff1602179055508160018190555080600381905550505050620001af565b600080fd5b600073ffffffffffffffffffffffffffffffffffffffff82169050919050565b6000620000e082620000b3565b9050919050565b620000f281620000d3565b8114620000fe57600080fd5b50565b6000815190506200011281620000e7565b92915050565b6000819050919050565b6200012d8162000118565b81146200013957600080fd5b50565b6000815190506200014d8162000122565b92915050565b6000806000606084860312156200016f576200016e620000ae565b5b60006200017f8682870162000101565b935050602062000192868287016200013c565b9250506040620001a5868287016200013c565b9150509250925092565b611b9a80620001bf6000396000f3fe608060405234801561001057600080fd5b506004361061012c5760003560e01c806370f838aa116100ad578063d65ab5f211610071578063d65ab5f214610308578063e6718d1414610312578063ed81378a14610347578063ef78d4fd14610365578063f9832706146103835761012c565b806370f838aa14610288578063a487bcd814610292578063a565efff146102b0578063acc591c7146102ba578063be9a6555146102ea5761012c565b80632d487eba116100f45780632d487eba146101d957806350e757c61461020f5780635c975abb1461024257806361bc221a146102605780636cbc2ded1461027e5761012c565b806310c58e9f1461013157806312065fe01461014f5780631209b1f61461016d578063129a14f21461018b578063188ec356146101bb575b600080fd5b61013961038d565b60405161014691906110e8565b60405180910390f35b6101576103c4565b604051610164919061111c565b60405180910390f35b6101756103cc565b604051610182919061111c565b60405180910390f35b6101a560048036038101906101a0919061116d565b6103d2565b6040516101b291906111b3565b60405180910390f35b6101c3610793565b6040516101d0919061111c565b60405180910390f35b6101f360048036038101906101ee919061116d565b61079b565b604051610206979695949392919061129f565b60405180910390f35b6102296004803603810190610224919061116d565b610892565b6040516102399493929190611315565b60405180910390f35b61024a6108c2565b60405161025791906110e8565b60405180910390f35b6102686108d5565b604051610275919061111c565b60405180910390f35b6102866108db565b005b6102906109da565b005b61029a610b37565b6040516102a7919061111c565b60405180910390f35b6102b8610b3d565b005b6102d460048036038101906102cf91906113bf565b610bf0565b6040516102e19190611541565b60405180910390f35b6102f2610d72565b6040516102ff919061111c565b60405180910390f35b610310610d78565b005b61032c6004803603810190610327919061116d565b610e91565b60405161033e96959493929190611563565b60405180910390f35b61034f610ff2565b60405161035c919061111c565b60405180910390f35b61036d610ff8565b60405161037a919061111c565b60405180910390f35b61038b610ffe565b005b6000801515600560009054906101000a900460ff1615151480156103bf5750600354600454426103bd91906115fa565b115b905090565b600047905090565b60015481565b600080600083036104735760008054906101000a900473ffffffffffffffffffffffffffffffffffffffff1673ffffffffffffffffffffffffffffffffffffffff16630f00fa116040518163ffffffff1660e01b8152600401602060405180830381865afa158015610448573d6000803e3d6000fd5b505050506040513d601f19601f8201168201806040525081019061046c919061165a565b905061078a565b600183036105115760008054906101000a900473ffffffffffffffffffffffffffffffffffffffff1673ffffffffffffffffffffffffffffffffffffffff166394e992566040518163ffffffff1660e01b8152600401602060405180830381865afa1580156104e6573d6000803e3d6000fd5b505050506040513d601f19601f8201168201806040525081019061050a919061165a565b9050610789565b600283036105af5760008054906101000a900473ffffffffffffffffffffffffffffffffffffffff1673ffffffffffffffffffffffffffffffffffffffff1663566a0c276040518163ffffffff1660e01b8152600401602060405180830381865afa158015610584573d6000803e3d6000fd5b505050506040513d601f19601f820116820180604052508101906105a8919061165a565b9050610788565b6003830361064d5760008054906101000a900473ffffffffffffffffffffffffffffffffffffffff1673ffffffffffffffffffffffffffffffffffffffff1663f77e499c6040518163ffffffff1660e01b8152600401602060405180830381865afa158015610622573d6000803e3d6000fd5b505050506040513d601f19601f82011682018060405250810190610646919061165a565b9050610787565b600483036106eb5760008054906101000a900473ffffffffffffffffffffffffffffffffffffffff1673ffffffffffffffffffffffffffffffffffffffff1663b4768dd46040518163ffffffff1660e01b8152600401602060405180830381865afa1580156106c0573d6000803e3d6000fd5b505050506040513d601f19601f820116820180604052508101906106e4919061165a565b9050610786565b600583036107855760008054906101000a900473ffffffffffffffffffffffffffffffffffffffff1673ffffffffffffffffffffffffffffffffffffffff166314ec67576040518163ffffffff1660e01b8152600401602060405180830381865afa15801561075e573d6000803e3d6000fd5b505050506040513d601f19601f82011682018060405250810190610782919061165a565b90505b5b5b5b5b5b80915050919050565b600042905090565b60086020528060005260406000206000915090508060000180546107be906116b6565b80601f01602080910402602001604051908101604052809291908181526020018280546107ea906116b6565b80156108375780601f1061080c57610100808354040283529160200191610837565b820191906000526020600020905b81548152906001019060200180831161081a57829003601f168201915b5050505050908060010160009054906101000a900473ffffffffffffffffffffffffffffffffffffffff16908060020154908060030154908060040154908060050154908060060160009054906101000a900460ff16905087565b60096020528060005260406000206000915090508060000154908060010154908060020154908060030154905084565b600560009054906101000a900460ff1681565b60025481565b600080600190505b60016002546108f291906116e7565b8110156109ce5760086000828152602001908152602001600020600201549150600060096000848152602001908152602001600020600201541461096657600960008381526020019081526020016000206002015460086000838152602001908152602001600020600401819055506109bb565b61096f826103d2565b6009600084815260200190815260200160002060020181905550600960008381526020019081526020016000206002015460086000838152602001908152602001600020600401819055505b80806109c69061171b565b9150506108e3565b506109d76109da565b50565b6000806000806000600190505b60016002546109f691906116e7565b811015610b2857600860008281526020019081526020016000206002015494506000600960008781526020019081526020016000206003015414610a6a5760096000868152602001908152602001600020600301546008600083815260200190815260200160002060050181905550610b15565b600960008681526020019081526020016000206001015493506009600086815260200190815260200160002060020154925083670de0b6b3a76400008585610ab29190611763565b610abc91906117a6565b610ac6919061184d565b9150816009600087815260200190815260200160002060030181905550600960008681526020019081526020016000206003015460086000838152602001908152602001600020600501819055505b8080610b209061171b565b9150506109e7565b50610b31610ffe565b50505050565b60065481565b60005b6001600254610b4f91906116e7565b811015610bd257600754600860008381526020019081526020016000206002015403610bbf5760016008600083815260200190815260200160002060060160006101000a81548160ff021916908315150217905550600160066000828254610bb791906116e7565b925050819055505b8080610bca9061171b565b915050610b40565b506001600560006101000a81548160ff021916908315150217905550565b610bf8611078565b60006040518060e0016040528086868080601f016020809104026020016040519081016040528093929190818152602001838380828437600081840152601f19601f8201169050808301925050505050505081526020013373ffffffffffffffffffffffffffffffffffffffff168152602001848152602001600081526020016000815260200160008152602001600015158152509050600160026000828254610ca291906116e7565b92505081905550806008600060025481526020019081526020016000206000820151816000019081610cd49190611a92565b5060208201518160010160006101000a81548173ffffffffffffffffffffffffffffffffffffffff021916908373ffffffffffffffffffffffffffffffffffffffff16021790555060408201518160020155606082015181600301556080820151816004015560a0820151816005015560c08201518160060160006101000a81548160ff021916908315150217905550905050809150509392505050565b60045481565b600080600190505b6001600254610d8f91906116e7565b811015610e6b57600860008281526020019081526020016000206002015491506000600960008481526020019081526020016000206001015414610e035760096000838152602001908152602001600020600101546008600083815260200190815260200160002060030181905550610e58565b610e0c826103d2565b6009600084815260200190815260200160002060010181905550600960008381526020019081526020016000206001015460086000838152602001908152602001600020600301819055505b8080610e639061171b565b915050610d80565b50426004819055506000600560006101000a81548160ff02191690831515021790555050565b6060600080600080600080600860008981526020019081526020016000206000018054610ebd906116b6565b80601f0160208091040260200160405190810160405280929190818152602001828054610ee9906116b6565b8015610f365780601f10610f0b57610100808354040283529160200191610f36565b820191906000526020600020905b815481529060010190602001808311610f1957829003601f168201915b505050505090506000600860008a81526020019081526020016000206002015490506000600860008b81526020019081526020016000206003015490506000600860008c81526020019081526020016000206004015490506000600860008d81526020019081526020016000206005015490506000600860008e815260200190815260200160002060060160009054906101000a900460ff1690508585858585859b509b509b509b509b509b5050505050505091939550919395565b60075481565b60035481565b600080600080600190505b600681101561106357600960008381526020019081526020016000206003015493506009600082815260200190815260200160002060030154925083831315611050578091505b808061105b9061171b565b915050611009565b5080600781905550611073610b3d565b505050565b6040518060e0016040528060608152602001600073ffffffffffffffffffffffffffffffffffffffff168152602001600081526020016000815260200160008152602001600081526020016000151581525090565b60008115159050919050565b6110e2816110cd565b82525050565b60006020820190506110fd60008301846110d9565b92915050565b6000819050919050565b61111681611103565b82525050565b6000602082019050611131600083018461110d565b92915050565b600080fd5b600080fd5b61114a81611103565b811461115557600080fd5b50565b60008135905061116781611141565b92915050565b60006020828403121561118357611182611137565b5b600061119184828501611158565b91505092915050565b6000819050919050565b6111ad8161119a565b82525050565b60006020820190506111c860008301846111a4565b92915050565b600081519050919050565b600082825260208201905092915050565b60005b838110156112085780820151818401526020810190506111ed565b60008484015250505050565b6000601f19601f8301169050919050565b6000611230826111ce565b61123a81856111d9565b935061124a8185602086016111ea565b61125381611214565b840191505092915050565b600073ffffffffffffffffffffffffffffffffffffffff82169050919050565b60006112898261125e565b9050919050565b6112998161127e565b82525050565b600060e08201905081810360008301526112b9818a611225565b90506112c86020830189611290565b6112d5604083018861110d565b6112e260608301876111a4565b6112ef60808301866111a4565b6112fc60a08301856111a4565b61130960c08301846110d9565b98975050505050505050565b600060808201905061132a600083018761110d565b61133760208301866111a4565b61134460408301856111a4565b61135160608301846111a4565b95945050505050565b600080fd5b600080fd5b600080fd5b60008083601f84011261137f5761137e61135a565b5b8235905067ffffffffffffffff81111561139c5761139b61135f565b5b6020830191508360018202830111156113b8576113b7611364565b5b9250929050565b6000806000604084860312156113d8576113d7611137565b5b600084013567ffffffffffffffff8111156113f6576113f561113c565b5b61140286828701611369565b9350935050602061141586828701611158565b9150509250925092565b600082825260208201905092915050565b600061143b826111ce565b611445818561141f565b93506114558185602086016111ea565b61145e81611214565b840191505092915050565b6114728161127e565b82525050565b61148181611103565b82525050565b6114908161119a565b82525050565b61149f816110cd565b82525050565b600060e08301600083015184820360008601526114c28282611430565b91505060208301516114d76020860182611469565b5060408301516114ea6040860182611478565b5060608301516114fd6060860182611487565b5060808301516115106080860182611487565b5060a083015161152360a0860182611487565b5060c083015161153660c0860182611496565b508091505092915050565b6000602082019050818103600083015261155b81846114a5565b905092915050565b600060c082019050818103600083015261157d8189611225565b905061158c602083018861110d565b61159960408301876111a4565b6115a660608301866111a4565b6115b360808301856111a4565b6115c060a08301846110d9565b979650505050505050565b7f4e487b7100000000000000000000000000000000000000000000000000000000600052601160045260246000fd5b600061160582611103565b915061161083611103565b9250828203905081811115611628576116276115cb565b5b92915050565b6116378161119a565b811461164257600080fd5b50565b6000815190506116548161162e565b92915050565b6000602082840312156116705761166f611137565b5b600061167e84828501611645565b91505092915050565b7f4e487b7100000000000000000000000000000000000000000000000000000000600052602260045260246000fd5b600060028204905060018216806116ce57607f821691505b6020821081036116e1576116e0611687565b5b50919050565b60006116f282611103565b91506116fd83611103565b9250828201905080821115611715576117146115cb565b5b92915050565b600061172682611103565b91507fffffffffffffffffffffffffffffffffffffffffffffffffffffffffffffffff8203611758576117576115cb565b5b600182019050919050565b600061176e8261119a565b91506117798361119a565b92508282039050818112600084121682821360008512151617156117a05761179f6115cb565b5b92915050565b60006117b18261119a565b91506117bc8361119a565b92508282026117ca8161119a565b91507f80000000000000000000000000000000000000000000000000000000000000008414600084121615611802576118016115cb565b5b8282058414831517611817576118166115cb565b5b5092915050565b7f4e487b7100000000000000000000000000000000000000000000000000000000600052601260045260246000fd5b60006118588261119a565b91506118638361119a565b9250826118735761187261181e565b5b600160000383147f8000000000000000000000000000000000000000000000000000000000000000831416156118ac576118ab6115cb565b5b828205905092915050565b7f4e487b7100000000000000000000000000000000000000000000000000000000600052604160045260246000fd5b60008190508160005260206000209050919050565b60006020601f8301049050919050565b600082821b905092915050565b6000600883026119487fffffffffffffffffffffffffffffffffffffffffffffffffffffffffffffffff8261190b565b611952868361190b565b95508019841693508086168417925050509392505050565b6000819050919050565b600061198f61198a61198584611103565b61196a565b611103565b9050919050565b6000819050919050565b6119a983611974565b6119bd6119b582611996565b848454611918565b825550505050565b600090565b6119d26119c5565b6119dd8184846119a0565b505050565b5b81811015611a01576119f66000826119ca565b6001810190506119e3565b5050565b601f821115611a4657611a17816118e6565b611a20846118fb565b81016020851015611a2f578190505b611a43611a3b856118fb565b8301826119e2565b50505b505050565b600082821c905092915050565b6000611a6960001984600802611a4b565b1980831691505092915050565b6000611a828383611a58565b9150826002028217905092915050565b611a9b826111ce565b67ffffffffffffffff811115611ab457611ab36118b7565b5b611abe82546116b6565b611ac9828285611a05565b600060209050601f831160018114611afc5760008415611aea578287015190505b611af48582611a76565b865550611b5c565b601f198416611b0a866118e6565b60005b82811015611b3257848901518255600182019150602085019450602081019050611b0d565b86831015611b4f5784890151611b4b601f891682611a58565b8355505b6001600288020188555050505b50505050505056fea2646970667358221220b18fca18197600581ce6f836b3b6be24826ad725e2bf1744d4e4f06fe3590e6d64736f6c63430008110033",
  "linkReferences": {},
  "deployedLinkReferences": {}
}