{
  "_format": "hh-sol-artifact-1",
  "contractName": "Game",
  "sourceName": "contracts/Game.sol",
  "abi": [
    {
      "inputs": [
        {
          "internalType": "address",
          "name": "_priceFeed",
          "type": "address"
        },
        {
          "internalType": "address",
          "name": "_admin",
          "type": "address"
        },
        {
          "internalType": "string",
          "name": "_name",
          "type": "string"
        },
        {
          "internalType": "uint256",
          "name": "_ticketPrice",
          "type": "uint256"
        },
        {
          "internalType": "uint256",
          "name": "_period",
          "type": "uint256"
        }
      ],
      "stateMutability": "nonpayable",
      "type": "constructor"
    },
    {
      "inputs": [],
      "name": "adminAddress",
      "outputs": [
        {
          "internalType": "address",
          "name": "",
          "type": "address"
        }
      ],
      "stateMutability": "view",
      "type": "function"
    },
    {
      "inputs": [],
      "name": "adminName",
      "outputs": [
        {
          "internalType": "string",
          "name": "",
          "type": "string"
        }
      ],
      "stateMutability": "view",
      "type": "function"
    },
    {
      "inputs": [],
      "name": "calculateRange",
      "outputs": [],
      "stateMutability": "nonpayable",
      "type": "function"
    },
    {
      "inputs": [
        {
          "internalType": "uint256",
          "name": "",
          "type": "uint256"
        }
      ],
      "name": "choiceToCoin",
      "outputs": [
        {
          "internalType": "uint256",
          "name": "symbol",
          "type": "uint256"
        },
        {
          "internalType": "int256",
          "name": "open",
          "type": "int256"
        },
        {
          "internalType": "int256",
          "name": "close",
          "type": "int256"
        },
        {
          "internalType": "int256",
          "name": "range",
          "type": "int256"
        }
      ],
      "stateMutability": "view",
      "type": "function"
    },
    {
      "inputs": [
        {
          "internalType": "uint256",
          "name": "_option",
          "type": "uint256"
        }
      ],
      "name": "choiceToPrice",
      "outputs": [
        {
          "internalType": "int256",
          "name": "",
          "type": "int256"
        }
      ],
      "stateMutability": "view",
      "type": "function"
    },
    {
      "inputs": [],
      "name": "countWinners",
      "outputs": [],
      "stateMutability": "nonpayable",
      "type": "function"
    },
    {
      "inputs": [],
      "name": "counter",
      "outputs": [
        {
          "internalType": "uint256",
          "name": "",
          "type": "uint256"
        }
      ],
      "stateMutability": "view",
      "type": "function"
    },
    {
      "inputs": [
        {
          "internalType": "uint256",
          "name": "",
          "type": "uint256"
        }
      ],
      "name": "counterToPlayer",
      "outputs": [
        {
          "internalType": "string",
          "name": "name",
          "type": "string"
        },
        {
          "internalType": "address",
          "name": "wallet",
          "type": "address"
        },
        {
          "internalType": "uint256",
          "name": "choice",
          "type": "uint256"
        },
        {
          "internalType": "int256",
          "name": "open",
          "type": "int256"
        },
        {
          "internalType": "int256",
          "name": "close",
          "type": "int256"
        },
        {
          "internalType": "int256",
          "name": "range",
          "type": "int256"
        },
        {
          "internalType": "bool",
          "name": "winner",
          "type": "bool"
        }
      ],
      "stateMutability": "view",
      "type": "function"
    },
    {
      "inputs": [],
      "name": "endGame",
      "outputs": [],
      "stateMutability": "nonpayable",
      "type": "function"
    },
    {
      "inputs": [],
      "name": "executionRequired",
      "outputs": [
        {
          "internalType": "bool",
          "name": "",
          "type": "bool"
        }
      ],
      "stateMutability": "view",
      "type": "function"
    },
    {
      "inputs": [],
      "name": "getBalance",
      "outputs": [
        {
          "internalType": "uint256",
          "name": "",
          "type": "uint256"
        }
      ],
      "stateMutability": "view",
      "type": "function"
    },
    {
      "inputs": [
        {
          "internalType": "uint256",
          "name": "_counter",
          "type": "uint256"
        }
      ],
      "name": "getPlayersInformation",
      "outputs": [
        {
          "internalType": "string",
          "name": "",
          "type": "string"
        },
        {
          "internalType": "uint256",
          "name": "",
          "type": "uint256"
        },
        {
          "internalType": "int256",
          "name": "",
          "type": "int256"
        },
        {
          "internalType": "int256",
          "name": "",
          "type": "int256"
        },
        {
          "internalType": "int256",
          "name": "",
          "type": "int256"
        },
        {
          "internalType": "bool",
          "name": "",
          "type": "bool"
        }
      ],
      "stateMutability": "view",
      "type": "function"
    },
    {
      "inputs": [],
      "name": "getTimestamp",
      "outputs": [
        {
          "internalType": "uint256",
          "name": "",
          "type": "uint256"
        }
      ],
      "stateMutability": "view",
      "type": "function"
    },
    {
      "inputs": [],
      "name": "hub",
      "outputs": [
        {
          "internalType": "contract Hub",
          "name": "",
          "type": "address"
        }
      ],
      "stateMutability": "view",
      "type": "function"
    },
    {
      "inputs": [],
      "name": "index",
      "outputs": [
        {
          "internalType": "uint256",
          "name": "",
          "type": "uint256"
        }
      ],
      "stateMutability": "view",
      "type": "function"
    },
    {
      "inputs": [],
      "name": "paused",
      "outputs": [
        {
          "internalType": "bool",
          "name": "",
          "type": "bool"
        }
      ],
      "stateMutability": "view",
      "type": "function"
    },
    {
      "inputs": [],
      "name": "period",
      "outputs": [
        {
          "internalType": "uint256",
          "name": "",
          "type": "uint256"
        }
      ],
      "stateMutability": "view",
      "type": "function"
    },
    {
      "inputs": [],
      "name": "pickWinnerChoice",
      "outputs": [],
      "stateMutability": "nonpayable",
      "type": "function"
    },
    {
      "inputs": [],
      "name": "splitMoney",
      "outputs": [],
      "stateMutability": "nonpayable",
      "type": "function"
    },
    {
      "inputs": [],
      "name": "start",
      "outputs": [
        {
          "internalType": "uint256",
          "name": "",
          "type": "uint256"
        }
      ],
      "stateMutability": "view",
      "type": "function"
    },
    {
      "inputs": [],
      "name": "startGame",
      "outputs": [],
      "stateMutability": "nonpayable",
      "type": "function"
    },
    {
      "inputs": [],
      "name": "started",
      "outputs": [
        {
          "internalType": "bool",
          "name": "",
          "type": "bool"
        }
      ],
      "stateMutability": "view",
      "type": "function"
    },
    {
      "inputs": [
        {
          "internalType": "string",
          "name": "_name",
          "type": "string"
        },
        {
          "internalType": "uint256",
          "name": "_choice",
          "type": "uint256"
        }
      ],
      "name": "takePart",
      "outputs": [
        {
          "components": [
            {
              "internalType": "string",
              "name": "name",
              "type": "string"
            },
            {
              "internalType": "address",
              "name": "wallet",
              "type": "address"
            },
            {
              "internalType": "uint256",
              "name": "choice",
              "type": "uint256"
            },
            {
              "internalType": "int256",
              "name": "open",
              "type": "int256"
            },
            {
              "internalType": "int256",
              "name": "close",
              "type": "int256"
            },
            {
              "internalType": "int256",
              "name": "range",
              "type": "int256"
            },
            {
              "internalType": "bool",
              "name": "winner",
              "type": "bool"
            }
          ],
          "internalType": "struct Game.Player",
          "name": "",
          "type": "tuple"
        }
      ],
      "stateMutability": "payable",
      "type": "function"
    },
    {
      "inputs": [],
      "name": "ticketPrice",
      "outputs": [
        {
          "internalType": "uint256",
          "name": "",
          "type": "uint256"
        }
      ],
      "stateMutability": "view",
      "type": "function"
    },
    {
      "inputs": [],
      "name": "winnerChoice",
      "outputs": [
        {
          "internalType": "uint256",
          "name": "",
          "type": "uint256"
        }
      ],
      "stateMutability": "view",
      "type": "function"
    },
    {
      "inputs": [],
      "name": "winners",
      "outputs": [
        {
          "internalType": "uint256",
          "name": "",
          "type": "uint256"
        }
      ],
      "stateMutability": "view",
      "type": "function"
    }
  ],
  "bytecode": "0x60806040526001600960006101000a81548160ff0219169083151502179055506000600a553480156200003157600080fd5b5060405162002a7e38038062002a7e833981810160405281019062000057919062000336565b846000806101000a81548173ffffffffffffffffffffffffffffffffffffffff021916908373ffffffffffffffffffffffffffffffffffffffff16021790555083600260006101000a81548173ffffffffffffffffffffffffffffffffffffffff021916908373ffffffffffffffffffffffffffffffffffffffff16021790555081600581905550806007819055508260039081620000f791906200061e565b50505050505062000705565b6000604051905090565b600080fd5b600080fd5b600073ffffffffffffffffffffffffffffffffffffffff82169050919050565b6000620001448262000117565b9050919050565b620001568162000137565b81146200016257600080fd5b50565b60008151905062000176816200014b565b92915050565b600080fd5b600080fd5b6000601f19601f8301169050919050565b7f4e487b7100000000000000000000000000000000000000000000000000000000600052604160045260246000fd5b620001d18262000186565b810181811067ffffffffffffffff82111715620001f357620001f262000197565b5b80604052505050565b60006200020862000103565b9050620002168282620001c6565b919050565b600067ffffffffffffffff82111562000239576200023862000197565b5b620002448262000186565b9050602081019050919050565b60005b838110156200027157808201518184015260208101905062000254565b60008484015250505050565b6000620002946200028e846200021b565b620001fc565b905082815260208101848484011115620002b357620002b262000181565b5b620002c084828562000251565b509392505050565b600082601f830112620002e057620002df6200017c565b5b8151620002f28482602086016200027d565b91505092915050565b6000819050919050565b6200031081620002fb565b81146200031c57600080fd5b50565b600081519050620003308162000305565b92915050565b600080600080600060a086880312156200035557620003546200010d565b5b6000620003658882890162000165565b9550506020620003788882890162000165565b945050604086015167ffffffffffffffff8111156200039c576200039b62000112565b5b620003aa88828901620002c8565b9350506060620003bd888289016200031f565b9250506080620003d0888289016200031f565b9150509295509295909350565b600081519050919050565b7f4e487b7100000000000000000000000000000000000000000000000000000000600052602260045260246000fd5b600060028204905060018216806200043057607f821691505b602082108103620004465762000445620003e8565b5b50919050565b60008190508160005260206000209050919050565b60006020601f8301049050919050565b600082821b905092915050565b600060088302620004b07fffffffffffffffffffffffffffffffffffffffffffffffffffffffffffffffff8262000471565b620004bc868362000471565b95508019841693508086168417925050509392505050565b6000819050919050565b6000620004ff620004f9620004f384620002fb565b620004d4565b620002fb565b9050919050565b6000819050919050565b6200051b83620004de565b620005336200052a8262000506565b8484546200047e565b825550505050565b600090565b6200054a6200053b565b6200055781848462000510565b505050565b5b818110156200057f576200057360008262000540565b6001810190506200055d565b5050565b601f821115620005ce5762000598816200044c565b620005a38462000461565b81016020851015620005b3578190505b620005cb620005c28562000461565b8301826200055c565b50505b505050565b600082821c905092915050565b6000620005f360001984600802620005d3565b1980831691505092915050565b60006200060e8383620005e0565b9150826002028217905092915050565b6200062982620003dd565b67ffffffffffffffff81111562000645576200064462000197565b5b62000651825462000417565b6200065e82828562000583565b600060209050601f83116001811462000696576000841562000681578287015190505b6200068d858262000600565b865550620006fd565b601f198416620006a6866200044c565b60005b82811015620006d057848901518255600182019150602085019450602081019050620006a9565b86831015620006f05784890151620006ec601f891682620005e0565b8355505b6001600288020188555050505b505050505050565b61236980620007156000396000f3fe6080604052600436106101815760003560e01c80636cbc2ded116100d1578063be9a65551161008a578063ed81378a11610064578063ed81378a1461052f578063ef78d4fd1461055a578063f983270614610585578063fc6f94681461059c57610181565b8063be9a6555146104ab578063d65ab5f2146104d6578063e6718d14146104ed57610181565b80636cbc2ded146103e057806370f838aa146103f7578063a487bcd81461040e578063a565efff14610439578063a8a23e3914610450578063acc591c71461047b57610181565b80631f2698ab1161013e578063365a86fc11610118578063365a86fc1461031f57806350e757c61461034a5780635c975abb1461038a57806361bc221a146103b557610181565b80631f2698ab146102865780632986c0e5146102b15780632d487eba146102dc57610181565b806310c58e9f1461018657806312065fe0146101b15780631209b1f6146101dc578063129a14f214610207578063188ec356146102445780631a2c8bc21461026f575b600080fd5b34801561019257600080fd5b5061019b6105c7565b6040516101a89190611649565b60405180910390f35b3480156101bd57600080fd5b506101c66105fe565b6040516101d3919061167d565b60405180910390f35b3480156101e857600080fd5b506101f1610606565b6040516101fe919061167d565b60405180910390f35b34801561021357600080fd5b5061022e600480360381019061022991906116ce565b61060c565b60405161023b9190611714565b60405180910390f35b34801561025057600080fd5b506102596109cd565b604051610266919061167d565b60405180910390f35b34801561027b57600080fd5b506102846109d5565b005b34801561029257600080fd5b5061029b610ae3565b6040516102a89190611649565b60405180910390f35b3480156102bd57600080fd5b506102c6610af6565b6040516102d3919061167d565b60405180910390f35b3480156102e857600080fd5b5061030360048036038101906102fe91906116ce565b610afc565b6040516103169796959493929190611800565b60405180910390f35b34801561032b57600080fd5b50610334610bf3565b60405161034191906118d5565b60405180910390f35b34801561035657600080fd5b50610371600480360381019061036c91906116ce565b610c19565b60405161038194939291906118f0565b60405180910390f35b34801561039657600080fd5b5061039f610c49565b6040516103ac9190611649565b60405180910390f35b3480156103c157600080fd5b506103ca610c5c565b6040516103d7919061167d565b60405180910390f35b3480156103ec57600080fd5b506103f5610c62565b005b34801561040357600080fd5b5061040c610d61565b005b34801561041a57600080fd5b50610423610ebe565b604051610430919061167d565b60405180910390f35b34801561044557600080fd5b5061044e610ec4565b005b34801561045c57600080fd5b50610465610f68565b6040516104729190611935565b60405180910390f35b610495600480360381019061049091906119bc565b610ff6565b6040516104a29190611b3e565b60405180910390f35b3480156104b757600080fd5b506104c06111bd565b6040516104cd919061167d565b60405180910390f35b3480156104e257600080fd5b506104eb6111c3565b005b3480156104f957600080fd5b50610514600480360381019061050f91906116ce565b6113cc565b60405161052696959493929190611b60565b60405180910390f35b34801561053b57600080fd5b5061054461152d565b604051610551919061167d565b60405180910390f35b34801561056657600080fd5b5061056f611533565b60405161057c919061167d565b60405180910390f35b34801561059157600080fd5b5061059a611539565b005b3480156105a857600080fd5b506105b16115b3565b6040516105be9190611bc8565b60405180910390f35b6000801515600960009054906101000a900460ff1615151480156105f95750600754600854426105f79190611c12565b115b905090565b600047905090565b60055481565b600080600083036106ad5760008054906101000a900473ffffffffffffffffffffffffffffffffffffffff1673ffffffffffffffffffffffffffffffffffffffff16630f00fa116040518163ffffffff1660e01b8152600401602060405180830381865afa158015610682573d6000803e3d6000fd5b505050506040513d601f19601f820116820180604052508101906106a69190611c72565b90506109c4565b6001830361074b5760008054906101000a900473ffffffffffffffffffffffffffffffffffffffff1673ffffffffffffffffffffffffffffffffffffffff166394e992566040518163ffffffff1660e01b8152600401602060405180830381865afa158015610720573d6000803e3d6000fd5b505050506040513d601f19601f820116820180604052508101906107449190611c72565b90506109c3565b600283036107e95760008054906101000a900473ffffffffffffffffffffffffffffffffffffffff1673ffffffffffffffffffffffffffffffffffffffff1663566a0c276040518163ffffffff1660e01b8152600401602060405180830381865afa1580156107be573d6000803e3d6000fd5b505050506040513d601f19601f820116820180604052508101906107e29190611c72565b90506109c2565b600383036108875760008054906101000a900473ffffffffffffffffffffffffffffffffffffffff1673ffffffffffffffffffffffffffffffffffffffff1663f77e499c6040518163ffffffff1660e01b8152600401602060405180830381865afa15801561085c573d6000803e3d6000fd5b505050506040513d601f19601f820116820180604052508101906108809190611c72565b90506109c1565b600483036109255760008054906101000a900473ffffffffffffffffffffffffffffffffffffffff1673ffffffffffffffffffffffffffffffffffffffff1663b4768dd46040518163ffffffff1660e01b8152600401602060405180830381865afa1580156108fa573d6000803e3d6000fd5b505050506040513d601f19601f8201168201806040525081019061091e9190611c72565b90506109c0565b600583036109bf5760008054906101000a900473ffffffffffffffffffffffffffffffffffffffff1673ffffffffffffffffffffffffffffffffffffffff166314ec67576040518163ffffffff1660e01b8152600401602060405180830381865afa158015610998573d6000803e3d6000fd5b505050506040513d601f19601f820116820180604052508101906109bc9190611c72565b90505b5b5b5b5b5b80915050919050565b600042905090565b6000600a54476109e59190611cce565b90506000600190505b60016006546109fd9190611cff565b811015610ac45760011515600c600083815260200190815260200160002060060160009054906101000a900460ff16151503610ab157600c600082815260200190815260200160002060010160009054906101000a900473ffffffffffffffffffffffffffffffffffffffff1673ffffffffffffffffffffffffffffffffffffffff166108fc839081150290604051600060405180830381858888f19350505050158015610aaf573d6000803e3d6000fd5b505b8080610abc90611d33565b9150506109ee565b506001600960006101000a81548160ff02191690831515021790555050565b600960019054906101000a900460ff1681565b60045481565b600c602052806000526040600020600091509050806000018054610b1f90611daa565b80601f0160208091040260200160405190810160405280929190818152602001828054610b4b90611daa565b8015610b985780601f10610b6d57610100808354040283529160200191610b98565b820191906000526020600020905b815481529060010190602001808311610b7b57829003601f168201915b5050505050908060010160009054906101000a900473ffffffffffffffffffffffffffffffffffffffff16908060020154908060030154908060040154908060050154908060060160009054906101000a900460ff16905087565b600160009054906101000a900473ffffffffffffffffffffffffffffffffffffffff1681565b600d6020528060005260406000206000915090508060000154908060010154908060020154908060030154905084565b600960009054906101000a900460ff1681565b60065481565b600080600190505b6001600654610c799190611cff565b811015610d5557600c60008281526020019081526020016000206002015491506000600d60008481526020019081526020016000206002015414610ced57600d600083815260200190815260200160002060020154600c600083815260200190815260200160002060040181905550610d42565b610cf68261060c565b600d600084815260200190815260200160002060020181905550600d600083815260200190815260200160002060020154600c6000838152602001908152602001600020600401819055505b8080610d4d90611d33565b915050610c6a565b50610d5e610d61565b50565b6000806000806000600190505b6001600654610d7d9190611cff565b811015610eaf57600c60008281526020019081526020016000206002015494506000600d60008781526020019081526020016000206003015414610df157600d600086815260200190815260200160002060030154600c600083815260200190815260200160002060050181905550610e9c565b600d6000868152602001908152602001600020600101549350600d600086815260200190815260200160002060020154925083670de0b6b3a76400008585610e399190611ddb565b610e439190611e1e565b610e4d9190611e96565b915081600d600087815260200190815260200160002060030181905550600d600086815260200190815260200160002060030154600c6000838152602001908152602001600020600501819055505b8080610ea790611d33565b915050610d6e565b50610eb8611539565b50505050565b600a5481565b6000600190505b6001600654610eda9190611cff565b811015610f5d57600b54600c60008381526020019081526020016000206002015403610f4a576001600c600083815260200190815260200160002060060160006101000a81548160ff0219169083151502179055506001600a6000828254610f429190611cff565b925050819055505b8080610f5590611d33565b915050610ecb565b50610f666109d5565b565b60038054610f7590611daa565b80601f0160208091040260200160405190810160405280929190818152602001828054610fa190611daa565b8015610fee5780601f10610fc357610100808354040283529160200191610fee565b820191906000526020600020905b815481529060010190602001808311610fd157829003601f168201915b505050505081565b610ffe6115d9565b600554341015611043576040517f08c379a000000000000000000000000000000000000000000000000000000000815260040161103a90611f4c565b60405180910390fd5b60006040518060e0016040528086868080601f016020809104026020016040519081016040528093929190818152602001838380828437600081840152601f19601f8201169050808301925050505050505081526020013373ffffffffffffffffffffffffffffffffffffffff1681526020018481526020016000815260200160008152602001600081526020016000151581525090506001600660008282546110ed9190611cff565b9250508190555080600c60006006548152602001908152602001600020600082015181600001908161111f919061213d565b5060208201518160010160006101000a81548173ffffffffffffffffffffffffffffffffffffffff021916908373ffffffffffffffffffffffffffffffffffffffff16021790555060408201518160020155606082015181600301556080820151816004015560a0820151816005015560c08201518160060160006101000a81548160ff021916908315150217905550905050809150509392505050565b60085481565b600260009054906101000a900473ffffffffffffffffffffffffffffffffffffffff1673ffffffffffffffffffffffffffffffffffffffff163373ffffffffffffffffffffffffffffffffffffffff1614611253576040517f08c379a000000000000000000000000000000000000000000000000000000000815260040161124a90612281565b60405180910390fd5b600160065411611298576040517f08c379a000000000000000000000000000000000000000000000000000000000815260040161128f90612313565b60405180910390fd5b600080600190505b60016006546112af9190611cff565b81101561138b57600c60008281526020019081526020016000206002015491506000600d6000848152602001908152602001600020600101541461132357600d600083815260200190815260200160002060010154600c600083815260200190815260200160002060030181905550611378565b61132c8261060c565b600d600084815260200190815260200160002060010181905550600d600083815260200190815260200160002060010154600c6000838152602001908152602001600020600301819055505b808061138390611d33565b9150506112a0565b50426008819055506000600960006101000a81548160ff0219169083151502179055506001600960016101000a81548160ff02191690831515021790555050565b6060600080600080600080600c600089815260200190815260200160002060000180546113f890611daa565b80601f016020809104026020016040519081016040528092919081815260200182805461142490611daa565b80156114715780601f1061144657610100808354040283529160200191611471565b820191906000526020600020905b81548152906001019060200180831161145457829003601f168201915b505050505090506000600c60008a81526020019081526020016000206002015490506000600c60008b81526020019081526020016000206003015490506000600c60008c81526020019081526020016000206004015490506000600c60008d81526020019081526020016000206005015490506000600c60008e815260200190815260200160002060060160009054906101000a900460ff1690508585858585859b509b509b509b509b509b5050505050505091939550919395565b600b5481565b60075481565b600080600080600190505b600681101561159e57600d6000838152602001908152602001600020600301549350600d60008281526020019081526020016000206003015492508383131561158b578091505b808061159690611d33565b915050611544565b5080600b819055506115ae610ec4565b505050565b600260009054906101000a900473ffffffffffffffffffffffffffffffffffffffff1681565b6040518060e0016040528060608152602001600073ffffffffffffffffffffffffffffffffffffffff168152602001600081526020016000815260200160008152602001600081526020016000151581525090565b60008115159050919050565b6116438161162e565b82525050565b600060208201905061165e600083018461163a565b92915050565b6000819050919050565b61167781611664565b82525050565b6000602082019050611692600083018461166e565b92915050565b600080fd5b600080fd5b6116ab81611664565b81146116b657600080fd5b50565b6000813590506116c8816116a2565b92915050565b6000602082840312156116e4576116e3611698565b5b60006116f2848285016116b9565b91505092915050565b6000819050919050565b61170e816116fb565b82525050565b60006020820190506117296000830184611705565b92915050565b600081519050919050565b600082825260208201905092915050565b60005b8381101561176957808201518184015260208101905061174e565b60008484015250505050565b6000601f19601f8301169050919050565b60006117918261172f565b61179b818561173a565b93506117ab81856020860161174b565b6117b481611775565b840191505092915050565b600073ffffffffffffffffffffffffffffffffffffffff82169050919050565b60006117ea826117bf565b9050919050565b6117fa816117df565b82525050565b600060e082019050818103600083015261181a818a611786565b905061182960208301896117f1565b611836604083018861166e565b6118436060830187611705565b6118506080830186611705565b61185d60a0830185611705565b61186a60c083018461163a565b98975050505050505050565b6000819050919050565b600061189b611896611891846117bf565b611876565b6117bf565b9050919050565b60006118ad82611880565b9050919050565b60006118bf826118a2565b9050919050565b6118cf816118b4565b82525050565b60006020820190506118ea60008301846118c6565b92915050565b6000608082019050611905600083018761166e565b6119126020830186611705565b61191f6040830185611705565b61192c6060830184611705565b95945050505050565b6000602082019050818103600083015261194f8184611786565b905092915050565b600080fd5b600080fd5b600080fd5b60008083601f84011261197c5761197b611957565b5b8235905067ffffffffffffffff8111156119995761199861195c565b5b6020830191508360018202830111156119b5576119b4611961565b5b9250929050565b6000806000604084860312156119d5576119d4611698565b5b600084013567ffffffffffffffff8111156119f3576119f261169d565b5b6119ff86828701611966565b93509350506020611a12868287016116b9565b9150509250925092565b600082825260208201905092915050565b6000611a388261172f565b611a428185611a1c565b9350611a5281856020860161174b565b611a5b81611775565b840191505092915050565b611a6f816117df565b82525050565b611a7e81611664565b82525050565b611a8d816116fb565b82525050565b611a9c8161162e565b82525050565b600060e0830160008301518482036000860152611abf8282611a2d565b9150506020830151611ad46020860182611a66565b506040830151611ae76040860182611a75565b506060830151611afa6060860182611a84565b506080830151611b0d6080860182611a84565b5060a0830151611b2060a0860182611a84565b5060c0830151611b3360c0860182611a93565b508091505092915050565b60006020820190508181036000830152611b588184611aa2565b905092915050565b600060c0820190508181036000830152611b7a8189611786565b9050611b89602083018861166e565b611b966040830187611705565b611ba36060830186611705565b611bb06080830185611705565b611bbd60a083018461163a565b979650505050505050565b6000602082019050611bdd60008301846117f1565b92915050565b7f4e487b7100000000000000000000000000000000000000000000000000000000600052601160045260246000fd5b6000611c1d82611664565b9150611c2883611664565b9250828203905081811115611c4057611c3f611be3565b5b92915050565b611c4f816116fb565b8114611c5a57600080fd5b50565b600081519050611c6c81611c46565b92915050565b600060208284031215611c8857611c87611698565b5b6000611c9684828501611c5d565b91505092915050565b7f4e487b7100000000000000000000000000000000000000000000000000000000600052601260045260246000fd5b6000611cd982611664565b9150611ce483611664565b925082611cf457611cf3611c9f565b5b828204905092915050565b6000611d0a82611664565b9150611d1583611664565b9250828201905080821115611d2d57611d2c611be3565b5b92915050565b6000611d3e82611664565b91507fffffffffffffffffffffffffffffffffffffffffffffffffffffffffffffffff8203611d7057611d6f611be3565b5b600182019050919050565b7f4e487b7100000000000000000000000000000000000000000000000000000000600052602260045260246000fd5b60006002820490506001821680611dc257607f821691505b602082108103611dd557611dd4611d7b565b5b50919050565b6000611de6826116fb565b9150611df1836116fb565b9250828203905081811260008412168282136000851215161715611e1857611e17611be3565b5b92915050565b6000611e29826116fb565b9150611e34836116fb565b9250828202611e42816116fb565b91507f80000000000000000000000000000000000000000000000000000000000000008414600084121615611e7a57611e79611be3565b5b8282058414831517611e8f57611e8e611be3565b5b5092915050565b6000611ea1826116fb565b9150611eac836116fb565b925082611ebc57611ebb611c9f565b5b600160000383147f800000000000000000000000000000000000000000000000000000000000000083141615611ef557611ef4611be3565b5b828205905092915050565b7f4e6f7420656e6f7567682066756e64732070726f766964656400000000000000600082015250565b6000611f3660198361173a565b9150611f4182611f00565b602082019050919050565b60006020820190508181036000830152611f6581611f29565b9050919050565b7f4e487b7100000000000000000000000000000000000000000000000000000000600052604160045260246000fd5b60008190508160005260206000209050919050565b60006020601f8301049050919050565b600082821b905092915050565b600060088302611ffd7fffffffffffffffffffffffffffffffffffffffffffffffffffffffffffffffff82611fc0565b6120078683611fc0565b95508019841693508086168417925050509392505050565b600061203a61203561203084611664565b611876565b611664565b9050919050565b6000819050919050565b6120548361201f565b61206861206082612041565b848454611fcd565b825550505050565b600090565b61207d612070565b61208881848461204b565b505050565b5b818110156120ac576120a1600082612075565b60018101905061208e565b5050565b601f8211156120f1576120c281611f9b565b6120cb84611fb0565b810160208510156120da578190505b6120ee6120e685611fb0565b83018261208d565b50505b505050565b600082821c905092915050565b6000612114600019846008026120f6565b1980831691505092915050565b600061212d8383612103565b9150826002028217905092915050565b6121468261172f565b67ffffffffffffffff81111561215f5761215e611f6c565b5b6121698254611daa565b6121748282856120b0565b600060209050601f8311600181146121a75760008415612195578287015190505b61219f8582612121565b865550612207565b601f1984166121b586611f9b565b60005b828110156121dd578489015182556001820191506020850194506020810190506121b8565b868310156121fa57848901516121f6601f891682612103565b8355505b6001600288020188555050505b505050505050565b7f6d73672e73656e646572206973206e6f742061646d696e21206f6e6c7920616460008201527f6d696e2063616e207374617274207468652067616d6500000000000000000000602082015250565b600061226b60368361173a565b91506122768261220f565b604082019050919050565b6000602082019050818103600083015261229a8161225e565b9050919050565b7f54686572652073686f756c64206265206d6f7265207468616e206f6e6520726560008201527f676973746572656420706c617965727320746f20737461727400000000000000602082015250565b60006122fd60398361173a565b9150612308826122a1565b604082019050919050565b6000602082019050818103600083015261232c816122f0565b905091905056fea264697066735822122050b52637c7a051f7a7f9dc7c9612b1b9efc6a95fe4d43b035079d2c5632637d864736f6c63430008110033",
  "linkReferences": {},
  "deployedLinkReferences": {}
}