{
  "_format": "hh-sol-artifact-1",
  "contractName": "Game",
  "sourceName": "contracts/Game.sol",
  "abi": [
    {
      "inputs": [
        {
          "internalType": "address",
          "name": "_priceFeed",
          "type": "address"
        },
        {
          "internalType": "uint256",
          "name": "_players",
          "type": "uint256"
        },
        {
          "internalType": "uint256",
          "name": "_ticketPrice",
          "type": "uint256"
        },
        {
          "internalType": "uint256",
          "name": "_period",
          "type": "uint256"
        }
      ],
      "stateMutability": "nonpayable",
      "type": "constructor"
    },
    {
      "inputs": [],
      "name": "calculateRange",
      "outputs": [],
      "stateMutability": "nonpayable",
      "type": "function"
    },
    {
      "inputs": [
        {
          "internalType": "uint256",
          "name": "",
          "type": "uint256"
        }
      ],
      "name": "choiceToCoin",
      "outputs": [
        {
          "internalType": "uint256",
          "name": "symbol",
          "type": "uint256"
        },
        {
          "internalType": "int256",
          "name": "open",
          "type": "int256"
        },
        {
          "internalType": "int256",
          "name": "close",
          "type": "int256"
        },
        {
          "internalType": "int256",
          "name": "range",
          "type": "int256"
        }
      ],
      "stateMutability": "view",
      "type": "function"
    },
    {
      "inputs": [
        {
          "internalType": "uint256",
          "name": "_option",
          "type": "uint256"
        }
      ],
      "name": "choiceToPrice",
      "outputs": [
        {
          "internalType": "int256",
          "name": "",
          "type": "int256"
        }
      ],
      "stateMutability": "view",
      "type": "function"
    },
    {
      "inputs": [],
      "name": "countWinners",
      "outputs": [],
      "stateMutability": "nonpayable",
      "type": "function"
    },
    {
      "inputs": [],
      "name": "counter",
      "outputs": [
        {
          "internalType": "uint256",
          "name": "",
          "type": "uint256"
        }
      ],
      "stateMutability": "view",
      "type": "function"
    },
    {
      "inputs": [
        {
          "internalType": "uint256",
          "name": "",
          "type": "uint256"
        }
      ],
      "name": "counterToPlayer",
      "outputs": [
        {
          "internalType": "string",
          "name": "name",
          "type": "string"
        },
        {
          "internalType": "address",
          "name": "wallet",
          "type": "address"
        },
        {
          "internalType": "uint256",
          "name": "choice",
          "type": "uint256"
        },
        {
          "internalType": "int256",
          "name": "open",
          "type": "int256"
        },
        {
          "internalType": "int256",
          "name": "close",
          "type": "int256"
        },
        {
          "internalType": "int256",
          "name": "range",
          "type": "int256"
        },
        {
          "internalType": "bool",
          "name": "winner",
          "type": "bool"
        }
      ],
      "stateMutability": "view",
      "type": "function"
    },
    {
      "inputs": [],
      "name": "endGame",
      "outputs": [],
      "stateMutability": "nonpayable",
      "type": "function"
    },
    {
      "inputs": [],
      "name": "executionRequired",
      "outputs": [
        {
          "internalType": "bool",
          "name": "",
          "type": "bool"
        }
      ],
      "stateMutability": "view",
      "type": "function"
    },
    {
      "inputs": [],
      "name": "getBalance",
      "outputs": [
        {
          "internalType": "uint256",
          "name": "",
          "type": "uint256"
        }
      ],
      "stateMutability": "view",
      "type": "function"
    },
    {
      "inputs": [
        {
          "internalType": "uint256",
          "name": "_counter",
          "type": "uint256"
        }
      ],
      "name": "getPlayersInformation",
      "outputs": [
        {
          "internalType": "string",
          "name": "",
          "type": "string"
        },
        {
          "internalType": "uint256",
          "name": "",
          "type": "uint256"
        },
        {
          "internalType": "int256",
          "name": "",
          "type": "int256"
        },
        {
          "internalType": "int256",
          "name": "",
          "type": "int256"
        },
        {
          "internalType": "int256",
          "name": "",
          "type": "int256"
        },
        {
          "internalType": "bool",
          "name": "",
          "type": "bool"
        }
      ],
      "stateMutability": "view",
      "type": "function"
    },
    {
      "inputs": [],
      "name": "getTimestamp",
      "outputs": [
        {
          "internalType": "uint256",
          "name": "",
          "type": "uint256"
        }
      ],
      "stateMutability": "view",
      "type": "function"
    },
    {
      "inputs": [],
      "name": "paused",
      "outputs": [
        {
          "internalType": "bool",
          "name": "",
          "type": "bool"
        }
      ],
      "stateMutability": "view",
      "type": "function"
    },
    {
      "inputs": [],
      "name": "period",
      "outputs": [
        {
          "internalType": "uint256",
          "name": "",
          "type": "uint256"
        }
      ],
      "stateMutability": "view",
      "type": "function"
    },
    {
      "inputs": [],
      "name": "pickWinnerChoice",
      "outputs": [],
      "stateMutability": "nonpayable",
      "type": "function"
    },
    {
      "inputs": [],
      "name": "players",
      "outputs": [
        {
          "internalType": "uint256",
          "name": "",
          "type": "uint256"
        }
      ],
      "stateMutability": "view",
      "type": "function"
    },
    {
      "inputs": [],
      "name": "start",
      "outputs": [
        {
          "internalType": "uint256",
          "name": "",
          "type": "uint256"
        }
      ],
      "stateMutability": "view",
      "type": "function"
    },
    {
      "inputs": [],
      "name": "startGame",
      "outputs": [],
      "stateMutability": "nonpayable",
      "type": "function"
    },
    {
      "inputs": [
        {
          "internalType": "string",
          "name": "_name",
          "type": "string"
        },
        {
          "internalType": "uint256",
          "name": "_choice",
          "type": "uint256"
        }
      ],
      "name": "takePart",
      "outputs": [
        {
          "components": [
            {
              "internalType": "string",
              "name": "name",
              "type": "string"
            },
            {
              "internalType": "address",
              "name": "wallet",
              "type": "address"
            },
            {
              "internalType": "uint256",
              "name": "choice",
              "type": "uint256"
            },
            {
              "internalType": "int256",
              "name": "open",
              "type": "int256"
            },
            {
              "internalType": "int256",
              "name": "close",
              "type": "int256"
            },
            {
              "internalType": "int256",
              "name": "range",
              "type": "int256"
            },
            {
              "internalType": "bool",
              "name": "winner",
              "type": "bool"
            }
          ],
          "internalType": "struct Game.Player",
          "name": "",
          "type": "tuple"
        }
      ],
      "stateMutability": "nonpayable",
      "type": "function"
    },
    {
      "inputs": [],
      "name": "ticketPrice",
      "outputs": [
        {
          "internalType": "uint256",
          "name": "",
          "type": "uint256"
        }
      ],
      "stateMutability": "view",
      "type": "function"
    },
    {
      "inputs": [],
      "name": "winnerChoice",
      "outputs": [
        {
          "internalType": "uint256",
          "name": "",
          "type": "uint256"
        }
      ],
      "stateMutability": "view",
      "type": "function"
    },
    {
      "inputs": [],
      "name": "winners",
      "outputs": [
        {
          "internalType": "uint256",
          "name": "",
          "type": "uint256"
        }
      ],
      "stateMutability": "view",
      "type": "function"
    }
  ],
  "bytecode": "0x60806040526001600660006101000a81548160ff02191690831515021790555060006007553480156200003157600080fd5b5060405162001da638038062001da683398181016040528101906200005791906200015b565b836000806101000a81548173ffffffffffffffffffffffffffffffffffffffff021916908373ffffffffffffffffffffffffffffffffffffffff16021790555082600181905550816002819055508060048190555050505050620001cd565b600080fd5b600073ffffffffffffffffffffffffffffffffffffffff82169050919050565b6000620000e882620000bb565b9050919050565b620000fa81620000db565b81146200010657600080fd5b50565b6000815190506200011a81620000ef565b92915050565b6000819050919050565b620001358162000120565b81146200014157600080fd5b50565b60008151905062000155816200012a565b92915050565b60008060008060808587031215620001785762000177620000b6565b5b6000620001888782880162000109565b94505060206200019b8782880162000144565b9350506040620001ae8782880162000144565b9250506060620001c18782880162000144565b91505092959194509250565b611bc980620001dd6000396000f3fe608060405234801561001057600080fd5b50600436106101375760003560e01c806370f838aa116100b8578063d65ab5f21161007c578063d65ab5f214610313578063dc0b35641461031d578063e6718d141461033b578063ed81378a14610370578063ef78d4fd1461038e578063f9832706146103ac57610137565b806370f838aa14610293578063a487bcd81461029d578063a565efff146102bb578063acc591c7146102c5578063be9a6555146102f557610137565b80632d487eba116100ff5780632d487eba146101e457806350e757c61461021a5780635c975abb1461024d57806361bc221a1461026b5780636cbc2ded1461028957610137565b806310c58e9f1461013c57806312065fe01461015a5780631209b1f614610178578063129a14f214610196578063188ec356146101c6575b600080fd5b6101446103b6565b6040516101519190611117565b60405180910390f35b6101626103ed565b60405161016f919061114b565b60405180910390f35b6101806103f5565b60405161018d919061114b565b60405180910390f35b6101b060048036038101906101ab919061119c565b6103fb565b6040516101bd91906111e2565b60405180910390f35b6101ce6107bc565b6040516101db919061114b565b60405180910390f35b6101fe60048036038101906101f9919061119c565b6107c4565b60405161021197969594939291906112ce565b60405180910390f35b610234600480360381019061022f919061119c565b6108bb565b6040516102449493929190611344565b60405180910390f35b6102556108eb565b6040516102629190611117565b60405180910390f35b6102736108fe565b604051610280919061114b565b60405180910390f35b610291610904565b005b61029b610a03565b005b6102a5610b60565b6040516102b2919061114b565b60405180910390f35b6102c3610b66565b005b6102df60048036038101906102da91906113ee565b610c19565b6040516102ec9190611570565b60405180910390f35b6102fd610d9b565b60405161030a919061114b565b60405180910390f35b61031b610da1565b005b610325610eba565b604051610332919061114b565b60405180910390f35b6103556004803603810190610350919061119c565b610ec0565b60405161036796959493929190611592565b60405180910390f35b610378611021565b604051610385919061114b565b60405180910390f35b610396611027565b6040516103a3919061114b565b60405180910390f35b6103b461102d565b005b6000801515600660009054906101000a900460ff1615151480156103e85750600454600554426103e69190611629565b115b905090565b600047905090565b60025481565b6000806000830361049c5760008054906101000a900473ffffffffffffffffffffffffffffffffffffffff1673ffffffffffffffffffffffffffffffffffffffff16630f00fa116040518163ffffffff1660e01b8152600401602060405180830381865afa158015610471573d6000803e3d6000fd5b505050506040513d601f19601f820116820180604052508101906104959190611689565b90506107b3565b6001830361053a5760008054906101000a900473ffffffffffffffffffffffffffffffffffffffff1673ffffffffffffffffffffffffffffffffffffffff166394e992566040518163ffffffff1660e01b8152600401602060405180830381865afa15801561050f573d6000803e3d6000fd5b505050506040513d601f19601f820116820180604052508101906105339190611689565b90506107b2565b600283036105d85760008054906101000a900473ffffffffffffffffffffffffffffffffffffffff1673ffffffffffffffffffffffffffffffffffffffff1663566a0c276040518163ffffffff1660e01b8152600401602060405180830381865afa1580156105ad573d6000803e3d6000fd5b505050506040513d601f19601f820116820180604052508101906105d19190611689565b90506107b1565b600383036106765760008054906101000a900473ffffffffffffffffffffffffffffffffffffffff1673ffffffffffffffffffffffffffffffffffffffff1663f77e499c6040518163ffffffff1660e01b8152600401602060405180830381865afa15801561064b573d6000803e3d6000fd5b505050506040513d601f19601f8201168201806040525081019061066f9190611689565b90506107b0565b600483036107145760008054906101000a900473ffffffffffffffffffffffffffffffffffffffff1673ffffffffffffffffffffffffffffffffffffffff1663b4768dd46040518163ffffffff1660e01b8152600401602060405180830381865afa1580156106e9573d6000803e3d6000fd5b505050506040513d601f19601f8201168201806040525081019061070d9190611689565b90506107af565b600583036107ae5760008054906101000a900473ffffffffffffffffffffffffffffffffffffffff1673ffffffffffffffffffffffffffffffffffffffff166314ec67576040518163ffffffff1660e01b8152600401602060405180830381865afa158015610787573d6000803e3d6000fd5b505050506040513d601f19601f820116820180604052508101906107ab9190611689565b90505b5b5b5b5b5b80915050919050565b600042905090565b60096020528060005260406000206000915090508060000180546107e7906116e5565b80601f0160208091040260200160405190810160405280929190818152602001828054610813906116e5565b80156108605780601f1061083557610100808354040283529160200191610860565b820191906000526020600020905b81548152906001019060200180831161084357829003601f168201915b5050505050908060010160009054906101000a900473ffffffffffffffffffffffffffffffffffffffff16908060020154908060030154908060040154908060050154908060060160009054906101000a900460ff16905087565b600a6020528060005260406000206000915090508060000154908060010154908060020154908060030154905084565b600660009054906101000a900460ff1681565b60035481565b600080600190505b600160035461091b9190611716565b8110156109f757600960008281526020019081526020016000206002015491506000600a6000848152602001908152602001600020600201541461098f57600a60008381526020019081526020016000206002015460096000838152602001908152602001600020600401819055506109e4565b610998826103fb565b600a600084815260200190815260200160002060020181905550600a60008381526020019081526020016000206002015460096000838152602001908152602001600020600401819055505b80806109ef9061174a565b91505061090c565b50610a00610a03565b50565b6000806000806000600190505b6001600354610a1f9190611716565b811015610b5157600960008281526020019081526020016000206002015494506000600a60008781526020019081526020016000206003015414610a9357600a6000868152602001908152602001600020600301546009600083815260200190815260200160002060050181905550610b3e565b600a6000868152602001908152602001600020600101549350600a600086815260200190815260200160002060020154925083670de0b6b3a76400008585610adb9190611792565b610ae591906117d5565b610aef919061187c565b915081600a600087815260200190815260200160002060030181905550600a60008681526020019081526020016000206003015460096000838152602001908152602001600020600501819055505b8080610b499061174a565b915050610a10565b50610b5a61102d565b50505050565b60075481565b60005b6001600354610b789190611716565b811015610bfb57600854600960008381526020019081526020016000206002015403610be85760016009600083815260200190815260200160002060060160006101000a81548160ff021916908315150217905550600160076000828254610be09190611716565b925050819055505b8080610bf39061174a565b915050610b69565b506001600660006101000a81548160ff021916908315150217905550565b610c216110a7565b60006040518060e0016040528086868080601f016020809104026020016040519081016040528093929190818152602001838380828437600081840152601f19601f8201169050808301925050505050505081526020013373ffffffffffffffffffffffffffffffffffffffff168152602001848152602001600081526020016000815260200160008152602001600015158152509050600160036000828254610ccb9190611716565b92505081905550806009600060035481526020019081526020016000206000820151816000019081610cfd9190611ac1565b5060208201518160010160006101000a81548173ffffffffffffffffffffffffffffffffffffffff021916908373ffffffffffffffffffffffffffffffffffffffff16021790555060408201518160020155606082015181600301556080820151816004015560a0820151816005015560c08201518160060160006101000a81548160ff021916908315150217905550905050809150509392505050565b60055481565b600080600190505b6001600354610db89190611716565b811015610e9457600960008281526020019081526020016000206002015491506000600a60008481526020019081526020016000206001015414610e2c57600a6000838152602001908152602001600020600101546009600083815260200190815260200160002060030181905550610e81565b610e35826103fb565b600a600084815260200190815260200160002060010181905550600a60008381526020019081526020016000206001015460096000838152602001908152602001600020600301819055505b8080610e8c9061174a565b915050610da9565b50426005819055506000600660006101000a81548160ff02191690831515021790555050565b60015481565b6060600080600080600080600960008981526020019081526020016000206000018054610eec906116e5565b80601f0160208091040260200160405190810160405280929190818152602001828054610f18906116e5565b8015610f655780601f10610f3a57610100808354040283529160200191610f65565b820191906000526020600020905b815481529060010190602001808311610f4857829003601f168201915b505050505090506000600960008a81526020019081526020016000206002015490506000600960008b81526020019081526020016000206003015490506000600960008c81526020019081526020016000206004015490506000600960008d81526020019081526020016000206005015490506000600960008e815260200190815260200160002060060160009054906101000a900460ff1690508585858585859b509b509b509b509b509b5050505050505091939550919395565b60085481565b60045481565b600080600080600190505b600681101561109257600a6000838152602001908152602001600020600301549350600a60008281526020019081526020016000206003015492508383131561107f578091505b808061108a9061174a565b915050611038565b50806008819055506110a2610b66565b505050565b6040518060e0016040528060608152602001600073ffffffffffffffffffffffffffffffffffffffff168152602001600081526020016000815260200160008152602001600081526020016000151581525090565b60008115159050919050565b611111816110fc565b82525050565b600060208201905061112c6000830184611108565b92915050565b6000819050919050565b61114581611132565b82525050565b6000602082019050611160600083018461113c565b92915050565b600080fd5b600080fd5b61117981611132565b811461118457600080fd5b50565b60008135905061119681611170565b92915050565b6000602082840312156111b2576111b1611166565b5b60006111c084828501611187565b91505092915050565b6000819050919050565b6111dc816111c9565b82525050565b60006020820190506111f760008301846111d3565b92915050565b600081519050919050565b600082825260208201905092915050565b60005b8381101561123757808201518184015260208101905061121c565b60008484015250505050565b6000601f19601f8301169050919050565b600061125f826111fd565b6112698185611208565b9350611279818560208601611219565b61128281611243565b840191505092915050565b600073ffffffffffffffffffffffffffffffffffffffff82169050919050565b60006112b88261128d565b9050919050565b6112c8816112ad565b82525050565b600060e08201905081810360008301526112e8818a611254565b90506112f760208301896112bf565b611304604083018861113c565b61131160608301876111d3565b61131e60808301866111d3565b61132b60a08301856111d3565b61133860c0830184611108565b98975050505050505050565b6000608082019050611359600083018761113c565b61136660208301866111d3565b61137360408301856111d3565b61138060608301846111d3565b95945050505050565b600080fd5b600080fd5b600080fd5b60008083601f8401126113ae576113ad611389565b5b8235905067ffffffffffffffff8111156113cb576113ca61138e565b5b6020830191508360018202830111156113e7576113e6611393565b5b9250929050565b60008060006040848603121561140757611406611166565b5b600084013567ffffffffffffffff8111156114255761142461116b565b5b61143186828701611398565b9350935050602061144486828701611187565b9150509250925092565b600082825260208201905092915050565b600061146a826111fd565b611474818561144e565b9350611484818560208601611219565b61148d81611243565b840191505092915050565b6114a1816112ad565b82525050565b6114b081611132565b82525050565b6114bf816111c9565b82525050565b6114ce816110fc565b82525050565b600060e08301600083015184820360008601526114f1828261145f565b91505060208301516115066020860182611498565b50604083015161151960408601826114a7565b50606083015161152c60608601826114b6565b50608083015161153f60808601826114b6565b5060a083015161155260a08601826114b6565b5060c083015161156560c08601826114c5565b508091505092915050565b6000602082019050818103600083015261158a81846114d4565b905092915050565b600060c08201905081810360008301526115ac8189611254565b90506115bb602083018861113c565b6115c860408301876111d3565b6115d560608301866111d3565b6115e260808301856111d3565b6115ef60a0830184611108565b979650505050505050565b7f4e487b7100000000000000000000000000000000000000000000000000000000600052601160045260246000fd5b600061163482611132565b915061163f83611132565b9250828203905081811115611657576116566115fa565b5b92915050565b611666816111c9565b811461167157600080fd5b50565b6000815190506116838161165d565b92915050565b60006020828403121561169f5761169e611166565b5b60006116ad84828501611674565b91505092915050565b7f4e487b7100000000000000000000000000000000000000000000000000000000600052602260045260246000fd5b600060028204905060018216806116fd57607f821691505b6020821081036117105761170f6116b6565b5b50919050565b600061172182611132565b915061172c83611132565b9250828201905080821115611744576117436115fa565b5b92915050565b600061175582611132565b91507fffffffffffffffffffffffffffffffffffffffffffffffffffffffffffffffff8203611787576117866115fa565b5b600182019050919050565b600061179d826111c9565b91506117a8836111c9565b92508282039050818112600084121682821360008512151617156117cf576117ce6115fa565b5b92915050565b60006117e0826111c9565b91506117eb836111c9565b92508282026117f9816111c9565b91507f80000000000000000000000000000000000000000000000000000000000000008414600084121615611831576118306115fa565b5b8282058414831517611846576118456115fa565b5b5092915050565b7f4e487b7100000000000000000000000000000000000000000000000000000000600052601260045260246000fd5b6000611887826111c9565b9150611892836111c9565b9250826118a2576118a161184d565b5b600160000383147f8000000000000000000000000000000000000000000000000000000000000000831416156118db576118da6115fa565b5b828205905092915050565b7f4e487b7100000000000000000000000000000000000000000000000000000000600052604160045260246000fd5b60008190508160005260206000209050919050565b60006020601f8301049050919050565b600082821b905092915050565b6000600883026119777fffffffffffffffffffffffffffffffffffffffffffffffffffffffffffffffff8261193a565b611981868361193a565b95508019841693508086168417925050509392505050565b6000819050919050565b60006119be6119b96119b484611132565b611999565b611132565b9050919050565b6000819050919050565b6119d8836119a3565b6119ec6119e4826119c5565b848454611947565b825550505050565b600090565b611a016119f4565b611a0c8184846119cf565b505050565b5b81811015611a3057611a256000826119f9565b600181019050611a12565b5050565b601f821115611a7557611a4681611915565b611a4f8461192a565b81016020851015611a5e578190505b611a72611a6a8561192a565b830182611a11565b50505b505050565b600082821c905092915050565b6000611a9860001984600802611a7a565b1980831691505092915050565b6000611ab18383611a87565b9150826002028217905092915050565b611aca826111fd565b67ffffffffffffffff811115611ae357611ae26118e6565b5b611aed82546116e5565b611af8828285611a34565b600060209050601f831160018114611b2b5760008415611b19578287015190505b611b238582611aa5565b865550611b8b565b601f198416611b3986611915565b60005b82811015611b6157848901518255600182019150602085019450602081019050611b3c565b86831015611b7e5784890151611b7a601f891682611a87565b8355505b6001600288020188555050505b50505050505056fea26469706673582212207c1c0254add641611f898cc02187f143f3e942049d6ca06876933b98b750f5d164736f6c63430008110033",
  "linkReferences": {},
  "deployedLinkReferences": {}
}