{
  "_format": "hh-sol-artifact-1",
  "contractName": "UpkeepIDConsumerExample",
  "sourceName": "contracts/Upkeep_Registrar.sol",
  "abi": [
    {
      "inputs": [
        {
          "internalType": "contract LinkTokenInterface",
          "name": "link",
          "type": "address"
        },
        {
          "internalType": "contract KeeperRegistrarInterface",
          "name": "registrar",
          "type": "address"
        }
      ],
      "stateMutability": "nonpayable",
      "type": "constructor"
    },
    {
      "inputs": [],
      "name": "i_link",
      "outputs": [
        {
          "internalType": "contract LinkTokenInterface",
          "name": "",
          "type": "address"
        }
      ],
      "stateMutability": "view",
      "type": "function"
    },
    {
      "inputs": [],
      "name": "i_registrar",
      "outputs": [
        {
          "internalType": "contract KeeperRegistrarInterface",
          "name": "",
          "type": "address"
        }
      ],
      "stateMutability": "view",
      "type": "function"
    },
    {
      "inputs": [
        {
          "components": [
            {
              "internalType": "string",
              "name": "name",
              "type": "string"
            },
            {
              "internalType": "bytes",
              "name": "encryptedEmail",
              "type": "bytes"
            },
            {
              "internalType": "address",
              "name": "upkeepContract",
              "type": "address"
            },
            {
              "internalType": "uint32",
              "name": "gasLimit",
              "type": "uint32"
            },
            {
              "internalType": "address",
              "name": "adminAddress",
              "type": "address"
            },
            {
              "internalType": "bytes",
              "name": "checkData",
              "type": "bytes"
            },
            {
              "internalType": "bytes",
              "name": "offchainConfig",
              "type": "bytes"
            },
            {
              "internalType": "uint96",
              "name": "amount",
              "type": "uint96"
            }
          ],
          "internalType": "struct RegistrationParams",
          "name": "params",
          "type": "tuple"
        }
      ],
      "name": "registerAndPredictID",
      "outputs": [],
      "stateMutability": "nonpayable",
      "type": "function"
    }
  ],
  "bytecode": "0x60c06040523480156200001157600080fd5b5060405162000d6138038062000d6183398181016040528101906200003791906200016a565b8173ffffffffffffffffffffffffffffffffffffffff1660808173ffffffffffffffffffffffffffffffffffffffff16815250508073ffffffffffffffffffffffffffffffffffffffff1660a08173ffffffffffffffffffffffffffffffffffffffff16815250505050620001b1565b600080fd5b600073ffffffffffffffffffffffffffffffffffffffff82169050919050565b6000620000d982620000ac565b9050919050565b6000620000ed82620000cc565b9050919050565b620000ff81620000e0565b81146200010b57600080fd5b50565b6000815190506200011f81620000f4565b92915050565b60006200013282620000cc565b9050919050565b620001448162000125565b81146200015057600080fd5b50565b600081519050620001648162000139565b92915050565b60008060408385031215620001845762000183620000a7565b5b600062000194858286016200010e565b9250506020620001a78582860162000153565b9150509250929050565b60805160a051610b78620001e96000396000818160a00152818161012401526101ad01526000818160c4015260e80152610b786000f3fe608060405234801561001057600080fd5b50600436106100415760003560e01c8063442b1278146100465780637d253aff14610064578063fd111cca14610082575b600080fd5b61004e61009e565b60405161005b919061030f565b60405180910390f35b61006c6100c2565b604051610079919061034b565b60405180910390f35b61009c60048036038101906100979190610763565b6100e6565b005b7f000000000000000000000000000000000000000000000000000000000000000081565b7f000000000000000000000000000000000000000000000000000000000000000081565b7f000000000000000000000000000000000000000000000000000000000000000073ffffffffffffffffffffffffffffffffffffffff1663095ea7b37f00000000000000000000000000000000000000000000000000000000000000008360e001516040518363ffffffff1660e01b81526004016101659291906107f6565b6020604051808303816000875af1158015610184573d6000803e3d6000fd5b505050506040513d601f19601f820116820180604052508101906101a89190610857565b5060007f000000000000000000000000000000000000000000000000000000000000000073ffffffffffffffffffffffffffffffffffffffff166308b79da4836040518263ffffffff1660e01b81526004016102049190610a4a565b6020604051808303816000875af1158015610223573d6000803e3d6000fd5b505050506040513d601f19601f820116820180604052508101906102479190610a98565b90506000810361028c576040517f08c379a000000000000000000000000000000000000000000000000000000000815260040161028390610b22565b60405180910390fd5b5050565b600073ffffffffffffffffffffffffffffffffffffffff82169050919050565b6000819050919050565b60006102d56102d06102cb84610290565b6102b0565b610290565b9050919050565b60006102e7826102ba565b9050919050565b60006102f9826102dc565b9050919050565b610309816102ee565b82525050565b60006020820190506103246000830184610300565b92915050565b6000610335826102dc565b9050919050565b6103458161032a565b82525050565b6000602082019050610360600083018461033c565b92915050565b6000604051905090565b600080fd5b600080fd5b600080fd5b6000601f19601f8301169050919050565b7f4e487b7100000000000000000000000000000000000000000000000000000000600052604160045260246000fd5b6103c88261037f565b810181811067ffffffffffffffff821117156103e7576103e6610390565b5b80604052505050565b60006103fa610366565b905061040682826103bf565b919050565b600080fd5b600080fd5b600080fd5b600067ffffffffffffffff82111561043557610434610390565b5b61043e8261037f565b9050602081019050919050565b82818337600083830152505050565b600061046d6104688461041a565b6103f0565b90508281526020810184848401111561048957610488610415565b5b61049484828561044b565b509392505050565b600082601f8301126104b1576104b0610410565b5b81356104c184826020860161045a565b91505092915050565b600067ffffffffffffffff8211156104e5576104e4610390565b5b6104ee8261037f565b9050602081019050919050565b600061050e610509846104ca565b6103f0565b90508281526020810184848401111561052a57610529610415565b5b61053584828561044b565b509392505050565b600082601f83011261055257610551610410565b5b81356105628482602086016104fb565b91505092915050565b600061057682610290565b9050919050565b6105868161056b565b811461059157600080fd5b50565b6000813590506105a38161057d565b92915050565b600063ffffffff82169050919050565b6105c2816105a9565b81146105cd57600080fd5b50565b6000813590506105df816105b9565b92915050565b60006bffffffffffffffffffffffff82169050919050565b610606816105e5565b811461061157600080fd5b50565b600081359050610623816105fd565b92915050565b600061010082840312156106405761063f61037a565b5b61064b6101006103f0565b9050600082013567ffffffffffffffff81111561066b5761066a61040b565b5b6106778482850161049c565b600083015250602082013567ffffffffffffffff81111561069b5761069a61040b565b5b6106a78482850161053d565b60208301525060406106bb84828501610594565b60408301525060606106cf848285016105d0565b60608301525060806106e384828501610594565b60808301525060a082013567ffffffffffffffff8111156107075761070661040b565b5b6107138482850161053d565b60a08301525060c082013567ffffffffffffffff8111156107375761073661040b565b5b6107438482850161053d565b60c08301525060e061075784828501610614565b60e08301525092915050565b60006020828403121561077957610778610370565b5b600082013567ffffffffffffffff81111561079757610796610375565b5b6107a384828501610629565b91505092915050565b6107b58161056b565b82525050565b6000819050919050565b60006107e06107db6107d6846105e5565b6102b0565b6107bb565b9050919050565b6107f0816107c5565b82525050565b600060408201905061080b60008301856107ac565b61081860208301846107e7565b9392505050565b60008115159050919050565b6108348161081f565b811461083f57600080fd5b50565b6000815190506108518161082b565b92915050565b60006020828403121561086d5761086c610370565b5b600061087b84828501610842565b91505092915050565b600081519050919050565b600082825260208201905092915050565b60005b838110156108be5780820151818401526020810190506108a3565b60008484015250505050565b60006108d582610884565b6108df818561088f565b93506108ef8185602086016108a0565b6108f88161037f565b840191505092915050565b600081519050919050565b600082825260208201905092915050565b600061092a82610903565b610934818561090e565b93506109448185602086016108a0565b61094d8161037f565b840191505092915050565b6109618161056b565b82525050565b610970816105a9565b82525050565b61097f816105e5565b82525050565b60006101008301600083015184820360008601526109a382826108ca565b915050602083015184820360208601526109bd828261091f565b91505060408301516109d26040860182610958565b5060608301516109e56060860182610967565b5060808301516109f86080860182610958565b5060a083015184820360a0860152610a10828261091f565b91505060c083015184820360c0860152610a2a828261091f565b91505060e0830151610a3f60e0860182610976565b508091505092915050565b60006020820190508181036000830152610a648184610985565b905092915050565b610a75816107bb565b8114610a8057600080fd5b50565b600081519050610a9281610a6c565b92915050565b600060208284031215610aae57610aad610370565b5b6000610abc84828501610a83565b91505092915050565b600082825260208201905092915050565b7f6175746f2d617070726f76652064697361626c65640000000000000000000000600082015250565b6000610b0c601583610ac5565b9150610b1782610ad6565b602082019050919050565b60006020820190508181036000830152610b3b81610aff565b905091905056fea26469706673582212209c10ff4543ecb1029d33163344a94b39f3672bb127859486210e7e36798a037564736f6c63430008110033",
  "linkReferences": {},
  "deployedLinkReferences": {}
}