{
  "_format": "hh-sol-artifact-1",
  "contractName": "PriceFeed",
  "sourceName": "contracts/PriceFeed.sol",
  "abi": [
    {
      "inputs": [],
      "stateMutability": "nonpayable",
      "type": "constructor"
    },
    {
      "inputs": [],
      "name": "getBTCLatestPrice",
      "outputs": [
        {
          "internalType": "int256",
          "name": "",
          "type": "int256"
        }
      ],
      "stateMutability": "view",
      "type": "function"
    },
    {
      "inputs": [],
      "name": "getETHLatestPrice",
      "outputs": [
        {
          "internalType": "int256",
          "name": "",
          "type": "int256"
        }
      ],
      "stateMutability": "view",
      "type": "function"
    },
    {
      "inputs": [],
      "name": "getLINKLatestPrice",
      "outputs": [
        {
          "internalType": "int256",
          "name": "",
          "type": "int256"
        }
      ],
      "stateMutability": "view",
      "type": "function"
    },
    {
      "inputs": [],
      "name": "getMATICLatestPrice",
      "outputs": [
        {
          "internalType": "int256",
          "name": "",
          "type": "int256"
        }
      ],
      "stateMutability": "view",
      "type": "function"
    },
    {
      "inputs": [],
      "name": "getSANDLatestPrice",
      "outputs": [
        {
          "internalType": "int256",
          "name": "",
          "type": "int256"
        }
      ],
      "stateMutability": "view",
      "type": "function"
    },
    {
      "inputs": [],
      "name": "getSOLLatestPrice",
      "outputs": [
        {
          "internalType": "int256",
          "name": "",
          "type": "int256"
        }
      ],
      "stateMutability": "view",
      "type": "function"
    }
  ],
  "bytecode": "0x608060405234801561001057600080fd5b50727a22900a3b98143368bd5906f8e17e9867581b6000806101000a81548173ffffffffffffffffffffffffffffffffffffffff021916908373ffffffffffffffffffffffffffffffffffffffff160217905550730715a7794a1dc8e42615f059dd6e406a6594651a600160006101000a81548173ffffffffffffffffffffffffffffffffffffffff021916908373ffffffffffffffffffffffffffffffffffffffff160217905550731c2252aeed50e0c9b64bdff2735ee3c932f5c408600260006101000a81548173ffffffffffffffffffffffffffffffffffffffff021916908373ffffffffffffffffffffffffffffffffffffffff16021790555073d0d5e3db44de05e9f294bb0a3beeaf030de24ada600360006101000a81548173ffffffffffffffffffffffffffffffffffffffff021916908373ffffffffffffffffffffffffffffffffffffffff160217905550739dd18534b8f456557d11b9ddb14da89b2e52e308600460006101000a81548173ffffffffffffffffffffffffffffffffffffffff021916908373ffffffffffffffffffffffffffffffffffffffff16021790555073eb0fb293f368ce65595bed03af3d3f27b7f0bd36600560006101000a81548173ffffffffffffffffffffffffffffffffffffffff021916908373ffffffffffffffffffffffffffffffffffffffff16021790555061066d8061021c6000396000f3fe608060405234801561001057600080fd5b50600436106100625760003560e01c80630f00fa111461006757806314ec675714610085578063566a0c27146100a357806394e99256146100c1578063b4768dd4146100df578063f77e499c146100fd575b600080fd5b61006f61011b565b60405161007c91906104f8565b60405180910390f35b61008d6101ba565b60405161009a91906104f8565b60405180910390f35b6100ab61025b565b6040516100b891906104f8565b60405180910390f35b6100c96102fc565b6040516100d691906104f8565b60405180910390f35b6100e761039d565b6040516100f491906104f8565b60405180910390f35b61010561043e565b60405161011291906104f8565b60405180910390f35b60008060008054906101000a900473ffffffffffffffffffffffffffffffffffffffff1673ffffffffffffffffffffffffffffffffffffffff1663feaf968c6040518163ffffffff1660e01b815260040160a060405180830381865afa158015610189573d6000803e3d6000fd5b505050506040513d601f19601f820116820180604052508101906101ad91906105bc565b5050509150508091505090565b600080600560009054906101000a900473ffffffffffffffffffffffffffffffffffffffff1673ffffffffffffffffffffffffffffffffffffffff1663feaf968c6040518163ffffffff1660e01b815260040160a060405180830381865afa15801561022a573d6000803e3d6000fd5b505050506040513d601f19601f8201168201806040525081019061024e91906105bc565b5050509150508091505090565b600080600260009054906101000a900473ffffffffffffffffffffffffffffffffffffffff1673ffffffffffffffffffffffffffffffffffffffff1663feaf968c6040518163ffffffff1660e01b815260040160a060405180830381865afa1580156102cb573d6000803e3d6000fd5b505050506040513d601f19601f820116820180604052508101906102ef91906105bc565b5050509150508091505090565b600080600160009054906101000a900473ffffffffffffffffffffffffffffffffffffffff1673ffffffffffffffffffffffffffffffffffffffff1663feaf968c6040518163ffffffff1660e01b815260040160a060405180830381865afa15801561036c573d6000803e3d6000fd5b505050506040513d601f19601f8201168201806040525081019061039091906105bc565b5050509150508091505090565b600080600460009054906101000a900473ffffffffffffffffffffffffffffffffffffffff1673ffffffffffffffffffffffffffffffffffffffff1663feaf968c6040518163ffffffff1660e01b815260040160a060405180830381865afa15801561040d573d6000803e3d6000fd5b505050506040513d601f19601f8201168201806040525081019061043191906105bc565b5050509150508091505090565b600080600360009054906101000a900473ffffffffffffffffffffffffffffffffffffffff1673ffffffffffffffffffffffffffffffffffffffff1663feaf968c6040518163ffffffff1660e01b815260040160a060405180830381865afa1580156104ae573d6000803e3d6000fd5b505050506040513d601f19601f820116820180604052508101906104d291906105bc565b5050509150508091505090565b6000819050919050565b6104f2816104df565b82525050565b600060208201905061050d60008301846104e9565b92915050565b600080fd5b600069ffffffffffffffffffff82169050919050565b61053781610518565b811461054257600080fd5b50565b6000815190506105548161052e565b92915050565b610563816104df565b811461056e57600080fd5b50565b6000815190506105808161055a565b92915050565b6000819050919050565b61059981610586565b81146105a457600080fd5b50565b6000815190506105b681610590565b92915050565b600080600080600060a086880312156105d8576105d7610513565b5b60006105e688828901610545565b95505060206105f788828901610571565b9450506040610608888289016105a7565b9350506060610619888289016105a7565b925050608061062a88828901610545565b915050929550929590935056fea2646970667358221220f726011f4a8befab09afb8888b1564d20930144182868b556fa6a50c3ed5268164736f6c63430008110033",
  "linkReferences": {},
  "deployedLinkReferences": {}
}