{
  "_format": "hh-sol-artifact-1",
  "contractName": "Hub",
  "sourceName": "contracts/Hub.sol",
  "abi": [
    {
      "inputs": [
        {
          "internalType": "address",
          "name": "_priceFeed",
          "type": "address"
        }
      ],
      "stateMutability": "nonpayable",
      "type": "constructor"
    },
    {
      "anonymous": false,
      "inputs": [
        {
          "indexed": false,
          "internalType": "uint256",
          "name": "_ticketPrice",
          "type": "uint256"
        },
        {
          "indexed": false,
          "internalType": "address",
          "name": "_newGame",
          "type": "address"
        },
        {
          "indexed": false,
          "internalType": "uint256",
          "name": "_period",
          "type": "uint256"
        },
        {
          "indexed": false,
          "internalType": "address",
          "name": "_deployer",
          "type": "address"
        }
      ],
      "name": "gameCreated",
      "type": "event"
    },
    {
      "inputs": [
        {
          "internalType": "bytes",
          "name": "",
          "type": "bytes"
        }
      ],
      "name": "checkUpkeep",
      "outputs": [
        {
          "internalType": "bool",
          "name": "upkeepNeeded",
          "type": "bool"
        },
        {
          "internalType": "bytes",
          "name": "performData",
          "type": "bytes"
        }
      ],
      "stateMutability": "view",
      "type": "function"
    },
    {
      "inputs": [
        {
          "internalType": "uint256",
          "name": "",
          "type": "uint256"
        }
      ],
      "name": "counterToAddress",
      "outputs": [
        {
          "internalType": "address",
          "name": "_address",
          "type": "address"
        },
        {
          "internalType": "address",
          "name": "_creator",
          "type": "address"
        },
        {
          "internalType": "uint256",
          "name": "_ticket",
          "type": "uint256"
        },
        {
          "internalType": "uint256",
          "name": "_period",
          "type": "uint256"
        }
      ],
      "stateMutability": "view",
      "type": "function"
    },
    {
      "inputs": [
        {
          "internalType": "uint256",
          "name": "_ticketPrice",
          "type": "uint256"
        },
        {
          "internalType": "uint256",
          "name": "_period",
          "type": "uint256"
        }
      ],
      "name": "createGame",
      "outputs": [
        {
          "internalType": "contract Game",
          "name": "_newGame",
          "type": "address"
        }
      ],
      "stateMutability": "nonpayable",
      "type": "function"
    },
    {
      "inputs": [],
      "name": "games",
      "outputs": [
        {
          "internalType": "uint256",
          "name": "",
          "type": "uint256"
        }
      ],
      "stateMutability": "view",
      "type": "function"
    },
    {
      "inputs": [
        {
          "internalType": "uint256",
          "name": "_index",
          "type": "uint256"
        }
      ],
      "name": "getGameInformation",
      "outputs": [
        {
          "internalType": "address",
          "name": "",
          "type": "address"
        },
        {
          "internalType": "uint256",
          "name": "",
          "type": "uint256"
        },
        {
          "internalType": "uint256",
          "name": "",
          "type": "uint256"
        }
      ],
      "stateMutability": "view",
      "type": "function"
    },
    {
      "inputs": [
        {
          "internalType": "bytes",
          "name": "performData",
          "type": "bytes"
        }
      ],
      "name": "performUpkeep",
      "outputs": [],
      "stateMutability": "nonpayable",
      "type": "function"
    },
    {
      "inputs": [],
      "name": "priceFeed",
      "outputs": [
        {
          "internalType": "address",
          "name": "",
          "type": "address"
        }
      ],
      "stateMutability": "view",
      "type": "function"
    }
  ],
  "bytecode": "0x608060405234801561001057600080fd5b5060405162002c1938038062002c19833981810160405281019061003491906100de565b80600160006101000a81548173ffffffffffffffffffffffffffffffffffffffff021916908373ffffffffffffffffffffffffffffffffffffffff1602179055505061010b565b600080fd5b600073ffffffffffffffffffffffffffffffffffffffff82169050919050565b60006100ab82610080565b9050919050565b6100bb816100a0565b81146100c657600080fd5b50565b6000815190506100d8816100b2565b92915050565b6000602082840312156100f4576100f361007b565b5b6000610102848285016100c9565b91505092915050565b612afe806200011b6000396000f3fe60806040523480156200001157600080fd5b5060043610620000885760003560e01c80636e04ff0d11620000635780636e04ff0d146200011c578063741bef1a1462000153578063955a015b1462000175578063b2182be414620001975762000088565b8063173763b4146200008d5780634585e33b14620000c657806360104cef14620000e6575b600080fd5b620000ab6004803603810190620000a591906200077d565b620001cf565b604051620000bd949392919062000805565b60405180910390f35b620000e46004803603810190620000de9190620008c0565b6200023f565b005b620001046004803603810190620000fe919062000915565b62000376565b604051620001139190620009c7565b60405180910390f35b6200013a6004803603810190620001349190620008c0565b62000546565b6040516200014a92919062000a9b565b60405180910390f35b6200015d62000687565b6040516200016c919062000acf565b60405180910390f35b6200017f620006ad565b6040516200018e919062000aec565b60405180910390f35b620001b56004803603810190620001af91906200077d565b620006b3565b604051620001c69392919062000b09565b60405180910390f35b60026020528060005260406000206000915090508060000160009054906101000a900473ffffffffffffffffffffffffffffffffffffffff16908060010160009054906101000a900473ffffffffffffffffffffffffffffffffffffffff16908060020154908060030154905084565b600082828101906200025291906200077d565b905060006002600083815260200190815260200160002060000160009054906101000a900473ffffffffffffffffffffffffffffffffffffffff16905060008173ffffffffffffffffffffffffffffffffffffffff166310c58e9f6040518163ffffffff1660e01b8152600401602060405180830381865afa158015620002dd573d6000803e3d6000fd5b505050506040513d601f19601f8201168201806040525081019062000303919062000b77565b905080156200036f578173ffffffffffffffffffffffffffffffffffffffff16636cbc2ded6040518163ffffffff1660e01b8152600401600060405180830381600087803b1580156200035557600080fd5b505af11580156200036a573d6000803e3d6000fd5b505050505b5050505050565b600080600160009054906101000a900473ffffffffffffffffffffffffffffffffffffffff16338585604051620003ad906200072a565b620003bc949392919062000805565b604051809103906000f080158015620003d9573d6000803e3d6000fd5b5090507f91af7291b5bd9e7eeef4a26d110a240e7437fa520b8ca40c81e9541c6c143b598482853360405162000413949392919062000ba9565b60405180910390a160016000808282546200042f919062000c25565b9250508190555060405180608001604052808273ffffffffffffffffffffffffffffffffffffffff1681526020013373ffffffffffffffffffffffffffffffffffffffff16815260200185815260200184815250600260008054815260200190815260200160002060008201518160000160006101000a81548173ffffffffffffffffffffffffffffffffffffffff021916908373ffffffffffffffffffffffffffffffffffffffff16021790555060208201518160010160006101000a81548173ffffffffffffffffffffffffffffffffffffffff021916908373ffffffffffffffffffffffffffffffffffffffff16021790555060408201518160020155606082015181600301559050508091505092915050565b6000606080600092506000600190505b600160005462000567919062000c25565b811015620006775760006002600083815260200190815260200160002060000160009054906101000a900473ffffffffffffffffffffffffffffffffffffffff16905060008173ffffffffffffffffffffffffffffffffffffffff166310c58e9f6040518163ffffffff1660e01b8152600401602060405180830381865afa158015620005f8573d6000803e3d6000fd5b505050506040513d601f19601f820116820180604052508101906200061e919062000b77565b905080156200065f5760019550826040516020016200063e919062000aec565b60405160208183030381529060405293508584955095505050505062000680565b505080806200066e9062000c60565b91505062000556565b50828192509250505b9250929050565b600160009054906101000a900473ffffffffffffffffffffffffffffffffffffffff1681565b60005481565b60008060006002600085815260200190815260200160002060000160009054906101000a900473ffffffffffffffffffffffffffffffffffffffff16600260008681526020019081526020016000206002015460026000878152602001908152602001600020600301549250925092509193909250565b611e1b8062000cae83390190565b600080fd5b600080fd5b6000819050919050565b620007578162000742565b81146200076357600080fd5b50565b60008135905062000777816200074c565b92915050565b60006020828403121562000796576200079562000738565b5b6000620007a68482850162000766565b91505092915050565b600073ffffffffffffffffffffffffffffffffffffffff82169050919050565b6000620007dc82620007af565b9050919050565b620007ee81620007cf565b82525050565b620007ff8162000742565b82525050565b60006080820190506200081c6000830187620007e3565b6200082b6020830186620007e3565b6200083a6040830185620007f4565b620008496060830184620007f4565b95945050505050565b600080fd5b600080fd5b600080fd5b60008083601f8401126200087a576200087962000852565b5b8235905067ffffffffffffffff8111156200089a576200089962000857565b5b602083019150836001820283011115620008b957620008b86200085c565b5b9250929050565b60008060208385031215620008da57620008d962000738565b5b600083013567ffffffffffffffff811115620008fb57620008fa6200073d565b5b620009098582860162000861565b92509250509250929050565b600080604083850312156200092f576200092e62000738565b5b60006200093f8582860162000766565b9250506020620009528582860162000766565b9150509250929050565b6000819050919050565b600062000987620009816200097b84620007af565b6200095c565b620007af565b9050919050565b60006200099b8262000966565b9050919050565b6000620009af826200098e565b9050919050565b620009c181620009a2565b82525050565b6000602082019050620009de6000830184620009b6565b92915050565b60008115159050919050565b620009fb81620009e4565b82525050565b600081519050919050565b600082825260208201905092915050565b60005b8381101562000a3d57808201518184015260208101905062000a20565b60008484015250505050565b6000601f19601f8301169050919050565b600062000a678262000a01565b62000a73818562000a0c565b935062000a8581856020860162000a1d565b62000a908162000a49565b840191505092915050565b600060408201905062000ab26000830185620009f0565b818103602083015262000ac6818462000a5a565b90509392505050565b600060208201905062000ae66000830184620007e3565b92915050565b600060208201905062000b036000830184620007f4565b92915050565b600060608201905062000b206000830186620007e3565b62000b2f6020830185620007f4565b62000b3e6040830184620007f4565b949350505050565b62000b5181620009e4565b811462000b5d57600080fd5b50565b60008151905062000b718162000b46565b92915050565b60006020828403121562000b905762000b8f62000738565b5b600062000ba08482850162000b60565b91505092915050565b600060808201905062000bc06000830187620007f4565b62000bcf6020830186620007e3565b62000bde6040830185620007f4565b62000bed6060830184620007e3565b95945050505050565b7f4e487b7100000000000000000000000000000000000000000000000000000000600052601160045260246000fd5b600062000c328262000742565b915062000c3f8362000742565b925082820190508082111562000c5a5762000c5962000bf6565b5b92915050565b600062000c6d8262000742565b91507fffffffffffffffffffffffffffffffffffffffffffffffffffffffffffffffff820362000ca25762000ca162000bf6565b5b60018201905091905056fe60806040526001600660006101000a81548160ff02191690831515021790555060006007553480156200003157600080fd5b5060405162001e1b38038062001e1b833981810160405281019062000057919062000195565b836000806101000a81548173ffffffffffffffffffffffffffffffffffffffff021916908373ffffffffffffffffffffffffffffffffffffffff16021790555082600160006101000a81548173ffffffffffffffffffffffffffffffffffffffff021916908373ffffffffffffffffffffffffffffffffffffffff16021790555081600281905550806004819055505050505062000207565b600080fd5b600073ffffffffffffffffffffffffffffffffffffffff82169050919050565b60006200012282620000f5565b9050919050565b620001348162000115565b81146200014057600080fd5b50565b600081519050620001548162000129565b92915050565b6000819050919050565b6200016f816200015a565b81146200017b57600080fd5b50565b6000815190506200018f8162000164565b92915050565b60008060008060808587031215620001b257620001b1620000f0565b5b6000620001c28782880162000143565b9450506020620001d58782880162000143565b9350506040620001e8878288016200017e565b9250506060620001fb878288016200017e565b91505092959194509250565b611c0480620002176000396000f3fe608060405234801561001057600080fd5b50600436106101375760003560e01c806370f838aa116100b8578063d65ab5f21161007c578063d65ab5f214610313578063e6718d141461031d578063ed81378a14610352578063ef78d4fd14610370578063f851a4401461038e578063f9832706146103ac57610137565b806370f838aa14610293578063a487bcd81461029d578063a565efff146102bb578063acc591c7146102c5578063be9a6555146102f557610137565b80632d487eba116100ff5780632d487eba146101e457806350e757c61461021a5780635c975abb1461024d57806361bc221a1461026b5780636cbc2ded1461028957610137565b806310c58e9f1461013c57806312065fe01461015a5780631209b1f614610178578063129a14f214610196578063188ec356146101c6575b600080fd5b6101446103b6565b6040516101519190611137565b60405180910390f35b6101626103ed565b60405161016f919061116b565b60405180910390f35b6101806103f5565b60405161018d919061116b565b60405180910390f35b6101b060048036038101906101ab91906111bc565b6103fb565b6040516101bd9190611202565b60405180910390f35b6101ce6107bc565b6040516101db919061116b565b60405180910390f35b6101fe60048036038101906101f991906111bc565b6107c4565b60405161021197969594939291906112ee565b60405180910390f35b610234600480360381019061022f91906111bc565b6108bb565b6040516102449493929190611364565b60405180910390f35b6102556108eb565b6040516102629190611137565b60405180910390f35b6102736108fe565b604051610280919061116b565b60405180910390f35b610291610904565b005b61029b610a03565b005b6102a5610b60565b6040516102b2919061116b565b60405180910390f35b6102c3610b66565b005b6102df60048036038101906102da919061140e565b610c19565b6040516102ec9190611590565b60405180910390f35b6102fd610d9b565b60405161030a919061116b565b60405180910390f35b61031b610da1565b005b610337600480360381019061033291906111bc565b610eba565b604051610349969594939291906115b2565b60405180910390f35b61035a61101b565b604051610367919061116b565b60405180910390f35b610378611021565b604051610385919061116b565b60405180910390f35b610396611027565b6040516103a3919061161a565b60405180910390f35b6103b461104d565b005b6000801515600660009054906101000a900460ff1615151480156103e85750600454600554426103e69190611664565b115b905090565b600047905090565b60025481565b6000806000830361049c5760008054906101000a900473ffffffffffffffffffffffffffffffffffffffff1673ffffffffffffffffffffffffffffffffffffffff16630f00fa116040518163ffffffff1660e01b8152600401602060405180830381865afa158015610471573d6000803e3d6000fd5b505050506040513d601f19601f8201168201806040525081019061049591906116c4565b90506107b3565b6001830361053a5760008054906101000a900473ffffffffffffffffffffffffffffffffffffffff1673ffffffffffffffffffffffffffffffffffffffff166394e992566040518163ffffffff1660e01b8152600401602060405180830381865afa15801561050f573d6000803e3d6000fd5b505050506040513d601f19601f8201168201806040525081019061053391906116c4565b90506107b2565b600283036105d85760008054906101000a900473ffffffffffffffffffffffffffffffffffffffff1673ffffffffffffffffffffffffffffffffffffffff1663566a0c276040518163ffffffff1660e01b8152600401602060405180830381865afa1580156105ad573d6000803e3d6000fd5b505050506040513d601f19601f820116820180604052508101906105d191906116c4565b90506107b1565b600383036106765760008054906101000a900473ffffffffffffffffffffffffffffffffffffffff1673ffffffffffffffffffffffffffffffffffffffff1663f77e499c6040518163ffffffff1660e01b8152600401602060405180830381865afa15801561064b573d6000803e3d6000fd5b505050506040513d601f19601f8201168201806040525081019061066f91906116c4565b90506107b0565b600483036107145760008054906101000a900473ffffffffffffffffffffffffffffffffffffffff1673ffffffffffffffffffffffffffffffffffffffff1663b4768dd46040518163ffffffff1660e01b8152600401602060405180830381865afa1580156106e9573d6000803e3d6000fd5b505050506040513d601f19601f8201168201806040525081019061070d91906116c4565b90506107af565b600583036107ae5760008054906101000a900473ffffffffffffffffffffffffffffffffffffffff1673ffffffffffffffffffffffffffffffffffffffff166314ec67576040518163ffffffff1660e01b8152600401602060405180830381865afa158015610787573d6000803e3d6000fd5b505050506040513d601f19601f820116820180604052508101906107ab91906116c4565b90505b5b5b5b5b5b80915050919050565b600042905090565b60096020528060005260406000206000915090508060000180546107e790611720565b80601f016020809104026020016040519081016040528092919081815260200182805461081390611720565b80156108605780601f1061083557610100808354040283529160200191610860565b820191906000526020600020905b81548152906001019060200180831161084357829003601f168201915b5050505050908060010160009054906101000a900473ffffffffffffffffffffffffffffffffffffffff16908060020154908060030154908060040154908060050154908060060160009054906101000a900460ff16905087565b600a6020528060005260406000206000915090508060000154908060010154908060020154908060030154905084565b600660009054906101000a900460ff1681565b60035481565b600080600190505b600160035461091b9190611751565b8110156109f757600960008281526020019081526020016000206002015491506000600a6000848152602001908152602001600020600201541461098f57600a60008381526020019081526020016000206002015460096000838152602001908152602001600020600401819055506109e4565b610998826103fb565b600a600084815260200190815260200160002060020181905550600a60008381526020019081526020016000206002015460096000838152602001908152602001600020600401819055505b80806109ef90611785565b91505061090c565b50610a00610a03565b50565b6000806000806000600190505b6001600354610a1f9190611751565b811015610b5157600960008281526020019081526020016000206002015494506000600a60008781526020019081526020016000206003015414610a9357600a6000868152602001908152602001600020600301546009600083815260200190815260200160002060050181905550610b3e565b600a6000868152602001908152602001600020600101549350600a600086815260200190815260200160002060020154925083670de0b6b3a76400008585610adb91906117cd565b610ae59190611810565b610aef91906118b7565b915081600a600087815260200190815260200160002060030181905550600a60008681526020019081526020016000206003015460096000838152602001908152602001600020600501819055505b8080610b4990611785565b915050610a10565b50610b5a61104d565b50505050565b60075481565b60005b6001600354610b789190611751565b811015610bfb57600854600960008381526020019081526020016000206002015403610be85760016009600083815260200190815260200160002060060160006101000a81548160ff021916908315150217905550600160076000828254610be09190611751565b925050819055505b8080610bf390611785565b915050610b69565b506001600660006101000a81548160ff021916908315150217905550565b610c216110c7565b60006040518060e0016040528086868080601f016020809104026020016040519081016040528093929190818152602001838380828437600081840152601f19601f8201169050808301925050505050505081526020013373ffffffffffffffffffffffffffffffffffffffff168152602001848152602001600081526020016000815260200160008152602001600015158152509050600160036000828254610ccb9190611751565b92505081905550806009600060035481526020019081526020016000206000820151816000019081610cfd9190611afc565b5060208201518160010160006101000a81548173ffffffffffffffffffffffffffffffffffffffff021916908373ffffffffffffffffffffffffffffffffffffffff16021790555060408201518160020155606082015181600301556080820151816004015560a0820151816005015560c08201518160060160006101000a81548160ff021916908315150217905550905050809150509392505050565b60055481565b600080600190505b6001600354610db89190611751565b811015610e9457600960008281526020019081526020016000206002015491506000600a60008481526020019081526020016000206001015414610e2c57600a6000838152602001908152602001600020600101546009600083815260200190815260200160002060030181905550610e81565b610e35826103fb565b600a600084815260200190815260200160002060010181905550600a60008381526020019081526020016000206001015460096000838152602001908152602001600020600301819055505b8080610e8c90611785565b915050610da9565b50426005819055506000600660006101000a81548160ff02191690831515021790555050565b6060600080600080600080600960008981526020019081526020016000206000018054610ee690611720565b80601f0160208091040260200160405190810160405280929190818152602001828054610f1290611720565b8015610f5f5780601f10610f3457610100808354040283529160200191610f5f565b820191906000526020600020905b815481529060010190602001808311610f4257829003601f168201915b505050505090506000600960008a81526020019081526020016000206002015490506000600960008b81526020019081526020016000206003015490506000600960008c81526020019081526020016000206004015490506000600960008d81526020019081526020016000206005015490506000600960008e815260200190815260200160002060060160009054906101000a900460ff1690508585858585859b509b509b509b509b509b5050505050505091939550919395565b60085481565b60045481565b600160009054906101000a900473ffffffffffffffffffffffffffffffffffffffff1681565b600080600080600190505b60068110156110b257600a6000838152602001908152602001600020600301549350600a60008281526020019081526020016000206003015492508383131561109f578091505b80806110aa90611785565b915050611058565b50806008819055506110c2610b66565b505050565b6040518060e0016040528060608152602001600073ffffffffffffffffffffffffffffffffffffffff168152602001600081526020016000815260200160008152602001600081526020016000151581525090565b60008115159050919050565b6111318161111c565b82525050565b600060208201905061114c6000830184611128565b92915050565b6000819050919050565b61116581611152565b82525050565b6000602082019050611180600083018461115c565b92915050565b600080fd5b600080fd5b61119981611152565b81146111a457600080fd5b50565b6000813590506111b681611190565b92915050565b6000602082840312156111d2576111d1611186565b5b60006111e0848285016111a7565b91505092915050565b6000819050919050565b6111fc816111e9565b82525050565b600060208201905061121760008301846111f3565b92915050565b600081519050919050565b600082825260208201905092915050565b60005b8381101561125757808201518184015260208101905061123c565b60008484015250505050565b6000601f19601f8301169050919050565b600061127f8261121d565b6112898185611228565b9350611299818560208601611239565b6112a281611263565b840191505092915050565b600073ffffffffffffffffffffffffffffffffffffffff82169050919050565b60006112d8826112ad565b9050919050565b6112e8816112cd565b82525050565b600060e0820190508181036000830152611308818a611274565b905061131760208301896112df565b611324604083018861115c565b61133160608301876111f3565b61133e60808301866111f3565b61134b60a08301856111f3565b61135860c0830184611128565b98975050505050505050565b6000608082019050611379600083018761115c565b61138660208301866111f3565b61139360408301856111f3565b6113a060608301846111f3565b95945050505050565b600080fd5b600080fd5b600080fd5b60008083601f8401126113ce576113cd6113a9565b5b8235905067ffffffffffffffff8111156113eb576113ea6113ae565b5b602083019150836001820283011115611407576114066113b3565b5b9250929050565b60008060006040848603121561142757611426611186565b5b600084013567ffffffffffffffff8111156114455761144461118b565b5b611451868287016113b8565b93509350506020611464868287016111a7565b9150509250925092565b600082825260208201905092915050565b600061148a8261121d565b611494818561146e565b93506114a4818560208601611239565b6114ad81611263565b840191505092915050565b6114c1816112cd565b82525050565b6114d081611152565b82525050565b6114df816111e9565b82525050565b6114ee8161111c565b82525050565b600060e0830160008301518482036000860152611511828261147f565b915050602083015161152660208601826114b8565b50604083015161153960408601826114c7565b50606083015161154c60608601826114d6565b50608083015161155f60808601826114d6565b5060a083015161157260a08601826114d6565b5060c083015161158560c08601826114e5565b508091505092915050565b600060208201905081810360008301526115aa81846114f4565b905092915050565b600060c08201905081810360008301526115cc8189611274565b90506115db602083018861115c565b6115e860408301876111f3565b6115f560608301866111f3565b61160260808301856111f3565b61160f60a0830184611128565b979650505050505050565b600060208201905061162f60008301846112df565b92915050565b7f4e487b7100000000000000000000000000000000000000000000000000000000600052601160045260246000fd5b600061166f82611152565b915061167a83611152565b925082820390508181111561169257611691611635565b5b92915050565b6116a1816111e9565b81146116ac57600080fd5b50565b6000815190506116be81611698565b92915050565b6000602082840312156116da576116d9611186565b5b60006116e8848285016116af565b91505092915050565b7f4e487b7100000000000000000000000000000000000000000000000000000000600052602260045260246000fd5b6000600282049050600182168061173857607f821691505b60208210810361174b5761174a6116f1565b5b50919050565b600061175c82611152565b915061176783611152565b925082820190508082111561177f5761177e611635565b5b92915050565b600061179082611152565b91507fffffffffffffffffffffffffffffffffffffffffffffffffffffffffffffffff82036117c2576117c1611635565b5b600182019050919050565b60006117d8826111e9565b91506117e3836111e9565b925082820390508181126000841216828213600085121516171561180a57611809611635565b5b92915050565b600061181b826111e9565b9150611826836111e9565b9250828202611834816111e9565b91507f8000000000000000000000000000000000000000000000000000000000000000841460008412161561186c5761186b611635565b5b828205841483151761188157611880611635565b5b5092915050565b7f4e487b7100000000000000000000000000000000000000000000000000000000600052601260045260246000fd5b60006118c2826111e9565b91506118cd836111e9565b9250826118dd576118dc611888565b5b600160000383147f80000000000000000000000000000000000000000000000000000000000000008314161561191657611915611635565b5b828205905092915050565b7f4e487b7100000000000000000000000000000000000000000000000000000000600052604160045260246000fd5b60008190508160005260206000209050919050565b60006020601f8301049050919050565b600082821b905092915050565b6000600883026119b27fffffffffffffffffffffffffffffffffffffffffffffffffffffffffffffffff82611975565b6119bc8683611975565b95508019841693508086168417925050509392505050565b6000819050919050565b60006119f96119f46119ef84611152565b6119d4565b611152565b9050919050565b6000819050919050565b611a13836119de565b611a27611a1f82611a00565b848454611982565b825550505050565b600090565b611a3c611a2f565b611a47818484611a0a565b505050565b5b81811015611a6b57611a60600082611a34565b600181019050611a4d565b5050565b601f821115611ab057611a8181611950565b611a8a84611965565b81016020851015611a99578190505b611aad611aa585611965565b830182611a4c565b50505b505050565b600082821c905092915050565b6000611ad360001984600802611ab5565b1980831691505092915050565b6000611aec8383611ac2565b9150826002028217905092915050565b611b058261121d565b67ffffffffffffffff811115611b1e57611b1d611921565b5b611b288254611720565b611b33828285611a6f565b600060209050601f831160018114611b665760008415611b54578287015190505b611b5e8582611ae0565b865550611bc6565b601f198416611b7486611950565b60005b82811015611b9c57848901518255600182019150602085019450602081019050611b77565b86831015611bb95784890151611bb5601f891682611ac2565b8355505b6001600288020188555050505b50505050505056fea264697066735822122056630539884a0bdc838f0874f465a880d36d6e0c59d70b65c9445cbb4ddd775d64736f6c63430008110033a26469706673582212203459910dc2acf2464e2b056de0375d9670847a0b93008099f08ce031f817184164736f6c63430008110033",
  "linkReferences": {},
  "deployedLinkReferences": {}
}