{
  "_format": "hh-sol-artifact-1",
  "contractName": "Hub",
  "sourceName": "contracts/Hub.sol",
  "abi": [
    {
      "inputs": [
        {
          "internalType": "address",
          "name": "_priceFeed",
          "type": "address"
        }
      ],
      "stateMutability": "nonpayable",
      "type": "constructor"
    },
    {
      "anonymous": false,
      "inputs": [
        {
          "indexed": false,
          "internalType": "uint256",
          "name": "_players",
          "type": "uint256"
        },
        {
          "indexed": false,
          "internalType": "uint256",
          "name": "_ticketPrice",
          "type": "uint256"
        },
        {
          "indexed": false,
          "internalType": "address",
          "name": "_newGame",
          "type": "address"
        },
        {
          "indexed": false,
          "internalType": "uint256",
          "name": "_period",
          "type": "uint256"
        },
        {
          "indexed": false,
          "internalType": "address",
          "name": "_deployer",
          "type": "address"
        }
      ],
      "name": "gameCreated",
      "type": "event"
    },
    {
      "inputs": [
        {
          "internalType": "uint256",
          "name": "_players",
          "type": "uint256"
        },
        {
          "internalType": "uint256",
          "name": "_ticketPrice",
          "type": "uint256"
        },
        {
          "internalType": "uint256",
          "name": "_period",
          "type": "uint256"
        }
      ],
      "name": "createGame",
      "outputs": [
        {
          "internalType": "address",
          "name": "_newGame",
          "type": "address"
        }
      ],
      "stateMutability": "nonpayable",
      "type": "function"
    },
    {
      "inputs": [],
      "name": "games",
      "outputs": [
        {
          "internalType": "uint256",
          "name": "",
          "type": "uint256"
        }
      ],
      "stateMutability": "view",
      "type": "function"
    },
    {
      "inputs": [],
      "name": "priceFeed",
      "outputs": [
        {
          "internalType": "address",
          "name": "",
          "type": "address"
        }
      ],
      "stateMutability": "view",
      "type": "function"
    },
    {
      "inputs": [],
      "name": "totalGames",
      "outputs": [
        {
          "internalType": "uint256",
          "name": "",
          "type": "uint256"
        }
      ],
      "stateMutability": "view",
      "type": "function"
    }
  ],
  "bytecode": "0x608060405234801561001057600080fd5b5060405161246e38038061246e833981810160405281019061003291906100dc565b80600260006101000a81548173ffffffffffffffffffffffffffffffffffffffff021916908373ffffffffffffffffffffffffffffffffffffffff16021790555050610109565b600080fd5b600073ffffffffffffffffffffffffffffffffffffffff82169050919050565b60006100a98261007e565b9050919050565b6100b98161009e565b81146100c457600080fd5b50565b6000815190506100d6816100b0565b92915050565b6000602082840312156100f2576100f1610079565b5b6000610100848285016100c7565b91505092915050565b612356806101186000396000f3fe608060405234801561001057600080fd5b506004361061004c5760003560e01c80632c4e591b14610051578063741bef1a1461006f578063955a015b1461008d578063c2741521146100ab575b600080fd5b6100596100db565b60405161006691906101f7565b60405180910390f35b6100776100e1565b6040516100849190610253565b60405180910390f35b610095610107565b6040516100a291906101f7565b60405180910390f35b6100c560048036038101906100c0919061029f565b61010d565b6040516100d29190610253565b60405180910390f35b60015481565b600260009054906101000a900473ffffffffffffffffffffffffffffffffffffffff1681565b60005481565b600080600260009054906101000a900473ffffffffffffffffffffffffffffffffffffffff16858585604051610142906101d1565b61014f94939291906102f2565b604051809103906000f08015801561016b573d6000803e3d6000fd5b5090507f2b5236aa78d3e43450778c7456362954123bfdf0564eb9b39a933fd47acf7a6c85858386336040516101a5959493929190610337565b60405180910390a160018060008282546101bf91906103b9565b92505081905550809150509392505050565b611f33806103ee83390190565b6000819050919050565b6101f1816101de565b82525050565b600060208201905061020c60008301846101e8565b92915050565b600073ffffffffffffffffffffffffffffffffffffffff82169050919050565b600061023d82610212565b9050919050565b61024d81610232565b82525050565b60006020820190506102686000830184610244565b92915050565b600080fd5b61027c816101de565b811461028757600080fd5b50565b60008135905061029981610273565b92915050565b6000806000606084860312156102b8576102b761026e565b5b60006102c68682870161028a565b93505060206102d78682870161028a565b92505060406102e88682870161028a565b9150509250925092565b60006080820190506103076000830187610244565b61031460208301866101e8565b61032160408301856101e8565b61032e60608301846101e8565b95945050505050565b600060a08201905061034c60008301886101e8565b61035960208301876101e8565b6103666040830186610244565b61037360608301856101e8565b6103806080830184610244565b9695505050505050565b7f4e487b7100000000000000000000000000000000000000000000000000000000600052601160045260246000fd5b60006103c4826101de565b91506103cf836101de565b92508282019050808211156103e7576103e661038a565b5b9291505056fe608060405260006006556001600860006101000a81548160ff0219169083151502179055503480156200003157600080fd5b5060405162001f3338038062001f3383398181016040528101906200005791906200015b565b836000806101000a81548173ffffffffffffffffffffffffffffffffffffffff021916908373ffffffffffffffffffffffffffffffffffffffff16021790555082600181905550816002819055508060048190555050505050620001cd565b600080fd5b600073ffffffffffffffffffffffffffffffffffffffff82169050919050565b6000620000e882620000bb565b9050919050565b620000fa81620000db565b81146200010657600080fd5b50565b6000815190506200011a81620000ef565b92915050565b6000819050919050565b620001358162000120565b81146200014157600080fd5b50565b60008151905062000155816200012a565b92915050565b60008060008060808587031215620001785762000177620000b6565b5b6000620001888782880162000109565b94505060206200019b8782880162000144565b9350506040620001ae8782880162000144565b9250506060620001c18782880162000144565b91505092959194509250565b611d5680620001dd6000396000f3fe608060405234801561001057600080fd5b50600436106101425760003560e01c806370f838aa116100b8578063d65ab5f21161007c578063d65ab5f21461034d578063dc0b356414610357578063e6718d1414610375578063ed81378a146103aa578063ef78d4fd146103c8578063f9832706146103e657610142565b806370f838aa146102cd578063a487bcd8146102d7578063a565efff146102f5578063acc591c7146102ff578063be9a65551461032f57610142565b80634585e33b1161010a5780634585e33b1461020757806350e757c6146102235780635c975abb1461025657806361bc221a146102745780636cbc2ded146102925780636e04ff0d1461029c57610142565b806312065fe0146101475780631209b1f614610165578063129a14f214610183578063188ec356146101b35780632d487eba146101d1575b600080fd5b61014f6103f0565b60405161015c919061117a565b60405180910390f35b61016d6103f8565b60405161017a919061117a565b60405180910390f35b61019d600480360381019061019891906111cb565b6103fe565b6040516101aa9190611211565b60405180910390f35b6101bb6107bf565b6040516101c8919061117a565b60405180910390f35b6101eb60048036038101906101e691906111cb565b6107c7565b6040516101fe9796959493929190611318565b60405180910390f35b610221600480360381019061021c91906113f3565b6108be565b005b61023d600480360381019061023891906111cb565b6108e2565b60405161024d9493929190611440565b60405180910390f35b61025e610912565b60405161026b9190611485565b60405180910390f35b61027c610925565b604051610289919061117a565b60405180910390f35b61029a61092b565b005b6102b660048036038101906102b191906113f3565b610a45565b6040516102c49291906114f5565b60405180910390f35b6102d5610a83565b005b6102df610be0565b6040516102ec919061117a565b60405180910390f35b6102fd610be6565b005b6103196004803603810190610314919061157b565b610c7e565b60405161032691906116fd565b60405180910390f35b610337610e00565b604051610344919061117a565b60405180910390f35b610355610e06565b005b61035f610f1f565b60405161036c919061117a565b60405180910390f35b61038f600480360381019061038a91906111cb565b610f25565b6040516103a19695949392919061171f565b60405180910390f35b6103b2611086565b6040516103bf919061117a565b60405180910390f35b6103d061108c565b6040516103dd919061117a565b60405180910390f35b6103ee611092565b005b600047905090565b60025481565b6000806000830361049f5760008054906101000a900473ffffffffffffffffffffffffffffffffffffffff1673ffffffffffffffffffffffffffffffffffffffff16630f00fa116040518163ffffffff1660e01b8152600401602060405180830381865afa158015610474573d6000803e3d6000fd5b505050506040513d601f19601f8201168201806040525081019061049891906117b3565b90506107b6565b6001830361053d5760008054906101000a900473ffffffffffffffffffffffffffffffffffffffff1673ffffffffffffffffffffffffffffffffffffffff166394e992566040518163ffffffff1660e01b8152600401602060405180830381865afa158015610512573d6000803e3d6000fd5b505050506040513d601f19601f8201168201806040525081019061053691906117b3565b90506107b5565b600283036105db5760008054906101000a900473ffffffffffffffffffffffffffffffffffffffff1673ffffffffffffffffffffffffffffffffffffffff1663566a0c276040518163ffffffff1660e01b8152600401602060405180830381865afa1580156105b0573d6000803e3d6000fd5b505050506040513d601f19601f820116820180604052508101906105d491906117b3565b90506107b4565b600383036106795760008054906101000a900473ffffffffffffffffffffffffffffffffffffffff1673ffffffffffffffffffffffffffffffffffffffff1663f77e499c6040518163ffffffff1660e01b8152600401602060405180830381865afa15801561064e573d6000803e3d6000fd5b505050506040513d601f19601f8201168201806040525081019061067291906117b3565b90506107b3565b600483036107175760008054906101000a900473ffffffffffffffffffffffffffffffffffffffff1673ffffffffffffffffffffffffffffffffffffffff1663b4768dd46040518163ffffffff1660e01b8152600401602060405180830381865afa1580156106ec573d6000803e3d6000fd5b505050506040513d601f19601f8201168201806040525081019061071091906117b3565b90506107b2565b600583036107b15760008054906101000a900473ffffffffffffffffffffffffffffffffffffffff1673ffffffffffffffffffffffffffffffffffffffff166314ec67576040518163ffffffff1660e01b8152600401602060405180830381865afa15801561078a573d6000803e3d6000fd5b505050506040513d601f19601f820116820180604052508101906107ae91906117b3565b90505b5b5b5b5b5b80915050919050565b600042905090565b60096020528060005260406000206000915090508060000180546107ea9061180f565b80601f01602080910402602001604051908101604052809291908181526020018280546108169061180f565b80156108635780601f1061083857610100808354040283529160200191610863565b820191906000526020600020905b81548152906001019060200180831161084657829003601f168201915b5050505050908060010160009054906101000a900473ffffffffffffffffffffffffffffffffffffffff16908060020154908060030154908060040154908060050154908060060160009054906101000a900460ff16905087565b600454600554426108cf919061186f565b11156108de576108dd61092b565b5b5050565b600a6020528060005260406000206000915090508060000154908060010154908060020154908060030154905084565b600860009054906101000a900460ff1681565b60035481565b600080600190505b600160035461094291906118a3565b811015610a1e57600960008281526020019081526020016000206002015491506000600a600084815260200190815260200160002060020154146109b657600a6000838152602001908152602001600020600201546009600083815260200190815260200160002060040181905550610a0b565b6109bf826103fe565b600a600084815260200190815260200160002060020181905550600a60008381526020019081526020016000206002015460096000838152602001908152602001600020600401819055505b8080610a16906118d7565b915050610933565b506001600860006101000a81548160ff021916908315150217905550610a42610a83565b50565b6000606060045460055442610a5a919061186f565b118015610a7a575060001515600860009054906101000a900460ff161515145b91509250929050565b6000806000806000600190505b6001600354610a9f91906118a3565b811015610bd157600960008281526020019081526020016000206002015494506000600a60008781526020019081526020016000206003015414610b1357600a6000868152602001908152602001600020600301546009600083815260200190815260200160002060050181905550610bbe565b600a6000868152602001908152602001600020600101549350600a600086815260200190815260200160002060020154925083670de0b6b3a76400008585610b5b919061191f565b610b659190611962565b610b6f9190611a09565b915081600a600087815260200190815260200160002060030181905550600a60008681526020019081526020016000206003015460096000838152602001908152602001600020600501819055505b8080610bc9906118d7565b915050610a90565b50610bda611092565b50505050565b60065481565b60005b6001600354610bf891906118a3565b811015610c7b57600754600960008381526020019081526020016000206002015403610c685760016009600083815260200190815260200160002060060160006101000a81548160ff021916908315150217905550600160066000828254610c6091906118a3565b925050819055505b8080610c73906118d7565b915050610be9565b50565b610c8661110c565b60006040518060e0016040528086868080601f016020809104026020016040519081016040528093929190818152602001838380828437600081840152601f19601f8201169050808301925050505050505081526020013373ffffffffffffffffffffffffffffffffffffffff168152602001848152602001600081526020016000815260200160008152602001600015158152509050600160036000828254610d3091906118a3565b92505081905550806009600060035481526020019081526020016000206000820151816000019081610d629190611c4e565b5060208201518160010160006101000a81548173ffffffffffffffffffffffffffffffffffffffff021916908373ffffffffffffffffffffffffffffffffffffffff16021790555060408201518160020155606082015181600301556080820151816004015560a0820151816005015560c08201518160060160006101000a81548160ff021916908315150217905550905050809150509392505050565b60055481565b600080600190505b6001600354610e1d91906118a3565b811015610ef957600960008281526020019081526020016000206002015491506000600a60008481526020019081526020016000206001015414610e9157600a6000838152602001908152602001600020600101546009600083815260200190815260200160002060030181905550610ee6565b610e9a826103fe565b600a600084815260200190815260200160002060010181905550600a60008381526020019081526020016000206001015460096000838152602001908152602001600020600301819055505b8080610ef1906118d7565b915050610e0e565b50426005819055506000600860006101000a81548160ff02191690831515021790555050565b60015481565b6060600080600080600080600960008981526020019081526020016000206000018054610f519061180f565b80601f0160208091040260200160405190810160405280929190818152602001828054610f7d9061180f565b8015610fca5780601f10610f9f57610100808354040283529160200191610fca565b820191906000526020600020905b815481529060010190602001808311610fad57829003601f168201915b505050505090506000600960008a81526020019081526020016000206002015490506000600960008b81526020019081526020016000206003015490506000600960008c81526020019081526020016000206004015490506000600960008d81526020019081526020016000206005015490506000600960008e815260200190815260200160002060060160009054906101000a900460ff1690508585858585859b509b509b509b509b509b5050505050505091939550919395565b60075481565b60045481565b600080600080600190505b60068110156110f757600a6000838152602001908152602001600020600301549350600a6000828152602001908152602001600020600301549250838313156110e4578091505b80806110ef906118d7565b91505061109d565b5080600781905550611107610be6565b505050565b6040518060e0016040528060608152602001600073ffffffffffffffffffffffffffffffffffffffff168152602001600081526020016000815260200160008152602001600081526020016000151581525090565b6000819050919050565b61117481611161565b82525050565b600060208201905061118f600083018461116b565b92915050565b600080fd5b600080fd5b6111a881611161565b81146111b357600080fd5b50565b6000813590506111c58161119f565b92915050565b6000602082840312156111e1576111e0611195565b5b60006111ef848285016111b6565b91505092915050565b6000819050919050565b61120b816111f8565b82525050565b60006020820190506112266000830184611202565b92915050565b600081519050919050565b600082825260208201905092915050565b60005b8381101561126657808201518184015260208101905061124b565b60008484015250505050565b6000601f19601f8301169050919050565b600061128e8261122c565b6112988185611237565b93506112a8818560208601611248565b6112b181611272565b840191505092915050565b600073ffffffffffffffffffffffffffffffffffffffff82169050919050565b60006112e7826112bc565b9050919050565b6112f7816112dc565b82525050565b60008115159050919050565b611312816112fd565b82525050565b600060e0820190508181036000830152611332818a611283565b905061134160208301896112ee565b61134e604083018861116b565b61135b6060830187611202565b6113686080830186611202565b61137560a0830185611202565b61138260c0830184611309565b98975050505050505050565b600080fd5b600080fd5b600080fd5b60008083601f8401126113b3576113b261138e565b5b8235905067ffffffffffffffff8111156113d0576113cf611393565b5b6020830191508360018202830111156113ec576113eb611398565b5b9250929050565b6000806020838503121561140a57611409611195565b5b600083013567ffffffffffffffff8111156114285761142761119a565b5b6114348582860161139d565b92509250509250929050565b6000608082019050611455600083018761116b565b6114626020830186611202565b61146f6040830185611202565b61147c6060830184611202565b95945050505050565b600060208201905061149a6000830184611309565b92915050565b600081519050919050565b600082825260208201905092915050565b60006114c7826114a0565b6114d181856114ab565b93506114e1818560208601611248565b6114ea81611272565b840191505092915050565b600060408201905061150a6000830185611309565b818103602083015261151c81846114bc565b90509392505050565b60008083601f84011261153b5761153a61138e565b5b8235905067ffffffffffffffff81111561155857611557611393565b5b60208301915083600182028301111561157457611573611398565b5b9250929050565b60008060006040848603121561159457611593611195565b5b600084013567ffffffffffffffff8111156115b2576115b161119a565b5b6115be86828701611525565b935093505060206115d1868287016111b6565b9150509250925092565b600082825260208201905092915050565b60006115f78261122c565b61160181856115db565b9350611611818560208601611248565b61161a81611272565b840191505092915050565b61162e816112dc565b82525050565b61163d81611161565b82525050565b61164c816111f8565b82525050565b61165b816112fd565b82525050565b600060e083016000830151848203600086015261167e82826115ec565b91505060208301516116936020860182611625565b5060408301516116a66040860182611634565b5060608301516116b96060860182611643565b5060808301516116cc6080860182611643565b5060a08301516116df60a0860182611643565b5060c08301516116f260c0860182611652565b508091505092915050565b600060208201905081810360008301526117178184611661565b905092915050565b600060c08201905081810360008301526117398189611283565b9050611748602083018861116b565b6117556040830187611202565b6117626060830186611202565b61176f6080830185611202565b61177c60a0830184611309565b979650505050505050565b611790816111f8565b811461179b57600080fd5b50565b6000815190506117ad81611787565b92915050565b6000602082840312156117c9576117c8611195565b5b60006117d78482850161179e565b91505092915050565b7f4e487b7100000000000000000000000000000000000000000000000000000000600052602260045260246000fd5b6000600282049050600182168061182757607f821691505b60208210810361183a576118396117e0565b5b50919050565b7f4e487b7100000000000000000000000000000000000000000000000000000000600052601160045260246000fd5b600061187a82611161565b915061188583611161565b925082820390508181111561189d5761189c611840565b5b92915050565b60006118ae82611161565b91506118b983611161565b92508282019050808211156118d1576118d0611840565b5b92915050565b60006118e282611161565b91507fffffffffffffffffffffffffffffffffffffffffffffffffffffffffffffffff820361191457611913611840565b5b600182019050919050565b600061192a826111f8565b9150611935836111f8565b925082820390508181126000841216828213600085121516171561195c5761195b611840565b5b92915050565b600061196d826111f8565b9150611978836111f8565b9250828202611986816111f8565b91507f800000000000000000000000000000000000000000000000000000000000000084146000841216156119be576119bd611840565b5b82820584148315176119d3576119d2611840565b5b5092915050565b7f4e487b7100000000000000000000000000000000000000000000000000000000600052601260045260246000fd5b6000611a14826111f8565b9150611a1f836111f8565b925082611a2f57611a2e6119da565b5b600160000383147f800000000000000000000000000000000000000000000000000000000000000083141615611a6857611a67611840565b5b828205905092915050565b7f4e487b7100000000000000000000000000000000000000000000000000000000600052604160045260246000fd5b60008190508160005260206000209050919050565b60006020601f8301049050919050565b600082821b905092915050565b600060088302611b047fffffffffffffffffffffffffffffffffffffffffffffffffffffffffffffffff82611ac7565b611b0e8683611ac7565b95508019841693508086168417925050509392505050565b6000819050919050565b6000611b4b611b46611b4184611161565b611b26565b611161565b9050919050565b6000819050919050565b611b6583611b30565b611b79611b7182611b52565b848454611ad4565b825550505050565b600090565b611b8e611b81565b611b99818484611b5c565b505050565b5b81811015611bbd57611bb2600082611b86565b600181019050611b9f565b5050565b601f821115611c0257611bd381611aa2565b611bdc84611ab7565b81016020851015611beb578190505b611bff611bf785611ab7565b830182611b9e565b50505b505050565b600082821c905092915050565b6000611c2560001984600802611c07565b1980831691505092915050565b6000611c3e8383611c14565b9150826002028217905092915050565b611c578261122c565b67ffffffffffffffff811115611c7057611c6f611a73565b5b611c7a825461180f565b611c85828285611bc1565b600060209050601f831160018114611cb85760008415611ca6578287015190505b611cb08582611c32565b865550611d18565b601f198416611cc686611aa2565b60005b82811015611cee57848901518255600182019150602085019450602081019050611cc9565b86831015611d0b5784890151611d07601f891682611c14565b8355505b6001600288020188555050505b50505050505056fea264697066735822122081f7e64a3ad968231f2f38655900b02415f8c1d38858e56f3e04033ffcdc684d64736f6c63430008110033a2646970667358221220fe4cb1a5a1ce08df5d487851de3c96235624cb4b56187cdcd3ffba552a17a5b564736f6c63430008110033",
  "linkReferences": {},
  "deployedLinkReferences": {}
}