{
  "_format": "hh-sol-artifact-1",
  "contractName": "Hub",
  "sourceName": "contracts/Hub.sol",
  "abi": [
    {
      "inputs": [
        {
          "internalType": "address",
          "name": "_priceFeed",
          "type": "address"
        }
      ],
      "stateMutability": "nonpayable",
      "type": "constructor"
    },
    {
      "anonymous": false,
      "inputs": [
        {
          "indexed": false,
          "internalType": "uint256",
          "name": "_ticketPrice",
          "type": "uint256"
        },
        {
          "indexed": false,
          "internalType": "address",
          "name": "_newGame",
          "type": "address"
        },
        {
          "indexed": false,
          "internalType": "uint256",
          "name": "_period",
          "type": "uint256"
        },
        {
          "indexed": false,
          "internalType": "address",
          "name": "_deployer",
          "type": "address"
        }
      ],
      "name": "gameCreated",
      "type": "event"
    },
    {
      "inputs": [
        {
          "internalType": "bytes",
          "name": "",
          "type": "bytes"
        }
      ],
      "name": "checkUpkeep",
      "outputs": [
        {
          "internalType": "bool",
          "name": "upkeepNeeded",
          "type": "bool"
        },
        {
          "internalType": "bytes",
          "name": "performData",
          "type": "bytes"
        }
      ],
      "stateMutability": "view",
      "type": "function"
    },
    {
      "inputs": [
        {
          "internalType": "uint256",
          "name": "",
          "type": "uint256"
        }
      ],
      "name": "counterToAddress",
      "outputs": [
        {
          "internalType": "address",
          "name": "_address",
          "type": "address"
        },
        {
          "internalType": "address",
          "name": "_adminAddress",
          "type": "address"
        },
        {
          "internalType": "string",
          "name": "_adminName",
          "type": "string"
        },
        {
          "internalType": "uint256",
          "name": "_ticket",
          "type": "uint256"
        },
        {
          "internalType": "uint256",
          "name": "_period",
          "type": "uint256"
        }
      ],
      "stateMutability": "view",
      "type": "function"
    },
    {
      "inputs": [
        {
          "internalType": "uint256",
          "name": "_ticketPrice",
          "type": "uint256"
        },
        {
          "internalType": "uint256",
          "name": "_period",
          "type": "uint256"
        },
        {
          "internalType": "string",
          "name": "_adminName",
          "type": "string"
        }
      ],
      "name": "createGame",
      "outputs": [
        {
          "internalType": "contract Game",
          "name": "_newGame",
          "type": "address"
        }
      ],
      "stateMutability": "nonpayable",
      "type": "function"
    },
    {
      "inputs": [],
      "name": "games",
      "outputs": [
        {
          "internalType": "uint256",
          "name": "",
          "type": "uint256"
        }
      ],
      "stateMutability": "view",
      "type": "function"
    },
    {
      "inputs": [
        {
          "internalType": "uint256",
          "name": "_index",
          "type": "uint256"
        }
      ],
      "name": "getGameInformation",
      "outputs": [
        {
          "internalType": "address",
          "name": "",
          "type": "address"
        },
        {
          "internalType": "address",
          "name": "",
          "type": "address"
        },
        {
          "internalType": "string",
          "name": "",
          "type": "string"
        },
        {
          "internalType": "uint256",
          "name": "",
          "type": "uint256"
        },
        {
          "internalType": "uint256",
          "name": "",
          "type": "uint256"
        }
      ],
      "stateMutability": "view",
      "type": "function"
    },
    {
      "inputs": [
        {
          "internalType": "bytes",
          "name": "performData",
          "type": "bytes"
        }
      ],
      "name": "performUpkeep",
      "outputs": [],
      "stateMutability": "nonpayable",
      "type": "function"
    },
    {
      "inputs": [],
      "name": "priceFeed",
      "outputs": [
        {
          "internalType": "address",
          "name": "",
          "type": "address"
        }
      ],
      "stateMutability": "view",
      "type": "function"
    }
  ],
  "bytecode": "0x60806040523480156200001157600080fd5b5060405162003ccd38038062003ccd8339818101604052810190620000379190620000e9565b80600160006101000a81548173ffffffffffffffffffffffffffffffffffffffff021916908373ffffffffffffffffffffffffffffffffffffffff160217905550506200011b565b600080fd5b600073ffffffffffffffffffffffffffffffffffffffff82169050919050565b6000620000b18262000084565b9050919050565b620000c381620000a4565b8114620000cf57600080fd5b50565b600081519050620000e381620000b8565b92915050565b6000602082840312156200010257620001016200007f565b5b60006200011284828501620000d2565b91505092915050565b613ba2806200012b6000396000f3fe60806040523480156200001157600080fd5b5060043610620000885760003560e01c8063741bef1a1162000063578063741bef1a146200011e5780639510036d1462000140578063955a015b1462000176578063b2182be414620001985762000088565b8063173763b4146200008d5780634585e33b14620000c75780636e04ff0d14620000e7575b600080fd5b620000ab6004803603810190620000a5919062000968565b620001d2565b604051620000be95949392919062000a8a565b60405180910390f35b620000e56004803603810190620000df919062000b5c565b620002d8565b005b620001056004803603810190620000ff919062000b5c565b6200040f565b6040516200011592919062000c2b565b60405180910390f35b6200012862000550565b60405162000137919062000c5f565b60405180910390f35b6200015e600480360381019062000158919062000cdb565b62000576565b6040516200016d919062000dc6565b60405180910390f35b62000180620007ae565b6040516200018f919062000de3565b60405180910390f35b620001b66004803603810190620001b0919062000968565b620007b4565b604051620001c995949392919062000a8a565b60405180910390f35b60026020528060005260406000206000915090508060000160009054906101000a900473ffffffffffffffffffffffffffffffffffffffff16908060010160009054906101000a900473ffffffffffffffffffffffffffffffffffffffff1690806002018054620002439062000e2f565b80601f0160208091040260200160405190810160405280929190818152602001828054620002719062000e2f565b8015620002c25780601f106200029657610100808354040283529160200191620002c2565b820191906000526020600020905b815481529060010190602001808311620002a457829003601f168201915b5050505050908060030154908060040154905085565b60008282810190620002eb919062000968565b905060006002600083815260200190815260200160002060000160009054906101000a900473ffffffffffffffffffffffffffffffffffffffff16905060008173ffffffffffffffffffffffffffffffffffffffff166310c58e9f6040518163ffffffff1660e01b8152600401602060405180830381865afa15801562000376573d6000803e3d6000fd5b505050506040513d601f19601f820116820180604052508101906200039c919062000e95565b9050801562000408578173ffffffffffffffffffffffffffffffffffffffff16636cbc2ded6040518163ffffffff1660e01b8152600401600060405180830381600087803b158015620003ee57600080fd5b505af115801562000403573d6000803e3d6000fd5b505050505b5050505050565b6000606080600092506000600190505b600160005462000430919062000ef6565b811015620005405760006002600083815260200190815260200160002060000160009054906101000a900473ffffffffffffffffffffffffffffffffffffffff16905060008173ffffffffffffffffffffffffffffffffffffffff166310c58e9f6040518163ffffffff1660e01b8152600401602060405180830381865afa158015620004c1573d6000803e3d6000fd5b505050506040513d601f19601f82011682018060405250810190620004e7919062000e95565b905080156200052857600195508260405160200162000507919062000de3565b60405160208183030381529060405293508584955095505050505062000549565b50508080620005379062000f31565b9150506200041f565b50828192509250505b9250929050565b600160009054906101000a900473ffffffffffffffffffffffffffffffffffffffff1681565b600080600160009054906101000a900473ffffffffffffffffffffffffffffffffffffffff163385858989604051620005af9062000915565b620005c09695949392919062000fc0565b604051809103906000f080158015620005dd573d6000803e3d6000fd5b5090507f91af7291b5bd9e7eeef4a26d110a240e7437fa520b8ca40c81e9541c6c143b598682873360405162000617949392919062001026565b60405180910390a1600160008082825462000633919062000ef6565b925050819055506040518060a001604052808273ffffffffffffffffffffffffffffffffffffffff1681526020013373ffffffffffffffffffffffffffffffffffffffff16815260200185858080601f016020809104026020016040519081016040528093929190818152602001838380828437600081840152601f19601f82011690508083019250505050505050815260200187815260200186815250600260008054815260200190815260200160002060008201518160000160006101000a81548173ffffffffffffffffffffffffffffffffffffffff021916908373ffffffffffffffffffffffffffffffffffffffff16021790555060208201518160010160006101000a81548173ffffffffffffffffffffffffffffffffffffffff021916908373ffffffffffffffffffffffffffffffffffffffff16021790555060408201518160020190816200078a91906200126a565b50606082015181600301556080820151816004015590505080915050949350505050565b60005481565b60008060606000806002600087815260200190815260200160002060000160009054906101000a900473ffffffffffffffffffffffffffffffffffffffff166002600088815260200190815260200160002060010160009054906101000a900473ffffffffffffffffffffffffffffffffffffffff1660026000898152602001908152602001600020600201600260008a815260200190815260200160002060030154600260008b8152602001908152602001600020600401548280546200087c9062000e2f565b80601f0160208091040260200160405190810160405280929190818152602001828054620008aa9062000e2f565b8015620008fb5780601f10620008cf57610100808354040283529160200191620008fb565b820191906000526020600020905b815481529060010190602001808311620008dd57829003601f168201915b505050505092509450945094509450945091939590929450565b61281b806200135283390190565b600080fd5b600080fd5b6000819050919050565b62000942816200092d565b81146200094e57600080fd5b50565b600081359050620009628162000937565b92915050565b60006020828403121562000981576200098062000923565b5b6000620009918482850162000951565b91505092915050565b600073ffffffffffffffffffffffffffffffffffffffff82169050919050565b6000620009c7826200099a565b9050919050565b620009d981620009ba565b82525050565b600081519050919050565b600082825260208201905092915050565b60005b8381101562000a1b578082015181840152602081019050620009fe565b60008484015250505050565b6000601f19601f8301169050919050565b600062000a4582620009df565b62000a518185620009ea565b935062000a63818560208601620009fb565b62000a6e8162000a27565b840191505092915050565b62000a84816200092d565b82525050565b600060a08201905062000aa16000830188620009ce565b62000ab06020830187620009ce565b818103604083015262000ac4818662000a38565b905062000ad5606083018562000a79565b62000ae4608083018462000a79565b9695505050505050565b600080fd5b600080fd5b600080fd5b60008083601f84011262000b165762000b1562000aee565b5b8235905067ffffffffffffffff81111562000b365762000b3562000af3565b5b60208301915083600182028301111562000b555762000b5462000af8565b5b9250929050565b6000806020838503121562000b765762000b7562000923565b5b600083013567ffffffffffffffff81111562000b975762000b9662000928565b5b62000ba58582860162000afd565b92509250509250929050565b60008115159050919050565b62000bc88162000bb1565b82525050565b600081519050919050565b600082825260208201905092915050565b600062000bf78262000bce565b62000c03818562000bd9565b935062000c15818560208601620009fb565b62000c208162000a27565b840191505092915050565b600060408201905062000c42600083018562000bbd565b818103602083015262000c56818462000bea565b90509392505050565b600060208201905062000c766000830184620009ce565b92915050565b60008083601f84011262000c955762000c9462000aee565b5b8235905067ffffffffffffffff81111562000cb55762000cb462000af3565b5b60208301915083600182028301111562000cd45762000cd362000af8565b5b9250929050565b6000806000806060858703121562000cf85762000cf762000923565b5b600062000d088782880162000951565b945050602062000d1b8782880162000951565b935050604085013567ffffffffffffffff81111562000d3f5762000d3e62000928565b5b62000d4d8782880162000c7c565b925092505092959194509250565b6000819050919050565b600062000d8662000d8062000d7a846200099a565b62000d5b565b6200099a565b9050919050565b600062000d9a8262000d65565b9050919050565b600062000dae8262000d8d565b9050919050565b62000dc08162000da1565b82525050565b600060208201905062000ddd600083018462000db5565b92915050565b600060208201905062000dfa600083018462000a79565b92915050565b7f4e487b7100000000000000000000000000000000000000000000000000000000600052602260045260246000fd5b6000600282049050600182168062000e4857607f821691505b60208210810362000e5e5762000e5d62000e00565b5b50919050565b62000e6f8162000bb1565b811462000e7b57600080fd5b50565b60008151905062000e8f8162000e64565b92915050565b60006020828403121562000eae5762000ead62000923565b5b600062000ebe8482850162000e7e565b91505092915050565b7f4e487b7100000000000000000000000000000000000000000000000000000000600052601160045260246000fd5b600062000f03826200092d565b915062000f10836200092d565b925082820190508082111562000f2b5762000f2a62000ec7565b5b92915050565b600062000f3e826200092d565b91507fffffffffffffffffffffffffffffffffffffffffffffffffffffffffffffffff820362000f735762000f7262000ec7565b5b600182019050919050565b82818337600083830152505050565b600062000f9b8385620009ea565b935062000faa83858462000f7e565b62000fb58362000a27565b840190509392505050565b600060a08201905062000fd76000830189620009ce565b62000fe66020830188620009ce565b818103604083015262000ffb81868862000f8d565b90506200100c606083018562000a79565b6200101b608083018462000a79565b979650505050505050565b60006080820190506200103d600083018762000a79565b6200104c6020830186620009ce565b6200105b604083018562000a79565b6200106a6060830184620009ce565b95945050505050565b7f4e487b7100000000000000000000000000000000000000000000000000000000600052604160045260246000fd5b60008190508160005260206000209050919050565b60006020601f8301049050919050565b600082821b905092915050565b600060088302620011067fffffffffffffffffffffffffffffffffffffffffffffffffffffffffffffffff82620010c7565b620011128683620010c7565b95508019841693508086168417925050509392505050565b60006200114b620011456200113f846200092d565b62000d5b565b6200092d565b9050919050565b6000819050919050565b62001167836200112a565b6200117f620011768262001152565b848454620010d4565b825550505050565b600090565b6200119662001187565b620011a38184846200115c565b505050565b5b81811015620011cb57620011bf6000826200118c565b600181019050620011a9565b5050565b601f8211156200121a57620011e481620010a2565b620011ef84620010b7565b81016020851015620011ff578190505b620012176200120e85620010b7565b830182620011a8565b50505b505050565b600082821c905092915050565b60006200123f600019846008026200121f565b1980831691505092915050565b60006200125a83836200122c565b9150826002028217905092915050565b6200127582620009df565b67ffffffffffffffff81111562001291576200129062001073565b5b6200129d825462000e2f565b620012aa828285620011cf565b600060209050601f831160018114620012e25760008415620012cd578287015190505b620012d985826200124c565b86555062001349565b601f198416620012f286620010a2565b60005b828110156200131c57848901518255600182019150602085019450602081019050620012f5565b868310156200133c578489015162001338601f8916826200122c565b8355505b6001600288020188555050505b50505050505056fe60806040526001600760006101000a81548160ff02191690831515021790555060006008553480156200003157600080fd5b506040516200281b3803806200281b833981810160405281019062000057919062000336565b846000806101000a81548173ffffffffffffffffffffffffffffffffffffffff021916908373ffffffffffffffffffffffffffffffffffffffff16021790555083600160006101000a81548173ffffffffffffffffffffffffffffffffffffffff021916908373ffffffffffffffffffffffffffffffffffffffff16021790555081600381905550806005819055508260029081620000f791906200061e565b50505050505062000705565b6000604051905090565b600080fd5b600080fd5b600073ffffffffffffffffffffffffffffffffffffffff82169050919050565b6000620001448262000117565b9050919050565b620001568162000137565b81146200016257600080fd5b50565b60008151905062000176816200014b565b92915050565b600080fd5b600080fd5b6000601f19601f8301169050919050565b7f4e487b7100000000000000000000000000000000000000000000000000000000600052604160045260246000fd5b620001d18262000186565b810181811067ffffffffffffffff82111715620001f357620001f262000197565b5b80604052505050565b60006200020862000103565b9050620002168282620001c6565b919050565b600067ffffffffffffffff82111562000239576200023862000197565b5b620002448262000186565b9050602081019050919050565b60005b838110156200027157808201518184015260208101905062000254565b60008484015250505050565b6000620002946200028e846200021b565b620001fc565b905082815260208101848484011115620002b357620002b262000181565b5b620002c084828562000251565b509392505050565b600082601f830112620002e057620002df6200017c565b5b8151620002f28482602086016200027d565b91505092915050565b6000819050919050565b6200031081620002fb565b81146200031c57600080fd5b50565b600081519050620003308162000305565b92915050565b600080600080600060a086880312156200035557620003546200010d565b5b6000620003658882890162000165565b9550506020620003788882890162000165565b945050604086015167ffffffffffffffff8111156200039c576200039b62000112565b5b620003aa88828901620002c8565b9350506060620003bd888289016200031f565b9250506080620003d0888289016200031f565b9150509295509295909350565b600081519050919050565b7f4e487b7100000000000000000000000000000000000000000000000000000000600052602260045260246000fd5b600060028204905060018216806200043057607f821691505b602082108103620004465762000445620003e8565b5b50919050565b60008190508160005260206000209050919050565b60006020601f8301049050919050565b600082821b905092915050565b600060088302620004b07fffffffffffffffffffffffffffffffffffffffffffffffffffffffffffffffff8262000471565b620004bc868362000471565b95508019841693508086168417925050509392505050565b6000819050919050565b6000620004ff620004f9620004f384620002fb565b620004d4565b620002fb565b9050919050565b6000819050919050565b6200051b83620004de565b620005336200052a8262000506565b8484546200047e565b825550505050565b600090565b6200054a6200053b565b6200055781848462000510565b505050565b5b818110156200057f576200057360008262000540565b6001810190506200055d565b5050565b601f821115620005ce5762000598816200044c565b620005a38462000461565b81016020851015620005b3578190505b620005cb620005c28562000461565b8301826200055c565b50505b505050565b600082821c905092915050565b6000620005f360001984600802620005d3565b1980831691505092915050565b60006200060e8383620005e0565b9150826002028217905092915050565b6200062982620003dd565b67ffffffffffffffff81111562000645576200064462000197565b5b62000651825462000417565b6200065e82828562000583565b600060209050601f83116001811462000696576000841562000681578287015190505b6200068d858262000600565b865550620006fd565b601f198416620006a6866200044c565b60005b82811015620006d057848901518255600182019150602085019450602081019050620006a9565b86831015620006f05784890151620006ec601f891682620005e0565b8355505b6001600288020188555050505b505050505050565b61210680620007156000396000f3fe6080604052600436106101405760003560e01c806370f838aa116100b6578063d65ab5f21161006f578063d65ab5f214610414578063e6718d141461042b578063ed81378a1461046d578063ef78d4fd14610498578063f9832706146104c3578063fc6f9468146104da57610140565b806370f838aa14610335578063a487bcd81461034c578063a565efff14610377578063a8a23e391461038e578063acc591c7146103b9578063be9a6555146103e957610140565b80631a2c8bc2116101085780631a2c8bc21461022e5780632d487eba1461024557806350e757c6146102885780635c975abb146102c857806361bc221a146102f35780636cbc2ded1461031e57610140565b806310c58e9f1461014557806312065fe0146101705780631209b1f61461019b578063129a14f2146101c6578063188ec35614610203575b600080fd5b34801561015157600080fd5b5061015a610505565b60405161016791906114e8565b60405180910390f35b34801561017c57600080fd5b5061018561053c565b604051610192919061151c565b60405180910390f35b3480156101a757600080fd5b506101b0610544565b6040516101bd919061151c565b60405180910390f35b3480156101d257600080fd5b506101ed60048036038101906101e8919061156d565b61054a565b6040516101fa91906115b3565b60405180910390f35b34801561020f57600080fd5b5061021861090b565b604051610225919061151c565b60405180910390f35b34801561023a57600080fd5b50610243610913565b005b34801561025157600080fd5b5061026c6004803603810190610267919061156d565b610a21565b60405161027f979695949392919061169f565b60405180910390f35b34801561029457600080fd5b506102af60048036038101906102aa919061156d565b610b18565b6040516102bf9493929190611715565b60405180910390f35b3480156102d457600080fd5b506102dd610b48565b6040516102ea91906114e8565b60405180910390f35b3480156102ff57600080fd5b50610308610b5b565b604051610315919061151c565b60405180910390f35b34801561032a57600080fd5b50610333610b61565b005b34801561034157600080fd5b5061034a610c60565b005b34801561035857600080fd5b50610361610dbd565b60405161036e919061151c565b60405180910390f35b34801561038357600080fd5b5061038c610dc3565b005b34801561039a57600080fd5b506103a3610e67565b6040516103b0919061175a565b60405180910390f35b6103d360048036038101906103ce91906117e1565b610ef5565b6040516103e09190611963565b60405180910390f35b3480156103f557600080fd5b506103fe6110bc565b60405161040b919061151c565b60405180910390f35b34801561042057600080fd5b506104296110c2565b005b34801561043757600080fd5b50610452600480360381019061044d919061156d565b61126b565b60405161046496959493929190611985565b60405180910390f35b34801561047957600080fd5b506104826113cc565b60405161048f919061151c565b60405180910390f35b3480156104a457600080fd5b506104ad6113d2565b6040516104ba919061151c565b60405180910390f35b3480156104cf57600080fd5b506104d86113d8565b005b3480156104e657600080fd5b506104ef611452565b6040516104fc91906119ed565b60405180910390f35b6000801515600760009054906101000a900460ff1615151480156105375750600554600654426105359190611a37565b115b905090565b600047905090565b60035481565b600080600083036105eb5760008054906101000a900473ffffffffffffffffffffffffffffffffffffffff1673ffffffffffffffffffffffffffffffffffffffff16630f00fa116040518163ffffffff1660e01b8152600401602060405180830381865afa1580156105c0573d6000803e3d6000fd5b505050506040513d601f19601f820116820180604052508101906105e49190611a97565b9050610902565b600183036106895760008054906101000a900473ffffffffffffffffffffffffffffffffffffffff1673ffffffffffffffffffffffffffffffffffffffff166394e992566040518163ffffffff1660e01b8152600401602060405180830381865afa15801561065e573d6000803e3d6000fd5b505050506040513d601f19601f820116820180604052508101906106829190611a97565b9050610901565b600283036107275760008054906101000a900473ffffffffffffffffffffffffffffffffffffffff1673ffffffffffffffffffffffffffffffffffffffff1663566a0c276040518163ffffffff1660e01b8152600401602060405180830381865afa1580156106fc573d6000803e3d6000fd5b505050506040513d601f19601f820116820180604052508101906107209190611a97565b9050610900565b600383036107c55760008054906101000a900473ffffffffffffffffffffffffffffffffffffffff1673ffffffffffffffffffffffffffffffffffffffff1663f77e499c6040518163ffffffff1660e01b8152600401602060405180830381865afa15801561079a573d6000803e3d6000fd5b505050506040513d601f19601f820116820180604052508101906107be9190611a97565b90506108ff565b600483036108635760008054906101000a900473ffffffffffffffffffffffffffffffffffffffff1673ffffffffffffffffffffffffffffffffffffffff1663b4768dd46040518163ffffffff1660e01b8152600401602060405180830381865afa158015610838573d6000803e3d6000fd5b505050506040513d601f19601f8201168201806040525081019061085c9190611a97565b90506108fe565b600583036108fd5760008054906101000a900473ffffffffffffffffffffffffffffffffffffffff1673ffffffffffffffffffffffffffffffffffffffff166314ec67576040518163ffffffff1660e01b8152600401602060405180830381865afa1580156108d6573d6000803e3d6000fd5b505050506040513d601f19601f820116820180604052508101906108fa9190611a97565b90505b5b5b5b5b5b80915050919050565b600042905090565b6000600854476109239190611af3565b90506000600190505b600160045461093b9190611b24565b811015610a025760011515600a600083815260200190815260200160002060060160009054906101000a900460ff161515036109ef57600a600082815260200190815260200160002060010160009054906101000a900473ffffffffffffffffffffffffffffffffffffffff1673ffffffffffffffffffffffffffffffffffffffff166108fc839081150290604051600060405180830381858888f193505050501580156109ed573d6000803e3d6000fd5b505b80806109fa90611b58565b91505061092c565b506001600760006101000a81548160ff02191690831515021790555050565b600a602052806000526040600020600091509050806000018054610a4490611bcf565b80601f0160208091040260200160405190810160405280929190818152602001828054610a7090611bcf565b8015610abd5780601f10610a9257610100808354040283529160200191610abd565b820191906000526020600020905b815481529060010190602001808311610aa057829003601f168201915b5050505050908060010160009054906101000a900473ffffffffffffffffffffffffffffffffffffffff16908060020154908060030154908060040154908060050154908060060160009054906101000a900460ff16905087565b600b6020528060005260406000206000915090508060000154908060010154908060020154908060030154905084565b600760009054906101000a900460ff1681565b60045481565b600080600190505b6001600454610b789190611b24565b811015610c5457600a60008281526020019081526020016000206002015491506000600b60008481526020019081526020016000206002015414610bec57600b600083815260200190815260200160002060020154600a600083815260200190815260200160002060040181905550610c41565b610bf58261054a565b600b600084815260200190815260200160002060020181905550600b600083815260200190815260200160002060020154600a6000838152602001908152602001600020600401819055505b8080610c4c90611b58565b915050610b69565b50610c5d610c60565b50565b6000806000806000600190505b6001600454610c7c9190611b24565b811015610dae57600a60008281526020019081526020016000206002015494506000600b60008781526020019081526020016000206003015414610cf057600b600086815260200190815260200160002060030154600a600083815260200190815260200160002060050181905550610d9b565b600b6000868152602001908152602001600020600101549350600b600086815260200190815260200160002060020154925083670de0b6b3a76400008585610d389190611c00565b610d429190611c43565b610d4c9190611cbb565b915081600b600087815260200190815260200160002060030181905550600b600086815260200190815260200160002060030154600a6000838152602001908152602001600020600501819055505b8080610da690611b58565b915050610c6d565b50610db76113d8565b50505050565b60085481565b6000600190505b6001600454610dd99190611b24565b811015610e5c57600954600a60008381526020019081526020016000206002015403610e49576001600a600083815260200190815260200160002060060160006101000a81548160ff021916908315150217905550600160086000828254610e419190611b24565b925050819055505b8080610e5490611b58565b915050610dca565b50610e65610913565b565b60028054610e7490611bcf565b80601f0160208091040260200160405190810160405280929190818152602001828054610ea090611bcf565b8015610eed5780601f10610ec257610100808354040283529160200191610eed565b820191906000526020600020905b815481529060010190602001808311610ed057829003601f168201915b505050505081565b610efd611478565b600354341015610f42576040517f08c379a0000000000000000000000000000000000000000000000000000000008152600401610f3990611d71565b60405180910390fd5b60006040518060e0016040528086868080601f016020809104026020016040519081016040528093929190818152602001838380828437600081840152601f19601f8201169050808301925050505050505081526020013373ffffffffffffffffffffffffffffffffffffffff168152602001848152602001600081526020016000815260200160008152602001600015158152509050600160046000828254610fec9190611b24565b9250508190555080600a60006004548152602001908152602001600020600082015181600001908161101e9190611f6c565b5060208201518160010160006101000a81548173ffffffffffffffffffffffffffffffffffffffff021916908373ffffffffffffffffffffffffffffffffffffffff16021790555060408201518160020155606082015181600301556080820151816004015560a0820151816005015560c08201518160060160006101000a81548160ff021916908315150217905550905050809150509392505050565b60065481565b600160009054906101000a900473ffffffffffffffffffffffffffffffffffffffff1673ffffffffffffffffffffffffffffffffffffffff163373ffffffffffffffffffffffffffffffffffffffff1614611152576040517f08c379a0000000000000000000000000000000000000000000000000000000008152600401611149906120b0565b60405180910390fd5b600080600190505b60016004546111699190611b24565b81101561124557600a60008281526020019081526020016000206002015491506000600b600084815260200190815260200160002060010154146111dd57600b600083815260200190815260200160002060010154600a600083815260200190815260200160002060030181905550611232565b6111e68261054a565b600b600084815260200190815260200160002060010181905550600b600083815260200190815260200160002060010154600a6000838152602001908152602001600020600301819055505b808061123d90611b58565b91505061115a565b50426006819055506000600760006101000a81548160ff02191690831515021790555050565b6060600080600080600080600a6000898152602001908152602001600020600001805461129790611bcf565b80601f01602080910402602001604051908101604052809291908181526020018280546112c390611bcf565b80156113105780601f106112e557610100808354040283529160200191611310565b820191906000526020600020905b8154815290600101906020018083116112f357829003601f168201915b505050505090506000600a60008a81526020019081526020016000206002015490506000600a60008b81526020019081526020016000206003015490506000600a60008c81526020019081526020016000206004015490506000600a60008d81526020019081526020016000206005015490506000600a60008e815260200190815260200160002060060160009054906101000a900460ff1690508585858585859b509b509b509b509b509b5050505050505091939550919395565b60095481565b60055481565b600080600080600190505b600681101561143d57600b6000838152602001908152602001600020600301549350600b60008281526020019081526020016000206003015492508383131561142a578091505b808061143590611b58565b9150506113e3565b508060098190555061144d610dc3565b505050565b600160009054906101000a900473ffffffffffffffffffffffffffffffffffffffff1681565b6040518060e0016040528060608152602001600073ffffffffffffffffffffffffffffffffffffffff168152602001600081526020016000815260200160008152602001600081526020016000151581525090565b60008115159050919050565b6114e2816114cd565b82525050565b60006020820190506114fd60008301846114d9565b92915050565b6000819050919050565b61151681611503565b82525050565b6000602082019050611531600083018461150d565b92915050565b600080fd5b600080fd5b61154a81611503565b811461155557600080fd5b50565b60008135905061156781611541565b92915050565b60006020828403121561158357611582611537565b5b600061159184828501611558565b91505092915050565b6000819050919050565b6115ad8161159a565b82525050565b60006020820190506115c860008301846115a4565b92915050565b600081519050919050565b600082825260208201905092915050565b60005b838110156116085780820151818401526020810190506115ed565b60008484015250505050565b6000601f19601f8301169050919050565b6000611630826115ce565b61163a81856115d9565b935061164a8185602086016115ea565b61165381611614565b840191505092915050565b600073ffffffffffffffffffffffffffffffffffffffff82169050919050565b60006116898261165e565b9050919050565b6116998161167e565b82525050565b600060e08201905081810360008301526116b9818a611625565b90506116c86020830189611690565b6116d5604083018861150d565b6116e260608301876115a4565b6116ef60808301866115a4565b6116fc60a08301856115a4565b61170960c08301846114d9565b98975050505050505050565b600060808201905061172a600083018761150d565b61173760208301866115a4565b61174460408301856115a4565b61175160608301846115a4565b95945050505050565b600060208201905081810360008301526117748184611625565b905092915050565b600080fd5b600080fd5b600080fd5b60008083601f8401126117a1576117a061177c565b5b8235905067ffffffffffffffff8111156117be576117bd611781565b5b6020830191508360018202830111156117da576117d9611786565b5b9250929050565b6000806000604084860312156117fa576117f9611537565b5b600084013567ffffffffffffffff8111156118185761181761153c565b5b6118248682870161178b565b9350935050602061183786828701611558565b9150509250925092565b600082825260208201905092915050565b600061185d826115ce565b6118678185611841565b93506118778185602086016115ea565b61188081611614565b840191505092915050565b6118948161167e565b82525050565b6118a381611503565b82525050565b6118b28161159a565b82525050565b6118c1816114cd565b82525050565b600060e08301600083015184820360008601526118e48282611852565b91505060208301516118f9602086018261188b565b50604083015161190c604086018261189a565b50606083015161191f60608601826118a9565b50608083015161193260808601826118a9565b5060a083015161194560a08601826118a9565b5060c083015161195860c08601826118b8565b508091505092915050565b6000602082019050818103600083015261197d81846118c7565b905092915050565b600060c082019050818103600083015261199f8189611625565b90506119ae602083018861150d565b6119bb60408301876115a4565b6119c860608301866115a4565b6119d560808301856115a4565b6119e260a08301846114d9565b979650505050505050565b6000602082019050611a026000830184611690565b92915050565b7f4e487b7100000000000000000000000000000000000000000000000000000000600052601160045260246000fd5b6000611a4282611503565b9150611a4d83611503565b9250828203905081811115611a6557611a64611a08565b5b92915050565b611a748161159a565b8114611a7f57600080fd5b50565b600081519050611a9181611a6b565b92915050565b600060208284031215611aad57611aac611537565b5b6000611abb84828501611a82565b91505092915050565b7f4e487b7100000000000000000000000000000000000000000000000000000000600052601260045260246000fd5b6000611afe82611503565b9150611b0983611503565b925082611b1957611b18611ac4565b5b828204905092915050565b6000611b2f82611503565b9150611b3a83611503565b9250828201905080821115611b5257611b51611a08565b5b92915050565b6000611b6382611503565b91507fffffffffffffffffffffffffffffffffffffffffffffffffffffffffffffffff8203611b9557611b94611a08565b5b600182019050919050565b7f4e487b7100000000000000000000000000000000000000000000000000000000600052602260045260246000fd5b60006002820490506001821680611be757607f821691505b602082108103611bfa57611bf9611ba0565b5b50919050565b6000611c0b8261159a565b9150611c168361159a565b9250828203905081811260008412168282136000851215161715611c3d57611c3c611a08565b5b92915050565b6000611c4e8261159a565b9150611c598361159a565b9250828202611c678161159a565b91507f80000000000000000000000000000000000000000000000000000000000000008414600084121615611c9f57611c9e611a08565b5b8282058414831517611cb457611cb3611a08565b5b5092915050565b6000611cc68261159a565b9150611cd18361159a565b925082611ce157611ce0611ac4565b5b600160000383147f800000000000000000000000000000000000000000000000000000000000000083141615611d1a57611d19611a08565b5b828205905092915050565b7f4e6f7420656e6f7567682066756e64732070726f766964656400000000000000600082015250565b6000611d5b6019836115d9565b9150611d6682611d25565b602082019050919050565b60006020820190508181036000830152611d8a81611d4e565b9050919050565b7f4e487b7100000000000000000000000000000000000000000000000000000000600052604160045260246000fd5b60008190508160005260206000209050919050565b60006020601f8301049050919050565b600082821b905092915050565b600060088302611e227fffffffffffffffffffffffffffffffffffffffffffffffffffffffffffffffff82611de5565b611e2c8683611de5565b95508019841693508086168417925050509392505050565b6000819050919050565b6000611e69611e64611e5f84611503565b611e44565b611503565b9050919050565b6000819050919050565b611e8383611e4e565b611e97611e8f82611e70565b848454611df2565b825550505050565b600090565b611eac611e9f565b611eb7818484611e7a565b505050565b5b81811015611edb57611ed0600082611ea4565b600181019050611ebd565b5050565b601f821115611f2057611ef181611dc0565b611efa84611dd5565b81016020851015611f09578190505b611f1d611f1585611dd5565b830182611ebc565b50505b505050565b600082821c905092915050565b6000611f4360001984600802611f25565b1980831691505092915050565b6000611f5c8383611f32565b9150826002028217905092915050565b611f75826115ce565b67ffffffffffffffff811115611f8e57611f8d611d91565b5b611f988254611bcf565b611fa3828285611edf565b600060209050601f831160018114611fd65760008415611fc4578287015190505b611fce8582611f50565b865550612036565b601f198416611fe486611dc0565b60005b8281101561200c57848901518255600182019150602085019450602081019050611fe7565b868310156120295784890151612025601f891682611f32565b8355505b6001600288020188555050505b505050505050565b7f6d73672e73656e646572206973206e6f742061646d696e21206f6e6c7920616460008201527f6d696e2063616e207374617274207468652067616d6500000000000000000000602082015250565b600061209a6036836115d9565b91506120a58261203e565b604082019050919050565b600060208201905081810360008301526120c98161208d565b905091905056fea2646970667358221220c2d5ca397db2b16a6e9a549cba2c1c60ac44c491a5568c6e565252fcbd60c61664736f6c63430008110033a264697066735822122064746ed24272fc564153ddb468eee78a6a50e7fd8ca6133c43f4770d16cee4c864736f6c63430008110033",
  "linkReferences": {},
  "deployedLinkReferences": {}
}